{
  "_format": "hh-sol-artifact-1",
  "contractName": "NFTTCG",
  "sourceName": "contracts/NFTTCG.sol",
  "abi": [
    {
      "inputs": [
        {
          "internalType": "address",
          "name": "initialOwner",
          "type": "address"
        }
      ],
      "stateMutability": "nonpayable",
      "type": "constructor"
    },
    {
      "inputs": [
        {
          "internalType": "address",
          "name": "sender",
          "type": "address"
        },
        {
          "internalType": "uint256",
          "name": "tokenId",
          "type": "uint256"
        },
        {
          "internalType": "address",
          "name": "owner",
          "type": "address"
        }
      ],
      "name": "ERC721IncorrectOwner",
      "type": "error"
    },
    {
      "inputs": [
        {
          "internalType": "address",
          "name": "operator",
          "type": "address"
        },
        {
          "internalType": "uint256",
          "name": "tokenId",
          "type": "uint256"
        }
      ],
      "name": "ERC721InsufficientApproval",
      "type": "error"
    },
    {
      "inputs": [
        {
          "internalType": "address",
          "name": "approver",
          "type": "address"
        }
      ],
      "name": "ERC721InvalidApprover",
      "type": "error"
    },
    {
      "inputs": [
        {
          "internalType": "address",
          "name": "operator",
          "type": "address"
        }
      ],
      "name": "ERC721InvalidOperator",
      "type": "error"
    },
    {
      "inputs": [
        {
          "internalType": "address",
          "name": "owner",
          "type": "address"
        }
      ],
      "name": "ERC721InvalidOwner",
      "type": "error"
    },
    {
      "inputs": [
        {
          "internalType": "address",
          "name": "receiver",
          "type": "address"
        }
      ],
      "name": "ERC721InvalidReceiver",
      "type": "error"
    },
    {
      "inputs": [
        {
          "internalType": "address",
          "name": "sender",
          "type": "address"
        }
      ],
      "name": "ERC721InvalidSender",
      "type": "error"
    },
    {
      "inputs": [
        {
          "internalType": "uint256",
          "name": "tokenId",
          "type": "uint256"
        }
      ],
      "name": "ERC721NonexistentToken",
      "type": "error"
    },
    {
      "inputs": [
        {
          "internalType": "address",
          "name": "owner",
          "type": "address"
        }
      ],
      "name": "OwnableInvalidOwner",
      "type": "error"
    },
    {
      "inputs": [
        {
          "internalType": "address",
          "name": "account",
          "type": "address"
        }
      ],
      "name": "OwnableUnauthorizedAccount",
      "type": "error"
    },
    {
      "anonymous": false,
      "inputs": [
        {
          "indexed": true,
          "internalType": "address",
          "name": "owner",
          "type": "address"
        },
        {
          "indexed": true,
          "internalType": "address",
          "name": "approved",
          "type": "address"
        },
        {
          "indexed": true,
          "internalType": "uint256",
          "name": "tokenId",
          "type": "uint256"
        }
      ],
      "name": "Approval",
      "type": "event"
    },
    {
      "anonymous": false,
      "inputs": [
        {
          "indexed": true,
          "internalType": "address",
          "name": "owner",
          "type": "address"
        },
        {
          "indexed": true,
          "internalType": "address",
          "name": "operator",
          "type": "address"
        },
        {
          "indexed": false,
          "internalType": "bool",
          "name": "approved",
          "type": "bool"
        }
      ],
      "name": "ApprovalForAll",
      "type": "event"
    },
    {
      "anonymous": false,
      "inputs": [
        {
          "indexed": false,
          "internalType": "uint256",
          "name": "_fromTokenId",
          "type": "uint256"
        },
        {
          "indexed": false,
          "internalType": "uint256",
          "name": "_toTokenId",
          "type": "uint256"
        }
      ],
      "name": "BatchMetadataUpdate",
      "type": "event"
    },
    {
      "anonymous": false,
      "inputs": [
        {
          "indexed": false,
          "internalType": "uint256",
          "name": "_tokenId",
          "type": "uint256"
        }
      ],
      "name": "MetadataUpdate",
      "type": "event"
    },
    {
      "anonymous": false,
      "inputs": [
        {
          "indexed": true,
          "internalType": "address",
          "name": "recipient",
          "type": "address"
        },
        {
          "indexed": true,
          "internalType": "uint256",
          "name": "tokenId",
          "type": "uint256"
        },
        {
          "indexed": false,
          "internalType": "string",
          "name": "metadataURI",
          "type": "string"
        }
      ],
      "name": "NFTMinted",
      "type": "event"
    },
    {
      "anonymous": false,
      "inputs": [
        {
          "indexed": true,
          "internalType": "address",
          "name": "owner",
          "type": "address"
        },
        {
          "indexed": false,
          "internalType": "string",
          "name": "name",
          "type": "string"
        }
      ],
      "name": "NewPlayer",
      "type": "event"
    },
    {
      "anonymous": false,
      "inputs": [
        {
          "indexed": true,
          "internalType": "address",
          "name": "previousOwner",
          "type": "address"
        },
        {
          "indexed": true,
          "internalType": "address",
          "name": "newOwner",
          "type": "address"
        }
      ],
      "name": "OwnershipTransferred",
      "type": "event"
    },
    {
      "anonymous": false,
      "inputs": [
        {
          "indexed": true,
          "internalType": "address",
          "name": "from",
          "type": "address"
        },
        {
          "indexed": true,
          "internalType": "address",
          "name": "to",
          "type": "address"
        },
        {
          "indexed": true,
          "internalType": "uint256",
          "name": "tokenId",
          "type": "uint256"
        }
      ],
      "name": "Transfer",
      "type": "event"
    },
    {
      "inputs": [],
      "name": "_nextTokenId",
      "outputs": [
        {
          "internalType": "uint256",
          "name": "",
          "type": "uint256"
        }
      ],
      "stateMutability": "view",
      "type": "function"
    },
    {
      "inputs": [
        {
          "internalType": "address",
          "name": "to",
          "type": "address"
        },
        {
          "internalType": "uint256",
          "name": "tokenId",
          "type": "uint256"
        }
      ],
      "name": "approve",
      "outputs": [],
      "stateMutability": "nonpayable",
      "type": "function"
    },
    {
      "inputs": [
        {
          "internalType": "address",
          "name": "owner",
          "type": "address"
        }
      ],
      "name": "balanceOf",
      "outputs": [
        {
          "internalType": "uint256",
          "name": "",
          "type": "uint256"
        }
      ],
      "stateMutability": "view",
      "type": "function"
    },
    {
      "inputs": [],
      "name": "battleCount",
      "outputs": [
        {
          "internalType": "uint256",
          "name": "",
          "type": "uint256"
        }
      ],
      "stateMutability": "view",
      "type": "function"
    },
    {
      "inputs": [
        {
          "internalType": "uint256",
          "name": "",
          "type": "uint256"
        }
      ],
      "name": "battles",
      "outputs": [
        {
          "internalType": "address",
          "name": "host",
          "type": "address"
        },
        {
          "internalType": "address",
          "name": "opponentAddress",
          "type": "address"
        },
        {
          "internalType": "string",
          "name": "battleMode",
          "type": "string"
        },
        {
          "internalType": "bool",
          "name": "battleStatus",
          "type": "bool"
        }
      ],
      "stateMutability": "view",
      "type": "function"
    },
    {
      "inputs": [
        {
          "internalType": "string",
          "name": "",
          "type": "string"
        },
        {
          "internalType": "uint256",
          "name": "",
          "type": "uint256"
        }
      ],
      "name": "battlesByGameMode",
      "outputs": [
        {
          "internalType": "uint256",
          "name": "",
          "type": "uint256"
        }
      ],
      "stateMutability": "view",
      "type": "function"
    },
    {
      "inputs": [],
      "name": "count",
      "outputs": [
        {
          "internalType": "uint256",
          "name": "",
          "type": "uint256"
        }
      ],
      "stateMutability": "view",
      "type": "function"
    },
    {
      "inputs": [
        {
          "internalType": "address",
          "name": "host",
          "type": "address"
        },
        {
          "internalType": "string",
          "name": "_battleMode",
          "type": "string"
        }
      ],
      "name": "createBattle",
      "outputs": [],
      "stateMutability": "nonpayable",
      "type": "function"
    },
    {
      "inputs": [],
      "name": "getAllPlayers",
      "outputs": [
        {
          "components": [
            {
              "internalType": "address",
              "name": "playerAddress",
              "type": "address"
            },
            {
              "internalType": "string",
              "name": "playerName",
              "type": "string"
            },
            {
              "internalType": "string",
              "name": "emailId",
              "type": "string"
            },
            {
              "internalType": "uint256[]",
              "name": "playerCards",
              "type": "uint256[]"
            }
          ],
          "internalType": "struct NFTTCG.Player[]",
          "name": "",
          "type": "tuple[]"
        }
      ],
      "stateMutability": "view",
      "type": "function"
    },
    {
      "inputs": [
        {
          "internalType": "uint256",
          "name": "tokenId",
          "type": "uint256"
        }
      ],
      "name": "getApproved",
      "outputs": [
        {
          "internalType": "address",
          "name": "",
          "type": "address"
        }
      ],
      "stateMutability": "view",
      "type": "function"
    },
    {
      "inputs": [
        {
          "internalType": "uint256",
          "name": "tokenId",
          "type": "uint256"
        }
      ],
      "name": "getCardOwner",
      "outputs": [
        {
          "internalType": "address",
          "name": "",
          "type": "address"
        }
      ],
      "stateMutability": "view",
      "type": "function"
    },
    {
      "inputs": [
        {
          "internalType": "string",
          "name": "_gameMode",
          "type": "string"
        }
      ],
      "name": "getIncompleteBattleIds",
      "outputs": [
        {
          "internalType": "uint256[]",
          "name": "",
          "type": "uint256[]"
        }
      ],
      "stateMutability": "view",
      "type": "function"
    },
    {
      "inputs": [
        {
          "internalType": "address",
          "name": "addr",
          "type": "address"
        }
      ],
      "name": "getPlayer",
      "outputs": [
        {
          "components": [
            {
              "internalType": "address",
              "name": "playerAddress",
              "type": "address"
            },
            {
              "internalType": "string",
              "name": "playerName",
              "type": "string"
            },
            {
              "internalType": "string",
              "name": "emailId",
              "type": "string"
            },
            {
              "internalType": "uint256[]",
              "name": "playerCards",
              "type": "uint256[]"
            }
          ],
          "internalType": "struct NFTTCG.Player",
          "name": "",
          "type": "tuple"
        }
      ],
      "stateMutability": "view",
      "type": "function"
    },
    {
      "inputs": [
        {
          "internalType": "address",
          "name": "playerAddress",
          "type": "address"
        }
      ],
      "name": "getPlayerCardCount",
      "outputs": [
        {
          "internalType": "uint256",
          "name": "",
          "type": "uint256"
        }
      ],
      "stateMutability": "view",
      "type": "function"
    },
    {
      "inputs": [
        {
          "internalType": "address",
          "name": "owner",
          "type": "address"
        },
        {
          "internalType": "address",
          "name": "operator",
          "type": "address"
        }
      ],
      "name": "isApprovedForAll",
      "outputs": [
        {
          "internalType": "bool",
          "name": "",
          "type": "bool"
        }
      ],
      "stateMutability": "view",
      "type": "function"
    },
    {
      "inputs": [
        {
          "internalType": "address",
          "name": "addr",
          "type": "address"
        }
      ],
      "name": "isPlayer",
      "outputs": [
        {
          "internalType": "bool",
          "name": "",
          "type": "bool"
        }
      ],
      "stateMutability": "view",
      "type": "function"
    },
    {
      "inputs": [
        {
          "internalType": "uint256",
          "name": "_battleId",
          "type": "uint256"
        },
        {
          "internalType": "address",
          "name": "_opponentAddress",
          "type": "address"
        }
      ],
      "name": "joinBattle",
      "outputs": [],
      "stateMutability": "nonpayable",
      "type": "function"
    },
    {
      "inputs": [],
      "name": "name",
      "outputs": [
        {
          "internalType": "string",
          "name": "",
          "type": "string"
        }
      ],
      "stateMutability": "view",
      "type": "function"
    },
    {
      "inputs": [],
      "name": "owner",
      "outputs": [
        {
          "internalType": "address",
          "name": "",
          "type": "address"
        }
      ],
      "stateMutability": "view",
      "type": "function"
    },
    {
      "inputs": [
        {
          "internalType": "uint256",
          "name": "tokenId",
          "type": "uint256"
        }
      ],
      "name": "ownerOf",
      "outputs": [
        {
          "internalType": "address",
          "name": "",
          "type": "address"
        }
      ],
      "stateMutability": "view",
      "type": "function"
    },
    {
      "inputs": [
        {
          "internalType": "address",
          "name": "recipient",
          "type": "address"
        },
        {
          "internalType": "string",
          "name": "metadataURI",
          "type": "string"
        }
      ],
      "name": "payToMint",
      "outputs": [],
      "stateMutability": "payable",
      "type": "function"
    },
    {
      "inputs": [
        {
          "internalType": "address",
          "name": "",
          "type": "address"
        }
      ],
      "name": "playerInfo",
      "outputs": [
        {
          "internalType": "uint256",
          "name": "",
          "type": "uint256"
        }
      ],
      "stateMutability": "view",
      "type": "function"
    },
    {
      "inputs": [
        {
          "internalType": "uint256",
          "name": "",
          "type": "uint256"
        }
      ],
      "name": "players",
      "outputs": [
        {
          "internalType": "address",
          "name": "playerAddress",
          "type": "address"
        },
        {
          "internalType": "string",
          "name": "playerName",
          "type": "string"
        },
        {
          "internalType": "string",
          "name": "emailId",
          "type": "string"
        }
      ],
      "stateMutability": "view",
      "type": "function"
    },
    {
      "inputs": [
        {
          "internalType": "address",
          "name": "_address",
          "type": "address"
        },
        {
          "internalType": "string",
          "name": "_name",
          "type": "string"
        },
        {
          "internalType": "string",
          "name": "_email",
          "type": "string"
        }
      ],
      "name": "registerPlayer",
      "outputs": [],
      "stateMutability": "nonpayable",
      "type": "function"
    },
    {
      "inputs": [],
      "name": "renounceOwnership",
      "outputs": [],
      "stateMutability": "nonpayable",
      "type": "function"
    },
    {
      "inputs": [
        {
          "internalType": "address",
          "name": "from",
          "type": "address"
        },
        {
          "internalType": "address",
          "name": "to",
          "type": "address"
        },
        {
          "internalType": "uint256",
          "name": "tokenId",
          "type": "uint256"
        }
      ],
      "name": "safeTransferFrom",
      "outputs": [],
      "stateMutability": "nonpayable",
      "type": "function"
    },
    {
      "inputs": [
        {
          "internalType": "address",
          "name": "from",
          "type": "address"
        },
        {
          "internalType": "address",
          "name": "to",
          "type": "address"
        },
        {
          "internalType": "uint256",
          "name": "tokenId",
          "type": "uint256"
        },
        {
          "internalType": "bytes",
          "name": "data",
          "type": "bytes"
        }
      ],
      "name": "safeTransferFrom",
      "outputs": [],
      "stateMutability": "nonpayable",
      "type": "function"
    },
    {
      "inputs": [
        {
          "internalType": "address",
          "name": "operator",
          "type": "address"
        },
        {
          "internalType": "bool",
          "name": "approved",
          "type": "bool"
        }
      ],
      "name": "setApprovalForAll",
      "outputs": [],
      "stateMutability": "nonpayable",
      "type": "function"
    },
    {
      "inputs": [
        {
          "internalType": "bytes4",
          "name": "interfaceId",
          "type": "bytes4"
        }
      ],
      "name": "supportsInterface",
      "outputs": [
        {
          "internalType": "bool",
          "name": "",
          "type": "bool"
        }
      ],
      "stateMutability": "view",
      "type": "function"
    },
    {
      "inputs": [],
      "name": "symbol",
      "outputs": [
        {
          "internalType": "string",
          "name": "",
          "type": "string"
        }
      ],
      "stateMutability": "view",
      "type": "function"
    },
    {
      "inputs": [
        {
          "internalType": "uint256",
          "name": "tokenId",
          "type": "uint256"
        }
      ],
      "name": "tokenURI",
      "outputs": [
        {
          "internalType": "string",
          "name": "",
          "type": "string"
        }
      ],
      "stateMutability": "view",
      "type": "function"
    },
    {
      "inputs": [
        {
          "internalType": "address",
          "name": "from",
          "type": "address"
        },
        {
          "internalType": "address",
          "name": "to",
          "type": "address"
        },
        {
          "internalType": "uint256",
          "name": "tokenId",
          "type": "uint256"
        }
      ],
      "name": "transferFrom",
      "outputs": [],
      "stateMutability": "nonpayable",
      "type": "function"
    },
    {
      "inputs": [
        {
          "internalType": "address",
          "name": "from",
          "type": "address"
        },
        {
          "internalType": "address",
          "name": "to",
          "type": "address"
        },
        {
          "internalType": "uint256",
          "name": "tokenId",
          "type": "uint256"
        }
      ],
      "name": "transferNFT",
      "outputs": [],
      "stateMutability": "nonpayable",
      "type": "function"
    },
    {
      "inputs": [
        {
          "internalType": "address",
          "name": "newOwner",
          "type": "address"
        }
      ],
      "name": "transferOwnership",
      "outputs": [],
      "stateMutability": "nonpayable",
      "type": "function"
    }
  ],
  "bytecode": "0x6080604052620186a06009553480156200001857600080fd5b50604051620053083803806200530883398181016040528101906200003e919062000478565b806040518060400160405280600681526020017f4e465454434700000000000000000000000000000000000000000000000000008152506040518060400160405280600381526020017f54434700000000000000000000000000000000000000000000000000000000008152508160009081620000bc919062000724565b508060019081620000ce919062000724565b505050600073ffffffffffffffffffffffffffffffffffffffff168173ffffffffffffffffffffffffffffffffffffffff1603620001465760006040517f1e4fbdf70000000000000000000000000000000000000000000000000000000081526004016200013d91906200081c565b60405180910390fd5b62000157816200016f60201b60201c565b50620001686200023560201b60201c565b5062000839565b6000600760009054906101000a900473ffffffffffffffffffffffffffffffffffffffff16905081600760006101000a81548173ffffffffffffffffffffffffffffffffffffffff021916908373ffffffffffffffffffffffffffffffffffffffff1602179055508173ffffffffffffffffffffffffffffffffffffffff168173ffffffffffffffffffffffffffffffffffffffff167f8be0079c531659141344cd1fd0a4f28419497f9722a3daafe3b4186f6b6457e060405160405180910390a35050565b600d6040518060800160405280600073ffffffffffffffffffffffffffffffffffffffff168152602001604051806020016040528060008152508152602001604051806020016040528060008152508152602001600067ffffffffffffffff811115620002a757620002a6620004b5565b5b604051908082528060200260200182016040528015620002d65781602001602082028036833780820191505090505b50815250908060018154018082558091505060019003906000526020600020906004020160009091909190915060008201518160000160006101000a81548173ffffffffffffffffffffffffffffffffffffffff021916908373ffffffffffffffffffffffffffffffffffffffff160217905550602082015181600101908162000361919062000724565b50604082015181600201908162000379919062000724565b506060820151816003019080519060200190620003989291906200039d565b505050565b828054828255906000526020600020908101928215620003dc579160200282015b82811115620003db578251825591602001919060010190620003be565b5b509050620003eb9190620003ef565b5090565b5b808211156200040a576000816000905550600101620003f0565b5090565b600080fd5b600073ffffffffffffffffffffffffffffffffffffffff82169050919050565b6000620004408262000413565b9050919050565b620004528162000433565b81146200045e57600080fd5b50565b600081519050620004728162000447565b92915050565b6000602082840312156200049157620004906200040e565b5b6000620004a18482850162000461565b91505092915050565b600081519050919050565b7f4e487b7100000000000000000000000000000000000000000000000000000000600052604160045260246000fd5b7f4e487b7100000000000000000000000000000000000000000000000000000000600052602260045260246000fd5b600060028204905060018216806200052c57607f821691505b602082108103620005425762000541620004e4565b5b50919050565b60008190508160005260206000209050919050565b60006020601f8301049050919050565b600082821b905092915050565b600060088302620005ac7fffffffffffffffffffffffffffffffffffffffffffffffffffffffffffffffff826200056d565b620005b886836200056d565b95508019841693508086168417925050509392505050565b6000819050919050565b6000819050919050565b600062000605620005ff620005f984620005d0565b620005da565b620005d0565b9050919050565b6000819050919050565b6200062183620005e4565b6200063962000630826200060c565b8484546200057a565b825550505050565b600090565b6200065062000641565b6200065d81848462000616565b505050565b5b8181101562000685576200067960008262000646565b60018101905062000663565b5050565b601f821115620006d4576200069e8162000548565b620006a9846200055d565b81016020851015620006b9578190505b620006d1620006c8856200055d565b83018262000662565b50505b505050565b600082821c905092915050565b6000620006f960001984600802620006d9565b1980831691505092915050565b6000620007148383620006e6565b9150826002028217905092915050565b6200072f82620004aa565b67ffffffffffffffff8111156200074b576200074a620004b5565b5b62000757825462000513565b6200076482828562000689565b600060209050601f8311600181146200079c576000841562000787578287015190505b62000793858262000706565b86555062000803565b601f198416620007ac8662000548565b60005b82811015620007d657848901518255600182019150602085019450602081019050620007af565b86831015620007f65784890151620007f2601f891682620006e6565b8355505b6001600288020188555050505b505050505050565b620008168162000433565b82525050565b60006020820190506200083360008301846200080b565b92915050565b614abf80620008496000396000f3fe6080604052600436106101f95760003560e01c80636352211e1161010d578063ab01d9a3116100a0578063e00b63631161006f578063e00b636314610795578063e985e9c5146107c0578063efa1c482146107fd578063f2fde38b14610828578063f71d96cb14610851576101f9565b8063ab01d9a3146106dd578063b88d4fde14610706578063c87b56dd1461072f578063d523cd051461076c576101f9565b80638da5cb5b116100dc5780638da5cb5b1461062157806395d89b411461064c578063a04b30d014610677578063a22cb465146106b4576101f9565b80636352211e1461056757806369e9cae1146105a457806370a08231146105cd578063715018a61461060a576101f9565b806323b872dd116101905780635c12cd4b1161015f5780635c12cd4b146104545780635e41a4f114610491578063606d2e96146104ce578063615fd9e21461050e57806362e1efa01461052a576101f9565b806323b872dd1461039a57806342842e0e146103c35780634a60f620146103ec5780634b11469114610417576101f9565b806306fdde03116101cc57806306fdde03146102cc578063081812fc146102f7578063095ea7b31461033457806309c95e101461035d576101f9565b8063010abbd0146101fe57806301ffc9a71461023b578063051ad5b81461027857806306661abd146102a1575b600080fd5b34801561020a57600080fd5b50610225600480360381019061022091906135c7565b610890565b6040516102329190613635565b60405180910390f35b34801561024757600080fd5b50610262600480360381019061025d91906136a8565b6108eb565b60405161026f91906136f0565b60405180910390f35b34801561028457600080fd5b5061029f600480360381019061029a9190613737565b6108fd565b005b3480156102ad57600080fd5b506102b6610a10565b6040516102c39190613786565b60405180910390f35b3480156102d857600080fd5b506102e1610a1a565b6040516102ee9190613831565b60405180910390f35b34801561030357600080fd5b5061031e600480360381019061031991906135c7565b610aac565b60405161032b9190613635565b60405180910390f35b34801561034057600080fd5b5061035b60048036038101906103569190613853565b610ac8565b005b34801561036957600080fd5b50610384600480360381019061037f9190613893565b610ade565b60405161039191906136f0565b60405180910390f35b3480156103a657600080fd5b506103c160048036038101906103bc91906138c0565b610b39565b005b3480156103cf57600080fd5b506103ea60048036038101906103e591906138c0565b610c3b565b005b3480156103f857600080fd5b50610401610c5b565b60405161040e9190613786565b60405180910390f35b34801561042357600080fd5b5061043e60048036038101906104399190613893565b610c61565b60405161044b9190613786565b60405180910390f35b34801561046057600080fd5b5061047b60048036038101906104769190613893565b610c79565b6040516104889190613a9b565b60405180910390f35b34801561049d57600080fd5b506104b860048036038101906104b39190613893565b610f0e565b6040516104c59190613786565b60405180910390f35b3480156104da57600080fd5b506104f560048036038101906104f091906135c7565b610f84565b6040516105059493929190613abd565b60405180910390f35b61052860048036038101906105239190613c3e565b611089565b005b34801561053657600080fd5b50610551600480360381019061054c9190613c9a565b6111e7565b60405161055e9190613d52565b60405180910390f35b34801561057357600080fd5b5061058e600480360381019061058991906135c7565b6114b9565b60405161059b9190613635565b60405180910390f35b3480156105b057600080fd5b506105cb60048036038101906105c691906138c0565b6114cb565b005b3480156105d957600080fd5b506105f460048036038101906105ef9190613893565b61170a565b6040516106019190613786565b60405180910390f35b34801561061657600080fd5b5061061f6117c4565b005b34801561062d57600080fd5b506106366117d8565b6040516106439190613635565b60405180910390f35b34801561065857600080fd5b50610661611802565b60405161066e9190613831565b60405180910390f35b34801561068357600080fd5b5061069e60048036038101906106999190613d74565b611894565b6040516106ab9190613786565b60405180910390f35b3480156106c057600080fd5b506106db60048036038101906106d69190613dfc565b6118db565b005b3480156106e957600080fd5b5061070460048036038101906106ff9190613e3c565b6118f1565b005b34801561071257600080fd5b5061072d60048036038101906107289190613f68565b611b19565b005b34801561073b57600080fd5b50610756600480360381019061075191906135c7565b611b36565b6040516107639190613831565b60405180910390f35b34801561077857600080fd5b50610793600480360381019061078e9190613c3e565b611b48565b005b3480156107a157600080fd5b506107aa611cde565b6040516107b79190613786565b60405180910390f35b3480156107cc57600080fd5b506107e760048036038101906107e29190613feb565b611ce4565b6040516107f491906136f0565b60405180910390f35b34801561080957600080fd5b50610812611d78565b60405161081f919061415e565b60405180910390f35b34801561083457600080fd5b5061084f600480360381019061084a9190613893565b611fa9565b005b34801561085d57600080fd5b50610878600480360381019061087391906135c7565b61202f565b60405161088793929190614180565b60405180910390f35b600061089a610a10565b82106108db576040517f08c379a00000000000000000000000000000000000000000000000000000000081526004016108d290614211565b60405180910390fd5b6108e4826114b9565b9050919050565b60006108f682612199565b9050919050565b600954821115610942576040517f08c379a00000000000000000000000000000000000000000000000000000000081526004016109399061427d565b60405180910390fd5b6000600b600084815260200190815260200160002090508060030160009054906101000a900460ff16156109ab576040517f08c379a00000000000000000000000000000000000000000000000000000000081526004016109a2906142e9565b60405180910390fd5b818160010160006101000a81548173ffffffffffffffffffffffffffffffffffffffff021916908373ffffffffffffffffffffffffffffffffffffffff16021790555060018160030160006101000a81548160ff021916908315150217905550505050565b6000600854905090565b606060008054610a2990614338565b80601f0160208091040260200160405190810160405280929190818152602001828054610a5590614338565b8015610aa25780601f10610a7757610100808354040283529160200191610aa2565b820191906000526020600020905b815481529060010190602001808311610a8557829003601f168201915b5050505050905090565b6000610ab7826121fa565b50610ac182612282565b9050919050565b610ada8282610ad56122bf565b6122c7565b5050565b600080600a60008473ffffffffffffffffffffffffffffffffffffffff1673ffffffffffffffffffffffffffffffffffffffff1681526020019081526020016000205403610b2f5760009050610b34565b600190505b919050565b600073ffffffffffffffffffffffffffffffffffffffff168273ffffffffffffffffffffffffffffffffffffffff1603610bab5760006040517f64a0ae92000000000000000000000000000000000000000000000000000000008152600401610ba29190613635565b60405180910390fd5b6000610bbf8383610bba6122bf565b6122d9565b90508373ffffffffffffffffffffffffffffffffffffffff168173ffffffffffffffffffffffffffffffffffffffff1614610c35578382826040517f64283d7b000000000000000000000000000000000000000000000000000000008152600401610c2c93929190614369565b60405180910390fd5b50505050565b610c5683838360405180602001604052806000815250611b19565b505050565b60085481565b600a6020528060005260406000206000915090505481565b610c816134d5565b610c8a82610ade565b610cc9576040517f08c379a0000000000000000000000000000000000000000000000000000000008152600401610cc0906143ec565b60405180910390fd5b600d600a60008473ffffffffffffffffffffffffffffffffffffffff1673ffffffffffffffffffffffffffffffffffffffff1681526020019081526020016000205481548110610d1c57610d1b61440c565b5b90600052602060002090600402016040518060800160405290816000820160009054906101000a900473ffffffffffffffffffffffffffffffffffffffff1673ffffffffffffffffffffffffffffffffffffffff1673ffffffffffffffffffffffffffffffffffffffff168152602001600182018054610d9b90614338565b80601f0160208091040260200160405190810160405280929190818152602001828054610dc790614338565b8015610e145780601f10610de957610100808354040283529160200191610e14565b820191906000526020600020905b815481529060010190602001808311610df757829003601f168201915b50505050508152602001600282018054610e2d90614338565b80601f0160208091040260200160405190810160405280929190818152602001828054610e5990614338565b8015610ea65780601f10610e7b57610100808354040283529160200191610ea6565b820191906000526020600020905b815481529060010190602001808311610e8957829003601f168201915b5050505050815260200160038201805480602002602001604051908101604052809291908181526020018280548015610efe57602002820191906000526020600020905b815481526020019060010190808311610eea575b5050505050815250509050919050565b600080600a60008473ffffffffffffffffffffffffffffffffffffffff1673ffffffffffffffffffffffffffffffffffffffff168152602001908152602001600020549050600d8181548110610f6757610f6661440c565b5b906000526020600020906004020160030180549050915050919050565b600b6020528060005260406000206000915090508060000160009054906101000a900473ffffffffffffffffffffffffffffffffffffffff16908060010160009054906101000a900473ffffffffffffffffffffffffffffffffffffffff1690806002018054610ff390614338565b80601f016020809104026020016040519081016040528092919081815260200182805461101f90614338565b801561106c5780601f106110415761010080835404028352916020019161106c565b820191906000526020600020905b81548152906001019060200180831161104f57829003601f168201915b5050505050908060030160009054906101000a900460ff16905084565b66b1a2bc2ec500003410156110d3576040517f08c379a00000000000000000000000000000000000000000000000000000000081526004016110ca90614487565b60405180910390fd5b6000600860008154809291906110e8906144d6565b9190505590506110f883826124f3565b61110281836125ec565b808373ffffffffffffffffffffffffffffffffffffffff167fd35bb95e09c04b219e35047ce7b7b300e3384264ef84a40456943dbc0fc17c14846040516111499190613831565b60405180910390a36000600a60008573ffffffffffffffffffffffffffffffffffffffff1673ffffffffffffffffffffffffffffffffffffffff168152602001908152602001600020549050600d81815481106111a9576111a861440c565b5b906000526020600020906004020160030182908060018154018082558091505060019003906000526020600020016000909190919091505550505050565b60606000600c836040516111fb919061455a565b908152602001604051809103902080548060200260200160405190810160405280929190818152602001828054801561125357602002820191906000526020600020905b81548152602001906001019080831161123f575b505050505090506000815167ffffffffffffffff81111561127757611276613b13565b5b6040519080825280602002602001820160405280156112a55781602001602082028036833780820191505090505b5090506000805b83518110156114aa576000600b60008684815181106112ce576112cd61440c565b5b602002602001015181526020019081526020016000206040518060800160405290816000820160009054906101000a900473ffffffffffffffffffffffffffffffffffffffff1673ffffffffffffffffffffffffffffffffffffffff1673ffffffffffffffffffffffffffffffffffffffff1681526020016001820160009054906101000a900473ffffffffffffffffffffffffffffffffffffffff1673ffffffffffffffffffffffffffffffffffffffff1673ffffffffffffffffffffffffffffffffffffffff1681526020016002820180546113ab90614338565b80601f01602080910402602001604051908101604052809291908181526020018280546113d790614338565b80156114245780601f106113f957610100808354040283529160200191611424565b820191906000526020600020905b81548152906001019060200180831161140757829003601f168201915b505050505081526020016003820160009054906101000a900460ff1615151515815250509050806060015161149c578482815181106114665761146561440c565b5b60200260200101518484815181106114815761148061440c565b5b6020026020010181815250508280611498906144d6565b9350505b5080806001019150506112ac565b50808252819350505050919050565b60006114c4826121fa565b9050919050565b8273ffffffffffffffffffffffffffffffffffffffff166114eb826114b9565b73ffffffffffffffffffffffffffffffffffffffff1614611541576040517f08c379a0000000000000000000000000000000000000000000000000000000008152600401611538906145bd565b60405180910390fd5b61154c838383612648565b6000600a60008573ffffffffffffffffffffffffffffffffffffffff1673ffffffffffffffffffffffffffffffffffffffff1681526020019081526020016000205490506000600d82815481106115a6576115a561440c565b5b9060005260206000209060040201600301905060005b818054905081101561167457838282815481106115dc576115db61440c565b5b9060005260206000200154036116675781600183805490506115fe91906145dd565b8154811061160f5761160e61440c565b5b906000526020600020015482828154811061162d5761162c61440c565b5b90600052602060002001819055508180548061164c5761164b614611565b5b60019003818190600052602060002001600090559055611674565b80806001019150506115bc565b50600a60008573ffffffffffffffffffffffffffffffffffffffff1673ffffffffffffffffffffffffffffffffffffffff168152602001908152602001600020549150600d82815481106116cb576116ca61440c565b5b90600052602060002090600402016003018390806001815401808255809150506001900390600052602060002001600090919091909150555050505050565b60008073ffffffffffffffffffffffffffffffffffffffff168273ffffffffffffffffffffffffffffffffffffffff160361177d5760006040517f89c62b640000000000000000000000000000000000000000000000000000000081526004016117749190613635565b60405180910390fd5b600360008373ffffffffffffffffffffffffffffffffffffffff1673ffffffffffffffffffffffffffffffffffffffff168152602001908152602001600020549050919050565b6117cc6127b5565b6117d6600061283c565b565b6000600760009054906101000a900473ffffffffffffffffffffffffffffffffffffffff16905090565b60606001805461181190614338565b80601f016020809104026020016040519081016040528092919081815260200182805461183d90614338565b801561188a5780601f1061185f5761010080835404028352916020019161188a565b820191906000526020600020905b81548152906001019060200180831161186d57829003601f168201915b5050505050905090565b600c8280516020810182018051848252602083016020850120818352809550505050505081815481106118c657600080fd5b90600052602060002001600091509150505481565b6118ed6118e66122bf565b8383612902565b5050565b6118fa83610ade565b1561193a576040517f08c379a00000000000000000000000000000000000000000000000000000000081526004016119319061468c565b60405180910390fd5b6000600d805490509050600d60405180608001604052808673ffffffffffffffffffffffffffffffffffffffff168152602001858152602001848152602001600067ffffffffffffffff81111561199457611993613b13565b5b6040519080825280602002602001820160405280156119c25781602001602082028036833780820191505090505b50815250908060018154018082558091505060019003906000526020600020906004020160009091909190915060008201518160000160006101000a81548173ffffffffffffffffffffffffffffffffffffffff021916908373ffffffffffffffffffffffffffffffffffffffff1602179055506020820151816001019081611a4b9190614858565b506040820151816002019081611a619190614858565b506060820151816003019080519060200190611a7e929190613513565b50505080600a60008673ffffffffffffffffffffffffffffffffffffffff1673ffffffffffffffffffffffffffffffffffffffff168152602001908152602001600020819055508373ffffffffffffffffffffffffffffffffffffffff167f81ef79d1cda814a60c0fc60792e648a06d9c6bae67176346d1cc8b63030bfccd84604051611b0b9190613831565b60405180910390a250505050565b611b24848484610b39565b611b3084848484612a71565b50505050565b6060611b4182612c28565b9050919050565b600060405180608001604052808473ffffffffffffffffffffffffffffffffffffffff168152602001600073ffffffffffffffffffffffffffffffffffffffff16815260200183815260200160001515815250905080600b6000600954815260200190815260200160002060008201518160000160006101000a81548173ffffffffffffffffffffffffffffffffffffffff021916908373ffffffffffffffffffffffffffffffffffffffff16021790555060208201518160010160006101000a81548173ffffffffffffffffffffffffffffffffffffffff021916908373ffffffffffffffffffffffffffffffffffffffff1602179055506040820151816002019081611c569190614858565b5060608201518160030160006101000a81548160ff021916908315150217905550905050600c82604051611c8a919061455a565b9081526020016040518091039020600954908060018154018082558091505060019003906000526020600020016000909190919091505560096000815480929190611cd4906144d6565b9190505550505050565b60095481565b6000600560008473ffffffffffffffffffffffffffffffffffffffff1673ffffffffffffffffffffffffffffffffffffffff16815260200190815260200160002060008373ffffffffffffffffffffffffffffffffffffffff1673ffffffffffffffffffffffffffffffffffffffff16815260200190815260200160002060009054906101000a900460ff16905092915050565b6060600d805480602002602001604051908101604052809291908181526020016000905b82821015611fa057838290600052602060002090600402016040518060800160405290816000820160009054906101000a900473ffffffffffffffffffffffffffffffffffffffff1673ffffffffffffffffffffffffffffffffffffffff1673ffffffffffffffffffffffffffffffffffffffff168152602001600182018054611e2590614338565b80601f0160208091040260200160405190810160405280929190818152602001828054611e5190614338565b8015611e9e5780601f10611e7357610100808354040283529160200191611e9e565b820191906000526020600020905b815481529060010190602001808311611e8157829003601f168201915b50505050508152602001600282018054611eb790614338565b80601f0160208091040260200160405190810160405280929190818152602001828054611ee390614338565b8015611f305780601f10611f0557610100808354040283529160200191611f30565b820191906000526020600020905b815481529060010190602001808311611f1357829003601f168201915b5050505050815260200160038201805480602002602001604051908101604052809291908181526020018280548015611f8857602002820191906000526020600020905b815481526020019060010190808311611f74575b50505050508152505081526020019060010190611d9c565b50505050905090565b611fb16127b5565b600073ffffffffffffffffffffffffffffffffffffffff168173ffffffffffffffffffffffffffffffffffffffff16036120235760006040517f1e4fbdf700000000000000000000000000000000000000000000000000000000815260040161201a9190613635565b60405180910390fd5b61202c8161283c565b50565b600d818154811061203f57600080fd5b90600052602060002090600402016000915090508060000160009054906101000a900473ffffffffffffffffffffffffffffffffffffffff169080600101805461208890614338565b80601f01602080910402602001604051908101604052809291908181526020018280546120b490614338565b80156121015780601f106120d657610100808354040283529160200191612101565b820191906000526020600020905b8154815290600101906020018083116120e457829003601f168201915b50505050509080600201805461211690614338565b80601f016020809104026020016040519081016040528092919081815260200182805461214290614338565b801561218f5780601f106121645761010080835404028352916020019161218f565b820191906000526020600020905b81548152906001019060200180831161217257829003601f168201915b5050505050905083565b6000634906490660e01b7bffffffffffffffffffffffffffffffffffffffffffffffffffffffff1916827bffffffffffffffffffffffffffffffffffffffffffffffffffffffff191614806121f357506121f282612d3b565b5b9050919050565b60008061220683612e1d565b9050600073ffffffffffffffffffffffffffffffffffffffff168173ffffffffffffffffffffffffffffffffffffffff160361227957826040517f7e2732890000000000000000000000000000000000000000000000000000000081526004016122709190613786565b60405180910390fd5b80915050919050565b60006004600083815260200190815260200160002060009054906101000a900473ffffffffffffffffffffffffffffffffffffffff169050919050565b600033905090565b6122d48383836001612e5a565b505050565b6000806122e584612e1d565b9050600073ffffffffffffffffffffffffffffffffffffffff168373ffffffffffffffffffffffffffffffffffffffff16146123275761232681848661301f565b5b600073ffffffffffffffffffffffffffffffffffffffff168173ffffffffffffffffffffffffffffffffffffffff16146123b857612369600085600080612e5a565b6001600360008373ffffffffffffffffffffffffffffffffffffffff1673ffffffffffffffffffffffffffffffffffffffff168152602001908152602001600020600082825403925050819055505b600073ffffffffffffffffffffffffffffffffffffffff168573ffffffffffffffffffffffffffffffffffffffff161461243b576001600360008773ffffffffffffffffffffffffffffffffffffffff1673ffffffffffffffffffffffffffffffffffffffff168152602001908152602001600020600082825401925050819055505b846002600086815260200190815260200160002060006101000a81548173ffffffffffffffffffffffffffffffffffffffff021916908373ffffffffffffffffffffffffffffffffffffffff160217905550838573ffffffffffffffffffffffffffffffffffffffff168273ffffffffffffffffffffffffffffffffffffffff167fddf252ad1be2c89b69c2b068fc378daa952ba7f163c4a11628f55a4df523b3ef60405160405180910390a4809150509392505050565b600073ffffffffffffffffffffffffffffffffffffffff168273ffffffffffffffffffffffffffffffffffffffff16036125655760006040517f64a0ae9200000000000000000000000000000000000000000000000000000000815260040161255c9190613635565b60405180910390fd5b6000612573838360006122d9565b9050600073ffffffffffffffffffffffffffffffffffffffff168173ffffffffffffffffffffffffffffffffffffffff16146125e75760006040517f73c6ac6e0000000000000000000000000000000000000000000000000000000081526004016125de9190613635565b60405180910390fd5b505050565b8060066000848152602001908152602001600020908161260c9190614858565b507ff8e1a15aba9398e019f0b49df1a4fde98ee17ae345cb5f6b5e2c27f5033e8ce78260405161263c9190613786565b60405180910390a15050565b600073ffffffffffffffffffffffffffffffffffffffff168273ffffffffffffffffffffffffffffffffffffffff16036126ba5760006040517f64a0ae920000000000000000000000000000000000000000000000000000000081526004016126b19190613635565b60405180910390fd5b60006126c8838360006122d9565b9050600073ffffffffffffffffffffffffffffffffffffffff168173ffffffffffffffffffffffffffffffffffffffff160361273b57816040517f7e2732890000000000000000000000000000000000000000000000000000000081526004016127329190613786565b60405180910390fd5b8373ffffffffffffffffffffffffffffffffffffffff168173ffffffffffffffffffffffffffffffffffffffff16146127af578382826040517f64283d7b0000000000000000000000000000000000000000000000000000000081526004016127a693929190614369565b60405180910390fd5b50505050565b6127bd6122bf565b73ffffffffffffffffffffffffffffffffffffffff166127db6117d8565b73ffffffffffffffffffffffffffffffffffffffff161461283a576127fe6122bf565b6040517f118cdaa70000000000000000000000000000000000000000000000000000000081526004016128319190613635565b60405180910390fd5b565b6000600760009054906101000a900473ffffffffffffffffffffffffffffffffffffffff16905081600760006101000a81548173ffffffffffffffffffffffffffffffffffffffff021916908373ffffffffffffffffffffffffffffffffffffffff1602179055508173ffffffffffffffffffffffffffffffffffffffff168173ffffffffffffffffffffffffffffffffffffffff167f8be0079c531659141344cd1fd0a4f28419497f9722a3daafe3b4186f6b6457e060405160405180910390a35050565b600073ffffffffffffffffffffffffffffffffffffffff168273ffffffffffffffffffffffffffffffffffffffff160361297357816040517f5b08ba1800000000000000000000000000000000000000000000000000000000815260040161296a9190613635565b60405180910390fd5b80600560008573ffffffffffffffffffffffffffffffffffffffff1673ffffffffffffffffffffffffffffffffffffffff16815260200190815260200160002060008473ffffffffffffffffffffffffffffffffffffffff1673ffffffffffffffffffffffffffffffffffffffff16815260200190815260200160002060006101000a81548160ff0219169083151502179055508173ffffffffffffffffffffffffffffffffffffffff168373ffffffffffffffffffffffffffffffffffffffff167f17307eab39ab6107e8899845ad3d59bd9653f200f220920489ca2b5937696c3183604051612a6491906136f0565b60405180910390a3505050565b60008373ffffffffffffffffffffffffffffffffffffffff163b1115612c22578273ffffffffffffffffffffffffffffffffffffffff1663150b7a02612ab56122bf565b8685856040518563ffffffff1660e01b8152600401612ad7949392919061497f565b6020604051808303816000875af1925050508015612b1357506040513d601f19601f82011682018060405250810190612b1091906149e0565b60015b612b97573d8060008114612b43576040519150601f19603f3d011682016040523d82523d6000602084013e612b48565b606091505b506000815103612b8f57836040517f64a0ae92000000000000000000000000000000000000000000000000000000008152600401612b869190613635565b60405180910390fd5b805181602001fd5b63150b7a0260e01b7bffffffffffffffffffffffffffffffffffffffffffffffffffffffff1916817bffffffffffffffffffffffffffffffffffffffffffffffffffffffff191614612c2057836040517f64a0ae92000000000000000000000000000000000000000000000000000000008152600401612c179190613635565b60405180910390fd5b505b50505050565b6060612c33826121fa565b506000600660008481526020019081526020016000208054612c5490614338565b80601f0160208091040260200160405190810160405280929190818152602001828054612c8090614338565b8015612ccd5780601f10612ca257610100808354040283529160200191612ccd565b820191906000526020600020905b815481529060010190602001808311612cb057829003601f168201915b505050505090506000612cde6130e3565b90506000815103612cf3578192505050612d36565b600082511115612d28578082604051602001612d10929190614a0d565b60405160208183030381529060405292505050612d36565b612d3184613120565b925050505b919050565b60007f80ac58cd000000000000000000000000000000000000000000000000000000007bffffffffffffffffffffffffffffffffffffffffffffffffffffffff1916827bffffffffffffffffffffffffffffffffffffffffffffffffffffffff19161480612e0657507f5b5e139f000000000000000000000000000000000000000000000000000000007bffffffffffffffffffffffffffffffffffffffffffffffffffffffff1916827bffffffffffffffffffffffffffffffffffffffffffffffffffffffff1916145b80612e165750612e1582613189565b5b9050919050565b60006002600083815260200190815260200160002060009054906101000a900473ffffffffffffffffffffffffffffffffffffffff169050919050565b8080612e935750600073ffffffffffffffffffffffffffffffffffffffff168273ffffffffffffffffffffffffffffffffffffffff1614155b15612fc7576000612ea3846121fa565b9050600073ffffffffffffffffffffffffffffffffffffffff168373ffffffffffffffffffffffffffffffffffffffff1614158015612f0e57508273ffffffffffffffffffffffffffffffffffffffff168173ffffffffffffffffffffffffffffffffffffffff1614155b8015612f215750612f1f8184611ce4565b155b15612f6357826040517fa9fbf51f000000000000000000000000000000000000000000000000000000008152600401612f5a9190613635565b60405180910390fd5b8115612fc557838573ffffffffffffffffffffffffffffffffffffffff168273ffffffffffffffffffffffffffffffffffffffff167f8c5be1e5ebec7d5bd14f71427d1e84f3dd0314c0f7b2291e5b200ac8c7c3b92560405160405180910390a45b505b836004600085815260200190815260200160002060006101000a81548173ffffffffffffffffffffffffffffffffffffffff021916908373ffffffffffffffffffffffffffffffffffffffff16021790555050505050565b61302a8383836131f3565b6130de57600073ffffffffffffffffffffffffffffffffffffffff168373ffffffffffffffffffffffffffffffffffffffff160361309f57806040517f7e2732890000000000000000000000000000000000000000000000000000000081526004016130969190613786565b60405180910390fd5b81816040517f177e802f0000000000000000000000000000000000000000000000000000000081526004016130d5929190614a31565b60405180910390fd5b505050565b60606040518060400160405280600781526020017f697066733a2f2f00000000000000000000000000000000000000000000000000815250905090565b606061312b826121fa565b5060006131366130e3565b905060008151116131565760405180602001604052806000815250613181565b80613160846132b4565b604051602001613171929190614a0d565b6040516020818303038152906040525b915050919050565b60007f01ffc9a7000000000000000000000000000000000000000000000000000000007bffffffffffffffffffffffffffffffffffffffffffffffffffffffff1916827bffffffffffffffffffffffffffffffffffffffffffffffffffffffff1916149050919050565b60008073ffffffffffffffffffffffffffffffffffffffff168373ffffffffffffffffffffffffffffffffffffffff16141580156132ab57508273ffffffffffffffffffffffffffffffffffffffff168473ffffffffffffffffffffffffffffffffffffffff16148061326c575061326b8484611ce4565b5b806132aa57508273ffffffffffffffffffffffffffffffffffffffff1661329283612282565b73ffffffffffffffffffffffffffffffffffffffff16145b5b90509392505050565b6060600060016132c384613382565b01905060008167ffffffffffffffff8111156132e2576132e1613b13565b5b6040519080825280601f01601f1916602001820160405280156133145781602001600182028036833780820191505090505b509050600082602001820190505b600115613377578080600190039150507f3031323334353637383961626364656600000000000000000000000000000000600a86061a8153600a858161336b5761336a614a5a565b5b04945060008503613322575b819350505050919050565b600080600090507a184f03e93ff9f4daa797ed6e38ed64bf6a1f01000000000000000083106133e0577a184f03e93ff9f4daa797ed6e38ed64bf6a1f01000000000000000083816133d6576133d5614a5a565b5b0492506040810190505b6d04ee2d6d415b85acef8100000000831061341d576d04ee2d6d415b85acef8100000000838161341357613412614a5a565b5b0492506020810190505b662386f26fc10000831061344c57662386f26fc10000838161344257613441614a5a565b5b0492506010810190505b6305f5e1008310613475576305f5e100838161346b5761346a614a5a565b5b0492506008810190505b612710831061349a5761271083816134905761348f614a5a565b5b0492506004810190505b606483106134bd57606483816134b3576134b2614a5a565b5b0492506002810190505b600a83106134cc576001810190505b80915050919050565b6040518060800160405280600073ffffffffffffffffffffffffffffffffffffffff1681526020016060815260200160608152602001606081525090565b82805482825590600052602060002090810192821561354f579160200282015b8281111561354e578251825591602001919060010190613533565b5b50905061355c9190613560565b5090565b5b80821115613579576000816000905550600101613561565b5090565b6000604051905090565b600080fd5b600080fd5b6000819050919050565b6135a481613591565b81146135af57600080fd5b50565b6000813590506135c18161359b565b92915050565b6000602082840312156135dd576135dc613587565b5b60006135eb848285016135b2565b91505092915050565b600073ffffffffffffffffffffffffffffffffffffffff82169050919050565b600061361f826135f4565b9050919050565b61362f81613614565b82525050565b600060208201905061364a6000830184613626565b92915050565b60007fffffffff0000000000000000000000000000000000000000000000000000000082169050919050565b61368581613650565b811461369057600080fd5b50565b6000813590506136a28161367c565b92915050565b6000602082840312156136be576136bd613587565b5b60006136cc84828501613693565b91505092915050565b60008115159050919050565b6136ea816136d5565b82525050565b600060208201905061370560008301846136e1565b92915050565b61371481613614565b811461371f57600080fd5b50565b6000813590506137318161370b565b92915050565b6000806040838503121561374e5761374d613587565b5b600061375c858286016135b2565b925050602061376d85828601613722565b9150509250929050565b61378081613591565b82525050565b600060208201905061379b6000830184613777565b92915050565b600081519050919050565b600082825260208201905092915050565b60005b838110156137db5780820151818401526020810190506137c0565b60008484015250505050565b6000601f19601f8301169050919050565b6000613803826137a1565b61380d81856137ac565b935061381d8185602086016137bd565b613826816137e7565b840191505092915050565b6000602082019050818103600083015261384b81846137f8565b905092915050565b6000806040838503121561386a57613869613587565b5b600061387885828601613722565b9250506020613889858286016135b2565b9150509250929050565b6000602082840312156138a9576138a8613587565b5b60006138b784828501613722565b91505092915050565b6000806000606084860312156138d9576138d8613587565b5b60006138e786828701613722565b93505060206138f886828701613722565b9250506040613909868287016135b2565b9150509250925092565b61391c81613614565b82525050565b600082825260208201905092915050565b600061393e826137a1565b6139488185613922565b93506139588185602086016137bd565b613961816137e7565b840191505092915050565b600081519050919050565b600082825260208201905092915050565b6000819050602082019050919050565b6139a181613591565b82525050565b60006139b38383613998565b60208301905092915050565b6000602082019050919050565b60006139d78261396c565b6139e18185613977565b93506139ec83613988565b8060005b83811015613a1d578151613a0488826139a7565b9750613a0f836139bf565b9250506001810190506139f0565b5085935050505092915050565b6000608083016000830151613a426000860182613913565b5060208301518482036020860152613a5a8282613933565b91505060408301518482036040860152613a748282613933565b91505060608301518482036060860152613a8e82826139cc565b9150508091505092915050565b60006020820190508181036000830152613ab58184613a2a565b905092915050565b6000608082019050613ad26000830187613626565b613adf6020830186613626565b8181036040830152613af181856137f8565b9050613b0060608301846136e1565b95945050505050565b600080fd5b600080fd5b7f4e487b7100000000000000000000000000000000000000000000000000000000600052604160045260246000fd5b613b4b826137e7565b810181811067ffffffffffffffff82111715613b6a57613b69613b13565b5b80604052505050565b6000613b7d61357d565b9050613b898282613b42565b919050565b600067ffffffffffffffff821115613ba957613ba8613b13565b5b613bb2826137e7565b9050602081019050919050565b82818337600083830152505050565b6000613be1613bdc84613b8e565b613b73565b905082815260208101848484011115613bfd57613bfc613b0e565b5b613c08848285613bbf565b509392505050565b600082601f830112613c2557613c24613b09565b5b8135613c35848260208601613bce565b91505092915050565b60008060408385031215613c5557613c54613587565b5b6000613c6385828601613722565b925050602083013567ffffffffffffffff811115613c8457613c8361358c565b5b613c9085828601613c10565b9150509250929050565b600060208284031215613cb057613caf613587565b5b600082013567ffffffffffffffff811115613cce57613ccd61358c565b5b613cda84828501613c10565b91505092915050565b600082825260208201905092915050565b6000613cff8261396c565b613d098185613ce3565b9350613d1483613988565b8060005b83811015613d45578151613d2c88826139a7565b9750613d37836139bf565b925050600181019050613d18565b5085935050505092915050565b60006020820190508181036000830152613d6c8184613cf4565b905092915050565b60008060408385031215613d8b57613d8a613587565b5b600083013567ffffffffffffffff811115613da957613da861358c565b5b613db585828601613c10565b9250506020613dc6858286016135b2565b9150509250929050565b613dd9816136d5565b8114613de457600080fd5b50565b600081359050613df681613dd0565b92915050565b60008060408385031215613e1357613e12613587565b5b6000613e2185828601613722565b9250506020613e3285828601613de7565b9150509250929050565b600080600060608486031215613e5557613e54613587565b5b6000613e6386828701613722565b935050602084013567ffffffffffffffff811115613e8457613e8361358c565b5b613e9086828701613c10565b925050604084013567ffffffffffffffff811115613eb157613eb061358c565b5b613ebd86828701613c10565b9150509250925092565b600067ffffffffffffffff821115613ee257613ee1613b13565b5b613eeb826137e7565b9050602081019050919050565b6000613f0b613f0684613ec7565b613b73565b905082815260208101848484011115613f2757613f26613b0e565b5b613f32848285613bbf565b509392505050565b600082601f830112613f4f57613f4e613b09565b5b8135613f5f848260208601613ef8565b91505092915050565b60008060008060808587031215613f8257613f81613587565b5b6000613f9087828801613722565b9450506020613fa187828801613722565b9350506040613fb2878288016135b2565b925050606085013567ffffffffffffffff811115613fd357613fd261358c565b5b613fdf87828801613f3a565b91505092959194509250565b6000806040838503121561400257614001613587565b5b600061401085828601613722565b925050602061402185828601613722565b9150509250929050565b600081519050919050565b600082825260208201905092915050565b6000819050602082019050919050565b600060808301600083015161406f6000860182613913565b50602083015184820360208601526140878282613933565b915050604083015184820360408601526140a18282613933565b915050606083015184820360608601526140bb82826139cc565b9150508091505092915050565b60006140d48383614057565b905092915050565b6000602082019050919050565b60006140f48261402b565b6140fe8185614036565b93508360208202850161411085614047565b8060005b8581101561414c578484038952815161412d85826140c8565b9450614138836140dc565b925060208a01995050600181019050614114565b50829750879550505050505092915050565b6000602082019050818103600083015261417881846140e9565b905092915050565b60006060820190506141956000830186613626565b81810360208301526141a781856137f8565b905081810360408301526141bb81846137f8565b9050949350505050565b7f546f6b656e20646f6573206e6f74206578697374000000000000000000000000600082015250565b60006141fb6014836137ac565b9150614206826141c5565b602082019050919050565b6000602082019050818103600083015261422a816141ee565b9050919050565b7f426174746c6520646f6573206e6f742065786973740000000000000000000000600082015250565b60006142676015836137ac565b915061427282614231565b602082019050919050565b600060208201905081810360008301526142968161425a565b9050919050565b7f426174746c6520616c7265616479206a6f696e65640000000000000000000000600082015250565b60006142d36015836137ac565b91506142de8261429d565b602082019050919050565b60006020820190508181036000830152614302816142c6565b9050919050565b7f4e487b7100000000000000000000000000000000000000000000000000000000600052602260045260246000fd5b6000600282049050600182168061435057607f821691505b60208210810361436357614362614309565b5b50919050565b600060608201905061437e6000830186613626565b61438b6020830185613777565b6143986040830184613626565b949350505050565b7f506c6179657220646f65736e2774206578697374210000000000000000000000600082015250565b60006143d66015836137ac565b91506143e1826143a0565b602082019050919050565b60006020820190508181036000830152614405816143c9565b9050919050565b7f4e487b7100000000000000000000000000000000000000000000000000000000600052603260045260246000fd5b7f4e65656420746f20706179207570210000000000000000000000000000000000600082015250565b6000614471600f836137ac565b915061447c8261443b565b602082019050919050565b600060208201905081810360008301526144a081614464565b9050919050565b7f4e487b7100000000000000000000000000000000000000000000000000000000600052601160045260246000fd5b60006144e182613591565b91507fffffffffffffffffffffffffffffffffffffffffffffffffffffffffffffffff8203614513576145126144a7565b5b600182019050919050565b600081905092915050565b6000614534826137a1565b61453e818561451e565b935061454e8185602086016137bd565b80840191505092915050565b60006145668284614529565b915081905092915050565b7f5472616e736665722063616c6c6572206973206e6f74206f776e657200000000600082015250565b60006145a7601c836137ac565b91506145b282614571565b602082019050919050565b600060208201905081810360008301526145d68161459a565b9050919050565b60006145e882613591565b91506145f383613591565b925082820390508181111561460b5761460a6144a7565b5b92915050565b7f4e487b7100000000000000000000000000000000000000000000000000000000600052603160045260246000fd5b7f506c6179657220616c7265616479207265676973746572656400000000000000600082015250565b60006146766019836137ac565b915061468182614640565b602082019050919050565b600060208201905081810360008301526146a581614669565b9050919050565b60008190508160005260206000209050919050565b60006020601f8301049050919050565b600082821b905092915050565b60006008830261470e7fffffffffffffffffffffffffffffffffffffffffffffffffffffffffffffffff826146d1565b61471886836146d1565b95508019841693508086168417925050509392505050565b6000819050919050565b600061475561475061474b84613591565b614730565b613591565b9050919050565b6000819050919050565b61476f8361473a565b61478361477b8261475c565b8484546146de565b825550505050565b600090565b61479861478b565b6147a3818484614766565b505050565b5b818110156147c7576147bc600082614790565b6001810190506147a9565b5050565b601f82111561480c576147dd816146ac565b6147e6846146c1565b810160208510156147f5578190505b614809614801856146c1565b8301826147a8565b50505b505050565b600082821c905092915050565b600061482f60001984600802614811565b1980831691505092915050565b6000614848838361481e565b9150826002028217905092915050565b614861826137a1565b67ffffffffffffffff81111561487a57614879613b13565b5b6148848254614338565b61488f8282856147cb565b600060209050601f8311600181146148c257600084156148b0578287015190505b6148ba858261483c565b865550614922565b601f1984166148d0866146ac565b60005b828110156148f8578489015182556001820191506020850194506020810190506148d3565b868310156149155784890151614911601f89168261481e565b8355505b6001600288020188555050505b505050505050565b600081519050919050565b600082825260208201905092915050565b60006149518261492a565b61495b8185614935565b935061496b8185602086016137bd565b614974816137e7565b840191505092915050565b60006080820190506149946000830187613626565b6149a16020830186613626565b6149ae6040830185613777565b81810360608301526149c08184614946565b905095945050505050565b6000815190506149da8161367c565b92915050565b6000602082840312156149f6576149f5613587565b5b6000614a04848285016149cb565b91505092915050565b6000614a198285614529565b9150614a258284614529565b91508190509392505050565b6000604082019050614a466000830185613626565b614a536020830184613777565b9392505050565b7f4e487b7100000000000000000000000000000000000000000000000000000000600052601260045260246000fdfea2646970667358221220aec82204d3ded450c2a184ba24ff11c0f58ffe2f1959f0be36517ded04e3858764736f6c63430008180033",
  "linkReferences": {},
  "deployedLinkReferences": {}
}