{
  "_format": "hh-sol-artifact-1",
  "contractName": "NFTTCG",
  "sourceName": "contracts/NFTTCG.sol",
  "abi": [
    {
      "inputs": [
        {
          "internalType": "address",
          "name": "initialOwner",
          "type": "address"
        }
      ],
      "stateMutability": "nonpayable",
      "type": "constructor"
    },
    {
      "inputs": [
        {
          "internalType": "address",
          "name": "sender",
          "type": "address"
        },
        {
          "internalType": "uint256",
          "name": "tokenId",
          "type": "uint256"
        },
        {
          "internalType": "address",
          "name": "owner",
          "type": "address"
        }
      ],
      "name": "ERC721IncorrectOwner",
      "type": "error"
    },
    {
      "inputs": [
        {
          "internalType": "address",
          "name": "operator",
          "type": "address"
        },
        {
          "internalType": "uint256",
          "name": "tokenId",
          "type": "uint256"
        }
      ],
      "name": "ERC721InsufficientApproval",
      "type": "error"
    },
    {
      "inputs": [
        {
          "internalType": "address",
          "name": "approver",
          "type": "address"
        }
      ],
      "name": "ERC721InvalidApprover",
      "type": "error"
    },
    {
      "inputs": [
        {
          "internalType": "address",
          "name": "operator",
          "type": "address"
        }
      ],
      "name": "ERC721InvalidOperator",
      "type": "error"
    },
    {
      "inputs": [
        {
          "internalType": "address",
          "name": "owner",
          "type": "address"
        }
      ],
      "name": "ERC721InvalidOwner",
      "type": "error"
    },
    {
      "inputs": [
        {
          "internalType": "address",
          "name": "receiver",
          "type": "address"
        }
      ],
      "name": "ERC721InvalidReceiver",
      "type": "error"
    },
    {
      "inputs": [
        {
          "internalType": "address",
          "name": "sender",
          "type": "address"
        }
      ],
      "name": "ERC721InvalidSender",
      "type": "error"
    },
    {
      "inputs": [
        {
          "internalType": "uint256",
          "name": "tokenId",
          "type": "uint256"
        }
      ],
      "name": "ERC721NonexistentToken",
      "type": "error"
    },
    {
      "inputs": [
        {
          "internalType": "address",
          "name": "owner",
          "type": "address"
        }
      ],
      "name": "OwnableInvalidOwner",
      "type": "error"
    },
    {
      "inputs": [
        {
          "internalType": "address",
          "name": "account",
          "type": "address"
        }
      ],
      "name": "OwnableUnauthorizedAccount",
      "type": "error"
    },
    {
      "anonymous": false,
      "inputs": [
        {
          "indexed": true,
          "internalType": "address",
          "name": "owner",
          "type": "address"
        },
        {
          "indexed": true,
          "internalType": "address",
          "name": "approved",
          "type": "address"
        },
        {
          "indexed": true,
          "internalType": "uint256",
          "name": "tokenId",
          "type": "uint256"
        }
      ],
      "name": "Approval",
      "type": "event"
    },
    {
      "anonymous": false,
      "inputs": [
        {
          "indexed": true,
          "internalType": "address",
          "name": "owner",
          "type": "address"
        },
        {
          "indexed": true,
          "internalType": "address",
          "name": "operator",
          "type": "address"
        },
        {
          "indexed": false,
          "internalType": "bool",
          "name": "approved",
          "type": "bool"
        }
      ],
      "name": "ApprovalForAll",
      "type": "event"
    },
    {
      "anonymous": false,
      "inputs": [
        {
          "indexed": false,
          "internalType": "uint256",
          "name": "_fromTokenId",
          "type": "uint256"
        },
        {
          "indexed": false,
          "internalType": "uint256",
          "name": "_toTokenId",
          "type": "uint256"
        }
      ],
      "name": "BatchMetadataUpdate",
      "type": "event"
    },
    {
      "anonymous": false,
      "inputs": [
        {
          "indexed": true,
          "internalType": "address",
          "name": "host",
          "type": "address"
        },
        {
          "indexed": false,
          "internalType": "string",
          "name": "battleName",
          "type": "string"
        }
      ],
      "name": "BattleCreated",
      "type": "event"
    },
    {
      "anonymous": false,
      "inputs": [
        {
          "indexed": true,
          "internalType": "address",
          "name": "opponent",
          "type": "address"
        },
        {
          "indexed": false,
          "internalType": "string",
          "name": "battleName",
          "type": "string"
        }
      ],
      "name": "BattleJoined",
      "type": "event"
    },
    {
      "anonymous": false,
      "inputs": [
        {
          "indexed": false,
          "internalType": "uint256",
          "name": "_tokenId",
          "type": "uint256"
        }
      ],
      "name": "MetadataUpdate",
      "type": "event"
    },
    {
      "anonymous": false,
      "inputs": [
        {
          "indexed": true,
          "internalType": "address",
          "name": "recipient",
          "type": "address"
        },
        {
          "indexed": true,
          "internalType": "uint256",
          "name": "tokenId",
          "type": "uint256"
        },
        {
          "indexed": false,
          "internalType": "string",
          "name": "metadataURI",
          "type": "string"
        }
      ],
      "name": "NFTMinted",
      "type": "event"
    },
    {
      "anonymous": false,
      "inputs": [
        {
          "indexed": true,
          "internalType": "address",
          "name": "owner",
          "type": "address"
        },
        {
          "indexed": false,
          "internalType": "string",
          "name": "name",
          "type": "string"
        }
      ],
      "name": "NewPlayer",
      "type": "event"
    },
    {
      "anonymous": false,
      "inputs": [
        {
          "indexed": true,
          "internalType": "address",
          "name": "previousOwner",
          "type": "address"
        },
        {
          "indexed": true,
          "internalType": "address",
          "name": "newOwner",
          "type": "address"
        }
      ],
      "name": "OwnershipTransferred",
      "type": "event"
    },
    {
      "anonymous": false,
      "inputs": [
        {
          "indexed": true,
          "internalType": "address",
          "name": "from",
          "type": "address"
        },
        {
          "indexed": true,
          "internalType": "address",
          "name": "to",
          "type": "address"
        },
        {
          "indexed": true,
          "internalType": "uint256",
          "name": "tokenId",
          "type": "uint256"
        }
      ],
      "name": "Transfer",
      "type": "event"
    },
    {
      "inputs": [],
      "name": "_nextTokenId",
      "outputs": [
        {
          "internalType": "uint256",
          "name": "",
          "type": "uint256"
        }
      ],
      "stateMutability": "view",
      "type": "function"
    },
    {
      "inputs": [
        {
          "internalType": "address",
          "name": "to",
          "type": "address"
        },
        {
          "internalType": "uint256",
          "name": "tokenId",
          "type": "uint256"
        }
      ],
      "name": "approve",
      "outputs": [],
      "stateMutability": "nonpayable",
      "type": "function"
    },
    {
      "inputs": [
        {
          "internalType": "address",
          "name": "owner",
          "type": "address"
        }
      ],
      "name": "balanceOf",
      "outputs": [
        {
          "internalType": "uint256",
          "name": "",
          "type": "uint256"
        }
      ],
      "stateMutability": "view",
      "type": "function"
    },
    {
      "inputs": [
        {
          "internalType": "string",
          "name": "",
          "type": "string"
        }
      ],
      "name": "battles",
      "outputs": [
        {
          "internalType": "address",
          "name": "host",
          "type": "address"
        },
        {
          "internalType": "address",
          "name": "opponentAddress",
          "type": "address"
        },
        {
          "internalType": "string",
          "name": "battleMode",
          "type": "string"
        },
        {
          "internalType": "bool",
          "name": "battleStatus",
          "type": "bool"
        }
      ],
      "stateMutability": "view",
      "type": "function"
    },
    {
      "inputs": [
        {
          "internalType": "string",
          "name": "",
          "type": "string"
        },
        {
          "internalType": "uint256",
          "name": "",
          "type": "uint256"
        }
      ],
      "name": "battlesByGameMode",
      "outputs": [
        {
          "internalType": "string",
          "name": "",
          "type": "string"
        }
      ],
      "stateMutability": "view",
      "type": "function"
    },
    {
      "inputs": [
        {
          "internalType": "address",
          "name": "host",
          "type": "address"
        },
        {
          "internalType": "string",
          "name": "_battleMode",
          "type": "string"
        },
        {
          "internalType": "string",
          "name": "_battleName",
          "type": "string"
        }
      ],
      "name": "createBattle",
      "outputs": [],
      "stateMutability": "nonpayable",
      "type": "function"
    },
    {
      "inputs": [
        {
          "internalType": "string",
          "name": "_battleName",
          "type": "string"
        }
      ],
      "name": "deleteBattle",
      "outputs": [],
      "stateMutability": "nonpayable",
      "type": "function"
    },
    {
      "inputs": [
        {
          "internalType": "uint256",
          "name": "tokenId",
          "type": "uint256"
        }
      ],
      "name": "getApproved",
      "outputs": [
        {
          "internalType": "address",
          "name": "",
          "type": "address"
        }
      ],
      "stateMutability": "view",
      "type": "function"
    },
    {
      "inputs": [
        {
          "internalType": "address",
          "name": "playerAddress",
          "type": "address"
        }
      ],
      "name": "getAvailableCards",
      "outputs": [
        {
          "internalType": "string[]",
          "name": "",
          "type": "string[]"
        }
      ],
      "stateMutability": "view",
      "type": "function"
    },
    {
      "inputs": [
        {
          "internalType": "address",
          "name": "previousOwner",
          "type": "address"
        }
      ],
      "name": "getContractCards",
      "outputs": [
        {
          "internalType": "string[]",
          "name": "",
          "type": "string[]"
        }
      ],
      "stateMutability": "view",
      "type": "function"
    },
    {
      "inputs": [
        {
          "internalType": "string",
          "name": "_gameMode",
          "type": "string"
        }
      ],
      "name": "getIncompleteBattleNames",
      "outputs": [
        {
          "internalType": "string[]",
          "name": "",
          "type": "string[]"
        }
      ],
      "stateMutability": "view",
      "type": "function"
    },
    {
      "inputs": [
        {
          "internalType": "string",
          "name": "tokenName",
          "type": "string"
        }
      ],
      "name": "getOwnerOfTokenByName",
      "outputs": [
        {
          "internalType": "address",
          "name": "",
          "type": "address"
        }
      ],
      "stateMutability": "view",
      "type": "function"
    },
    {
      "inputs": [
        {
          "internalType": "address",
          "name": "addr",
          "type": "address"
        }
      ],
      "name": "getPlayer",
      "outputs": [
        {
          "components": [
            {
              "internalType": "address",
              "name": "playerAddress",
              "type": "address"
            },
            {
              "internalType": "string",
              "name": "playerName",
              "type": "string"
            },
            {
              "internalType": "string",
              "name": "emailId",
              "type": "string"
            },
            {
              "internalType": "uint256[]",
              "name": "playerCards",
              "type": "uint256[]"
            }
          ],
          "internalType": "struct NFTTCG.Player",
          "name": "",
          "type": "tuple"
        }
      ],
      "stateMutability": "view",
      "type": "function"
    },
    {
      "inputs": [
        {
          "internalType": "address",
          "name": "owner",
          "type": "address"
        },
        {
          "internalType": "address",
          "name": "operator",
          "type": "address"
        }
      ],
      "name": "isApprovedForAll",
      "outputs": [
        {
          "internalType": "bool",
          "name": "",
          "type": "bool"
        }
      ],
      "stateMutability": "view",
      "type": "function"
    },
    {
      "inputs": [
        {
          "internalType": "string",
          "name": "_battleName",
          "type": "string"
        }
      ],
      "name": "isBattleStartedByName",
      "outputs": [
        {
          "internalType": "bool",
          "name": "",
          "type": "bool"
        }
      ],
      "stateMutability": "view",
      "type": "function"
    },
    {
      "inputs": [
        {
          "internalType": "address",
          "name": "addr",
          "type": "address"
        }
      ],
      "name": "isPlayer",
      "outputs": [
        {
          "internalType": "bool",
          "name": "",
          "type": "bool"
        }
      ],
      "stateMutability": "view",
      "type": "function"
    },
    {
      "inputs": [
        {
          "internalType": "string",
          "name": "_battleName",
          "type": "string"
        },
        {
          "internalType": "address",
          "name": "_opponentAddress",
          "type": "address"
        }
      ],
      "name": "joinBattleByName",
      "outputs": [],
      "stateMutability": "nonpayable",
      "type": "function"
    },
    {
      "inputs": [
        {
          "internalType": "string",
          "name": "",
          "type": "string"
        }
      ],
      "name": "metadataToTokenId",
      "outputs": [
        {
          "internalType": "uint256",
          "name": "",
          "type": "uint256"
        }
      ],
      "stateMutability": "view",
      "type": "function"
    },
    {
      "inputs": [],
      "name": "name",
      "outputs": [
        {
          "internalType": "string",
          "name": "",
          "type": "string"
        }
      ],
      "stateMutability": "view",
      "type": "function"
    },
    {
      "inputs": [
        {
          "internalType": "address",
          "name": "",
          "type": "address"
        },
        {
          "internalType": "address",
          "name": "",
          "type": "address"
        },
        {
          "internalType": "uint256",
          "name": "",
          "type": "uint256"
        },
        {
          "internalType": "bytes",
          "name": "",
          "type": "bytes"
        }
      ],
      "name": "onERC721Received",
      "outputs": [
        {
          "internalType": "bytes4",
          "name": "",
          "type": "bytes4"
        }
      ],
      "stateMutability": "nonpayable",
      "type": "function"
    },
    {
      "inputs": [],
      "name": "owner",
      "outputs": [
        {
          "internalType": "address",
          "name": "",
          "type": "address"
        }
      ],
      "stateMutability": "view",
      "type": "function"
    },
    {
      "inputs": [
        {
          "internalType": "uint256",
          "name": "tokenId",
          "type": "uint256"
        }
      ],
      "name": "ownerOf",
      "outputs": [
        {
          "internalType": "address",
          "name": "",
          "type": "address"
        }
      ],
      "stateMutability": "view",
      "type": "function"
    },
    {
      "inputs": [
        {
          "internalType": "address",
          "name": "recipient",
          "type": "address"
        },
        {
          "internalType": "string",
          "name": "metadataURI",
          "type": "string"
        }
      ],
      "name": "payToMint",
      "outputs": [],
      "stateMutability": "payable",
      "type": "function"
    },
    {
      "inputs": [
        {
          "internalType": "address",
          "name": "",
          "type": "address"
        }
      ],
      "name": "playerInfo",
      "outputs": [
        {
          "internalType": "uint256",
          "name": "",
          "type": "uint256"
        }
      ],
      "stateMutability": "view",
      "type": "function"
    },
    {
      "inputs": [
        {
          "internalType": "uint256",
          "name": "",
          "type": "uint256"
        }
      ],
      "name": "players",
      "outputs": [
        {
          "internalType": "address",
          "name": "playerAddress",
          "type": "address"
        },
        {
          "internalType": "string",
          "name": "playerName",
          "type": "string"
        },
        {
          "internalType": "string",
          "name": "emailId",
          "type": "string"
        }
      ],
      "stateMutability": "view",
      "type": "function"
    },
    {
      "inputs": [
        {
          "internalType": "uint256",
          "name": "",
          "type": "uint256"
        }
      ],
      "name": "previousTokenOwner",
      "outputs": [
        {
          "internalType": "address",
          "name": "",
          "type": "address"
        }
      ],
      "stateMutability": "view",
      "type": "function"
    },
    {
      "inputs": [
        {
          "internalType": "address",
          "name": "_address",
          "type": "address"
        },
        {
          "internalType": "string",
          "name": "_name",
          "type": "string"
        },
        {
          "internalType": "string",
          "name": "_email",
          "type": "string"
        }
      ],
      "name": "registerPlayer",
      "outputs": [],
      "stateMutability": "nonpayable",
      "type": "function"
    },
    {
      "inputs": [],
      "name": "renounceOwnership",
      "outputs": [],
      "stateMutability": "nonpayable",
      "type": "function"
    },
    {
      "inputs": [
        {
          "internalType": "address",
          "name": "from",
          "type": "address"
        },
        {
          "internalType": "address",
          "name": "to",
          "type": "address"
        },
        {
          "internalType": "uint256",
          "name": "tokenId",
          "type": "uint256"
        }
      ],
      "name": "safeTransferFrom",
      "outputs": [],
      "stateMutability": "nonpayable",
      "type": "function"
    },
    {
      "inputs": [
        {
          "internalType": "address",
          "name": "from",
          "type": "address"
        },
        {
          "internalType": "address",
          "name": "to",
          "type": "address"
        },
        {
          "internalType": "uint256",
          "name": "tokenId",
          "type": "uint256"
        },
        {
          "internalType": "bytes",
          "name": "data",
          "type": "bytes"
        }
      ],
      "name": "safeTransferFrom",
      "outputs": [],
      "stateMutability": "nonpayable",
      "type": "function"
    },
    {
      "inputs": [
        {
          "internalType": "address",
          "name": "operator",
          "type": "address"
        },
        {
          "internalType": "bool",
          "name": "approved",
          "type": "bool"
        }
      ],
      "name": "setApprovalForAll",
      "outputs": [],
      "stateMutability": "nonpayable",
      "type": "function"
    },
    {
      "inputs": [
        {
          "internalType": "bytes4",
          "name": "interfaceId",
          "type": "bytes4"
        }
      ],
      "name": "supportsInterface",
      "outputs": [
        {
          "internalType": "bool",
          "name": "",
          "type": "bool"
        }
      ],
      "stateMutability": "view",
      "type": "function"
    },
    {
      "inputs": [],
      "name": "symbol",
      "outputs": [
        {
          "internalType": "string",
          "name": "",
          "type": "string"
        }
      ],
      "stateMutability": "view",
      "type": "function"
    },
    {
      "inputs": [
        {
          "internalType": "uint256",
          "name": "tokenId",
          "type": "uint256"
        }
      ],
      "name": "tokenURI",
      "outputs": [
        {
          "internalType": "string",
          "name": "",
          "type": "string"
        }
      ],
      "stateMutability": "view",
      "type": "function"
    },
    {
      "inputs": [
        {
          "internalType": "address",
          "name": "to",
          "type": "address"
        },
        {
          "internalType": "string",
          "name": "metadata",
          "type": "string"
        }
      ],
      "name": "transferCardFromContract",
      "outputs": [],
      "stateMutability": "nonpayable",
      "type": "function"
    },
    {
      "inputs": [
        {
          "internalType": "string",
          "name": "metadata",
          "type": "string"
        }
      ],
      "name": "transferCardToContract",
      "outputs": [],
      "stateMutability": "nonpayable",
      "type": "function"
    },
    {
      "inputs": [
        {
          "internalType": "address",
          "name": "from",
          "type": "address"
        },
        {
          "internalType": "address",
          "name": "to",
          "type": "address"
        },
        {
          "internalType": "uint256",
          "name": "tokenId",
          "type": "uint256"
        }
      ],
      "name": "transferFrom",
      "outputs": [],
      "stateMutability": "nonpayable",
      "type": "function"
    },
    {
      "inputs": [
        {
          "internalType": "address",
          "name": "newOwner",
          "type": "address"
        }
      ],
      "name": "transferOwnership",
      "outputs": [],
      "stateMutability": "nonpayable",
      "type": "function"
    }
  ],
  "bytecode": "0x60806040523480156200001157600080fd5b5060405162005f1838038062005f18833981810160405281019062000037919062000479565b806040518060400160405280600681526020017f4e465454434700000000000000000000000000000000000000000000000000008152506040518060400160405280600381526020017f54434700000000000000000000000000000000000000000000000000000000008152508160009081620000b5919062000725565b508060019081620000c7919062000725565b505050600073ffffffffffffffffffffffffffffffffffffffff168173ffffffffffffffffffffffffffffffffffffffff16036200013f5760006040517f1e4fbdf70000000000000000000000000000000000000000000000000000000081526004016200013691906200081d565b60405180910390fd5b62000150816200016860201b60201c565b50620001616200022e60201b60201c565b506200083a565b6000600660009054906101000a900473ffffffffffffffffffffffffffffffffffffffff16905081600660006101000a81548173ffffffffffffffffffffffffffffffffffffffff021916908373ffffffffffffffffffffffffffffffffffffffff1602179055508173ffffffffffffffffffffffffffffffffffffffff168173ffffffffffffffffffffffffffffffffffffffff167f8be0079c531659141344cd1fd0a4f28419497f9722a3daafe3b4186f6b6457e060405160405180910390a35050565b600e6040518060800160405280600073ffffffffffffffffffffffffffffffffffffffff168152602001604051806020016040528060008152508152602001604051806020016040528060008152508152602001600067ffffffffffffffff811115620002a0576200029f620004b6565b5b604051908082528060200260200182016040528015620002cf5781602001602082028036833780820191505090505b50815250908060018154018082558091505060019003906000526020600020906004020160009091909190915060008201518160000160006101000a81548173ffffffffffffffffffffffffffffffffffffffff021916908373ffffffffffffffffffffffffffffffffffffffff16021790555060208201518160010190816200035a919062000725565b50604082015181600201908162000372919062000725565b506060820151816003019080519060200190620003919291906200039e565b5050506001600881905550565b828054828255906000526020600020908101928215620003dd579160200282015b82811115620003dc578251825591602001919060010190620003bf565b5b509050620003ec9190620003f0565b5090565b5b808211156200040b576000816000905550600101620003f1565b5090565b600080fd5b600073ffffffffffffffffffffffffffffffffffffffff82169050919050565b6000620004418262000414565b9050919050565b620004538162000434565b81146200045f57600080fd5b50565b600081519050620004738162000448565b92915050565b6000602082840312156200049257620004916200040f565b5b6000620004a28482850162000462565b91505092915050565b600081519050919050565b7f4e487b7100000000000000000000000000000000000000000000000000000000600052604160045260246000fd5b7f4e487b7100000000000000000000000000000000000000000000000000000000600052602260045260246000fd5b600060028204905060018216806200052d57607f821691505b602082108103620005435762000542620004e5565b5b50919050565b60008190508160005260206000209050919050565b60006020601f8301049050919050565b600082821b905092915050565b600060088302620005ad7fffffffffffffffffffffffffffffffffffffffffffffffffffffffffffffffff826200056e565b620005b986836200056e565b95508019841693508086168417925050509392505050565b6000819050919050565b6000819050919050565b60006200060662000600620005fa84620005d1565b620005db565b620005d1565b9050919050565b6000819050919050565b6200062283620005e5565b6200063a62000631826200060d565b8484546200057b565b825550505050565b600090565b6200065162000642565b6200065e81848462000617565b505050565b5b8181101562000686576200067a60008262000647565b60018101905062000664565b5050565b601f821115620006d5576200069f8162000549565b620006aa846200055e565b81016020851015620006ba578190505b620006d2620006c9856200055e565b83018262000663565b50505b505050565b600082821c905092915050565b6000620006fa60001984600802620006da565b1980831691505092915050565b6000620007158383620006e7565b9150826002028217905092915050565b6200073082620004ab565b67ffffffffffffffff8111156200074c576200074b620004b6565b5b62000758825462000514565b620007658282856200068a565b600060209050601f8311600181146200079d576000841562000788578287015190505b62000794858262000707565b86555062000804565b601f198416620007ad8662000549565b60005b82811015620007d757848901518255600182019150602085019450602081019050620007b0565b86831015620007f75784890151620007f3601f891682620006e7565b8355505b6001600288020188555050505b505050505050565b620008178162000434565b82525050565b60006020820190506200083460008301846200080c565b92915050565b6156ce806200084a6000396000f3fe6080604052600436106102255760003560e01c80637de4625d11610123578063c87b56dd116100ab578063ef581f111161006f578063ef581f11146108c7578063f2fde38b14610904578063f3eb8b531461092d578063f71d96cb14610956578063f93f15381461099557610225565b8063c87b56dd14610796578063d28e8e19146107d3578063d33d0be814610810578063e796edeb1461084d578063e985e9c51461088a57610225565b806399adbfd5116100f257806399adbfd5146106b5578063a04b30d0146106de578063a22cb4651461071b578063ab01d9a314610744578063b88d4fde1461076d57610225565b80637de4625d146105f95780638b2fb93a146106225780638da5cb5b1461065f57806395d89b411461068a57610225565b80634a60f620116101b15780636352211e116101755780636352211e146104ff578063682efc011461053c57806370a0823114610565578063715018a6146105a257806377bb7b78146105b957610225565b80634a60f620146104015780634b1146911461042c57806354bfa3b4146104695780635c12cd4b146104a6578063615fd9e2146104e357610225565b806309c95e10116101f857806309c95e10146102f8578063150b7a021461033557806323b872dd146103725780633817b4591461039b57806342842e0e146103d857610225565b806301ffc9a71461022a57806306fdde0314610267578063081812fc14610292578063095ea7b3146102cf575b600080fd5b34801561023657600080fd5b50610251600480360381019061024c9190613d62565b6109be565b60405161025e9190613daa565b60405180910390f35b34801561027357600080fd5b5061027c6109d0565b6040516102899190613e55565b60405180910390f35b34801561029e57600080fd5b506102b960048036038101906102b49190613ead565b610a62565b6040516102c69190613f1b565b60405180910390f35b3480156102db57600080fd5b506102f660048036038101906102f19190613f62565b610a7e565b005b34801561030457600080fd5b5061031f600480360381019061031a9190613fa2565b610a94565b60405161032c9190613daa565b60405180910390f35b34801561034157600080fd5b5061035c60048036038101906103579190614104565b610aef565b6040516103699190614196565b60405180910390f35b34801561037e57600080fd5b50610399600480360381019061039491906141b1565b610b03565b005b3480156103a757600080fd5b506103c260048036038101906103bd91906142a5565b610c05565b6040516103cf9190613f1b565b60405180910390f35b3480156103e457600080fd5b506103ff60048036038101906103fa91906141b1565b610c7d565b005b34801561040d57600080fd5b50610416610c9d565b60405161042391906142fd565b60405180910390f35b34801561043857600080fd5b50610453600480360381019061044e9190613fa2565b610ca3565b60405161046091906142fd565b60405180910390f35b34801561047557600080fd5b50610490600480360381019061048b9190613fa2565b610cbb565b60405161049d9190614424565b60405180910390f35b3480156104b257600080fd5b506104cd60048036038101906104c89190613fa2565b610e1a565b6040516104da9190614584565b60405180910390f35b6104fd60048036038101906104f891906145a6565b6110af565b005b34801561050b57600080fd5b5061052660048036038101906105219190613ead565b611278565b6040516105339190613f1b565b60405180910390f35b34801561054857600080fd5b50610563600480360381019061055e91906142a5565b61128a565b005b34801561057157600080fd5b5061058c60048036038101906105879190613fa2565b6114aa565b60405161059991906142fd565b60405180910390f35b3480156105ae57600080fd5b506105b7611564565b005b3480156105c557600080fd5b506105e060048036038101906105db91906142a5565b611578565b6040516105f09493929190614602565b60405180910390f35b34801561060557600080fd5b50610620600480360381019061061b91906142a5565b611693565b005b34801561062e57600080fd5b50610649600480360381019061064491906142a5565b61196a565b6040516106569190613daa565b60405180910390f35b34801561066b57600080fd5b506106746119f0565b6040516106819190613f1b565b60405180910390f35b34801561069657600080fd5b5061069f611a1a565b6040516106ac9190613e55565b60405180910390f35b3480156106c157600080fd5b506106dc60048036038101906106d7919061464e565b611aac565b005b3480156106ea57600080fd5b50610705600480360381019061070091906146d9565b611cde565b6040516107129190613e55565b60405180910390f35b34801561072757600080fd5b50610742600480360381019061073d9190614761565b611dad565b005b34801561075057600080fd5b5061076b6004803603810190610766919061464e565b611dc3565b005b34801561077957600080fd5b50610794600480360381019061078f9190614104565b611feb565b005b3480156107a257600080fd5b506107bd60048036038101906107b89190613ead565b612008565b6040516107ca9190613e55565b60405180910390f35b3480156107df57600080fd5b506107fa60048036038101906107f59190613fa2565b61201a565b6040516108079190614424565b60405180910390f35b34801561081c57600080fd5b50610837600480360381019061083291906142a5565b61219d565b60405161084491906142fd565b60405180910390f35b34801561085957600080fd5b50610874600480360381019061086f9190613ead565b6121cb565b6040516108819190613f1b565b60405180910390f35b34801561089657600080fd5b506108b160048036038101906108ac91906147a1565b6121fe565b6040516108be9190613daa565b60405180910390f35b3480156108d357600080fd5b506108ee60048036038101906108e991906142a5565b612292565b6040516108fb9190614424565b60405180910390f35b34801561091057600080fd5b5061092b60048036038101906109269190613fa2565b612460565b005b34801561093957600080fd5b50610954600480360381019061094f91906147e1565b6124e6565b005b34801561096257600080fd5b5061097d60048036038101906109789190613ead565b612655565b60405161098c9392919061483d565b60405180910390f35b3480156109a157600080fd5b506109bc60048036038101906109b791906145a6565b6127bf565b005b60006109c9826129a0565b9050919050565b6060600080546109df906148b1565b80601f0160208091040260200160405190810160405280929190818152602001828054610a0b906148b1565b8015610a585780601f10610a2d57610100808354040283529160200191610a58565b820191906000526020600020905b815481529060010190602001808311610a3b57829003601f168201915b5050505050905090565b6000610a6d82612a01565b50610a7782612a89565b9050919050565b610a908282610a8b612ac6565b612ace565b5050565b600080600a60008473ffffffffffffffffffffffffffffffffffffffff1673ffffffffffffffffffffffffffffffffffffffff1681526020019081526020016000205403610ae55760009050610aea565b600190505b919050565b600063150b7a0260e01b9050949350505050565b600073ffffffffffffffffffffffffffffffffffffffff168273ffffffffffffffffffffffffffffffffffffffff1603610b755760006040517f64a0ae92000000000000000000000000000000000000000000000000000000008152600401610b6c9190613f1b565b60405180910390fd5b6000610b898383610b84612ac6565b612ae0565b90508373ffffffffffffffffffffffffffffffffffffffff168173ffffffffffffffffffffffffffffffffffffffff1614610bff578382826040517f64283d7b000000000000000000000000000000000000000000000000000000008152600401610bf6939291906148e2565b60405180910390fd5b50505050565b600080600d83604051610c189190614955565b908152602001604051809103902054905060008103610c6c576040517f08c379a0000000000000000000000000000000000000000000000000000000008152600401610c63906149b8565b60405180910390fd5b610c7581611278565b915050919050565b610c9883838360405180602001604052806000815250611feb565b505050565b60085481565b600a6020528060005260406000206000915090505481565b6060600060085467ffffffffffffffff811115610cdb57610cda613fd9565b5b604051908082528060200260200182016040528015610d0e57816020015b6060815260200190600190039081610cf95790505b509050600080600190505b600854811015610e0c573073ffffffffffffffffffffffffffffffffffffffff16610d4382611278565b73ffffffffffffffffffffffffffffffffffffffff16148015610dc457508473ffffffffffffffffffffffffffffffffffffffff16600f600083815260200190815260200160002060009054906101000a900473ffffffffffffffffffffffffffffffffffffffff1673ffffffffffffffffffffffffffffffffffffffff16145b15610dff57610dd281612008565b838381518110610de557610de46149d8565b5b60200260200101819052508180610dfb90614a36565b9250505b8080600101915050610d19565b508082528192505050919050565b610e22613c0e565b610e2b82610a94565b610e6a576040517f08c379a0000000000000000000000000000000000000000000000000000000008152600401610e6190614aca565b60405180910390fd5b600e600a60008473ffffffffffffffffffffffffffffffffffffffff1673ffffffffffffffffffffffffffffffffffffffff1681526020019081526020016000205481548110610ebd57610ebc6149d8565b5b90600052602060002090600402016040518060800160405290816000820160009054906101000a900473ffffffffffffffffffffffffffffffffffffffff1673ffffffffffffffffffffffffffffffffffffffff1673ffffffffffffffffffffffffffffffffffffffff168152602001600182018054610f3c906148b1565b80601f0160208091040260200160405190810160405280929190818152602001828054610f68906148b1565b8015610fb55780601f10610f8a57610100808354040283529160200191610fb5565b820191906000526020600020905b815481529060010190602001808311610f9857829003601f168201915b50505050508152602001600282018054610fce906148b1565b80601f0160208091040260200160405190810160405280929190818152602001828054610ffa906148b1565b80156110475780601f1061101c57610100808354040283529160200191611047565b820191906000526020600020905b81548152906001019060200180831161102a57829003601f168201915b505050505081526020016003820180548060200260200160405190810160405280929190818152602001828054801561109f57602002820191906000526020600020905b81548152602001906001019080831161108b575b5050505050815250509050919050565b6110b882610a94565b6110f7576040517f08c379a00000000000000000000000000000000000000000000000000000000081526004016110ee90614b36565b60405180910390fd5b66b1a2bc2ec50000341015611141576040517f08c379a000000000000000000000000000000000000000000000000000000000815260040161113890614ba2565b60405180910390fd5b60006008600081548092919061115690614a36565b9190505590506111668382612cfa565b6111708183612df3565b80600d836040516111819190614955565b908152602001604051809103902081905550808373ffffffffffffffffffffffffffffffffffffffff167fd35bb95e09c04b219e35047ce7b7b300e3384264ef84a40456943dbc0fc17c14846040516111da9190613e55565b60405180910390a36000600a60008573ffffffffffffffffffffffffffffffffffffffff1673ffffffffffffffffffffffffffffffffffffffff168152602001908152602001600020549050600e818154811061123a576112396149d8565b5b906000526020600020906004020160030182908060018154018082558091505060019003906000526020600020016000909190919091505550505050565b600061128382612a01565b9050919050565b6000600d8260405161129c9190614955565b9081526020016040518091039020549050600081036112f0576040517f08c379a00000000000000000000000000000000000000000000000000000000081526004016112e790614c34565b60405180910390fd5b3373ffffffffffffffffffffffffffffffffffffffff1661131082611278565b73ffffffffffffffffffffffffffffffffffffffff1614611366576040517f08c379a000000000000000000000000000000000000000000000000000000000815260040161135d90614cc6565b60405180910390fd5b611371333083610c7d565b61137b8133612e4f565b6000600a60003373ffffffffffffffffffffffffffffffffffffffff1673ffffffffffffffffffffffffffffffffffffffff1681526020019081526020016000205490506000600e82815481106113d5576113d46149d8565b5b9060005260206000209060040201600301905060005b81805490508110156114a3578382828154811061140b5761140a6149d8565b5b90600052602060002001540361149657816001838054905061142d9190614ce6565b8154811061143e5761143d6149d8565b5b906000526020600020015482828154811061145c5761145b6149d8565b5b90600052602060002001819055508180548061147b5761147a614d1a565b5b600190038181906000526020600020016000905590556114a3565b80806001019150506113eb565b5050505050565b60008073ffffffffffffffffffffffffffffffffffffffff168273ffffffffffffffffffffffffffffffffffffffff160361151d5760006040517f89c62b640000000000000000000000000000000000000000000000000000000081526004016115149190613f1b565b60405180910390fd5b600360008373ffffffffffffffffffffffffffffffffffffffff1673ffffffffffffffffffffffffffffffffffffffff168152602001908152602001600020549050919050565b61156c612ea5565b6115766000612f2c565b565b600b818051602081018201805184825260208301602085012081835280955050505050506000915090508060000160009054906101000a900473ffffffffffffffffffffffffffffffffffffffff16908060010160009054906101000a900473ffffffffffffffffffffffffffffffffffffffff16908060020180546115fd906148b1565b80601f0160208091040260200160405190810160405280929190818152602001828054611629906148b1565b80156116765780601f1061164b57610100808354040283529160200191611676565b820191906000526020600020905b81548152906001019060200180831161165957829003601f168201915b5050505050908060030160009054906101000a900460ff16905084565b61169c81612ff2565b6116db576040517f08c379a00000000000000000000000000000000000000000000000000000000081526004016116d290614d95565b60405180910390fd5b6000600b826040516116ed9190614955565b908152602001604051809103902090508060000160009054906101000a900473ffffffffffffffffffffffffffffffffffffffff1673ffffffffffffffffffffffffffffffffffffffff163373ffffffffffffffffffffffffffffffffffffffff161461178f576040517f08c379a000000000000000000000000000000000000000000000000000000000815260040161178690614e27565b60405180910390fd5b60006009836040516117a19190614955565b908152602001604051809103902060006101000a81548160ff021916908315150217905550600b826040516117d69190614955565b9081526020016040518091039020600080820160006101000a81549073ffffffffffffffffffffffffffffffffffffffff02191690556001820160006101000a81549073ffffffffffffffffffffffffffffffffffffffff02191690556002820160006118439190613c4c565b6003820160006101000a81549060ff021916905550506000600c8260020160405161186e9190614edf565b9081526020016040518091039020905060005b81805490508110156119645783805190602001208282815481106118a8576118a76149d8565b5b906000526020600020016040516118bf9190614f99565b6040518091039020036119575781600183805490506118de9190614ce6565b815481106118ef576118ee6149d8565b5b9060005260206000200182828154811061190c5761190b6149d8565b5b9060005260206000200190816119229190615172565b508180548061193457611933614d1a565b5b6001900381819060005260206000200160006119509190613c4c565b9055611964565b8080600101915050611881565b50505050565b600061197582612ff2565b6119b4576040517f08c379a00000000000000000000000000000000000000000000000000000000081526004016119ab90614d95565b60405180910390fd5b6000600b836040516119c69190614955565b908152602001604051809103902090508060030160009054906101000a900460ff16915050919050565b6000600660009054906101000a900473ffffffffffffffffffffffffffffffffffffffff16905090565b606060018054611a29906148b1565b80601f0160208091040260200160405190810160405280929190818152602001828054611a55906148b1565b8015611aa25780601f10611a7757610100808354040283529160200191611aa2565b820191906000526020600020905b815481529060010190602001808311611a8557829003601f168201915b5050505050905090565b611ab581612ff2565b15611af5576040517f08c379a0000000000000000000000000000000000000000000000000000000008152600401611aec906152a6565b60405180910390fd5b600060405180608001604052808573ffffffffffffffffffffffffffffffffffffffff168152602001600073ffffffffffffffffffffffffffffffffffffffff16815260200184815260200160001515815250905080600b83604051611b5b9190614955565b908152602001604051809103902060008201518160000160006101000a81548173ffffffffffffffffffffffffffffffffffffffff021916908373ffffffffffffffffffffffffffffffffffffffff16021790555060208201518160010160006101000a81548173ffffffffffffffffffffffffffffffffffffffff021916908373ffffffffffffffffffffffffffffffffffffffff1602179055506040820151816002019081611c0c91906152c6565b5060608201518160030160006101000a81548160ff021916908315150217905550905050611c3982613027565b600c83604051611c499190614955565b908152602001604051809103902082908060018154018082558091505060019003906000526020600020016000909190919091509081611c8991906152c6565b503373ffffffffffffffffffffffffffffffffffffffff167fb8c752ce5211d09f40fda04dd89cda1620aed623addaf2785a0d2e57110e99f683604051611cd09190613e55565b60405180910390a250505050565b600c828051602081018201805184825260208301602085012081835280955050505050508181548110611d1057600080fd5b90600052602060002001600091509150508054611d2c906148b1565b80601f0160208091040260200160405190810160405280929190818152602001828054611d58906148b1565b8015611da55780601f10611d7a57610100808354040283529160200191611da5565b820191906000526020600020905b815481529060010190602001808311611d8857829003601f168201915b505050505081565b611dbf611db8612ac6565b8383613061565b5050565b611dcc83610a94565b15611e0c576040517f08c379a0000000000000000000000000000000000000000000000000000000008152600401611e03906153e4565b60405180910390fd5b6000600e805490509050600e60405180608001604052808673ffffffffffffffffffffffffffffffffffffffff168152602001858152602001848152602001600067ffffffffffffffff811115611e6657611e65613fd9565b5b604051908082528060200260200182016040528015611e945781602001602082028036833780820191505090505b50815250908060018154018082558091505060019003906000526020600020906004020160009091909190915060008201518160000160006101000a81548173ffffffffffffffffffffffffffffffffffffffff021916908373ffffffffffffffffffffffffffffffffffffffff1602179055506020820151816001019081611f1d91906152c6565b506040820151816002019081611f3391906152c6565b506060820151816003019080519060200190611f50929190613c8c565b50505080600a60008673ffffffffffffffffffffffffffffffffffffffff1673ffffffffffffffffffffffffffffffffffffffff168152602001908152602001600020819055508373ffffffffffffffffffffffffffffffffffffffff167f81ef79d1cda814a60c0fc60792e648a06d9c6bae67176346d1cc8b63030bfccd84604051611fdd9190613e55565b60405180910390a250505050565b611ff6848484610b03565b612002848484846131d0565b50505050565b606061201382613387565b9050919050565b60606000600a60008473ffffffffffffffffffffffffffffffffffffffff1673ffffffffffffffffffffffffffffffffffffffff1681526020019081526020016000205490506000600e8281548110612076576120756149d8565b5b90600052602060002090600402016003018054806020026020016040519081016040528092919081815260200182805480156120d157602002820191906000526020600020905b8154815260200190600101908083116120bd575b505050505090506000815167ffffffffffffffff8111156120f5576120f4613fd9565b5b60405190808252806020026020018201604052801561212857816020015b60608152602001906001900390816121135790505b50905060005b825181101561219157600083828151811061214c5761214b6149d8565b5b60200260200101519050600061216182612008565b905080848481518110612177576121766149d8565b5b60200260200101819052505050808060010191505061212e565b50809350505050919050565b600d818051602081018201805184825260208301602085012081835280955050505050506000915090505481565b600f6020528060005260406000206000915054906101000a900473ffffffffffffffffffffffffffffffffffffffff1681565b6000600560008473ffffffffffffffffffffffffffffffffffffffff1673ffffffffffffffffffffffffffffffffffffffff16815260200190815260200160002060008373ffffffffffffffffffffffffffffffffffffffff1673ffffffffffffffffffffffffffffffffffffffff16815260200190815260200160002060009054906101000a900460ff16905092915050565b60606000600c836040516122a69190614955565b908152602001604051809103902090506000818054905067ffffffffffffffff8111156122d6576122d5613fd9565b5b60405190808252806020026020018201604052801561230957816020015b60608152602001906001900390816122f45790505b5090506000805b8380549050811015612451576000600b858381548110612333576123326149d8565b5b9060005260206000200160405161234a9190614edf565b908152602001604051809103902090508060030160009054906101000a900460ff1661244357848281548110612383576123826149d8565b5b906000526020600020018054612398906148b1565b80601f01602080910402602001604051908101604052809291908181526020018280546123c4906148b1565b80156124115780601f106123e657610100808354040283529160200191612411565b820191906000526020600020905b8154815290600101906020018083116123f457829003601f168201915b5050505050848481518110612429576124286149d8565b5b6020026020010181905250828061243f90614a36565b9350505b508080600101915050612310565b50808252819350505050919050565b612468612ea5565b600073ffffffffffffffffffffffffffffffffffffffff168173ffffffffffffffffffffffffffffffffffffffff16036124da5760006040517f1e4fbdf70000000000000000000000000000000000000000000000000000000081526004016124d19190613f1b565b60405180910390fd5b6124e381612f2c565b50565b6124ef82612ff2565b61252e576040517f08c379a000000000000000000000000000000000000000000000000000000000815260040161252590614d95565b60405180910390fd5b6000600b836040516125409190614955565b908152602001604051809103902090508060030160009054906101000a900460ff16156125a2576040517f08c379a000000000000000000000000000000000000000000000000000000000815260040161259990615450565b60405180910390fd5b818160010160006101000a81548173ffffffffffffffffffffffffffffffffffffffff021916908373ffffffffffffffffffffffffffffffffffffffff16021790555060018160030160006101000a81548160ff0219169083151502179055508173ffffffffffffffffffffffffffffffffffffffff167f1801f9534f97fd64cd2f345d9e3a30ab19443cd0ef6c97ae4ba53b75261473d2846040516126489190613e55565b60405180910390a2505050565b600e818154811061266557600080fd5b90600052602060002090600402016000915090508060000160009054906101000a900473ffffffffffffffffffffffffffffffffffffffff16908060010180546126ae906148b1565b80601f01602080910402602001604051908101604052809291908181526020018280546126da906148b1565b80156127275780601f106126fc57610100808354040283529160200191612727565b820191906000526020600020905b81548152906001019060200180831161270a57829003601f168201915b50505050509080600201805461273c906148b1565b80601f0160208091040260200160405190810160405280929190818152602001828054612768906148b1565b80156127b55780601f1061278a576101008083540402835291602001916127b5565b820191906000526020600020905b81548152906001019060200180831161279857829003601f168201915b5050505050905083565b6000600d826040516127d19190614955565b90815260200160405180910390205490503073ffffffffffffffffffffffffffffffffffffffff1661280282611278565b73ffffffffffffffffffffffffffffffffffffffff1614612858576040517f08c379a000000000000000000000000000000000000000000000000000000000815260040161284f906154e2565b60405180910390fd5b6000810361289b576040517f08c379a000000000000000000000000000000000000000000000000000000000815260040161289290614c34565b60405180910390fd5b3073ffffffffffffffffffffffffffffffffffffffff166342842e0e3085846040518463ffffffff1660e01b81526004016128d893929190615502565b600060405180830381600087803b1580156128f257600080fd5b505af1158015612906573d6000803e3d6000fd5b505050506000600a60008573ffffffffffffffffffffffffffffffffffffffff1673ffffffffffffffffffffffffffffffffffffffff168152602001908152602001600020549050600e8181548110612962576129616149d8565b5b906000526020600020906004020160030182908060018154018082558091505060019003906000526020600020016000909190919091505550505050565b6000634906490660e01b7bffffffffffffffffffffffffffffffffffffffffffffffffffffffff1916827bffffffffffffffffffffffffffffffffffffffffffffffffffffffff191614806129fa57506129f98261349a565b5b9050919050565b600080612a0d8361357c565b9050600073ffffffffffffffffffffffffffffffffffffffff168173ffffffffffffffffffffffffffffffffffffffff1603612a8057826040517f7e273289000000000000000000000000000000000000000000000000000000008152600401612a7791906142fd565b60405180910390fd5b80915050919050565b60006004600083815260200190815260200160002060009054906101000a900473ffffffffffffffffffffffffffffffffffffffff169050919050565b600033905090565b612adb83838360016135b9565b505050565b600080612aec8461357c565b9050600073ffffffffffffffffffffffffffffffffffffffff168373ffffffffffffffffffffffffffffffffffffffff1614612b2e57612b2d81848661377e565b5b600073ffffffffffffffffffffffffffffffffffffffff168173ffffffffffffffffffffffffffffffffffffffff1614612bbf57612b706000856000806135b9565b6001600360008373ffffffffffffffffffffffffffffffffffffffff1673ffffffffffffffffffffffffffffffffffffffff168152602001908152602001600020600082825403925050819055505b600073ffffffffffffffffffffffffffffffffffffffff168573ffffffffffffffffffffffffffffffffffffffff1614612c42576001600360008773ffffffffffffffffffffffffffffffffffffffff1673ffffffffffffffffffffffffffffffffffffffff168152602001908152602001600020600082825401925050819055505b846002600086815260200190815260200160002060006101000a81548173ffffffffffffffffffffffffffffffffffffffff021916908373ffffffffffffffffffffffffffffffffffffffff160217905550838573ffffffffffffffffffffffffffffffffffffffff168273ffffffffffffffffffffffffffffffffffffffff167fddf252ad1be2c89b69c2b068fc378daa952ba7f163c4a11628f55a4df523b3ef60405160405180910390a4809150509392505050565b600073ffffffffffffffffffffffffffffffffffffffff168273ffffffffffffffffffffffffffffffffffffffff1603612d6c5760006040517f64a0ae92000000000000000000000000000000000000000000000000000000008152600401612d639190613f1b565b60405180910390fd5b6000612d7a83836000612ae0565b9050600073ffffffffffffffffffffffffffffffffffffffff168173ffffffffffffffffffffffffffffffffffffffff1614612dee5760006040517f73c6ac6e000000000000000000000000000000000000000000000000000000008152600401612de59190613f1b565b60405180910390fd5b505050565b80600760008481526020019081526020016000209081612e1391906152c6565b507ff8e1a15aba9398e019f0b49df1a4fde98ee17ae345cb5f6b5e2c27f5033e8ce782604051612e4391906142fd565b60405180910390a15050565b80600f600084815260200190815260200160002060006101000a81548173ffffffffffffffffffffffffffffffffffffffff021916908373ffffffffffffffffffffffffffffffffffffffff1602179055505050565b612ead612ac6565b73ffffffffffffffffffffffffffffffffffffffff16612ecb6119f0565b73ffffffffffffffffffffffffffffffffffffffff1614612f2a57612eee612ac6565b6040517f118cdaa7000000000000000000000000000000000000000000000000000000008152600401612f219190613f1b565b60405180910390fd5b565b6000600660009054906101000a900473ffffffffffffffffffffffffffffffffffffffff16905081600660006101000a81548173ffffffffffffffffffffffffffffffffffffffff021916908373ffffffffffffffffffffffffffffffffffffffff1602179055508173ffffffffffffffffffffffffffffffffffffffff168173ffffffffffffffffffffffffffffffffffffffff167f8be0079c531659141344cd1fd0a4f28419497f9722a3daafe3b4186f6b6457e060405160405180910390a35050565b60006009826040516130049190614955565b908152602001604051809103902060009054906101000a900460ff169050919050565b60016009826040516130399190614955565b908152602001604051809103902060006101000a81548160ff02191690831515021790555050565b600073ffffffffffffffffffffffffffffffffffffffff168273ffffffffffffffffffffffffffffffffffffffff16036130d257816040517f5b08ba180000000000000000000000000000000000000000000000000000000081526004016130c99190613f1b565b60405180910390fd5b80600560008573ffffffffffffffffffffffffffffffffffffffff1673ffffffffffffffffffffffffffffffffffffffff16815260200190815260200160002060008473ffffffffffffffffffffffffffffffffffffffff1673ffffffffffffffffffffffffffffffffffffffff16815260200190815260200160002060006101000a81548160ff0219169083151502179055508173ffffffffffffffffffffffffffffffffffffffff168373ffffffffffffffffffffffffffffffffffffffff167f17307eab39ab6107e8899845ad3d59bd9653f200f220920489ca2b5937696c31836040516131c39190613daa565b60405180910390a3505050565b60008373ffffffffffffffffffffffffffffffffffffffff163b1115613381578273ffffffffffffffffffffffffffffffffffffffff1663150b7a02613214612ac6565b8685856040518563ffffffff1660e01b8152600401613236949392919061558e565b6020604051808303816000875af192505050801561327257506040513d601f19601f8201168201806040525081019061326f91906155ef565b60015b6132f6573d80600081146132a2576040519150601f19603f3d011682016040523d82523d6000602084013e6132a7565b606091505b5060008151036132ee57836040517f64a0ae920000000000000000000000000000000000000000000000000000000081526004016132e59190613f1b565b60405180910390fd5b805181602001fd5b63150b7a0260e01b7bffffffffffffffffffffffffffffffffffffffffffffffffffffffff1916817bffffffffffffffffffffffffffffffffffffffffffffffffffffffff19161461337f57836040517f64a0ae920000000000000000000000000000000000000000000000000000000081526004016133769190613f1b565b60405180910390fd5b505b50505050565b606061339282612a01565b5060006007600084815260200190815260200160002080546133b3906148b1565b80601f01602080910402602001604051908101604052809291908181526020018280546133df906148b1565b801561342c5780601f106134015761010080835404028352916020019161342c565b820191906000526020600020905b81548152906001019060200180831161340f57829003601f168201915b50505050509050600061343d613842565b90506000815103613452578192505050613495565b60008251111561348757808260405160200161346f92919061561c565b60405160208183030381529060405292505050613495565b61349084613859565b925050505b919050565b60007f80ac58cd000000000000000000000000000000000000000000000000000000007bffffffffffffffffffffffffffffffffffffffffffffffffffffffff1916827bffffffffffffffffffffffffffffffffffffffffffffffffffffffff1916148061356557507f5b5e139f000000000000000000000000000000000000000000000000000000007bffffffffffffffffffffffffffffffffffffffffffffffffffffffff1916827bffffffffffffffffffffffffffffffffffffffffffffffffffffffff1916145b806135755750613574826138c2565b5b9050919050565b60006002600083815260200190815260200160002060009054906101000a900473ffffffffffffffffffffffffffffffffffffffff169050919050565b80806135f25750600073ffffffffffffffffffffffffffffffffffffffff168273ffffffffffffffffffffffffffffffffffffffff1614155b1561372657600061360284612a01565b9050600073ffffffffffffffffffffffffffffffffffffffff168373ffffffffffffffffffffffffffffffffffffffff161415801561366d57508273ffffffffffffffffffffffffffffffffffffffff168173ffffffffffffffffffffffffffffffffffffffff1614155b8015613680575061367e81846121fe565b155b156136c257826040517fa9fbf51f0000000000000000000000000000000000000000000000000000000081526004016136b99190613f1b565b60405180910390fd5b811561372457838573ffffffffffffffffffffffffffffffffffffffff168273ffffffffffffffffffffffffffffffffffffffff167f8c5be1e5ebec7d5bd14f71427d1e84f3dd0314c0f7b2291e5b200ac8c7c3b92560405160405180910390a45b505b836004600085815260200190815260200160002060006101000a81548173ffffffffffffffffffffffffffffffffffffffff021916908373ffffffffffffffffffffffffffffffffffffffff16021790555050505050565b61378983838361392c565b61383d57600073ffffffffffffffffffffffffffffffffffffffff168373ffffffffffffffffffffffffffffffffffffffff16036137fe57806040517f7e2732890000000000000000000000000000000000000000000000000000000081526004016137f591906142fd565b60405180910390fd5b81816040517f177e802f000000000000000000000000000000000000000000000000000000008152600401613834929190615640565b60405180910390fd5b505050565b606060405180602001604052806000815250905090565b606061386482612a01565b50600061386f613842565b9050600081511161388f57604051806020016040528060008152506138ba565b80613899846139ed565b6040516020016138aa92919061561c565b6040516020818303038152906040525b915050919050565b60007f01ffc9a7000000000000000000000000000000000000000000000000000000007bffffffffffffffffffffffffffffffffffffffffffffffffffffffff1916827bffffffffffffffffffffffffffffffffffffffffffffffffffffffff1916149050919050565b60008073ffffffffffffffffffffffffffffffffffffffff168373ffffffffffffffffffffffffffffffffffffffff16141580156139e457508273ffffffffffffffffffffffffffffffffffffffff168473ffffffffffffffffffffffffffffffffffffffff1614806139a557506139a484846121fe565b5b806139e357508273ffffffffffffffffffffffffffffffffffffffff166139cb83612a89565b73ffffffffffffffffffffffffffffffffffffffff16145b5b90509392505050565b6060600060016139fc84613abb565b01905060008167ffffffffffffffff811115613a1b57613a1a613fd9565b5b6040519080825280601f01601f191660200182016040528015613a4d5781602001600182028036833780820191505090505b509050600082602001820190505b600115613ab0578080600190039150507f3031323334353637383961626364656600000000000000000000000000000000600a86061a8153600a8581613aa457613aa3615669565b5b04945060008503613a5b575b819350505050919050565b600080600090507a184f03e93ff9f4daa797ed6e38ed64bf6a1f0100000000000000008310613b19577a184f03e93ff9f4daa797ed6e38ed64bf6a1f0100000000000000008381613b0f57613b0e615669565b5b0492506040810190505b6d04ee2d6d415b85acef81000000008310613b56576d04ee2d6d415b85acef81000000008381613b4c57613b4b615669565b5b0492506020810190505b662386f26fc100008310613b8557662386f26fc100008381613b7b57613b7a615669565b5b0492506010810190505b6305f5e1008310613bae576305f5e1008381613ba457613ba3615669565b5b0492506008810190505b6127108310613bd3576127108381613bc957613bc8615669565b5b0492506004810190505b60648310613bf65760648381613bec57613beb615669565b5b0492506002810190505b600a8310613c05576001810190505b80915050919050565b6040518060800160405280600073ffffffffffffffffffffffffffffffffffffffff1681526020016060815260200160608152602001606081525090565b508054613c58906148b1565b6000825580601f10613c6a5750613c89565b601f016020900490600052602060002090810190613c889190613cd9565b5b50565b828054828255906000526020600020908101928215613cc8579160200282015b82811115613cc7578251825591602001919060010190613cac565b5b509050613cd59190613cd9565b5090565b5b80821115613cf2576000816000905550600101613cda565b5090565b6000604051905090565b600080fd5b600080fd5b60007fffffffff0000000000000000000000000000000000000000000000000000000082169050919050565b613d3f81613d0a565b8114613d4a57600080fd5b50565b600081359050613d5c81613d36565b92915050565b600060208284031215613d7857613d77613d00565b5b6000613d8684828501613d4d565b91505092915050565b60008115159050919050565b613da481613d8f565b82525050565b6000602082019050613dbf6000830184613d9b565b92915050565b600081519050919050565b600082825260208201905092915050565b60005b83811015613dff578082015181840152602081019050613de4565b60008484015250505050565b6000601f19601f8301169050919050565b6000613e2782613dc5565b613e318185613dd0565b9350613e41818560208601613de1565b613e4a81613e0b565b840191505092915050565b60006020820190508181036000830152613e6f8184613e1c565b905092915050565b6000819050919050565b613e8a81613e77565b8114613e9557600080fd5b50565b600081359050613ea781613e81565b92915050565b600060208284031215613ec357613ec2613d00565b5b6000613ed184828501613e98565b91505092915050565b600073ffffffffffffffffffffffffffffffffffffffff82169050919050565b6000613f0582613eda565b9050919050565b613f1581613efa565b82525050565b6000602082019050613f306000830184613f0c565b92915050565b613f3f81613efa565b8114613f4a57600080fd5b50565b600081359050613f5c81613f36565b92915050565b60008060408385031215613f7957613f78613d00565b5b6000613f8785828601613f4d565b9250506020613f9885828601613e98565b9150509250929050565b600060208284031215613fb857613fb7613d00565b5b6000613fc684828501613f4d565b91505092915050565b600080fd5b600080fd5b7f4e487b7100000000000000000000000000000000000000000000000000000000600052604160045260246000fd5b61401182613e0b565b810181811067ffffffffffffffff821117156140305761402f613fd9565b5b80604052505050565b6000614043613cf6565b905061404f8282614008565b919050565b600067ffffffffffffffff82111561406f5761406e613fd9565b5b61407882613e0b565b9050602081019050919050565b82818337600083830152505050565b60006140a76140a284614054565b614039565b9050828152602081018484840111156140c3576140c2613fd4565b5b6140ce848285614085565b509392505050565b600082601f8301126140eb576140ea613fcf565b5b81356140fb848260208601614094565b91505092915050565b6000806000806080858703121561411e5761411d613d00565b5b600061412c87828801613f4d565b945050602061413d87828801613f4d565b935050604061414e87828801613e98565b925050606085013567ffffffffffffffff81111561416f5761416e613d05565b5b61417b878288016140d6565b91505092959194509250565b61419081613d0a565b82525050565b60006020820190506141ab6000830184614187565b92915050565b6000806000606084860312156141ca576141c9613d00565b5b60006141d886828701613f4d565b93505060206141e986828701613f4d565b92505060406141fa86828701613e98565b9150509250925092565b600067ffffffffffffffff82111561421f5761421e613fd9565b5b61422882613e0b565b9050602081019050919050565b600061424861424384614204565b614039565b90508281526020810184848401111561426457614263613fd4565b5b61426f848285614085565b509392505050565b600082601f83011261428c5761428b613fcf565b5b813561429c848260208601614235565b91505092915050565b6000602082840312156142bb576142ba613d00565b5b600082013567ffffffffffffffff8111156142d9576142d8613d05565b5b6142e584828501614277565b91505092915050565b6142f781613e77565b82525050565b600060208201905061431260008301846142ee565b92915050565b600081519050919050565b600082825260208201905092915050565b6000819050602082019050919050565b600082825260208201905092915050565b600061436082613dc5565b61436a8185614344565b935061437a818560208601613de1565b61438381613e0b565b840191505092915050565b600061439a8383614355565b905092915050565b6000602082019050919050565b60006143ba82614318565b6143c48185614323565b9350836020820285016143d685614334565b8060005b8581101561441257848403895281516143f3858261438e565b94506143fe836143a2565b925060208a019950506001810190506143da565b50829750879550505050505092915050565b6000602082019050818103600083015261443e81846143af565b905092915050565b61444f81613efa565b82525050565b600081519050919050565b600082825260208201905092915050565b6000819050602082019050919050565b61448a81613e77565b82525050565b600061449c8383614481565b60208301905092915050565b6000602082019050919050565b60006144c082614455565b6144ca8185614460565b93506144d583614471565b8060005b838110156145065781516144ed8882614490565b97506144f8836144a8565b9250506001810190506144d9565b5085935050505092915050565b600060808301600083015161452b6000860182614446565b50602083015184820360208601526145438282614355565b9150506040830151848203604086015261455d8282614355565b9150506060830151848203606086015261457782826144b5565b9150508091505092915050565b6000602082019050818103600083015261459e8184614513565b905092915050565b600080604083850312156145bd576145bc613d00565b5b60006145cb85828601613f4d565b925050602083013567ffffffffffffffff8111156145ec576145eb613d05565b5b6145f885828601614277565b9150509250929050565b60006080820190506146176000830187613f0c565b6146246020830186613f0c565b81810360408301526146368185613e1c565b90506146456060830184613d9b565b95945050505050565b60008060006060848603121561466757614666613d00565b5b600061467586828701613f4d565b935050602084013567ffffffffffffffff81111561469657614695613d05565b5b6146a286828701614277565b925050604084013567ffffffffffffffff8111156146c3576146c2613d05565b5b6146cf86828701614277565b9150509250925092565b600080604083850312156146f0576146ef613d00565b5b600083013567ffffffffffffffff81111561470e5761470d613d05565b5b61471a85828601614277565b925050602061472b85828601613e98565b9150509250929050565b61473e81613d8f565b811461474957600080fd5b50565b60008135905061475b81614735565b92915050565b6000806040838503121561477857614777613d00565b5b600061478685828601613f4d565b92505060206147978582860161474c565b9150509250929050565b600080604083850312156147b8576147b7613d00565b5b60006147c685828601613f4d565b92505060206147d785828601613f4d565b9150509250929050565b600080604083850312156147f8576147f7613d00565b5b600083013567ffffffffffffffff81111561481657614815613d05565b5b61482285828601614277565b925050602061483385828601613f4d565b9150509250929050565b60006060820190506148526000830186613f0c565b81810360208301526148648185613e1c565b905081810360408301526148788184613e1c565b9050949350505050565b7f4e487b7100000000000000000000000000000000000000000000000000000000600052602260045260246000fd5b600060028204905060018216806148c957607f821691505b6020821081036148dc576148db614882565b5b50919050565b60006060820190506148f76000830186613f0c565b61490460208301856142ee565b6149116040830184613f0c565b949350505050565b600081905092915050565b600061492f82613dc5565b6149398185614919565b9350614949818560208601613de1565b80840191505092915050565b60006149618284614924565b915081905092915050565b7f546f6b656e20646f6573206e6f74206578697374000000000000000000000000600082015250565b60006149a2601483613dd0565b91506149ad8261496c565b602082019050919050565b600060208201905081810360008301526149d181614995565b9050919050565b7f4e487b7100000000000000000000000000000000000000000000000000000000600052603260045260246000fd5b7f4e487b7100000000000000000000000000000000000000000000000000000000600052601160045260246000fd5b6000614a4182613e77565b91507fffffffffffffffffffffffffffffffffffffffffffffffffffffffffffffffff8203614a7357614a72614a07565b5b600182019050919050565b7f506c6179657220646f65736e2774206578697374210000000000000000000000600082015250565b6000614ab4601583613dd0565b9150614abf82614a7e565b602082019050919050565b60006020820190508181036000830152614ae381614aa7565b9050919050565b7f506c6179657220646f6573206e6f742065786973740000000000000000000000600082015250565b6000614b20601583613dd0565b9150614b2b82614aea565b602082019050919050565b60006020820190508181036000830152614b4f81614b13565b9050919050565b7f4e65656420746f20706179207570210000000000000000000000000000000000600082015250565b6000614b8c600f83613dd0565b9150614b9782614b56565b602082019050919050565b60006020820190508181036000830152614bbb81614b7f565b9050919050565b7f546f6b656e204944206e6f7420666f756e6420666f722074686520676976656e60008201527f206d657461646174610000000000000000000000000000000000000000000000602082015250565b6000614c1e602983613dd0565b9150614c2982614bc2565b604082019050919050565b60006020820190508181036000830152614c4d81614c11565b9050919050565b7f53656e646572206973206e6f7420746865206f776e6572206f6620746865207460008201527f6f6b656e00000000000000000000000000000000000000000000000000000000602082015250565b6000614cb0602483613dd0565b9150614cbb82614c54565b604082019050919050565b60006020820190508181036000830152614cdf81614ca3565b9050919050565b6000614cf182613e77565b9150614cfc83613e77565b9250828203905081811115614d1457614d13614a07565b5b92915050565b7f4e487b7100000000000000000000000000000000000000000000000000000000600052603160045260246000fd5b7f426174746c6520646f6573206e6f742065786973740000000000000000000000600082015250565b6000614d7f601583613dd0565b9150614d8a82614d49565b602082019050919050565b60006020820190508181036000830152614dae81614d72565b9050919050565b7f4f6e6c792074686520686f73742063616e2064656c657465207468652062617460008201527f746c650000000000000000000000000000000000000000000000000000000000602082015250565b6000614e11602383613dd0565b9150614e1c82614db5565b604082019050919050565b60006020820190508181036000830152614e4081614e04565b9050919050565b60008190508160005260206000209050919050565b60008154614e69816148b1565b614e738186614919565b94506001821660008114614e8e5760018114614ea357614ed6565b60ff1983168652811515820286019350614ed6565b614eac85614e47565b60005b83811015614ece57815481890152600182019150602081019050614eaf565b838801955050505b50505092915050565b6000614eeb8284614e5c565b915081905092915050565b600081905092915050565b60008190508160005260206000209050919050565b60008154614f23816148b1565b614f2d8186614ef6565b94506001821660008114614f485760018114614f5d57614f90565b60ff1983168652811515820286019350614f90565b614f6685614f01565b60005b83811015614f8857815481890152600182019150602081019050614f69565b838801955050505b50505092915050565b6000614fa58284614f16565b915081905092915050565b600081549050614fbf816148b1565b9050919050565b60008190508160005260206000209050919050565b60006020601f8301049050919050565b600082821b905092915050565b6000600883026150287fffffffffffffffffffffffffffffffffffffffffffffffffffffffffffffffff82614feb565b6150328683614feb565b95508019841693508086168417925050509392505050565b6000819050919050565b600061506f61506a61506584613e77565b61504a565b613e77565b9050919050565b6000819050919050565b61508983615054565b61509d61509582615076565b848454614ff8565b825550505050565b600090565b6150b26150a5565b6150bd818484615080565b505050565b5b818110156150e1576150d66000826150aa565b6001810190506150c3565b5050565b601f821115615126576150f781614e47565b61510084614fdb565b8101602085101561510f578190505b61512361511b85614fdb565b8301826150c2565b50505b505050565b600082821c905092915050565b60006151496000198460080261512b565b1980831691505092915050565b60006151628383615138565b9150826002028217905092915050565b818103615180575050615258565b61518982614fb0565b67ffffffffffffffff8111156151a2576151a1613fd9565b5b6151ac82546148b1565b6151b78282856150e5565b6000601f8311600181146151e657600084156151d4578287015490505b6151de8582615156565b865550615251565b601f1984166151f487614fc6565b96506151ff86614e47565b60005b8281101561522757848901548255600182019150600185019450602081019050615202565b868310156152445784890154615240601f891682615138565b8355505b6001600288020188555050505b5050505050505b565b7f426174746c65206e616d6520616c726561647920657869737473000000000000600082015250565b6000615290601a83613dd0565b915061529b8261525a565b602082019050919050565b600060208201905081810360008301526152bf81615283565b9050919050565b6152cf82613dc5565b67ffffffffffffffff8111156152e8576152e7613fd9565b5b6152f282546148b1565b6152fd8282856150e5565b600060209050601f831160018114615330576000841561531e578287015190505b6153288582615156565b865550615390565b601f19841661533e86614e47565b60005b8281101561536657848901518255600182019150602085019450602081019050615341565b86831015615383578489015161537f601f891682615138565b8355505b6001600288020188555050505b505050505050565b7f506c6179657220616c7265616479207265676973746572656400000000000000600082015250565b60006153ce601983613dd0565b91506153d982615398565b602082019050919050565b600060208201905081810360008301526153fd816153c1565b9050919050565b7f426174746c6520616c7265616479206a6f696e65640000000000000000000000600082015250565b600061543a601583613dd0565b915061544582615404565b602082019050919050565b600060208201905081810360008301526154698161542d565b9050919050565b7f436f6e7472616374206973206e6f7420746865206f776e6572206f662074686560008201527f20746f6b656e0000000000000000000000000000000000000000000000000000602082015250565b60006154cc602683613dd0565b91506154d782615470565b604082019050919050565b600060208201905081810360008301526154fb816154bf565b9050919050565b60006060820190506155176000830186613f0c565b6155246020830185613f0c565b61553160408301846142ee565b949350505050565b600081519050919050565b600082825260208201905092915050565b600061556082615539565b61556a8185615544565b935061557a818560208601613de1565b61558381613e0b565b840191505092915050565b60006080820190506155a36000830187613f0c565b6155b06020830186613f0c565b6155bd60408301856142ee565b81810360608301526155cf8184615555565b905095945050505050565b6000815190506155e981613d36565b92915050565b60006020828403121561560557615604613d00565b5b6000615613848285016155da565b91505092915050565b60006156288285614924565b91506156348284614924565b91508190509392505050565b60006040820190506156556000830185613f0c565b61566260208301846142ee565b9392505050565b7f4e487b7100000000000000000000000000000000000000000000000000000000600052601260045260246000fdfea26469706673582212208608fb9b9bc8e61012644af1f55d01493f30f9f496b2e051b8e3fd8a78c210d164736f6c63430008180033",
  "linkReferences": {},
  "deployedLinkReferences": {}
}