{
  "_format": "hh-sol-artifact-1",
  "contractName": "NFTTCG",
  "sourceName": "contracts/NFTTCG.sol",
  "abi": [
    {
      "inputs": [
        {
          "internalType": "address",
          "name": "initialOwner",
          "type": "address"
        }
      ],
      "stateMutability": "nonpayable",
      "type": "constructor"
    },
    {
      "inputs": [
        {
          "internalType": "address",
          "name": "sender",
          "type": "address"
        },
        {
          "internalType": "uint256",
          "name": "tokenId",
          "type": "uint256"
        },
        {
          "internalType": "address",
          "name": "owner",
          "type": "address"
        }
      ],
      "name": "ERC721IncorrectOwner",
      "type": "error"
    },
    {
      "inputs": [
        {
          "internalType": "address",
          "name": "operator",
          "type": "address"
        },
        {
          "internalType": "uint256",
          "name": "tokenId",
          "type": "uint256"
        }
      ],
      "name": "ERC721InsufficientApproval",
      "type": "error"
    },
    {
      "inputs": [
        {
          "internalType": "address",
          "name": "approver",
          "type": "address"
        }
      ],
      "name": "ERC721InvalidApprover",
      "type": "error"
    },
    {
      "inputs": [
        {
          "internalType": "address",
          "name": "operator",
          "type": "address"
        }
      ],
      "name": "ERC721InvalidOperator",
      "type": "error"
    },
    {
      "inputs": [
        {
          "internalType": "address",
          "name": "owner",
          "type": "address"
        }
      ],
      "name": "ERC721InvalidOwner",
      "type": "error"
    },
    {
      "inputs": [
        {
          "internalType": "address",
          "name": "receiver",
          "type": "address"
        }
      ],
      "name": "ERC721InvalidReceiver",
      "type": "error"
    },
    {
      "inputs": [
        {
          "internalType": "address",
          "name": "sender",
          "type": "address"
        }
      ],
      "name": "ERC721InvalidSender",
      "type": "error"
    },
    {
      "inputs": [
        {
          "internalType": "uint256",
          "name": "tokenId",
          "type": "uint256"
        }
      ],
      "name": "ERC721NonexistentToken",
      "type": "error"
    },
    {
      "inputs": [
        {
          "internalType": "address",
          "name": "owner",
          "type": "address"
        }
      ],
      "name": "OwnableInvalidOwner",
      "type": "error"
    },
    {
      "inputs": [
        {
          "internalType": "address",
          "name": "account",
          "type": "address"
        }
      ],
      "name": "OwnableUnauthorizedAccount",
      "type": "error"
    },
    {
      "anonymous": false,
      "inputs": [
        {
          "indexed": true,
          "internalType": "address",
          "name": "owner",
          "type": "address"
        },
        {
          "indexed": true,
          "internalType": "address",
          "name": "approved",
          "type": "address"
        },
        {
          "indexed": true,
          "internalType": "uint256",
          "name": "tokenId",
          "type": "uint256"
        }
      ],
      "name": "Approval",
      "type": "event"
    },
    {
      "anonymous": false,
      "inputs": [
        {
          "indexed": true,
          "internalType": "address",
          "name": "owner",
          "type": "address"
        },
        {
          "indexed": true,
          "internalType": "address",
          "name": "operator",
          "type": "address"
        },
        {
          "indexed": false,
          "internalType": "bool",
          "name": "approved",
          "type": "bool"
        }
      ],
      "name": "ApprovalForAll",
      "type": "event"
    },
    {
      "anonymous": false,
      "inputs": [
        {
          "indexed": false,
          "internalType": "uint256",
          "name": "_fromTokenId",
          "type": "uint256"
        },
        {
          "indexed": false,
          "internalType": "uint256",
          "name": "_toTokenId",
          "type": "uint256"
        }
      ],
      "name": "BatchMetadataUpdate",
      "type": "event"
    },
    {
      "anonymous": false,
      "inputs": [
        {
          "indexed": true,
          "internalType": "address",
          "name": "host",
          "type": "address"
        },
        {
          "indexed": false,
          "internalType": "string",
          "name": "battleName",
          "type": "string"
        }
      ],
      "name": "BattleCreated",
      "type": "event"
    },
    {
      "anonymous": false,
      "inputs": [
        {
          "indexed": true,
          "internalType": "address",
          "name": "opponent",
          "type": "address"
        },
        {
          "indexed": false,
          "internalType": "string",
          "name": "battleName",
          "type": "string"
        }
      ],
      "name": "BattleJoined",
      "type": "event"
    },
    {
      "anonymous": false,
      "inputs": [
        {
          "indexed": false,
          "internalType": "uint256",
          "name": "_tokenId",
          "type": "uint256"
        }
      ],
      "name": "MetadataUpdate",
      "type": "event"
    },
    {
      "anonymous": false,
      "inputs": [
        {
          "indexed": true,
          "internalType": "address",
          "name": "recipient",
          "type": "address"
        },
        {
          "indexed": true,
          "internalType": "uint256",
          "name": "tokenId",
          "type": "uint256"
        },
        {
          "indexed": false,
          "internalType": "string",
          "name": "metadataURI",
          "type": "string"
        }
      ],
      "name": "NFTMinted",
      "type": "event"
    },
    {
      "anonymous": false,
      "inputs": [
        {
          "indexed": true,
          "internalType": "address",
          "name": "owner",
          "type": "address"
        },
        {
          "indexed": false,
          "internalType": "string",
          "name": "name",
          "type": "string"
        }
      ],
      "name": "NewPlayer",
      "type": "event"
    },
    {
      "anonymous": false,
      "inputs": [
        {
          "indexed": true,
          "internalType": "address",
          "name": "previousOwner",
          "type": "address"
        },
        {
          "indexed": true,
          "internalType": "address",
          "name": "newOwner",
          "type": "address"
        }
      ],
      "name": "OwnershipTransferred",
      "type": "event"
    },
    {
      "anonymous": false,
      "inputs": [
        {
          "indexed": true,
          "internalType": "address",
          "name": "from",
          "type": "address"
        },
        {
          "indexed": true,
          "internalType": "address",
          "name": "to",
          "type": "address"
        },
        {
          "indexed": true,
          "internalType": "uint256",
          "name": "tokenId",
          "type": "uint256"
        }
      ],
      "name": "Transfer",
      "type": "event"
    },
    {
      "inputs": [],
      "name": "_nextTokenId",
      "outputs": [
        {
          "internalType": "uint256",
          "name": "",
          "type": "uint256"
        }
      ],
      "stateMutability": "view",
      "type": "function"
    },
    {
      "inputs": [
        {
          "internalType": "address",
          "name": "to",
          "type": "address"
        },
        {
          "internalType": "uint256",
          "name": "tokenId",
          "type": "uint256"
        }
      ],
      "name": "approve",
      "outputs": [],
      "stateMutability": "nonpayable",
      "type": "function"
    },
    {
      "inputs": [
        {
          "internalType": "address",
          "name": "owner",
          "type": "address"
        }
      ],
      "name": "balanceOf",
      "outputs": [
        {
          "internalType": "uint256",
          "name": "",
          "type": "uint256"
        }
      ],
      "stateMutability": "view",
      "type": "function"
    },
    {
      "inputs": [
        {
          "internalType": "string",
          "name": "",
          "type": "string"
        }
      ],
      "name": "battles",
      "outputs": [
        {
          "internalType": "address",
          "name": "host",
          "type": "address"
        },
        {
          "internalType": "address",
          "name": "opponentAddress",
          "type": "address"
        },
        {
          "internalType": "string",
          "name": "battleMode",
          "type": "string"
        },
        {
          "internalType": "bool",
          "name": "battleStatus",
          "type": "bool"
        }
      ],
      "stateMutability": "view",
      "type": "function"
    },
    {
      "inputs": [
        {
          "internalType": "string",
          "name": "",
          "type": "string"
        },
        {
          "internalType": "uint256",
          "name": "",
          "type": "uint256"
        }
      ],
      "name": "battlesByGameMode",
      "outputs": [
        {
          "internalType": "string",
          "name": "",
          "type": "string"
        }
      ],
      "stateMutability": "view",
      "type": "function"
    },
    {
      "inputs": [],
      "name": "count",
      "outputs": [
        {
          "internalType": "uint256",
          "name": "",
          "type": "uint256"
        }
      ],
      "stateMutability": "view",
      "type": "function"
    },
    {
      "inputs": [
        {
          "internalType": "address",
          "name": "host",
          "type": "address"
        },
        {
          "internalType": "string",
          "name": "_battleMode",
          "type": "string"
        },
        {
          "internalType": "string",
          "name": "_battleName",
          "type": "string"
        }
      ],
      "name": "createBattle",
      "outputs": [],
      "stateMutability": "nonpayable",
      "type": "function"
    },
    {
      "inputs": [
        {
          "internalType": "string",
          "name": "_battleName",
          "type": "string"
        }
      ],
      "name": "deleteBattle",
      "outputs": [],
      "stateMutability": "nonpayable",
      "type": "function"
    },
    {
      "inputs": [],
      "name": "getAllPlayers",
      "outputs": [
        {
          "components": [
            {
              "internalType": "address",
              "name": "playerAddress",
              "type": "address"
            },
            {
              "internalType": "string",
              "name": "playerName",
              "type": "string"
            },
            {
              "internalType": "string",
              "name": "emailId",
              "type": "string"
            },
            {
              "internalType": "uint256[]",
              "name": "playerCards",
              "type": "uint256[]"
            }
          ],
          "internalType": "struct NFTTCG.Player[]",
          "name": "",
          "type": "tuple[]"
        }
      ],
      "stateMutability": "view",
      "type": "function"
    },
    {
      "inputs": [
        {
          "internalType": "uint256",
          "name": "tokenId",
          "type": "uint256"
        }
      ],
      "name": "getApproved",
      "outputs": [
        {
          "internalType": "address",
          "name": "",
          "type": "address"
        }
      ],
      "stateMutability": "view",
      "type": "function"
    },
    {
      "inputs": [
        {
          "internalType": "address",
          "name": "playerAddress",
          "type": "address"
        }
      ],
      "name": "getAvailableCards",
      "outputs": [
        {
          "internalType": "string[]",
          "name": "",
          "type": "string[]"
        }
      ],
      "stateMutability": "view",
      "type": "function"
    },
    {
      "inputs": [
        {
          "internalType": "uint256",
          "name": "tokenId",
          "type": "uint256"
        }
      ],
      "name": "getCardOwner",
      "outputs": [
        {
          "internalType": "address",
          "name": "",
          "type": "address"
        }
      ],
      "stateMutability": "view",
      "type": "function"
    },
    {
      "inputs": [
        {
          "internalType": "string",
          "name": "_gameMode",
          "type": "string"
        }
      ],
      "name": "getIncompleteBattleNames",
      "outputs": [
        {
          "internalType": "string[]",
          "name": "",
          "type": "string[]"
        }
      ],
      "stateMutability": "view",
      "type": "function"
    },
    {
      "inputs": [
        {
          "internalType": "string",
          "name": "tokenName",
          "type": "string"
        }
      ],
      "name": "getOwnerOfTokenByName",
      "outputs": [
        {
          "internalType": "address",
          "name": "",
          "type": "address"
        }
      ],
      "stateMutability": "view",
      "type": "function"
    },
    {
      "inputs": [
        {
          "internalType": "address",
          "name": "addr",
          "type": "address"
        }
      ],
      "name": "getPlayer",
      "outputs": [
        {
          "components": [
            {
              "internalType": "address",
              "name": "playerAddress",
              "type": "address"
            },
            {
              "internalType": "string",
              "name": "playerName",
              "type": "string"
            },
            {
              "internalType": "string",
              "name": "emailId",
              "type": "string"
            },
            {
              "internalType": "uint256[]",
              "name": "playerCards",
              "type": "uint256[]"
            }
          ],
          "internalType": "struct NFTTCG.Player",
          "name": "",
          "type": "tuple"
        }
      ],
      "stateMutability": "view",
      "type": "function"
    },
    {
      "inputs": [
        {
          "internalType": "address",
          "name": "playerAddress",
          "type": "address"
        }
      ],
      "name": "getPlayerCardCount",
      "outputs": [
        {
          "internalType": "uint256",
          "name": "",
          "type": "uint256"
        }
      ],
      "stateMutability": "view",
      "type": "function"
    },
    {
      "inputs": [
        {
          "internalType": "address",
          "name": "owner",
          "type": "address"
        },
        {
          "internalType": "address",
          "name": "operator",
          "type": "address"
        }
      ],
      "name": "isApprovedForAll",
      "outputs": [
        {
          "internalType": "bool",
          "name": "",
          "type": "bool"
        }
      ],
      "stateMutability": "view",
      "type": "function"
    },
    {
      "inputs": [
        {
          "internalType": "string",
          "name": "_battleName",
          "type": "string"
        }
      ],
      "name": "isBattleStartedByName",
      "outputs": [
        {
          "internalType": "bool",
          "name": "",
          "type": "bool"
        }
      ],
      "stateMutability": "view",
      "type": "function"
    },
    {
      "inputs": [
        {
          "internalType": "address",
          "name": "addr",
          "type": "address"
        }
      ],
      "name": "isPlayer",
      "outputs": [
        {
          "internalType": "bool",
          "name": "",
          "type": "bool"
        }
      ],
      "stateMutability": "view",
      "type": "function"
    },
    {
      "inputs": [
        {
          "internalType": "string",
          "name": "_battleName",
          "type": "string"
        },
        {
          "internalType": "address",
          "name": "_opponentAddress",
          "type": "address"
        }
      ],
      "name": "joinBattleByName",
      "outputs": [],
      "stateMutability": "nonpayable",
      "type": "function"
    },
    {
      "inputs": [
        {
          "internalType": "string",
          "name": "",
          "type": "string"
        }
      ],
      "name": "metadataToTokenId",
      "outputs": [
        {
          "internalType": "uint256",
          "name": "",
          "type": "uint256"
        }
      ],
      "stateMutability": "view",
      "type": "function"
    },
    {
      "inputs": [],
      "name": "name",
      "outputs": [
        {
          "internalType": "string",
          "name": "",
          "type": "string"
        }
      ],
      "stateMutability": "view",
      "type": "function"
    },
    {
      "inputs": [],
      "name": "owner",
      "outputs": [
        {
          "internalType": "address",
          "name": "",
          "type": "address"
        }
      ],
      "stateMutability": "view",
      "type": "function"
    },
    {
      "inputs": [
        {
          "internalType": "uint256",
          "name": "tokenId",
          "type": "uint256"
        }
      ],
      "name": "ownerOf",
      "outputs": [
        {
          "internalType": "address",
          "name": "",
          "type": "address"
        }
      ],
      "stateMutability": "view",
      "type": "function"
    },
    {
      "inputs": [
        {
          "internalType": "address",
          "name": "recipient",
          "type": "address"
        },
        {
          "internalType": "string",
          "name": "metadataURI",
          "type": "string"
        }
      ],
      "name": "payToMint",
      "outputs": [],
      "stateMutability": "payable",
      "type": "function"
    },
    {
      "inputs": [
        {
          "internalType": "address",
          "name": "",
          "type": "address"
        }
      ],
      "name": "playerInfo",
      "outputs": [
        {
          "internalType": "uint256",
          "name": "",
          "type": "uint256"
        }
      ],
      "stateMutability": "view",
      "type": "function"
    },
    {
      "inputs": [
        {
          "internalType": "uint256",
          "name": "",
          "type": "uint256"
        }
      ],
      "name": "players",
      "outputs": [
        {
          "internalType": "address",
          "name": "playerAddress",
          "type": "address"
        },
        {
          "internalType": "string",
          "name": "playerName",
          "type": "string"
        },
        {
          "internalType": "string",
          "name": "emailId",
          "type": "string"
        }
      ],
      "stateMutability": "view",
      "type": "function"
    },
    {
      "inputs": [
        {
          "internalType": "address",
          "name": "_address",
          "type": "address"
        },
        {
          "internalType": "string",
          "name": "_name",
          "type": "string"
        },
        {
          "internalType": "string",
          "name": "_email",
          "type": "string"
        }
      ],
      "name": "registerPlayer",
      "outputs": [],
      "stateMutability": "nonpayable",
      "type": "function"
    },
    {
      "inputs": [],
      "name": "renounceOwnership",
      "outputs": [],
      "stateMutability": "nonpayable",
      "type": "function"
    },
    {
      "inputs": [
        {
          "internalType": "address",
          "name": "from",
          "type": "address"
        },
        {
          "internalType": "address",
          "name": "to",
          "type": "address"
        },
        {
          "internalType": "uint256",
          "name": "tokenId",
          "type": "uint256"
        }
      ],
      "name": "safeTransferFrom",
      "outputs": [],
      "stateMutability": "nonpayable",
      "type": "function"
    },
    {
      "inputs": [
        {
          "internalType": "address",
          "name": "from",
          "type": "address"
        },
        {
          "internalType": "address",
          "name": "to",
          "type": "address"
        },
        {
          "internalType": "uint256",
          "name": "tokenId",
          "type": "uint256"
        },
        {
          "internalType": "bytes",
          "name": "data",
          "type": "bytes"
        }
      ],
      "name": "safeTransferFrom",
      "outputs": [],
      "stateMutability": "nonpayable",
      "type": "function"
    },
    {
      "inputs": [
        {
          "internalType": "address",
          "name": "operator",
          "type": "address"
        },
        {
          "internalType": "bool",
          "name": "approved",
          "type": "bool"
        }
      ],
      "name": "setApprovalForAll",
      "outputs": [],
      "stateMutability": "nonpayable",
      "type": "function"
    },
    {
      "inputs": [
        {
          "internalType": "bytes4",
          "name": "interfaceId",
          "type": "bytes4"
        }
      ],
      "name": "supportsInterface",
      "outputs": [
        {
          "internalType": "bool",
          "name": "",
          "type": "bool"
        }
      ],
      "stateMutability": "view",
      "type": "function"
    },
    {
      "inputs": [],
      "name": "symbol",
      "outputs": [
        {
          "internalType": "string",
          "name": "",
          "type": "string"
        }
      ],
      "stateMutability": "view",
      "type": "function"
    },
    {
      "inputs": [
        {
          "internalType": "uint256",
          "name": "tokenId",
          "type": "uint256"
        }
      ],
      "name": "tokenURI",
      "outputs": [
        {
          "internalType": "string",
          "name": "",
          "type": "string"
        }
      ],
      "stateMutability": "view",
      "type": "function"
    },
    {
      "inputs": [
        {
          "internalType": "address",
          "name": "to",
          "type": "address"
        },
        {
          "internalType": "uint256",
          "name": "tokenId",
          "type": "uint256"
        }
      ],
      "name": "transferCardFromContract",
      "outputs": [],
      "stateMutability": "nonpayable",
      "type": "function"
    },
    {
      "inputs": [
        {
          "internalType": "string",
          "name": "metadata",
          "type": "string"
        }
      ],
      "name": "transferCardToContract",
      "outputs": [],
      "stateMutability": "nonpayable",
      "type": "function"
    },
    {
      "inputs": [
        {
          "internalType": "address",
          "name": "from",
          "type": "address"
        },
        {
          "internalType": "address",
          "name": "to",
          "type": "address"
        },
        {
          "internalType": "uint256",
          "name": "tokenId",
          "type": "uint256"
        }
      ],
      "name": "transferFrom",
      "outputs": [],
      "stateMutability": "nonpayable",
      "type": "function"
    },
    {
      "inputs": [
        {
          "internalType": "address",
          "name": "from",
          "type": "address"
        },
        {
          "internalType": "address",
          "name": "to",
          "type": "address"
        },
        {
          "internalType": "uint256",
          "name": "tokenId",
          "type": "uint256"
        }
      ],
      "name": "transferNFT",
      "outputs": [],
      "stateMutability": "nonpayable",
      "type": "function"
    },
    {
      "inputs": [
        {
          "internalType": "address",
          "name": "newOwner",
          "type": "address"
        }
      ],
      "name": "transferOwnership",
      "outputs": [],
      "stateMutability": "nonpayable",
      "type": "function"
    }
  ],
  "bytecode": "0x60806040523480156200001157600080fd5b50604051620063fc380380620063fc833981810160405281019062000037919062000471565b806040518060400160405280600681526020017f4e465454434700000000000000000000000000000000000000000000000000008152506040518060400160405280600381526020017f54434700000000000000000000000000000000000000000000000000000000008152508160009081620000b591906200071d565b508060019081620000c791906200071d565b505050600073ffffffffffffffffffffffffffffffffffffffff168173ffffffffffffffffffffffffffffffffffffffff16036200013f5760006040517f1e4fbdf700000000000000000000000000000000000000000000000000000000815260040162000136919062000815565b60405180910390fd5b62000150816200016860201b60201c565b50620001616200022e60201b60201c565b5062000832565b6000600760009054906101000a900473ffffffffffffffffffffffffffffffffffffffff16905081600760006101000a81548173ffffffffffffffffffffffffffffffffffffffff021916908373ffffffffffffffffffffffffffffffffffffffff1602179055508173ffffffffffffffffffffffffffffffffffffffff168173ffffffffffffffffffffffffffffffffffffffff167f8be0079c531659141344cd1fd0a4f28419497f9722a3daafe3b4186f6b6457e060405160405180910390a35050565b600e6040518060800160405280600073ffffffffffffffffffffffffffffffffffffffff168152602001604051806020016040528060008152508152602001604051806020016040528060008152508152602001600067ffffffffffffffff811115620002a0576200029f620004ae565b5b604051908082528060200260200182016040528015620002cf5781602001602082028036833780820191505090505b50815250908060018154018082558091505060019003906000526020600020906004020160009091909190915060008201518160000160006101000a81548173ffffffffffffffffffffffffffffffffffffffff021916908373ffffffffffffffffffffffffffffffffffffffff16021790555060208201518160010190816200035a91906200071d565b5060408201518160020190816200037291906200071d565b5060608201518160030190805190602001906200039192919062000396565b505050565b828054828255906000526020600020908101928215620003d5579160200282015b82811115620003d4578251825591602001919060010190620003b7565b5b509050620003e49190620003e8565b5090565b5b8082111562000403576000816000905550600101620003e9565b5090565b600080fd5b600073ffffffffffffffffffffffffffffffffffffffff82169050919050565b600062000439826200040c565b9050919050565b6200044b816200042c565b81146200045757600080fd5b50565b6000815190506200046b8162000440565b92915050565b6000602082840312156200048a576200048962000407565b5b60006200049a848285016200045a565b91505092915050565b600081519050919050565b7f4e487b7100000000000000000000000000000000000000000000000000000000600052604160045260246000fd5b7f4e487b7100000000000000000000000000000000000000000000000000000000600052602260045260246000fd5b600060028204905060018216806200052557607f821691505b6020821081036200053b576200053a620004dd565b5b50919050565b60008190508160005260206000209050919050565b60006020601f8301049050919050565b600082821b905092915050565b600060088302620005a57fffffffffffffffffffffffffffffffffffffffffffffffffffffffffffffffff8262000566565b620005b1868362000566565b95508019841693508086168417925050509392505050565b6000819050919050565b6000819050919050565b6000620005fe620005f8620005f284620005c9565b620005d3565b620005c9565b9050919050565b6000819050919050565b6200061a83620005dd565b62000632620006298262000605565b84845462000573565b825550505050565b600090565b620006496200063a565b620006568184846200060f565b505050565b5b818110156200067e57620006726000826200063f565b6001810190506200065c565b5050565b601f821115620006cd57620006978162000541565b620006a28462000556565b81016020851015620006b2578190505b620006ca620006c18562000556565b8301826200065b565b50505b505050565b600082821c905092915050565b6000620006f260001984600802620006d2565b1980831691505092915050565b60006200070d8383620006df565b9150826002028217905092915050565b6200072882620004a3565b67ffffffffffffffff811115620007445762000743620004ae565b5b6200075082546200050c565b6200075d82828562000682565b600060209050601f83116001811462000795576000841562000780578287015190505b6200078c8582620006ff565b865550620007fc565b601f198416620007a58662000541565b60005b82811015620007cf57848901518255600182019150602085019450602081019050620007a8565b86831015620007ef5784890151620007eb601f891682620006df565b8355505b6001600288020188555050505b505050505050565b6200080f816200042c565b82525050565b60006020820190506200082c600083018462000804565b92915050565b615bba80620008426000396000f3fe60806040526004361061023b5760003560e01c806377bb7b781161012e578063c87b56dd116100ab578063ef581f111161006f578063ef581f111461091d578063efa1c4821461095a578063f2fde38b14610985578063f3eb8b53146109ae578063f71d96cb146109d75761023b565b8063c87b56dd14610800578063d28e8e191461083d578063d33d0be81461087a578063e985e9c5146108b7578063eecfc33e146108f45761023b565b806399adbfd5116100f257806399adbfd51461071f578063a04b30d014610748578063a22cb46514610785578063ab01d9a3146107ae578063b88d4fde146107d75761023b565b806377bb7b78146106235780637de4625d146106635780638b2fb93a1461068c5780638da5cb5b146106c957806395d89b41146106f45761023b565b80634a60f620116101bc5780636352211e116101805780636352211e14610540578063682efc011461057d57806369e9cae1146105a657806370a08231146105cf578063715018a61461060c5761023b565b80634a60f620146104425780634b1146911461046d5780635c12cd4b146104aa5780635e41a4f1146104e7578063615fd9e2146105245761023b565b8063095ea7b311610203578063095ea7b31461034d57806309c95e101461037657806323b872dd146103b35780633817b459146103dc57806342842e0e146104195761023b565b8063010abbd01461024057806301ffc9a71461027d57806306661abd146102ba57806306fdde03146102e5578063081812fc14610310575b600080fd5b34801561024c57600080fd5b5061026760048036038101906102629190614138565b610a16565b60405161027491906141a6565b60405180910390f35b34801561028957600080fd5b506102a4600480360381019061029f9190614219565b610a71565b6040516102b19190614261565b60405180910390f35b3480156102c657600080fd5b506102cf610a83565b6040516102dc919061428b565b60405180910390f35b3480156102f157600080fd5b506102fa610a8d565b6040516103079190614336565b60405180910390f35b34801561031c57600080fd5b5061033760048036038101906103329190614138565b610b1f565b60405161034491906141a6565b60405180910390f35b34801561035957600080fd5b50610374600480360381019061036f9190614384565b610b3b565b005b34801561038257600080fd5b5061039d600480360381019061039891906143c4565b610b51565b6040516103aa9190614261565b60405180910390f35b3480156103bf57600080fd5b506103da60048036038101906103d591906143f1565b610bac565b005b3480156103e857600080fd5b5061040360048036038101906103fe9190614579565b610cae565b60405161041091906141a6565b60405180910390f35b34801561042557600080fd5b50610440600480360381019061043b91906143f1565b610d26565b005b34801561044e57600080fd5b50610457610d46565b604051610464919061428b565b60405180910390f35b34801561047957600080fd5b50610494600480360381019061048f91906143c4565b610d4c565b6040516104a1919061428b565b60405180910390f35b3480156104b657600080fd5b506104d160048036038101906104cc91906143c4565b610d64565b6040516104de919061474a565b60405180910390f35b3480156104f357600080fd5b5061050e600480360381019061050991906143c4565b610ff9565b60405161051b919061428b565b60405180910390f35b61053e6004803603810190610539919061476c565b61106f565b005b34801561054c57600080fd5b5061056760048036038101906105629190614138565b6111f0565b60405161057491906141a6565b60405180910390f35b34801561058957600080fd5b506105a4600480360381019061059f9190614579565b611202565b005b3480156105b257600080fd5b506105cd60048036038101906105c891906143f1565b611419565b005b3480156105db57600080fd5b506105f660048036038101906105f191906143c4565b611658565b604051610603919061428b565b60405180910390f35b34801561061857600080fd5b50610621611712565b005b34801561062f57600080fd5b5061064a60048036038101906106459190614579565b611726565b60405161065a94939291906147c8565b60405180910390f35b34801561066f57600080fd5b5061068a60048036038101906106859190614579565b611841565b005b34801561069857600080fd5b506106b360048036038101906106ae9190614579565b611b18565b6040516106c09190614261565b60405180910390f35b3480156106d557600080fd5b506106de611b9e565b6040516106eb91906141a6565b60405180910390f35b34801561070057600080fd5b50610709611bc8565b6040516107169190614336565b60405180910390f35b34801561072b57600080fd5b5061074660048036038101906107419190614814565b611c5a565b005b34801561075457600080fd5b5061076f600480360381019061076a919061489f565b611e8c565b60405161077c9190614336565b60405180910390f35b34801561079157600080fd5b506107ac60048036038101906107a79190614927565b611f5b565b005b3480156107ba57600080fd5b506107d560048036038101906107d09190614814565b611f71565b005b3480156107e357600080fd5b506107fe60048036038101906107f99190614a08565b612199565b005b34801561080c57600080fd5b5061082760048036038101906108229190614138565b6121b6565b6040516108349190614336565b60405180910390f35b34801561084957600080fd5b50610864600480360381019061085f91906143c4565b6121c8565b6040516108719190614b4d565b60405180910390f35b34801561088657600080fd5b506108a1600480360381019061089c9190614579565b61234b565b6040516108ae919061428b565b60405180910390f35b3480156108c357600080fd5b506108de60048036038101906108d99190614b6f565b612379565b6040516108eb9190614261565b60405180910390f35b34801561090057600080fd5b5061091b60048036038101906109169190614384565b61240d565b005b34801561092957600080fd5b50610944600480360381019061093f9190614579565b612523565b6040516109519190614b4d565b60405180910390f35b34801561096657600080fd5b5061096f6126f1565b60405161097c9190614ce2565b60405180910390f35b34801561099157600080fd5b506109ac60048036038101906109a791906143c4565b612922565b005b3480156109ba57600080fd5b506109d560048036038101906109d09190614d04565b6129a8565b005b3480156109e357600080fd5b506109fe60048036038101906109f99190614138565b612b17565b604051610a0d93929190614d60565b60405180910390f35b6000610a20610a83565b8210610a61576040517f08c379a0000000000000000000000000000000000000000000000000000000008152600401610a5890614df1565b60405180910390fd5b610a6a826111f0565b9050919050565b6000610a7c82612c81565b9050919050565b6000600854905090565b606060008054610a9c90614e40565b80601f0160208091040260200160405190810160405280929190818152602001828054610ac890614e40565b8015610b155780601f10610aea57610100808354040283529160200191610b15565b820191906000526020600020905b815481529060010190602001808311610af857829003601f168201915b5050505050905090565b6000610b2a82612ce2565b50610b3482612d6a565b9050919050565b610b4d8282610b48612da7565b612daf565b5050565b600080600a60008473ffffffffffffffffffffffffffffffffffffffff1673ffffffffffffffffffffffffffffffffffffffff1681526020019081526020016000205403610ba25760009050610ba7565b600190505b919050565b600073ffffffffffffffffffffffffffffffffffffffff168273ffffffffffffffffffffffffffffffffffffffff1603610c1e5760006040517f64a0ae92000000000000000000000000000000000000000000000000000000008152600401610c1591906141a6565b60405180910390fd5b6000610c328383610c2d612da7565b612dc1565b90508373ffffffffffffffffffffffffffffffffffffffff168173ffffffffffffffffffffffffffffffffffffffff1614610ca8578382826040517f64283d7b000000000000000000000000000000000000000000000000000000008152600401610c9f93929190614e71565b60405180910390fd5b50505050565b600080600d83604051610cc19190614ee4565b908152602001604051809103902054905060008103610d15576040517f08c379a0000000000000000000000000000000000000000000000000000000008152600401610d0c90614df1565b60405180910390fd5b610d1e816111f0565b915050919050565b610d4183838360405180602001604052806000815250612199565b505050565b60085481565b600a6020528060005260406000206000915090505481565b610d6c614006565b610d7582610b51565b610db4576040517f08c379a0000000000000000000000000000000000000000000000000000000008152600401610dab90614f47565b60405180910390fd5b600e600a60008473ffffffffffffffffffffffffffffffffffffffff1673ffffffffffffffffffffffffffffffffffffffff1681526020019081526020016000205481548110610e0757610e06614f67565b5b90600052602060002090600402016040518060800160405290816000820160009054906101000a900473ffffffffffffffffffffffffffffffffffffffff1673ffffffffffffffffffffffffffffffffffffffff1673ffffffffffffffffffffffffffffffffffffffff168152602001600182018054610e8690614e40565b80601f0160208091040260200160405190810160405280929190818152602001828054610eb290614e40565b8015610eff5780601f10610ed457610100808354040283529160200191610eff565b820191906000526020600020905b815481529060010190602001808311610ee257829003601f168201915b50505050508152602001600282018054610f1890614e40565b80601f0160208091040260200160405190810160405280929190818152602001828054610f4490614e40565b8015610f915780601f10610f6657610100808354040283529160200191610f91565b820191906000526020600020905b815481529060010190602001808311610f7457829003601f168201915b5050505050815260200160038201805480602002602001604051908101604052809291908181526020018280548015610fe957602002820191906000526020600020905b815481526020019060010190808311610fd5575b5050505050815250509050919050565b600080600a60008473ffffffffffffffffffffffffffffffffffffffff1673ffffffffffffffffffffffffffffffffffffffff168152602001908152602001600020549050600e818154811061105257611051614f67565b5b906000526020600020906004020160030180549050915050919050565b66b1a2bc2ec500003410156110b9576040517f08c379a00000000000000000000000000000000000000000000000000000000081526004016110b090614fe2565b60405180910390fd5b6000600860008154809291906110ce90615031565b9190505590506110de8382612fdb565b6110e881836130d4565b80600d836040516110f99190614ee4565b908152602001604051809103902081905550808373ffffffffffffffffffffffffffffffffffffffff167fd35bb95e09c04b219e35047ce7b7b300e3384264ef84a40456943dbc0fc17c14846040516111529190614336565b60405180910390a36000600a60008573ffffffffffffffffffffffffffffffffffffffff1673ffffffffffffffffffffffffffffffffffffffff168152602001908152602001600020549050600e81815481106111b2576111b1614f67565b5b906000526020600020906004020160030182908060018154018082558091505060019003906000526020600020016000909190919091505550505050565b60006111fb82612ce2565b9050919050565b6000600d826040516112149190614ee4565b90815260200160405180910390205490506000811015611269576040517f08c379a0000000000000000000000000000000000000000000000000000000008152600401611260906150eb565b60405180910390fd5b3373ffffffffffffffffffffffffffffffffffffffff16611289826111f0565b73ffffffffffffffffffffffffffffffffffffffff16146112df576040517f08c379a00000000000000000000000000000000000000000000000000000000081526004016112d69061517d565b60405180910390fd5b6112ea333083610d26565b6000600a60003373ffffffffffffffffffffffffffffffffffffffff1673ffffffffffffffffffffffffffffffffffffffff1681526020019081526020016000205490506000600e828154811061134457611343614f67565b5b9060005260206000209060040201600301905060005b8180549050811015611412578382828154811061137a57611379614f67565b5b90600052602060002001540361140557816001838054905061139c919061519d565b815481106113ad576113ac614f67565b5b90600052602060002001548282815481106113cb576113ca614f67565b5b9060005260206000200181905550818054806113ea576113e96151d1565b5b60019003818190600052602060002001600090559055611412565b808060010191505061135a565b5050505050565b8273ffffffffffffffffffffffffffffffffffffffff16611439826111f0565b73ffffffffffffffffffffffffffffffffffffffff161461148f576040517f08c379a00000000000000000000000000000000000000000000000000000000081526004016114869061524c565b60405180910390fd5b61149a838383613130565b6000600a60008573ffffffffffffffffffffffffffffffffffffffff1673ffffffffffffffffffffffffffffffffffffffff1681526020019081526020016000205490506000600e82815481106114f4576114f3614f67565b5b9060005260206000209060040201600301905060005b81805490508110156115c2578382828154811061152a57611529614f67565b5b9060005260206000200154036115b557816001838054905061154c919061519d565b8154811061155d5761155c614f67565b5b906000526020600020015482828154811061157b5761157a614f67565b5b90600052602060002001819055508180548061159a576115996151d1565b5b600190038181906000526020600020016000905590556115c2565b808060010191505061150a565b50600a60008573ffffffffffffffffffffffffffffffffffffffff1673ffffffffffffffffffffffffffffffffffffffff168152602001908152602001600020549150600e828154811061161957611618614f67565b5b90600052602060002090600402016003018390806001815401808255809150506001900390600052602060002001600090919091909150555050505050565b60008073ffffffffffffffffffffffffffffffffffffffff168273ffffffffffffffffffffffffffffffffffffffff16036116cb5760006040517f89c62b640000000000000000000000000000000000000000000000000000000081526004016116c291906141a6565b60405180910390fd5b600360008373ffffffffffffffffffffffffffffffffffffffff1673ffffffffffffffffffffffffffffffffffffffff168152602001908152602001600020549050919050565b61171a61329d565b6117246000613324565b565b600b818051602081018201805184825260208301602085012081835280955050505050506000915090508060000160009054906101000a900473ffffffffffffffffffffffffffffffffffffffff16908060010160009054906101000a900473ffffffffffffffffffffffffffffffffffffffff16908060020180546117ab90614e40565b80601f01602080910402602001604051908101604052809291908181526020018280546117d790614e40565b80156118245780601f106117f957610100808354040283529160200191611824565b820191906000526020600020905b81548152906001019060200180831161180757829003601f168201915b5050505050908060030160009054906101000a900460ff16905084565b61184a816133ea565b611889576040517f08c379a0000000000000000000000000000000000000000000000000000000008152600401611880906152b8565b60405180910390fd5b6000600b8260405161189b9190614ee4565b908152602001604051809103902090508060000160009054906101000a900473ffffffffffffffffffffffffffffffffffffffff1673ffffffffffffffffffffffffffffffffffffffff163373ffffffffffffffffffffffffffffffffffffffff161461193d576040517f08c379a00000000000000000000000000000000000000000000000000000000081526004016119349061534a565b60405180910390fd5b600060098360405161194f9190614ee4565b908152602001604051809103902060006101000a81548160ff021916908315150217905550600b826040516119849190614ee4565b9081526020016040518091039020600080820160006101000a81549073ffffffffffffffffffffffffffffffffffffffff02191690556001820160006101000a81549073ffffffffffffffffffffffffffffffffffffffff02191690556002820160006119f19190614044565b6003820160006101000a81549060ff021916905550506000600c82600201604051611a1c9190615402565b9081526020016040518091039020905060005b8180549050811015611b12578380519060200120828281548110611a5657611a55614f67565b5b90600052602060002001604051611a6d91906154bc565b604051809103902003611b05578160018380549050611a8c919061519d565b81548110611a9d57611a9c614f67565b5b90600052602060002001828281548110611aba57611ab9614f67565b5b906000526020600020019081611ad09190615695565b5081805480611ae257611ae16151d1565b5b600190038181906000526020600020016000611afe9190614044565b9055611b12565b8080600101915050611a2f565b50505050565b6000611b23826133ea565b611b62576040517f08c379a0000000000000000000000000000000000000000000000000000000008152600401611b59906152b8565b60405180910390fd5b6000600b83604051611b749190614ee4565b908152602001604051809103902090508060030160009054906101000a900460ff16915050919050565b6000600760009054906101000a900473ffffffffffffffffffffffffffffffffffffffff16905090565b606060018054611bd790614e40565b80601f0160208091040260200160405190810160405280929190818152602001828054611c0390614e40565b8015611c505780601f10611c2557610100808354040283529160200191611c50565b820191906000526020600020905b815481529060010190602001808311611c3357829003601f168201915b5050505050905090565b611c63816133ea565b15611ca3576040517f08c379a0000000000000000000000000000000000000000000000000000000008152600401611c9a906157c9565b60405180910390fd5b600060405180608001604052808573ffffffffffffffffffffffffffffffffffffffff168152602001600073ffffffffffffffffffffffffffffffffffffffff16815260200184815260200160001515815250905080600b83604051611d099190614ee4565b908152602001604051809103902060008201518160000160006101000a81548173ffffffffffffffffffffffffffffffffffffffff021916908373ffffffffffffffffffffffffffffffffffffffff16021790555060208201518160010160006101000a81548173ffffffffffffffffffffffffffffffffffffffff021916908373ffffffffffffffffffffffffffffffffffffffff1602179055506040820151816002019081611dba91906157e9565b5060608201518160030160006101000a81548160ff021916908315150217905550905050611de78261341f565b600c83604051611df79190614ee4565b908152602001604051809103902082908060018154018082558091505060019003906000526020600020016000909190919091509081611e3791906157e9565b503373ffffffffffffffffffffffffffffffffffffffff167fb8c752ce5211d09f40fda04dd89cda1620aed623addaf2785a0d2e57110e99f683604051611e7e9190614336565b60405180910390a250505050565b600c828051602081018201805184825260208301602085012081835280955050505050508181548110611ebe57600080fd5b90600052602060002001600091509150508054611eda90614e40565b80601f0160208091040260200160405190810160405280929190818152602001828054611f0690614e40565b8015611f535780601f10611f2857610100808354040283529160200191611f53565b820191906000526020600020905b815481529060010190602001808311611f3657829003601f168201915b505050505081565b611f6d611f66612da7565b8383613459565b5050565b611f7a83610b51565b15611fba576040517f08c379a0000000000000000000000000000000000000000000000000000000008152600401611fb190615907565b60405180910390fd5b6000600e805490509050600e60405180608001604052808673ffffffffffffffffffffffffffffffffffffffff168152602001858152602001848152602001600067ffffffffffffffff8111156120145761201361444e565b5b6040519080825280602002602001820160405280156120425781602001602082028036833780820191505090505b50815250908060018154018082558091505060019003906000526020600020906004020160009091909190915060008201518160000160006101000a81548173ffffffffffffffffffffffffffffffffffffffff021916908373ffffffffffffffffffffffffffffffffffffffff16021790555060208201518160010190816120cb91906157e9565b5060408201518160020190816120e191906157e9565b5060608201518160030190805190602001906120fe929190614084565b50505080600a60008673ffffffffffffffffffffffffffffffffffffffff1673ffffffffffffffffffffffffffffffffffffffff168152602001908152602001600020819055508373ffffffffffffffffffffffffffffffffffffffff167f81ef79d1cda814a60c0fc60792e648a06d9c6bae67176346d1cc8b63030bfccd8460405161218b9190614336565b60405180910390a250505050565b6121a4848484610bac565b6121b0848484846135c8565b50505050565b60606121c18261377f565b9050919050565b60606000600a60008473ffffffffffffffffffffffffffffffffffffffff1673ffffffffffffffffffffffffffffffffffffffff1681526020019081526020016000205490506000600e828154811061222457612223614f67565b5b906000526020600020906004020160030180548060200260200160405190810160405280929190818152602001828054801561227f57602002820191906000526020600020905b81548152602001906001019080831161226b575b505050505090506000815167ffffffffffffffff8111156122a3576122a261444e565b5b6040519080825280602002602001820160405280156122d657816020015b60608152602001906001900390816122c15790505b50905060005b825181101561233f5760008382815181106122fa576122f9614f67565b5b60200260200101519050600061230f826121b6565b90508084848151811061232557612324614f67565b5b6020026020010181905250505080806001019150506122dc565b50809350505050919050565b600d818051602081018201805184825260208301602085012081835280955050505050506000915090505481565b6000600560008473ffffffffffffffffffffffffffffffffffffffff1673ffffffffffffffffffffffffffffffffffffffff16815260200190815260200160002060008373ffffffffffffffffffffffffffffffffffffffff1673ffffffffffffffffffffffffffffffffffffffff16815260200190815260200160002060009054906101000a900460ff16905092915050565b3073ffffffffffffffffffffffffffffffffffffffff1661242d826111f0565b73ffffffffffffffffffffffffffffffffffffffff1614612483576040517f08c379a000000000000000000000000000000000000000000000000000000000815260040161247a90615999565b60405180910390fd5b61248e308383610bac565b6000600a60008473ffffffffffffffffffffffffffffffffffffffff1673ffffffffffffffffffffffffffffffffffffffff168152602001908152602001600020549050600e81815481106124e6576124e5614f67565b5b9060005260206000209060040201600301829080600181540180825580915050600190039060005260206000200160009091909190915055505050565b60606000600c836040516125379190614ee4565b908152602001604051809103902090506000818054905067ffffffffffffffff8111156125675761256661444e565b5b60405190808252806020026020018201604052801561259a57816020015b60608152602001906001900390816125855790505b5090506000805b83805490508110156126e2576000600b8583815481106125c4576125c3614f67565b5b906000526020600020016040516125db9190615402565b908152602001604051809103902090508060030160009054906101000a900460ff166126d45784828154811061261457612613614f67565b5b90600052602060002001805461262990614e40565b80601f016020809104026020016040519081016040528092919081815260200182805461265590614e40565b80156126a25780601f10612677576101008083540402835291602001916126a2565b820191906000526020600020905b81548152906001019060200180831161268557829003601f168201915b50505050508484815181106126ba576126b9614f67565b5b602002602001018190525082806126d090615031565b9350505b5080806001019150506125a1565b50808252819350505050919050565b6060600e805480602002602001604051908101604052809291908181526020016000905b8282101561291957838290600052602060002090600402016040518060800160405290816000820160009054906101000a900473ffffffffffffffffffffffffffffffffffffffff1673ffffffffffffffffffffffffffffffffffffffff1673ffffffffffffffffffffffffffffffffffffffff16815260200160018201805461279e90614e40565b80601f01602080910402602001604051908101604052809291908181526020018280546127ca90614e40565b80156128175780601f106127ec57610100808354040283529160200191612817565b820191906000526020600020905b8154815290600101906020018083116127fa57829003601f168201915b5050505050815260200160028201805461283090614e40565b80601f016020809104026020016040519081016040528092919081815260200182805461285c90614e40565b80156128a95780601f1061287e576101008083540402835291602001916128a9565b820191906000526020600020905b81548152906001019060200180831161288c57829003601f168201915b505050505081526020016003820180548060200260200160405190810160405280929190818152602001828054801561290157602002820191906000526020600020905b8154815260200190600101908083116128ed575b50505050508152505081526020019060010190612715565b50505050905090565b61292a61329d565b600073ffffffffffffffffffffffffffffffffffffffff168173ffffffffffffffffffffffffffffffffffffffff160361299c5760006040517f1e4fbdf700000000000000000000000000000000000000000000000000000000815260040161299391906141a6565b60405180910390fd5b6129a581613324565b50565b6129b1826133ea565b6129f0576040517f08c379a00000000000000000000000000000000000000000000000000000000081526004016129e7906152b8565b60405180910390fd5b6000600b83604051612a029190614ee4565b908152602001604051809103902090508060030160009054906101000a900460ff1615612a64576040517f08c379a0000000000000000000000000000000000000000000000000000000008152600401612a5b90615a05565b60405180910390fd5b818160010160006101000a81548173ffffffffffffffffffffffffffffffffffffffff021916908373ffffffffffffffffffffffffffffffffffffffff16021790555060018160030160006101000a81548160ff0219169083151502179055508173ffffffffffffffffffffffffffffffffffffffff167f1801f9534f97fd64cd2f345d9e3a30ab19443cd0ef6c97ae4ba53b75261473d284604051612b0a9190614336565b60405180910390a2505050565b600e8181548110612b2757600080fd5b90600052602060002090600402016000915090508060000160009054906101000a900473ffffffffffffffffffffffffffffffffffffffff1690806001018054612b7090614e40565b80601f0160208091040260200160405190810160405280929190818152602001828054612b9c90614e40565b8015612be95780601f10612bbe57610100808354040283529160200191612be9565b820191906000526020600020905b815481529060010190602001808311612bcc57829003601f168201915b505050505090806002018054612bfe90614e40565b80601f0160208091040260200160405190810160405280929190818152602001828054612c2a90614e40565b8015612c775780601f10612c4c57610100808354040283529160200191612c77565b820191906000526020600020905b815481529060010190602001808311612c5a57829003601f168201915b5050505050905083565b6000634906490660e01b7bffffffffffffffffffffffffffffffffffffffffffffffffffffffff1916827bffffffffffffffffffffffffffffffffffffffffffffffffffffffff19161480612cdb5750612cda82613892565b5b9050919050565b600080612cee83613974565b9050600073ffffffffffffffffffffffffffffffffffffffff168173ffffffffffffffffffffffffffffffffffffffff1603612d6157826040517f7e273289000000000000000000000000000000000000000000000000000000008152600401612d58919061428b565b60405180910390fd5b80915050919050565b60006004600083815260200190815260200160002060009054906101000a900473ffffffffffffffffffffffffffffffffffffffff169050919050565b600033905090565b612dbc83838360016139b1565b505050565b600080612dcd84613974565b9050600073ffffffffffffffffffffffffffffffffffffffff168373ffffffffffffffffffffffffffffffffffffffff1614612e0f57612e0e818486613b76565b5b600073ffffffffffffffffffffffffffffffffffffffff168173ffffffffffffffffffffffffffffffffffffffff1614612ea057612e516000856000806139b1565b6001600360008373ffffffffffffffffffffffffffffffffffffffff1673ffffffffffffffffffffffffffffffffffffffff168152602001908152602001600020600082825403925050819055505b600073ffffffffffffffffffffffffffffffffffffffff168573ffffffffffffffffffffffffffffffffffffffff1614612f23576001600360008773ffffffffffffffffffffffffffffffffffffffff1673ffffffffffffffffffffffffffffffffffffffff168152602001908152602001600020600082825401925050819055505b846002600086815260200190815260200160002060006101000a81548173ffffffffffffffffffffffffffffffffffffffff021916908373ffffffffffffffffffffffffffffffffffffffff160217905550838573ffffffffffffffffffffffffffffffffffffffff168273ffffffffffffffffffffffffffffffffffffffff167fddf252ad1be2c89b69c2b068fc378daa952ba7f163c4a11628f55a4df523b3ef60405160405180910390a4809150509392505050565b600073ffffffffffffffffffffffffffffffffffffffff168273ffffffffffffffffffffffffffffffffffffffff160361304d5760006040517f64a0ae9200000000000000000000000000000000000000000000000000000000815260040161304491906141a6565b60405180910390fd5b600061305b83836000612dc1565b9050600073ffffffffffffffffffffffffffffffffffffffff168173ffffffffffffffffffffffffffffffffffffffff16146130cf5760006040517f73c6ac6e0000000000000000000000000000000000000000000000000000000081526004016130c691906141a6565b60405180910390fd5b505050565b806006600084815260200190815260200160002090816130f491906157e9565b507ff8e1a15aba9398e019f0b49df1a4fde98ee17ae345cb5f6b5e2c27f5033e8ce782604051613124919061428b565b60405180910390a15050565b600073ffffffffffffffffffffffffffffffffffffffff168273ffffffffffffffffffffffffffffffffffffffff16036131a25760006040517f64a0ae9200000000000000000000000000000000000000000000000000000000815260040161319991906141a6565b60405180910390fd5b60006131b083836000612dc1565b9050600073ffffffffffffffffffffffffffffffffffffffff168173ffffffffffffffffffffffffffffffffffffffff160361322357816040517f7e27328900000000000000000000000000000000000000000000000000000000815260040161321a919061428b565b60405180910390fd5b8373ffffffffffffffffffffffffffffffffffffffff168173ffffffffffffffffffffffffffffffffffffffff1614613297578382826040517f64283d7b00000000000000000000000000000000000000000000000000000000815260040161328e93929190614e71565b60405180910390fd5b50505050565b6132a5612da7565b73ffffffffffffffffffffffffffffffffffffffff166132c3611b9e565b73ffffffffffffffffffffffffffffffffffffffff1614613322576132e6612da7565b6040517f118cdaa700000000000000000000000000000000000000000000000000000000815260040161331991906141a6565b60405180910390fd5b565b6000600760009054906101000a900473ffffffffffffffffffffffffffffffffffffffff16905081600760006101000a81548173ffffffffffffffffffffffffffffffffffffffff021916908373ffffffffffffffffffffffffffffffffffffffff1602179055508173ffffffffffffffffffffffffffffffffffffffff168173ffffffffffffffffffffffffffffffffffffffff167f8be0079c531659141344cd1fd0a4f28419497f9722a3daafe3b4186f6b6457e060405160405180910390a35050565b60006009826040516133fc9190614ee4565b908152602001604051809103902060009054906101000a900460ff169050919050565b60016009826040516134319190614ee4565b908152602001604051809103902060006101000a81548160ff02191690831515021790555050565b600073ffffffffffffffffffffffffffffffffffffffff168273ffffffffffffffffffffffffffffffffffffffff16036134ca57816040517f5b08ba180000000000000000000000000000000000000000000000000000000081526004016134c191906141a6565b60405180910390fd5b80600560008573ffffffffffffffffffffffffffffffffffffffff1673ffffffffffffffffffffffffffffffffffffffff16815260200190815260200160002060008473ffffffffffffffffffffffffffffffffffffffff1673ffffffffffffffffffffffffffffffffffffffff16815260200190815260200160002060006101000a81548160ff0219169083151502179055508173ffffffffffffffffffffffffffffffffffffffff168373ffffffffffffffffffffffffffffffffffffffff167f17307eab39ab6107e8899845ad3d59bd9653f200f220920489ca2b5937696c31836040516135bb9190614261565b60405180910390a3505050565b60008373ffffffffffffffffffffffffffffffffffffffff163b1115613779578273ffffffffffffffffffffffffffffffffffffffff1663150b7a0261360c612da7565b8685856040518563ffffffff1660e01b815260040161362e9493929190615a7a565b6020604051808303816000875af192505050801561366a57506040513d601f19601f820116820180604052508101906136679190615adb565b60015b6136ee573d806000811461369a576040519150601f19603f3d011682016040523d82523d6000602084013e61369f565b606091505b5060008151036136e657836040517f64a0ae920000000000000000000000000000000000000000000000000000000081526004016136dd91906141a6565b60405180910390fd5b805181602001fd5b63150b7a0260e01b7bffffffffffffffffffffffffffffffffffffffffffffffffffffffff1916817bffffffffffffffffffffffffffffffffffffffffffffffffffffffff19161461377757836040517f64a0ae9200000000000000000000000000000000000000000000000000000000815260040161376e91906141a6565b60405180910390fd5b505b50505050565b606061378a82612ce2565b5060006006600084815260200190815260200160002080546137ab90614e40565b80601f01602080910402602001604051908101604052809291908181526020018280546137d790614e40565b80156138245780601f106137f957610100808354040283529160200191613824565b820191906000526020600020905b81548152906001019060200180831161380757829003601f168201915b505050505090506000613835613c3a565b9050600081510361384a57819250505061388d565b60008251111561387f578082604051602001613867929190615b08565b6040516020818303038152906040529250505061388d565b61388884613c51565b925050505b919050565b60007f80ac58cd000000000000000000000000000000000000000000000000000000007bffffffffffffffffffffffffffffffffffffffffffffffffffffffff1916827bffffffffffffffffffffffffffffffffffffffffffffffffffffffff1916148061395d57507f5b5e139f000000000000000000000000000000000000000000000000000000007bffffffffffffffffffffffffffffffffffffffffffffffffffffffff1916827bffffffffffffffffffffffffffffffffffffffffffffffffffffffff1916145b8061396d575061396c82613cba565b5b9050919050565b60006002600083815260200190815260200160002060009054906101000a900473ffffffffffffffffffffffffffffffffffffffff169050919050565b80806139ea5750600073ffffffffffffffffffffffffffffffffffffffff168273ffffffffffffffffffffffffffffffffffffffff1614155b15613b1e5760006139fa84612ce2565b9050600073ffffffffffffffffffffffffffffffffffffffff168373ffffffffffffffffffffffffffffffffffffffff1614158015613a6557508273ffffffffffffffffffffffffffffffffffffffff168173ffffffffffffffffffffffffffffffffffffffff1614155b8015613a785750613a768184612379565b155b15613aba57826040517fa9fbf51f000000000000000000000000000000000000000000000000000000008152600401613ab191906141a6565b60405180910390fd5b8115613b1c57838573ffffffffffffffffffffffffffffffffffffffff168273ffffffffffffffffffffffffffffffffffffffff167f8c5be1e5ebec7d5bd14f71427d1e84f3dd0314c0f7b2291e5b200ac8c7c3b92560405160405180910390a45b505b836004600085815260200190815260200160002060006101000a81548173ffffffffffffffffffffffffffffffffffffffff021916908373ffffffffffffffffffffffffffffffffffffffff16021790555050505050565b613b81838383613d24565b613c3557600073ffffffffffffffffffffffffffffffffffffffff168373ffffffffffffffffffffffffffffffffffffffff1603613bf657806040517f7e273289000000000000000000000000000000000000000000000000000000008152600401613bed919061428b565b60405180910390fd5b81816040517f177e802f000000000000000000000000000000000000000000000000000000008152600401613c2c929190615b2c565b60405180910390fd5b505050565b606060405180602001604052806000815250905090565b6060613c5c82612ce2565b506000613c67613c3a565b90506000815111613c875760405180602001604052806000815250613cb2565b80613c9184613de5565b604051602001613ca2929190615b08565b6040516020818303038152906040525b915050919050565b60007f01ffc9a7000000000000000000000000000000000000000000000000000000007bffffffffffffffffffffffffffffffffffffffffffffffffffffffff1916827bffffffffffffffffffffffffffffffffffffffffffffffffffffffff1916149050919050565b60008073ffffffffffffffffffffffffffffffffffffffff168373ffffffffffffffffffffffffffffffffffffffff1614158015613ddc57508273ffffffffffffffffffffffffffffffffffffffff168473ffffffffffffffffffffffffffffffffffffffff161480613d9d5750613d9c8484612379565b5b80613ddb57508273ffffffffffffffffffffffffffffffffffffffff16613dc383612d6a565b73ffffffffffffffffffffffffffffffffffffffff16145b5b90509392505050565b606060006001613df484613eb3565b01905060008167ffffffffffffffff811115613e1357613e1261444e565b5b6040519080825280601f01601f191660200182016040528015613e455781602001600182028036833780820191505090505b509050600082602001820190505b600115613ea8578080600190039150507f3031323334353637383961626364656600000000000000000000000000000000600a86061a8153600a8581613e9c57613e9b615b55565b5b04945060008503613e53575b819350505050919050565b600080600090507a184f03e93ff9f4daa797ed6e38ed64bf6a1f0100000000000000008310613f11577a184f03e93ff9f4daa797ed6e38ed64bf6a1f0100000000000000008381613f0757613f06615b55565b5b0492506040810190505b6d04ee2d6d415b85acef81000000008310613f4e576d04ee2d6d415b85acef81000000008381613f4457613f43615b55565b5b0492506020810190505b662386f26fc100008310613f7d57662386f26fc100008381613f7357613f72615b55565b5b0492506010810190505b6305f5e1008310613fa6576305f5e1008381613f9c57613f9b615b55565b5b0492506008810190505b6127108310613fcb576127108381613fc157613fc0615b55565b5b0492506004810190505b60648310613fee5760648381613fe457613fe3615b55565b5b0492506002810190505b600a8310613ffd576001810190505b80915050919050565b6040518060800160405280600073ffffffffffffffffffffffffffffffffffffffff1681526020016060815260200160608152602001606081525090565b50805461405090614e40565b6000825580601f106140625750614081565b601f01602090049060005260206000209081019061408091906140d1565b5b50565b8280548282559060005260206000209081019282156140c0579160200282015b828111156140bf5782518255916020019190600101906140a4565b5b5090506140cd91906140d1565b5090565b5b808211156140ea5760008160009055506001016140d2565b5090565b6000604051905090565b600080fd5b600080fd5b6000819050919050565b61411581614102565b811461412057600080fd5b50565b6000813590506141328161410c565b92915050565b60006020828403121561414e5761414d6140f8565b5b600061415c84828501614123565b91505092915050565b600073ffffffffffffffffffffffffffffffffffffffff82169050919050565b600061419082614165565b9050919050565b6141a081614185565b82525050565b60006020820190506141bb6000830184614197565b92915050565b60007fffffffff0000000000000000000000000000000000000000000000000000000082169050919050565b6141f6816141c1565b811461420157600080fd5b50565b600081359050614213816141ed565b92915050565b60006020828403121561422f5761422e6140f8565b5b600061423d84828501614204565b91505092915050565b60008115159050919050565b61425b81614246565b82525050565b60006020820190506142766000830184614252565b92915050565b61428581614102565b82525050565b60006020820190506142a0600083018461427c565b92915050565b600081519050919050565b600082825260208201905092915050565b60005b838110156142e05780820151818401526020810190506142c5565b60008484015250505050565b6000601f19601f8301169050919050565b6000614308826142a6565b61431281856142b1565b93506143228185602086016142c2565b61432b816142ec565b840191505092915050565b6000602082019050818103600083015261435081846142fd565b905092915050565b61436181614185565b811461436c57600080fd5b50565b60008135905061437e81614358565b92915050565b6000806040838503121561439b5761439a6140f8565b5b60006143a98582860161436f565b92505060206143ba85828601614123565b9150509250929050565b6000602082840312156143da576143d96140f8565b5b60006143e88482850161436f565b91505092915050565b60008060006060848603121561440a576144096140f8565b5b60006144188682870161436f565b93505060206144298682870161436f565b925050604061443a86828701614123565b9150509250925092565b600080fd5b600080fd5b7f4e487b7100000000000000000000000000000000000000000000000000000000600052604160045260246000fd5b614486826142ec565b810181811067ffffffffffffffff821117156144a5576144a461444e565b5b80604052505050565b60006144b86140ee565b90506144c4828261447d565b919050565b600067ffffffffffffffff8211156144e4576144e361444e565b5b6144ed826142ec565b9050602081019050919050565b82818337600083830152505050565b600061451c614517846144c9565b6144ae565b90508281526020810184848401111561453857614537614449565b5b6145438482856144fa565b509392505050565b600082601f8301126145605761455f614444565b5b8135614570848260208601614509565b91505092915050565b60006020828403121561458f5761458e6140f8565b5b600082013567ffffffffffffffff8111156145ad576145ac6140fd565b5b6145b98482850161454b565b91505092915050565b6145cb81614185565b82525050565b600082825260208201905092915050565b60006145ed826142a6565b6145f781856145d1565b93506146078185602086016142c2565b614610816142ec565b840191505092915050565b600081519050919050565b600082825260208201905092915050565b6000819050602082019050919050565b61465081614102565b82525050565b60006146628383614647565b60208301905092915050565b6000602082019050919050565b60006146868261461b565b6146908185614626565b935061469b83614637565b8060005b838110156146cc5781516146b38882614656565b97506146be8361466e565b92505060018101905061469f565b5085935050505092915050565b60006080830160008301516146f160008601826145c2565b506020830151848203602086015261470982826145e2565b9150506040830151848203604086015261472382826145e2565b9150506060830151848203606086015261473d828261467b565b9150508091505092915050565b6000602082019050818103600083015261476481846146d9565b905092915050565b60008060408385031215614783576147826140f8565b5b60006147918582860161436f565b925050602083013567ffffffffffffffff8111156147b2576147b16140fd565b5b6147be8582860161454b565b9150509250929050565b60006080820190506147dd6000830187614197565b6147ea6020830186614197565b81810360408301526147fc81856142fd565b905061480b6060830184614252565b95945050505050565b60008060006060848603121561482d5761482c6140f8565b5b600061483b8682870161436f565b935050602084013567ffffffffffffffff81111561485c5761485b6140fd565b5b6148688682870161454b565b925050604084013567ffffffffffffffff811115614889576148886140fd565b5b6148958682870161454b565b9150509250925092565b600080604083850312156148b6576148b56140f8565b5b600083013567ffffffffffffffff8111156148d4576148d36140fd565b5b6148e08582860161454b565b92505060206148f185828601614123565b9150509250929050565b61490481614246565b811461490f57600080fd5b50565b600081359050614921816148fb565b92915050565b6000806040838503121561493e5761493d6140f8565b5b600061494c8582860161436f565b925050602061495d85828601614912565b9150509250929050565b600067ffffffffffffffff8211156149825761498161444e565b5b61498b826142ec565b9050602081019050919050565b60006149ab6149a684614967565b6144ae565b9050828152602081018484840111156149c7576149c6614449565b5b6149d28482856144fa565b509392505050565b600082601f8301126149ef576149ee614444565b5b81356149ff848260208601614998565b91505092915050565b60008060008060808587031215614a2257614a216140f8565b5b6000614a308782880161436f565b9450506020614a418782880161436f565b9350506040614a5287828801614123565b925050606085013567ffffffffffffffff811115614a7357614a726140fd565b5b614a7f878288016149da565b91505092959194509250565b600081519050919050565b600082825260208201905092915050565b6000819050602082019050919050565b6000614ac383836145e2565b905092915050565b6000602082019050919050565b6000614ae382614a8b565b614aed8185614a96565b935083602082028501614aff85614aa7565b8060005b85811015614b3b5784840389528151614b1c8582614ab7565b9450614b2783614acb565b925060208a01995050600181019050614b03565b50829750879550505050505092915050565b60006020820190508181036000830152614b678184614ad8565b905092915050565b60008060408385031215614b8657614b856140f8565b5b6000614b948582860161436f565b9250506020614ba58582860161436f565b9150509250929050565b600081519050919050565b600082825260208201905092915050565b6000819050602082019050919050565b6000608083016000830151614bf360008601826145c2565b5060208301518482036020860152614c0b82826145e2565b91505060408301518482036040860152614c2582826145e2565b91505060608301518482036060860152614c3f828261467b565b9150508091505092915050565b6000614c588383614bdb565b905092915050565b6000602082019050919050565b6000614c7882614baf565b614c828185614bba565b935083602082028501614c9485614bcb565b8060005b85811015614cd05784840389528151614cb18582614c4c565b9450614cbc83614c60565b925060208a01995050600181019050614c98565b50829750879550505050505092915050565b60006020820190508181036000830152614cfc8184614c6d565b905092915050565b60008060408385031215614d1b57614d1a6140f8565b5b600083013567ffffffffffffffff811115614d3957614d386140fd565b5b614d458582860161454b565b9250506020614d568582860161436f565b9150509250929050565b6000606082019050614d756000830186614197565b8181036020830152614d8781856142fd565b90508181036040830152614d9b81846142fd565b9050949350505050565b7f546f6b656e20646f6573206e6f74206578697374000000000000000000000000600082015250565b6000614ddb6014836142b1565b9150614de682614da5565b602082019050919050565b60006020820190508181036000830152614e0a81614dce565b9050919050565b7f4e487b7100000000000000000000000000000000000000000000000000000000600052602260045260246000fd5b60006002820490506001821680614e5857607f821691505b602082108103614e6b57614e6a614e11565b5b50919050565b6000606082019050614e866000830186614197565b614e93602083018561427c565b614ea06040830184614197565b949350505050565b600081905092915050565b6000614ebe826142a6565b614ec88185614ea8565b9350614ed88185602086016142c2565b80840191505092915050565b6000614ef08284614eb3565b915081905092915050565b7f506c6179657220646f65736e2774206578697374210000000000000000000000600082015250565b6000614f316015836142b1565b9150614f3c82614efb565b602082019050919050565b60006020820190508181036000830152614f6081614f24565b9050919050565b7f4e487b7100000000000000000000000000000000000000000000000000000000600052603260045260246000fd5b7f4e65656420746f20706179207570210000000000000000000000000000000000600082015250565b6000614fcc600f836142b1565b9150614fd782614f96565b602082019050919050565b60006020820190508181036000830152614ffb81614fbf565b9050919050565b7f4e487b7100000000000000000000000000000000000000000000000000000000600052601160045260246000fd5b600061503c82614102565b91507fffffffffffffffffffffffffffffffffffffffffffffffffffffffffffffffff820361506e5761506d615002565b5b600182019050919050565b7f546f6b656e204944206e6f7420666f756e6420666f722074686520676976656e60008201527f206d657461646174610000000000000000000000000000000000000000000000602082015250565b60006150d56029836142b1565b91506150e082615079565b604082019050919050565b60006020820190508181036000830152615104816150c8565b9050919050565b7f53656e646572206973206e6f7420746865206f776e6572206f6620746865207460008201527f6f6b656e00000000000000000000000000000000000000000000000000000000602082015250565b60006151676024836142b1565b91506151728261510b565b604082019050919050565b600060208201905081810360008301526151968161515a565b9050919050565b60006151a882614102565b91506151b383614102565b92508282039050818111156151cb576151ca615002565b5b92915050565b7f4e487b7100000000000000000000000000000000000000000000000000000000600052603160045260246000fd5b7f5472616e736665722063616c6c6572206973206e6f74206f776e657200000000600082015250565b6000615236601c836142b1565b915061524182615200565b602082019050919050565b6000602082019050818103600083015261526581615229565b9050919050565b7f426174746c6520646f6573206e6f742065786973740000000000000000000000600082015250565b60006152a26015836142b1565b91506152ad8261526c565b602082019050919050565b600060208201905081810360008301526152d181615295565b9050919050565b7f4f6e6c792074686520686f73742063616e2064656c657465207468652062617460008201527f746c650000000000000000000000000000000000000000000000000000000000602082015250565b60006153346023836142b1565b915061533f826152d8565b604082019050919050565b6000602082019050818103600083015261536381615327565b9050919050565b60008190508160005260206000209050919050565b6000815461538c81614e40565b6153968186614ea8565b945060018216600081146153b157600181146153c6576153f9565b60ff19831686528115158202860193506153f9565b6153cf8561536a565b60005b838110156153f1578154818901526001820191506020810190506153d2565b838801955050505b50505092915050565b600061540e828461537f565b915081905092915050565b600081905092915050565b60008190508160005260206000209050919050565b6000815461544681614e40565b6154508186615419565b9450600182166000811461546b5760018114615480576154b3565b60ff19831686528115158202860193506154b3565b61548985615424565b60005b838110156154ab5781548189015260018201915060208101905061548c565b838801955050505b50505092915050565b60006154c88284615439565b915081905092915050565b6000815490506154e281614e40565b9050919050565b60008190508160005260206000209050919050565b60006020601f8301049050919050565b600082821b905092915050565b60006008830261554b7fffffffffffffffffffffffffffffffffffffffffffffffffffffffffffffffff8261550e565b615555868361550e565b95508019841693508086168417925050509392505050565b6000819050919050565b600061559261558d61558884614102565b61556d565b614102565b9050919050565b6000819050919050565b6155ac83615577565b6155c06155b882615599565b84845461551b565b825550505050565b600090565b6155d56155c8565b6155e08184846155a3565b505050565b5b81811015615604576155f96000826155cd565b6001810190506155e6565b5050565b601f8211156156495761561a8161536a565b615623846154fe565b81016020851015615632578190505b61564661563e856154fe565b8301826155e5565b50505b505050565b600082821c905092915050565b600061566c6000198460080261564e565b1980831691505092915050565b6000615685838361565b565b9150826002028217905092915050565b8181036156a357505061577b565b6156ac826154d3565b67ffffffffffffffff8111156156c5576156c461444e565b5b6156cf8254614e40565b6156da828285615608565b6000601f83116001811461570957600084156156f7578287015490505b6157018582615679565b865550615774565b601f198416615717876154e9565b96506157228661536a565b60005b8281101561574a57848901548255600182019150600185019450602081019050615725565b868310156157675784890154615763601f89168261565b565b8355505b6001600288020188555050505b5050505050505b565b7f426174746c65206e616d6520616c726561647920657869737473000000000000600082015250565b60006157b3601a836142b1565b91506157be8261577d565b602082019050919050565b600060208201905081810360008301526157e2816157a6565b9050919050565b6157f2826142a6565b67ffffffffffffffff81111561580b5761580a61444e565b5b6158158254614e40565b615820828285615608565b600060209050601f8311600181146158535760008415615841578287015190505b61584b8582615679565b8655506158b3565b601f1984166158618661536a565b60005b8281101561588957848901518255600182019150602085019450602081019050615864565b868310156158a657848901516158a2601f89168261565b565b8355505b6001600288020188555050505b505050505050565b7f506c6179657220616c7265616479207265676973746572656400000000000000600082015250565b60006158f16019836142b1565b91506158fc826158bb565b602082019050919050565b60006020820190508181036000830152615920816158e4565b9050919050565b7f436f6e7472616374206973206e6f7420746865206f776e6572206f662074686560008201527f20746f6b656e0000000000000000000000000000000000000000000000000000602082015250565b60006159836026836142b1565b915061598e82615927565b604082019050919050565b600060208201905081810360008301526159b281615976565b9050919050565b7f426174746c6520616c7265616479206a6f696e65640000000000000000000000600082015250565b60006159ef6015836142b1565b91506159fa826159b9565b602082019050919050565b60006020820190508181036000830152615a1e816159e2565b9050919050565b600081519050919050565b600082825260208201905092915050565b6000615a4c82615a25565b615a568185615a30565b9350615a668185602086016142c2565b615a6f816142ec565b840191505092915050565b6000608082019050615a8f6000830187614197565b615a9c6020830186614197565b615aa9604083018561427c565b8181036060830152615abb8184615a41565b905095945050505050565b600081519050615ad5816141ed565b92915050565b600060208284031215615af157615af06140f8565b5b6000615aff84828501615ac6565b91505092915050565b6000615b148285614eb3565b9150615b208284614eb3565b91508190509392505050565b6000604082019050615b416000830185614197565b615b4e602083018461427c565b9392505050565b7f4e487b7100000000000000000000000000000000000000000000000000000000600052601260045260246000fdfea264697066735822122083e0237323d829312db09b920a7e4b2367e9644273048016998e37556757e6f064736f6c63430008180033",
  "linkReferences": {},
  "deployedLinkReferences": {}
}