{
  "_format": "hh-sol-artifact-1",
  "contractName": "NFTTCG",
  "sourceName": "contracts/NFTTCG.sol",
  "abi": [
    {
      "inputs": [
        {
          "internalType": "address",
          "name": "initialOwner",
          "type": "address"
        }
      ],
      "stateMutability": "nonpayable",
      "type": "constructor"
    },
    {
      "inputs": [
        {
          "internalType": "address",
          "name": "sender",
          "type": "address"
        },
        {
          "internalType": "uint256",
          "name": "tokenId",
          "type": "uint256"
        },
        {
          "internalType": "address",
          "name": "owner",
          "type": "address"
        }
      ],
      "name": "ERC721IncorrectOwner",
      "type": "error"
    },
    {
      "inputs": [
        {
          "internalType": "address",
          "name": "operator",
          "type": "address"
        },
        {
          "internalType": "uint256",
          "name": "tokenId",
          "type": "uint256"
        }
      ],
      "name": "ERC721InsufficientApproval",
      "type": "error"
    },
    {
      "inputs": [
        {
          "internalType": "address",
          "name": "approver",
          "type": "address"
        }
      ],
      "name": "ERC721InvalidApprover",
      "type": "error"
    },
    {
      "inputs": [
        {
          "internalType": "address",
          "name": "operator",
          "type": "address"
        }
      ],
      "name": "ERC721InvalidOperator",
      "type": "error"
    },
    {
      "inputs": [
        {
          "internalType": "address",
          "name": "owner",
          "type": "address"
        }
      ],
      "name": "ERC721InvalidOwner",
      "type": "error"
    },
    {
      "inputs": [
        {
          "internalType": "address",
          "name": "receiver",
          "type": "address"
        }
      ],
      "name": "ERC721InvalidReceiver",
      "type": "error"
    },
    {
      "inputs": [
        {
          "internalType": "address",
          "name": "sender",
          "type": "address"
        }
      ],
      "name": "ERC721InvalidSender",
      "type": "error"
    },
    {
      "inputs": [
        {
          "internalType": "uint256",
          "name": "tokenId",
          "type": "uint256"
        }
      ],
      "name": "ERC721NonexistentToken",
      "type": "error"
    },
    {
      "inputs": [
        {
          "internalType": "address",
          "name": "owner",
          "type": "address"
        }
      ],
      "name": "OwnableInvalidOwner",
      "type": "error"
    },
    {
      "inputs": [
        {
          "internalType": "address",
          "name": "account",
          "type": "address"
        }
      ],
      "name": "OwnableUnauthorizedAccount",
      "type": "error"
    },
    {
      "anonymous": false,
      "inputs": [
        {
          "indexed": true,
          "internalType": "address",
          "name": "owner",
          "type": "address"
        },
        {
          "indexed": true,
          "internalType": "address",
          "name": "approved",
          "type": "address"
        },
        {
          "indexed": true,
          "internalType": "uint256",
          "name": "tokenId",
          "type": "uint256"
        }
      ],
      "name": "Approval",
      "type": "event"
    },
    {
      "anonymous": false,
      "inputs": [
        {
          "indexed": true,
          "internalType": "address",
          "name": "owner",
          "type": "address"
        },
        {
          "indexed": true,
          "internalType": "address",
          "name": "operator",
          "type": "address"
        },
        {
          "indexed": false,
          "internalType": "bool",
          "name": "approved",
          "type": "bool"
        }
      ],
      "name": "ApprovalForAll",
      "type": "event"
    },
    {
      "anonymous": false,
      "inputs": [
        {
          "indexed": false,
          "internalType": "uint256",
          "name": "_fromTokenId",
          "type": "uint256"
        },
        {
          "indexed": false,
          "internalType": "uint256",
          "name": "_toTokenId",
          "type": "uint256"
        }
      ],
      "name": "BatchMetadataUpdate",
      "type": "event"
    },
    {
      "anonymous": false,
      "inputs": [
        {
          "indexed": true,
          "internalType": "address",
          "name": "host",
          "type": "address"
        },
        {
          "indexed": false,
          "internalType": "string",
          "name": "battleName",
          "type": "string"
        }
      ],
      "name": "BattleCreated",
      "type": "event"
    },
    {
      "anonymous": false,
      "inputs": [
        {
          "indexed": true,
          "internalType": "address",
          "name": "opponent",
          "type": "address"
        },
        {
          "indexed": false,
          "internalType": "string",
          "name": "battleName",
          "type": "string"
        }
      ],
      "name": "BattleJoined",
      "type": "event"
    },
    {
      "anonymous": false,
      "inputs": [
        {
          "indexed": true,
          "internalType": "address",
          "name": "from",
          "type": "address"
        },
        {
          "indexed": true,
          "internalType": "address",
          "name": "to",
          "type": "address"
        }
      ],
      "name": "FromContract",
      "type": "event"
    },
    {
      "anonymous": false,
      "inputs": [
        {
          "indexed": false,
          "internalType": "uint256",
          "name": "_tokenId",
          "type": "uint256"
        }
      ],
      "name": "MetadataUpdate",
      "type": "event"
    },
    {
      "anonymous": false,
      "inputs": [
        {
          "indexed": true,
          "internalType": "address",
          "name": "recipient",
          "type": "address"
        },
        {
          "indexed": true,
          "internalType": "uint256",
          "name": "tokenId",
          "type": "uint256"
        },
        {
          "indexed": false,
          "internalType": "string",
          "name": "metadataURI",
          "type": "string"
        }
      ],
      "name": "NFTMinted",
      "type": "event"
    },
    {
      "anonymous": false,
      "inputs": [
        {
          "indexed": true,
          "internalType": "address",
          "name": "owner",
          "type": "address"
        },
        {
          "indexed": false,
          "internalType": "string",
          "name": "name",
          "type": "string"
        }
      ],
      "name": "NewPlayer",
      "type": "event"
    },
    {
      "anonymous": false,
      "inputs": [
        {
          "indexed": true,
          "internalType": "address",
          "name": "previousOwner",
          "type": "address"
        },
        {
          "indexed": true,
          "internalType": "address",
          "name": "newOwner",
          "type": "address"
        }
      ],
      "name": "OwnershipTransferred",
      "type": "event"
    },
    {
      "anonymous": false,
      "inputs": [
        {
          "indexed": true,
          "internalType": "address",
          "name": "from",
          "type": "address"
        },
        {
          "indexed": true,
          "internalType": "address",
          "name": "to",
          "type": "address"
        }
      ],
      "name": "ToContract",
      "type": "event"
    },
    {
      "anonymous": false,
      "inputs": [
        {
          "indexed": true,
          "internalType": "address",
          "name": "from",
          "type": "address"
        },
        {
          "indexed": true,
          "internalType": "address",
          "name": "to",
          "type": "address"
        },
        {
          "indexed": true,
          "internalType": "uint256",
          "name": "tokenId",
          "type": "uint256"
        }
      ],
      "name": "Transfer",
      "type": "event"
    },
    {
      "inputs": [],
      "name": "_nextTokenId",
      "outputs": [
        {
          "internalType": "uint256",
          "name": "",
          "type": "uint256"
        }
      ],
      "stateMutability": "view",
      "type": "function"
    },
    {
      "inputs": [
        {
          "internalType": "address",
          "name": "to",
          "type": "address"
        },
        {
          "internalType": "uint256",
          "name": "tokenId",
          "type": "uint256"
        }
      ],
      "name": "approve",
      "outputs": [],
      "stateMutability": "nonpayable",
      "type": "function"
    },
    {
      "inputs": [
        {
          "internalType": "address",
          "name": "owner",
          "type": "address"
        }
      ],
      "name": "balanceOf",
      "outputs": [
        {
          "internalType": "uint256",
          "name": "",
          "type": "uint256"
        }
      ],
      "stateMutability": "view",
      "type": "function"
    },
    {
      "inputs": [
        {
          "internalType": "string",
          "name": "",
          "type": "string"
        }
      ],
      "name": "battles",
      "outputs": [
        {
          "internalType": "address",
          "name": "host",
          "type": "address"
        },
        {
          "internalType": "address",
          "name": "opponentAddress",
          "type": "address"
        },
        {
          "internalType": "string",
          "name": "battleMode",
          "type": "string"
        },
        {
          "internalType": "bool",
          "name": "battleStatus",
          "type": "bool"
        }
      ],
      "stateMutability": "view",
      "type": "function"
    },
    {
      "inputs": [
        {
          "internalType": "string",
          "name": "",
          "type": "string"
        },
        {
          "internalType": "uint256",
          "name": "",
          "type": "uint256"
        }
      ],
      "name": "battlesByGameMode",
      "outputs": [
        {
          "internalType": "string",
          "name": "",
          "type": "string"
        }
      ],
      "stateMutability": "view",
      "type": "function"
    },
    {
      "inputs": [],
      "name": "count",
      "outputs": [
        {
          "internalType": "uint256",
          "name": "",
          "type": "uint256"
        }
      ],
      "stateMutability": "view",
      "type": "function"
    },
    {
      "inputs": [
        {
          "internalType": "address",
          "name": "host",
          "type": "address"
        },
        {
          "internalType": "string",
          "name": "_battleMode",
          "type": "string"
        },
        {
          "internalType": "string",
          "name": "_battleName",
          "type": "string"
        }
      ],
      "name": "createBattle",
      "outputs": [],
      "stateMutability": "nonpayable",
      "type": "function"
    },
    {
      "inputs": [
        {
          "internalType": "string",
          "name": "_battleName",
          "type": "string"
        }
      ],
      "name": "deleteBattle",
      "outputs": [],
      "stateMutability": "nonpayable",
      "type": "function"
    },
    {
      "inputs": [],
      "name": "getAllPlayers",
      "outputs": [
        {
          "components": [
            {
              "internalType": "address",
              "name": "playerAddress",
              "type": "address"
            },
            {
              "internalType": "string",
              "name": "playerName",
              "type": "string"
            },
            {
              "internalType": "string",
              "name": "emailId",
              "type": "string"
            },
            {
              "internalType": "uint256[]",
              "name": "playerCards",
              "type": "uint256[]"
            }
          ],
          "internalType": "struct NFTTCG.Player[]",
          "name": "",
          "type": "tuple[]"
        }
      ],
      "stateMutability": "view",
      "type": "function"
    },
    {
      "inputs": [
        {
          "internalType": "uint256",
          "name": "tokenId",
          "type": "uint256"
        }
      ],
      "name": "getApproved",
      "outputs": [
        {
          "internalType": "address",
          "name": "",
          "type": "address"
        }
      ],
      "stateMutability": "view",
      "type": "function"
    },
    {
      "inputs": [
        {
          "internalType": "address",
          "name": "playerAddress",
          "type": "address"
        }
      ],
      "name": "getAvailableCards",
      "outputs": [
        {
          "internalType": "string[]",
          "name": "",
          "type": "string[]"
        }
      ],
      "stateMutability": "view",
      "type": "function"
    },
    {
      "inputs": [
        {
          "internalType": "uint256",
          "name": "tokenId",
          "type": "uint256"
        }
      ],
      "name": "getCardOwner",
      "outputs": [
        {
          "internalType": "address",
          "name": "",
          "type": "address"
        }
      ],
      "stateMutability": "view",
      "type": "function"
    },
    {
      "inputs": [
        {
          "internalType": "string",
          "name": "_gameMode",
          "type": "string"
        }
      ],
      "name": "getIncompleteBattleNames",
      "outputs": [
        {
          "internalType": "string[]",
          "name": "",
          "type": "string[]"
        }
      ],
      "stateMutability": "view",
      "type": "function"
    },
    {
      "inputs": [
        {
          "internalType": "string",
          "name": "tokenName",
          "type": "string"
        }
      ],
      "name": "getOwnerOfTokenByName",
      "outputs": [
        {
          "internalType": "address",
          "name": "",
          "type": "address"
        }
      ],
      "stateMutability": "view",
      "type": "function"
    },
    {
      "inputs": [
        {
          "internalType": "address",
          "name": "addr",
          "type": "address"
        }
      ],
      "name": "getPlayer",
      "outputs": [
        {
          "components": [
            {
              "internalType": "address",
              "name": "playerAddress",
              "type": "address"
            },
            {
              "internalType": "string",
              "name": "playerName",
              "type": "string"
            },
            {
              "internalType": "string",
              "name": "emailId",
              "type": "string"
            },
            {
              "internalType": "uint256[]",
              "name": "playerCards",
              "type": "uint256[]"
            }
          ],
          "internalType": "struct NFTTCG.Player",
          "name": "",
          "type": "tuple"
        }
      ],
      "stateMutability": "view",
      "type": "function"
    },
    {
      "inputs": [
        {
          "internalType": "address",
          "name": "playerAddress",
          "type": "address"
        }
      ],
      "name": "getPlayerCardCount",
      "outputs": [
        {
          "internalType": "uint256",
          "name": "",
          "type": "uint256"
        }
      ],
      "stateMutability": "view",
      "type": "function"
    },
    {
      "inputs": [
        {
          "internalType": "address",
          "name": "owner",
          "type": "address"
        },
        {
          "internalType": "address",
          "name": "operator",
          "type": "address"
        }
      ],
      "name": "isApprovedForAll",
      "outputs": [
        {
          "internalType": "bool",
          "name": "",
          "type": "bool"
        }
      ],
      "stateMutability": "view",
      "type": "function"
    },
    {
      "inputs": [
        {
          "internalType": "string",
          "name": "_battleName",
          "type": "string"
        }
      ],
      "name": "isBattleStartedByName",
      "outputs": [
        {
          "internalType": "bool",
          "name": "",
          "type": "bool"
        }
      ],
      "stateMutability": "view",
      "type": "function"
    },
    {
      "inputs": [
        {
          "internalType": "address",
          "name": "addr",
          "type": "address"
        }
      ],
      "name": "isPlayer",
      "outputs": [
        {
          "internalType": "bool",
          "name": "",
          "type": "bool"
        }
      ],
      "stateMutability": "view",
      "type": "function"
    },
    {
      "inputs": [
        {
          "internalType": "string",
          "name": "_battleName",
          "type": "string"
        },
        {
          "internalType": "address",
          "name": "_opponentAddress",
          "type": "address"
        }
      ],
      "name": "joinBattleByName",
      "outputs": [],
      "stateMutability": "nonpayable",
      "type": "function"
    },
    {
      "inputs": [
        {
          "internalType": "string",
          "name": "",
          "type": "string"
        }
      ],
      "name": "metadataToTokenId",
      "outputs": [
        {
          "internalType": "uint256",
          "name": "",
          "type": "uint256"
        }
      ],
      "stateMutability": "view",
      "type": "function"
    },
    {
      "inputs": [],
      "name": "name",
      "outputs": [
        {
          "internalType": "string",
          "name": "",
          "type": "string"
        }
      ],
      "stateMutability": "view",
      "type": "function"
    },
    {
      "inputs": [
        {
          "internalType": "address",
          "name": "",
          "type": "address"
        },
        {
          "internalType": "address",
          "name": "",
          "type": "address"
        },
        {
          "internalType": "uint256",
          "name": "",
          "type": "uint256"
        },
        {
          "internalType": "bytes",
          "name": "",
          "type": "bytes"
        }
      ],
      "name": "onERC721Received",
      "outputs": [
        {
          "internalType": "bytes4",
          "name": "",
          "type": "bytes4"
        }
      ],
      "stateMutability": "nonpayable",
      "type": "function"
    },
    {
      "inputs": [],
      "name": "owner",
      "outputs": [
        {
          "internalType": "address",
          "name": "",
          "type": "address"
        }
      ],
      "stateMutability": "view",
      "type": "function"
    },
    {
      "inputs": [
        {
          "internalType": "uint256",
          "name": "tokenId",
          "type": "uint256"
        }
      ],
      "name": "ownerOf",
      "outputs": [
        {
          "internalType": "address",
          "name": "",
          "type": "address"
        }
      ],
      "stateMutability": "view",
      "type": "function"
    },
    {
      "inputs": [
        {
          "internalType": "address",
          "name": "recipient",
          "type": "address"
        },
        {
          "internalType": "string",
          "name": "metadataURI",
          "type": "string"
        }
      ],
      "name": "payToMint",
      "outputs": [],
      "stateMutability": "payable",
      "type": "function"
    },
    {
      "inputs": [
        {
          "internalType": "address",
          "name": "",
          "type": "address"
        }
      ],
      "name": "playerInfo",
      "outputs": [
        {
          "internalType": "uint256",
          "name": "",
          "type": "uint256"
        }
      ],
      "stateMutability": "view",
      "type": "function"
    },
    {
      "inputs": [
        {
          "internalType": "uint256",
          "name": "",
          "type": "uint256"
        }
      ],
      "name": "players",
      "outputs": [
        {
          "internalType": "address",
          "name": "playerAddress",
          "type": "address"
        },
        {
          "internalType": "string",
          "name": "playerName",
          "type": "string"
        },
        {
          "internalType": "string",
          "name": "emailId",
          "type": "string"
        }
      ],
      "stateMutability": "view",
      "type": "function"
    },
    {
      "inputs": [
        {
          "internalType": "address",
          "name": "_address",
          "type": "address"
        },
        {
          "internalType": "string",
          "name": "_name",
          "type": "string"
        },
        {
          "internalType": "string",
          "name": "_email",
          "type": "string"
        }
      ],
      "name": "registerPlayer",
      "outputs": [],
      "stateMutability": "nonpayable",
      "type": "function"
    },
    {
      "inputs": [],
      "name": "renounceOwnership",
      "outputs": [],
      "stateMutability": "nonpayable",
      "type": "function"
    },
    {
      "inputs": [
        {
          "internalType": "address",
          "name": "from",
          "type": "address"
        },
        {
          "internalType": "address",
          "name": "to",
          "type": "address"
        },
        {
          "internalType": "uint256",
          "name": "tokenId",
          "type": "uint256"
        }
      ],
      "name": "safeTransferFrom",
      "outputs": [],
      "stateMutability": "nonpayable",
      "type": "function"
    },
    {
      "inputs": [
        {
          "internalType": "address",
          "name": "from",
          "type": "address"
        },
        {
          "internalType": "address",
          "name": "to",
          "type": "address"
        },
        {
          "internalType": "uint256",
          "name": "tokenId",
          "type": "uint256"
        },
        {
          "internalType": "bytes",
          "name": "data",
          "type": "bytes"
        }
      ],
      "name": "safeTransferFrom",
      "outputs": [],
      "stateMutability": "nonpayable",
      "type": "function"
    },
    {
      "inputs": [
        {
          "internalType": "address",
          "name": "operator",
          "type": "address"
        },
        {
          "internalType": "bool",
          "name": "approved",
          "type": "bool"
        }
      ],
      "name": "setApprovalForAll",
      "outputs": [],
      "stateMutability": "nonpayable",
      "type": "function"
    },
    {
      "inputs": [
        {
          "internalType": "bytes4",
          "name": "interfaceId",
          "type": "bytes4"
        }
      ],
      "name": "supportsInterface",
      "outputs": [
        {
          "internalType": "bool",
          "name": "",
          "type": "bool"
        }
      ],
      "stateMutability": "view",
      "type": "function"
    },
    {
      "inputs": [],
      "name": "symbol",
      "outputs": [
        {
          "internalType": "string",
          "name": "",
          "type": "string"
        }
      ],
      "stateMutability": "view",
      "type": "function"
    },
    {
      "inputs": [
        {
          "internalType": "uint256",
          "name": "tokenId",
          "type": "uint256"
        }
      ],
      "name": "tokenURI",
      "outputs": [
        {
          "internalType": "string",
          "name": "",
          "type": "string"
        }
      ],
      "stateMutability": "view",
      "type": "function"
    },
    {
      "inputs": [
        {
          "internalType": "address",
          "name": "to",
          "type": "address"
        },
        {
          "internalType": "string",
          "name": "metadata",
          "type": "string"
        }
      ],
      "name": "transferCardFromContract",
      "outputs": [],
      "stateMutability": "nonpayable",
      "type": "function"
    },
    {
      "inputs": [
        {
          "internalType": "string",
          "name": "metadata",
          "type": "string"
        }
      ],
      "name": "transferCardToContract",
      "outputs": [],
      "stateMutability": "nonpayable",
      "type": "function"
    },
    {
      "inputs": [
        {
          "internalType": "address",
          "name": "from",
          "type": "address"
        },
        {
          "internalType": "address",
          "name": "to",
          "type": "address"
        },
        {
          "internalType": "uint256",
          "name": "tokenId",
          "type": "uint256"
        }
      ],
      "name": "transferFrom",
      "outputs": [],
      "stateMutability": "nonpayable",
      "type": "function"
    },
    {
      "inputs": [
        {
          "internalType": "address",
          "name": "from",
          "type": "address"
        },
        {
          "internalType": "address",
          "name": "to",
          "type": "address"
        },
        {
          "internalType": "uint256",
          "name": "tokenId",
          "type": "uint256"
        }
      ],
      "name": "transferNFT",
      "outputs": [],
      "stateMutability": "nonpayable",
      "type": "function"
    },
    {
      "inputs": [
        {
          "internalType": "address",
          "name": "newOwner",
          "type": "address"
        }
      ],
      "name": "transferOwnership",
      "outputs": [],
      "stateMutability": "nonpayable",
      "type": "function"
    }
  ],
  "bytecode": "0x60806040523480156200001157600080fd5b50604051620066f3380380620066f3833981810160405281019062000037919062000479565b806040518060400160405280600681526020017f4e465454434700000000000000000000000000000000000000000000000000008152506040518060400160405280600381526020017f54434700000000000000000000000000000000000000000000000000000000008152508160009081620000b5919062000725565b508060019081620000c7919062000725565b505050600073ffffffffffffffffffffffffffffffffffffffff168173ffffffffffffffffffffffffffffffffffffffff16036200013f5760006040517f1e4fbdf70000000000000000000000000000000000000000000000000000000081526004016200013691906200081d565b60405180910390fd5b62000150816200016860201b60201c565b50620001616200022e60201b60201c565b506200083a565b6000600760009054906101000a900473ffffffffffffffffffffffffffffffffffffffff16905081600760006101000a81548173ffffffffffffffffffffffffffffffffffffffff021916908373ffffffffffffffffffffffffffffffffffffffff1602179055508173ffffffffffffffffffffffffffffffffffffffff168173ffffffffffffffffffffffffffffffffffffffff167f8be0079c531659141344cd1fd0a4f28419497f9722a3daafe3b4186f6b6457e060405160405180910390a35050565b600e6040518060800160405280600073ffffffffffffffffffffffffffffffffffffffff168152602001604051806020016040528060008152508152602001604051806020016040528060008152508152602001600067ffffffffffffffff811115620002a0576200029f620004b6565b5b604051908082528060200260200182016040528015620002cf5781602001602082028036833780820191505090505b50815250908060018154018082558091505060019003906000526020600020906004020160009091909190915060008201518160000160006101000a81548173ffffffffffffffffffffffffffffffffffffffff021916908373ffffffffffffffffffffffffffffffffffffffff16021790555060208201518160010190816200035a919062000725565b50604082015181600201908162000372919062000725565b506060820151816003019080519060200190620003919291906200039e565b5050506001600881905550565b828054828255906000526020600020908101928215620003dd579160200282015b82811115620003dc578251825591602001919060010190620003bf565b5b509050620003ec9190620003f0565b5090565b5b808211156200040b576000816000905550600101620003f1565b5090565b600080fd5b600073ffffffffffffffffffffffffffffffffffffffff82169050919050565b6000620004418262000414565b9050919050565b620004538162000434565b81146200045f57600080fd5b50565b600081519050620004738162000448565b92915050565b6000602082840312156200049257620004916200040f565b5b6000620004a28482850162000462565b91505092915050565b600081519050919050565b7f4e487b7100000000000000000000000000000000000000000000000000000000600052604160045260246000fd5b7f4e487b7100000000000000000000000000000000000000000000000000000000600052602260045260246000fd5b600060028204905060018216806200052d57607f821691505b602082108103620005435762000542620004e5565b5b50919050565b60008190508160005260206000209050919050565b60006020601f8301049050919050565b600082821b905092915050565b600060088302620005ad7fffffffffffffffffffffffffffffffffffffffffffffffffffffffffffffffff826200056e565b620005b986836200056e565b95508019841693508086168417925050509392505050565b6000819050919050565b6000819050919050565b60006200060662000600620005fa84620005d1565b620005db565b620005d1565b9050919050565b6000819050919050565b6200062283620005e5565b6200063a62000631826200060d565b8484546200057b565b825550505050565b600090565b6200065162000642565b6200065e81848462000617565b505050565b5b8181101562000686576200067a60008262000647565b60018101905062000664565b5050565b601f821115620006d5576200069f8162000549565b620006aa846200055e565b81016020851015620006ba578190505b620006d2620006c9856200055e565b83018262000663565b50505b505050565b600082821c905092915050565b6000620006fa60001984600802620006da565b1980831691505092915050565b6000620007158383620006e7565b9150826002028217905092915050565b6200073082620004ab565b67ffffffffffffffff8111156200074c576200074b620004b6565b5b62000758825462000514565b620007658282856200068a565b600060209050601f8311600181146200079d576000841562000788578287015190505b62000794858262000707565b86555062000804565b601f198416620007ad8662000549565b60005b82811015620007d757848901518255600182019150602085019450602081019050620007b0565b86831015620007f75784890151620007f3601f891682620006e7565b8355505b6001600288020188555050505b505050505050565b620008178162000434565b82525050565b60006020820190506200083460008301846200080c565b92915050565b615ea9806200084a6000396000f3fe6080604052600436106102465760003560e01c8063715018a611610139578063b88d4fde116100b6578063ef581f111161007a578063ef581f111461093c578063efa1c48214610979578063f2fde38b146109a4578063f3eb8b53146109cd578063f71d96cb146109f6578063f93f153814610a3557610246565b8063b88d4fde1461081f578063c87b56dd14610848578063d28e8e1914610885578063d33d0be8146108c2578063e985e9c5146108ff57610246565b806395d89b41116100fd57806395d89b411461073c57806399adbfd514610767578063a04b30d014610790578063a22cb465146107cd578063ab01d9a3146107f657610246565b8063715018a61461065457806377bb7b781461066b5780637de4625d146106ab5780638b2fb93a146106d45780638da5cb5b1461071157610246565b806342842e0e116101c7578063615fd9e21161018b578063615fd9e21461056c5780636352211e14610588578063682efc01146105c557806369e9cae1146105ee57806370a082311461061757610246565b806342842e0e146104615780634a60f6201461048a5780634b114691146104b55780635c12cd4b146104f25780635e41a4f11461052f57610246565b8063095ea7b31161020e578063095ea7b31461035857806309c95e1014610381578063150b7a02146103be57806323b872dd146103fb5780633817b4591461042457610246565b8063010abbd01461024b57806301ffc9a71461028857806306661abd146102c557806306fdde03146102f0578063081812fc1461031b575b600080fd5b34801561025757600080fd5b50610272600480360381019061026d919061435a565b610a5e565b60405161027f91906143c8565b60405180910390f35b34801561029457600080fd5b506102af60048036038101906102aa919061443b565b610ab9565b6040516102bc9190614483565b60405180910390f35b3480156102d157600080fd5b506102da610acb565b6040516102e791906144ad565b60405180910390f35b3480156102fc57600080fd5b50610305610ad5565b6040516103129190614558565b60405180910390f35b34801561032757600080fd5b50610342600480360381019061033d919061435a565b610b67565b60405161034f91906143c8565b60405180910390f35b34801561036457600080fd5b5061037f600480360381019061037a91906145a6565b610b83565b005b34801561038d57600080fd5b506103a860048036038101906103a391906145e6565b610b99565b6040516103b59190614483565b60405180910390f35b3480156103ca57600080fd5b506103e560048036038101906103e09190614748565b610bf4565b6040516103f291906147da565b60405180910390f35b34801561040757600080fd5b50610422600480360381019061041d91906147f5565b610c08565b005b34801561043057600080fd5b5061044b600480360381019061044691906148e9565b610d0a565b60405161045891906143c8565b60405180910390f35b34801561046d57600080fd5b50610488600480360381019061048391906147f5565b610d82565b005b34801561049657600080fd5b5061049f610da2565b6040516104ac91906144ad565b60405180910390f35b3480156104c157600080fd5b506104dc60048036038101906104d791906145e6565b610da8565b6040516104e991906144ad565b60405180910390f35b3480156104fe57600080fd5b50610519600480360381019061051491906145e6565b610dc0565b6040516105269190614aba565b60405180910390f35b34801561053b57600080fd5b50610556600480360381019061055191906145e6565b611055565b60405161056391906144ad565b60405180910390f35b61058660048036038101906105819190614adc565b6110cb565b005b34801561059457600080fd5b506105af60048036038101906105aa919061435a565b611294565b6040516105bc91906143c8565b60405180910390f35b3480156105d157600080fd5b506105ec60048036038101906105e791906148e9565b6112a6565b005b3480156105fa57600080fd5b50610615600480360381019061061091906147f5565b611516565b005b34801561062357600080fd5b5061063e600480360381019061063991906145e6565b611755565b60405161064b91906144ad565b60405180910390f35b34801561066057600080fd5b5061066961180f565b005b34801561067757600080fd5b50610692600480360381019061068d91906148e9565b611823565b6040516106a29493929190614b38565b60405180910390f35b3480156106b757600080fd5b506106d260048036038101906106cd91906148e9565b61193e565b005b3480156106e057600080fd5b506106fb60048036038101906106f691906148e9565b611c15565b6040516107089190614483565b60405180910390f35b34801561071d57600080fd5b50610726611c9b565b60405161073391906143c8565b60405180910390f35b34801561074857600080fd5b50610751611cc5565b60405161075e9190614558565b60405180910390f35b34801561077357600080fd5b5061078e60048036038101906107899190614b84565b611d57565b005b34801561079c57600080fd5b506107b760048036038101906107b29190614c0f565b611f89565b6040516107c49190614558565b60405180910390f35b3480156107d957600080fd5b506107f460048036038101906107ef9190614c97565b612058565b005b34801561080257600080fd5b5061081d60048036038101906108189190614b84565b61206e565b005b34801561082b57600080fd5b5061084660048036038101906108419190614748565b612296565b005b34801561085457600080fd5b5061086f600480360381019061086a919061435a565b6122b3565b60405161087c9190614558565b60405180910390f35b34801561089157600080fd5b506108ac60048036038101906108a791906145e6565b6122c5565b6040516108b99190614d99565b60405180910390f35b3480156108ce57600080fd5b506108e960048036038101906108e491906148e9565b612448565b6040516108f691906144ad565b60405180910390f35b34801561090b57600080fd5b5061092660048036038101906109219190614dbb565b612476565b6040516109339190614483565b60405180910390f35b34801561094857600080fd5b50610963600480360381019061095e91906148e9565b61250a565b6040516109709190614d99565b60405180910390f35b34801561098557600080fd5b5061098e6126d8565b60405161099b9190614f2e565b60405180910390f35b3480156109b057600080fd5b506109cb60048036038101906109c691906145e6565b612909565b005b3480156109d957600080fd5b506109f460048036038101906109ef9190614f50565b61298f565b005b348015610a0257600080fd5b50610a1d6004803603810190610a18919061435a565b612afe565b604051610a2c93929190614fac565b60405180910390f35b348015610a4157600080fd5b50610a5c6004803603810190610a579190614adc565b612c68565b005b6000610a68610acb565b8210610aa9576040517f08c379a0000000000000000000000000000000000000000000000000000000008152600401610aa09061503d565b60405180910390fd5b610ab282611294565b9050919050565b6000610ac482612ea3565b9050919050565b6000600854905090565b606060008054610ae49061508c565b80601f0160208091040260200160405190810160405280929190818152602001828054610b109061508c565b8015610b5d5780601f10610b3257610100808354040283529160200191610b5d565b820191906000526020600020905b815481529060010190602001808311610b4057829003601f168201915b5050505050905090565b6000610b7282612f04565b50610b7c82612f8c565b9050919050565b610b958282610b90612fc9565b612fd1565b5050565b600080600a60008473ffffffffffffffffffffffffffffffffffffffff1673ffffffffffffffffffffffffffffffffffffffff1681526020019081526020016000205403610bea5760009050610bef565b600190505b919050565b600063150b7a0260e01b9050949350505050565b600073ffffffffffffffffffffffffffffffffffffffff168273ffffffffffffffffffffffffffffffffffffffff1603610c7a5760006040517f64a0ae92000000000000000000000000000000000000000000000000000000008152600401610c7191906143c8565b60405180910390fd5b6000610c8e8383610c89612fc9565b612fe3565b90508373ffffffffffffffffffffffffffffffffffffffff168173ffffffffffffffffffffffffffffffffffffffff1614610d04578382826040517f64283d7b000000000000000000000000000000000000000000000000000000008152600401610cfb939291906150bd565b60405180910390fd5b50505050565b600080600d83604051610d1d9190615130565b908152602001604051809103902054905060008103610d71576040517f08c379a0000000000000000000000000000000000000000000000000000000008152600401610d689061503d565b60405180910390fd5b610d7a81611294565b915050919050565b610d9d83838360405180602001604052806000815250612296565b505050565b60085481565b600a6020528060005260406000206000915090505481565b610dc8614228565b610dd182610b99565b610e10576040517f08c379a0000000000000000000000000000000000000000000000000000000008152600401610e0790615193565b60405180910390fd5b600e600a60008473ffffffffffffffffffffffffffffffffffffffff1673ffffffffffffffffffffffffffffffffffffffff1681526020019081526020016000205481548110610e6357610e626151b3565b5b90600052602060002090600402016040518060800160405290816000820160009054906101000a900473ffffffffffffffffffffffffffffffffffffffff1673ffffffffffffffffffffffffffffffffffffffff1673ffffffffffffffffffffffffffffffffffffffff168152602001600182018054610ee29061508c565b80601f0160208091040260200160405190810160405280929190818152602001828054610f0e9061508c565b8015610f5b5780601f10610f3057610100808354040283529160200191610f5b565b820191906000526020600020905b815481529060010190602001808311610f3e57829003601f168201915b50505050508152602001600282018054610f749061508c565b80601f0160208091040260200160405190810160405280929190818152602001828054610fa09061508c565b8015610fed5780601f10610fc257610100808354040283529160200191610fed565b820191906000526020600020905b815481529060010190602001808311610fd057829003601f168201915b505050505081526020016003820180548060200260200160405190810160405280929190818152602001828054801561104557602002820191906000526020600020905b815481526020019060010190808311611031575b5050505050815250509050919050565b600080600a60008473ffffffffffffffffffffffffffffffffffffffff1673ffffffffffffffffffffffffffffffffffffffff168152602001908152602001600020549050600e81815481106110ae576110ad6151b3565b5b906000526020600020906004020160030180549050915050919050565b6110d482610b99565b611113576040517f08c379a000000000000000000000000000000000000000000000000000000000815260040161110a9061522e565b60405180910390fd5b66b1a2bc2ec5000034101561115d576040517f08c379a00000000000000000000000000000000000000000000000000000000081526004016111549061529a565b60405180910390fd5b600060086000815480929190611172906152e9565b91905055905061118283826131fd565b61118c81836132f6565b80600d8360405161119d9190615130565b908152602001604051809103902081905550808373ffffffffffffffffffffffffffffffffffffffff167fd35bb95e09c04b219e35047ce7b7b300e3384264ef84a40456943dbc0fc17c14846040516111f69190614558565b60405180910390a36000600a60008573ffffffffffffffffffffffffffffffffffffffff1673ffffffffffffffffffffffffffffffffffffffff168152602001908152602001600020549050600e8181548110611256576112556151b3565b5b906000526020600020906004020160030182908060018154018082558091505060019003906000526020600020016000909190919091505550505050565b600061129f82612f04565b9050919050565b6000600d826040516112b89190615130565b90815260200160405180910390205490506000810361130c576040517f08c379a0000000000000000000000000000000000000000000000000000000008152600401611303906153a3565b60405180910390fd5b3373ffffffffffffffffffffffffffffffffffffffff1661132c82611294565b73ffffffffffffffffffffffffffffffffffffffff1614611382576040517f08c379a000000000000000000000000000000000000000000000000000000000815260040161137990615435565b60405180910390fd5b61138d333083610d82565b6000600a60003373ffffffffffffffffffffffffffffffffffffffff1673ffffffffffffffffffffffffffffffffffffffff1681526020019081526020016000205490506000600e82815481106113e7576113e66151b3565b5b9060005260206000209060040201600301905060005b81805490508110156114b5578382828154811061141d5761141c6151b3565b5b9060005260206000200154036114a857816001838054905061143f9190615455565b815481106114505761144f6151b3565b5b906000526020600020015482828154811061146e5761146d6151b3565b5b90600052602060002001819055508180548061148d5761148c615489565b5b600190038181906000526020600020016000905590556114b5565b80806001019150506113fd565b503073ffffffffffffffffffffffffffffffffffffffff163373ffffffffffffffffffffffffffffffffffffffff167f4ff9e39ac160b743aa842547791f3b3e56696db04cea86cfdcb9013cadc4c37560405160405180910390a350505050565b8273ffffffffffffffffffffffffffffffffffffffff1661153682611294565b73ffffffffffffffffffffffffffffffffffffffff161461158c576040517f08c379a000000000000000000000000000000000000000000000000000000000815260040161158390615504565b60405180910390fd5b611597838383613352565b6000600a60008573ffffffffffffffffffffffffffffffffffffffff1673ffffffffffffffffffffffffffffffffffffffff1681526020019081526020016000205490506000600e82815481106115f1576115f06151b3565b5b9060005260206000209060040201600301905060005b81805490508110156116bf5783828281548110611627576116266151b3565b5b9060005260206000200154036116b25781600183805490506116499190615455565b8154811061165a576116596151b3565b5b9060005260206000200154828281548110611678576116776151b3565b5b90600052602060002001819055508180548061169757611696615489565b5b600190038181906000526020600020016000905590556116bf565b8080600101915050611607565b50600a60008573ffffffffffffffffffffffffffffffffffffffff1673ffffffffffffffffffffffffffffffffffffffff168152602001908152602001600020549150600e8281548110611716576117156151b3565b5b90600052602060002090600402016003018390806001815401808255809150506001900390600052602060002001600090919091909150555050505050565b60008073ffffffffffffffffffffffffffffffffffffffff168273ffffffffffffffffffffffffffffffffffffffff16036117c85760006040517f89c62b640000000000000000000000000000000000000000000000000000000081526004016117bf91906143c8565b60405180910390fd5b600360008373ffffffffffffffffffffffffffffffffffffffff1673ffffffffffffffffffffffffffffffffffffffff168152602001908152602001600020549050919050565b6118176134bf565b6118216000613546565b565b600b818051602081018201805184825260208301602085012081835280955050505050506000915090508060000160009054906101000a900473ffffffffffffffffffffffffffffffffffffffff16908060010160009054906101000a900473ffffffffffffffffffffffffffffffffffffffff16908060020180546118a89061508c565b80601f01602080910402602001604051908101604052809291908181526020018280546118d49061508c565b80156119215780601f106118f657610100808354040283529160200191611921565b820191906000526020600020905b81548152906001019060200180831161190457829003601f168201915b5050505050908060030160009054906101000a900460ff16905084565b6119478161360c565b611986576040517f08c379a000000000000000000000000000000000000000000000000000000000815260040161197d90615570565b60405180910390fd5b6000600b826040516119989190615130565b908152602001604051809103902090508060000160009054906101000a900473ffffffffffffffffffffffffffffffffffffffff1673ffffffffffffffffffffffffffffffffffffffff163373ffffffffffffffffffffffffffffffffffffffff1614611a3a576040517f08c379a0000000000000000000000000000000000000000000000000000000008152600401611a3190615602565b60405180910390fd5b6000600983604051611a4c9190615130565b908152602001604051809103902060006101000a81548160ff021916908315150217905550600b82604051611a819190615130565b9081526020016040518091039020600080820160006101000a81549073ffffffffffffffffffffffffffffffffffffffff02191690556001820160006101000a81549073ffffffffffffffffffffffffffffffffffffffff0219169055600282016000611aee9190614266565b6003820160006101000a81549060ff021916905550506000600c82600201604051611b1991906156ba565b9081526020016040518091039020905060005b8180549050811015611c0f578380519060200120828281548110611b5357611b526151b3565b5b90600052602060002001604051611b6a9190615774565b604051809103902003611c02578160018380549050611b899190615455565b81548110611b9a57611b996151b3565b5b90600052602060002001828281548110611bb757611bb66151b3565b5b906000526020600020019081611bcd919061594d565b5081805480611bdf57611bde615489565b5b600190038181906000526020600020016000611bfb9190614266565b9055611c0f565b8080600101915050611b2c565b50505050565b6000611c208261360c565b611c5f576040517f08c379a0000000000000000000000000000000000000000000000000000000008152600401611c5690615570565b60405180910390fd5b6000600b83604051611c719190615130565b908152602001604051809103902090508060030160009054906101000a900460ff16915050919050565b6000600760009054906101000a900473ffffffffffffffffffffffffffffffffffffffff16905090565b606060018054611cd49061508c565b80601f0160208091040260200160405190810160405280929190818152602001828054611d009061508c565b8015611d4d5780601f10611d2257610100808354040283529160200191611d4d565b820191906000526020600020905b815481529060010190602001808311611d3057829003601f168201915b5050505050905090565b611d608161360c565b15611da0576040517f08c379a0000000000000000000000000000000000000000000000000000000008152600401611d9790615a81565b60405180910390fd5b600060405180608001604052808573ffffffffffffffffffffffffffffffffffffffff168152602001600073ffffffffffffffffffffffffffffffffffffffff16815260200184815260200160001515815250905080600b83604051611e069190615130565b908152602001604051809103902060008201518160000160006101000a81548173ffffffffffffffffffffffffffffffffffffffff021916908373ffffffffffffffffffffffffffffffffffffffff16021790555060208201518160010160006101000a81548173ffffffffffffffffffffffffffffffffffffffff021916908373ffffffffffffffffffffffffffffffffffffffff1602179055506040820151816002019081611eb79190615aa1565b5060608201518160030160006101000a81548160ff021916908315150217905550905050611ee482613641565b600c83604051611ef49190615130565b908152602001604051809103902082908060018154018082558091505060019003906000526020600020016000909190919091509081611f349190615aa1565b503373ffffffffffffffffffffffffffffffffffffffff167fb8c752ce5211d09f40fda04dd89cda1620aed623addaf2785a0d2e57110e99f683604051611f7b9190614558565b60405180910390a250505050565b600c828051602081018201805184825260208301602085012081835280955050505050508181548110611fbb57600080fd5b90600052602060002001600091509150508054611fd79061508c565b80601f01602080910402602001604051908101604052809291908181526020018280546120039061508c565b80156120505780601f1061202557610100808354040283529160200191612050565b820191906000526020600020905b81548152906001019060200180831161203357829003601f168201915b505050505081565b61206a612063612fc9565b838361367b565b5050565b61207783610b99565b156120b7576040517f08c379a00000000000000000000000000000000000000000000000000000000081526004016120ae90615bbf565b60405180910390fd5b6000600e805490509050600e60405180608001604052808673ffffffffffffffffffffffffffffffffffffffff168152602001858152602001848152602001600067ffffffffffffffff8111156121115761211061461d565b5b60405190808252806020026020018201604052801561213f5781602001602082028036833780820191505090505b50815250908060018154018082558091505060019003906000526020600020906004020160009091909190915060008201518160000160006101000a81548173ffffffffffffffffffffffffffffffffffffffff021916908373ffffffffffffffffffffffffffffffffffffffff16021790555060208201518160010190816121c89190615aa1565b5060408201518160020190816121de9190615aa1565b5060608201518160030190805190602001906121fb9291906142a6565b50505080600a60008673ffffffffffffffffffffffffffffffffffffffff1673ffffffffffffffffffffffffffffffffffffffff168152602001908152602001600020819055508373ffffffffffffffffffffffffffffffffffffffff167f81ef79d1cda814a60c0fc60792e648a06d9c6bae67176346d1cc8b63030bfccd846040516122889190614558565b60405180910390a250505050565b6122a1848484610c08565b6122ad848484846137ea565b50505050565b60606122be826139a1565b9050919050565b60606000600a60008473ffffffffffffffffffffffffffffffffffffffff1673ffffffffffffffffffffffffffffffffffffffff1681526020019081526020016000205490506000600e8281548110612321576123206151b3565b5b906000526020600020906004020160030180548060200260200160405190810160405280929190818152602001828054801561237c57602002820191906000526020600020905b815481526020019060010190808311612368575b505050505090506000815167ffffffffffffffff8111156123a05761239f61461d565b5b6040519080825280602002602001820160405280156123d357816020015b60608152602001906001900390816123be5790505b50905060005b825181101561243c5760008382815181106123f7576123f66151b3565b5b60200260200101519050600061240c826122b3565b905080848481518110612422576124216151b3565b5b6020026020010181905250505080806001019150506123d9565b50809350505050919050565b600d818051602081018201805184825260208301602085012081835280955050505050506000915090505481565b6000600560008473ffffffffffffffffffffffffffffffffffffffff1673ffffffffffffffffffffffffffffffffffffffff16815260200190815260200160002060008373ffffffffffffffffffffffffffffffffffffffff1673ffffffffffffffffffffffffffffffffffffffff16815260200190815260200160002060009054906101000a900460ff16905092915050565b60606000600c8360405161251e9190615130565b908152602001604051809103902090506000818054905067ffffffffffffffff81111561254e5761254d61461d565b5b60405190808252806020026020018201604052801561258157816020015b606081526020019060019003908161256c5790505b5090506000805b83805490508110156126c9576000600b8583815481106125ab576125aa6151b3565b5b906000526020600020016040516125c291906156ba565b908152602001604051809103902090508060030160009054906101000a900460ff166126bb578482815481106125fb576125fa6151b3565b5b9060005260206000200180546126109061508c565b80601f016020809104026020016040519081016040528092919081815260200182805461263c9061508c565b80156126895780601f1061265e57610100808354040283529160200191612689565b820191906000526020600020905b81548152906001019060200180831161266c57829003601f168201915b50505050508484815181106126a1576126a06151b3565b5b602002602001018190525082806126b7906152e9565b9350505b508080600101915050612588565b50808252819350505050919050565b6060600e805480602002602001604051908101604052809291908181526020016000905b8282101561290057838290600052602060002090600402016040518060800160405290816000820160009054906101000a900473ffffffffffffffffffffffffffffffffffffffff1673ffffffffffffffffffffffffffffffffffffffff1673ffffffffffffffffffffffffffffffffffffffff1681526020016001820180546127859061508c565b80601f01602080910402602001604051908101604052809291908181526020018280546127b19061508c565b80156127fe5780601f106127d3576101008083540402835291602001916127fe565b820191906000526020600020905b8154815290600101906020018083116127e157829003601f168201915b505050505081526020016002820180546128179061508c565b80601f01602080910402602001604051908101604052809291908181526020018280546128439061508c565b80156128905780601f1061286557610100808354040283529160200191612890565b820191906000526020600020905b81548152906001019060200180831161287357829003601f168201915b50505050508152602001600382018054806020026020016040519081016040528092919081815260200182805480156128e857602002820191906000526020600020905b8154815260200190600101908083116128d4575b505050505081525050815260200190600101906126fc565b50505050905090565b6129116134bf565b600073ffffffffffffffffffffffffffffffffffffffff168173ffffffffffffffffffffffffffffffffffffffff16036129835760006040517f1e4fbdf700000000000000000000000000000000000000000000000000000000815260040161297a91906143c8565b60405180910390fd5b61298c81613546565b50565b6129988261360c565b6129d7576040517f08c379a00000000000000000000000000000000000000000000000000000000081526004016129ce90615570565b60405180910390fd5b6000600b836040516129e99190615130565b908152602001604051809103902090508060030160009054906101000a900460ff1615612a4b576040517f08c379a0000000000000000000000000000000000000000000000000000000008152600401612a4290615c2b565b60405180910390fd5b818160010160006101000a81548173ffffffffffffffffffffffffffffffffffffffff021916908373ffffffffffffffffffffffffffffffffffffffff16021790555060018160030160006101000a81548160ff0219169083151502179055508173ffffffffffffffffffffffffffffffffffffffff167f1801f9534f97fd64cd2f345d9e3a30ab19443cd0ef6c97ae4ba53b75261473d284604051612af19190614558565b60405180910390a2505050565b600e8181548110612b0e57600080fd5b90600052602060002090600402016000915090508060000160009054906101000a900473ffffffffffffffffffffffffffffffffffffffff1690806001018054612b579061508c565b80601f0160208091040260200160405190810160405280929190818152602001828054612b839061508c565b8015612bd05780601f10612ba557610100808354040283529160200191612bd0565b820191906000526020600020905b815481529060010190602001808311612bb357829003601f168201915b505050505090806002018054612be59061508c565b80601f0160208091040260200160405190810160405280929190818152602001828054612c119061508c565b8015612c5e5780601f10612c3357610100808354040283529160200191612c5e565b820191906000526020600020905b815481529060010190602001808311612c4157829003601f168201915b5050505050905083565b6000600d82604051612c7a9190615130565b90815260200160405180910390205490503073ffffffffffffffffffffffffffffffffffffffff16612cab82611294565b73ffffffffffffffffffffffffffffffffffffffff1614612d01576040517f08c379a0000000000000000000000000000000000000000000000000000000008152600401612cf890615cbd565b60405180910390fd5b60008103612d44576040517f08c379a0000000000000000000000000000000000000000000000000000000008152600401612d3b906153a3565b60405180910390fd5b3073ffffffffffffffffffffffffffffffffffffffff166342842e0e3085846040518463ffffffff1660e01b8152600401612d8193929190615cdd565b600060405180830381600087803b158015612d9b57600080fd5b505af1158015612daf573d6000803e3d6000fd5b505050506000600a60008573ffffffffffffffffffffffffffffffffffffffff1673ffffffffffffffffffffffffffffffffffffffff168152602001908152602001600020549050600e8181548110612e0b57612e0a6151b3565b5b90600052602060002090600402016003018290806001815401808255809150506001900390600052602060002001600090919091909150553373ffffffffffffffffffffffffffffffffffffffff163073ffffffffffffffffffffffffffffffffffffffff167f7a2bdeec3ee0e17f1eac71f3cb219a44aacd443bc4eeb20a963d1fc026929f7160405160405180910390a350505050565b6000634906490660e01b7bffffffffffffffffffffffffffffffffffffffffffffffffffffffff1916827bffffffffffffffffffffffffffffffffffffffffffffffffffffffff19161480612efd5750612efc82613ab4565b5b9050919050565b600080612f1083613b96565b9050600073ffffffffffffffffffffffffffffffffffffffff168173ffffffffffffffffffffffffffffffffffffffff1603612f8357826040517f7e273289000000000000000000000000000000000000000000000000000000008152600401612f7a91906144ad565b60405180910390fd5b80915050919050565b60006004600083815260200190815260200160002060009054906101000a900473ffffffffffffffffffffffffffffffffffffffff169050919050565b600033905090565b612fde8383836001613bd3565b505050565b600080612fef84613b96565b9050600073ffffffffffffffffffffffffffffffffffffffff168373ffffffffffffffffffffffffffffffffffffffff161461303157613030818486613d98565b5b600073ffffffffffffffffffffffffffffffffffffffff168173ffffffffffffffffffffffffffffffffffffffff16146130c257613073600085600080613bd3565b6001600360008373ffffffffffffffffffffffffffffffffffffffff1673ffffffffffffffffffffffffffffffffffffffff168152602001908152602001600020600082825403925050819055505b600073ffffffffffffffffffffffffffffffffffffffff168573ffffffffffffffffffffffffffffffffffffffff1614613145576001600360008773ffffffffffffffffffffffffffffffffffffffff1673ffffffffffffffffffffffffffffffffffffffff168152602001908152602001600020600082825401925050819055505b846002600086815260200190815260200160002060006101000a81548173ffffffffffffffffffffffffffffffffffffffff021916908373ffffffffffffffffffffffffffffffffffffffff160217905550838573ffffffffffffffffffffffffffffffffffffffff168273ffffffffffffffffffffffffffffffffffffffff167fddf252ad1be2c89b69c2b068fc378daa952ba7f163c4a11628f55a4df523b3ef60405160405180910390a4809150509392505050565b600073ffffffffffffffffffffffffffffffffffffffff168273ffffffffffffffffffffffffffffffffffffffff160361326f5760006040517f64a0ae9200000000000000000000000000000000000000000000000000000000815260040161326691906143c8565b60405180910390fd5b600061327d83836000612fe3565b9050600073ffffffffffffffffffffffffffffffffffffffff168173ffffffffffffffffffffffffffffffffffffffff16146132f15760006040517f73c6ac6e0000000000000000000000000000000000000000000000000000000081526004016132e891906143c8565b60405180910390fd5b505050565b806006600084815260200190815260200160002090816133169190615aa1565b507ff8e1a15aba9398e019f0b49df1a4fde98ee17ae345cb5f6b5e2c27f5033e8ce78260405161334691906144ad565b60405180910390a15050565b600073ffffffffffffffffffffffffffffffffffffffff168273ffffffffffffffffffffffffffffffffffffffff16036133c45760006040517f64a0ae920000000000000000000000000000000000000000000000000000000081526004016133bb91906143c8565b60405180910390fd5b60006133d283836000612fe3565b9050600073ffffffffffffffffffffffffffffffffffffffff168173ffffffffffffffffffffffffffffffffffffffff160361344557816040517f7e27328900000000000000000000000000000000000000000000000000000000815260040161343c91906144ad565b60405180910390fd5b8373ffffffffffffffffffffffffffffffffffffffff168173ffffffffffffffffffffffffffffffffffffffff16146134b9578382826040517f64283d7b0000000000000000000000000000000000000000000000000000000081526004016134b0939291906150bd565b60405180910390fd5b50505050565b6134c7612fc9565b73ffffffffffffffffffffffffffffffffffffffff166134e5611c9b565b73ffffffffffffffffffffffffffffffffffffffff161461354457613508612fc9565b6040517f118cdaa700000000000000000000000000000000000000000000000000000000815260040161353b91906143c8565b60405180910390fd5b565b6000600760009054906101000a900473ffffffffffffffffffffffffffffffffffffffff16905081600760006101000a81548173ffffffffffffffffffffffffffffffffffffffff021916908373ffffffffffffffffffffffffffffffffffffffff1602179055508173ffffffffffffffffffffffffffffffffffffffff168173ffffffffffffffffffffffffffffffffffffffff167f8be0079c531659141344cd1fd0a4f28419497f9722a3daafe3b4186f6b6457e060405160405180910390a35050565b600060098260405161361e9190615130565b908152602001604051809103902060009054906101000a900460ff169050919050565b60016009826040516136539190615130565b908152602001604051809103902060006101000a81548160ff02191690831515021790555050565b600073ffffffffffffffffffffffffffffffffffffffff168273ffffffffffffffffffffffffffffffffffffffff16036136ec57816040517f5b08ba180000000000000000000000000000000000000000000000000000000081526004016136e391906143c8565b60405180910390fd5b80600560008573ffffffffffffffffffffffffffffffffffffffff1673ffffffffffffffffffffffffffffffffffffffff16815260200190815260200160002060008473ffffffffffffffffffffffffffffffffffffffff1673ffffffffffffffffffffffffffffffffffffffff16815260200190815260200160002060006101000a81548160ff0219169083151502179055508173ffffffffffffffffffffffffffffffffffffffff168373ffffffffffffffffffffffffffffffffffffffff167f17307eab39ab6107e8899845ad3d59bd9653f200f220920489ca2b5937696c31836040516137dd9190614483565b60405180910390a3505050565b60008373ffffffffffffffffffffffffffffffffffffffff163b111561399b578273ffffffffffffffffffffffffffffffffffffffff1663150b7a0261382e612fc9565b8685856040518563ffffffff1660e01b81526004016138509493929190615d69565b6020604051808303816000875af192505050801561388c57506040513d601f19601f820116820180604052508101906138899190615dca565b60015b613910573d80600081146138bc576040519150601f19603f3d011682016040523d82523d6000602084013e6138c1565b606091505b50600081510361390857836040517f64a0ae920000000000000000000000000000000000000000000000000000000081526004016138ff91906143c8565b60405180910390fd5b805181602001fd5b63150b7a0260e01b7bffffffffffffffffffffffffffffffffffffffffffffffffffffffff1916817bffffffffffffffffffffffffffffffffffffffffffffffffffffffff19161461399957836040517f64a0ae9200000000000000000000000000000000000000000000000000000000815260040161399091906143c8565b60405180910390fd5b505b50505050565b60606139ac82612f04565b5060006006600084815260200190815260200160002080546139cd9061508c565b80601f01602080910402602001604051908101604052809291908181526020018280546139f99061508c565b8015613a465780601f10613a1b57610100808354040283529160200191613a46565b820191906000526020600020905b815481529060010190602001808311613a2957829003601f168201915b505050505090506000613a57613e5c565b90506000815103613a6c578192505050613aaf565b600082511115613aa1578082604051602001613a89929190615df7565b60405160208183030381529060405292505050613aaf565b613aaa84613e73565b925050505b919050565b60007f80ac58cd000000000000000000000000000000000000000000000000000000007bffffffffffffffffffffffffffffffffffffffffffffffffffffffff1916827bffffffffffffffffffffffffffffffffffffffffffffffffffffffff19161480613b7f57507f5b5e139f000000000000000000000000000000000000000000000000000000007bffffffffffffffffffffffffffffffffffffffffffffffffffffffff1916827bffffffffffffffffffffffffffffffffffffffffffffffffffffffff1916145b80613b8f5750613b8e82613edc565b5b9050919050565b60006002600083815260200190815260200160002060009054906101000a900473ffffffffffffffffffffffffffffffffffffffff169050919050565b8080613c0c5750600073ffffffffffffffffffffffffffffffffffffffff168273ffffffffffffffffffffffffffffffffffffffff1614155b15613d40576000613c1c84612f04565b9050600073ffffffffffffffffffffffffffffffffffffffff168373ffffffffffffffffffffffffffffffffffffffff1614158015613c8757508273ffffffffffffffffffffffffffffffffffffffff168173ffffffffffffffffffffffffffffffffffffffff1614155b8015613c9a5750613c988184612476565b155b15613cdc57826040517fa9fbf51f000000000000000000000000000000000000000000000000000000008152600401613cd391906143c8565b60405180910390fd5b8115613d3e57838573ffffffffffffffffffffffffffffffffffffffff168273ffffffffffffffffffffffffffffffffffffffff167f8c5be1e5ebec7d5bd14f71427d1e84f3dd0314c0f7b2291e5b200ac8c7c3b92560405160405180910390a45b505b836004600085815260200190815260200160002060006101000a81548173ffffffffffffffffffffffffffffffffffffffff021916908373ffffffffffffffffffffffffffffffffffffffff16021790555050505050565b613da3838383613f46565b613e5757600073ffffffffffffffffffffffffffffffffffffffff168373ffffffffffffffffffffffffffffffffffffffff1603613e1857806040517f7e273289000000000000000000000000000000000000000000000000000000008152600401613e0f91906144ad565b60405180910390fd5b81816040517f177e802f000000000000000000000000000000000000000000000000000000008152600401613e4e929190615e1b565b60405180910390fd5b505050565b606060405180602001604052806000815250905090565b6060613e7e82612f04565b506000613e89613e5c565b90506000815111613ea95760405180602001604052806000815250613ed4565b80613eb384614007565b604051602001613ec4929190615df7565b6040516020818303038152906040525b915050919050565b60007f01ffc9a7000000000000000000000000000000000000000000000000000000007bffffffffffffffffffffffffffffffffffffffffffffffffffffffff1916827bffffffffffffffffffffffffffffffffffffffffffffffffffffffff1916149050919050565b60008073ffffffffffffffffffffffffffffffffffffffff168373ffffffffffffffffffffffffffffffffffffffff1614158015613ffe57508273ffffffffffffffffffffffffffffffffffffffff168473ffffffffffffffffffffffffffffffffffffffff161480613fbf5750613fbe8484612476565b5b80613ffd57508273ffffffffffffffffffffffffffffffffffffffff16613fe583612f8c565b73ffffffffffffffffffffffffffffffffffffffff16145b5b90509392505050565b606060006001614016846140d5565b01905060008167ffffffffffffffff8111156140355761403461461d565b5b6040519080825280601f01601f1916602001820160405280156140675781602001600182028036833780820191505090505b509050600082602001820190505b6001156140ca578080600190039150507f3031323334353637383961626364656600000000000000000000000000000000600a86061a8153600a85816140be576140bd615e44565b5b04945060008503614075575b819350505050919050565b600080600090507a184f03e93ff9f4daa797ed6e38ed64bf6a1f0100000000000000008310614133577a184f03e93ff9f4daa797ed6e38ed64bf6a1f010000000000000000838161412957614128615e44565b5b0492506040810190505b6d04ee2d6d415b85acef81000000008310614170576d04ee2d6d415b85acef8100000000838161416657614165615e44565b5b0492506020810190505b662386f26fc10000831061419f57662386f26fc10000838161419557614194615e44565b5b0492506010810190505b6305f5e10083106141c8576305f5e10083816141be576141bd615e44565b5b0492506008810190505b61271083106141ed5761271083816141e3576141e2615e44565b5b0492506004810190505b60648310614210576064838161420657614205615e44565b5b0492506002810190505b600a831061421f576001810190505b80915050919050565b6040518060800160405280600073ffffffffffffffffffffffffffffffffffffffff1681526020016060815260200160608152602001606081525090565b5080546142729061508c565b6000825580601f1061428457506142a3565b601f0160209004906000526020600020908101906142a291906142f3565b5b50565b8280548282559060005260206000209081019282156142e2579160200282015b828111156142e15782518255916020019190600101906142c6565b5b5090506142ef91906142f3565b5090565b5b8082111561430c5760008160009055506001016142f4565b5090565b6000604051905090565b600080fd5b600080fd5b6000819050919050565b61433781614324565b811461434257600080fd5b50565b6000813590506143548161432e565b92915050565b6000602082840312156143705761436f61431a565b5b600061437e84828501614345565b91505092915050565b600073ffffffffffffffffffffffffffffffffffffffff82169050919050565b60006143b282614387565b9050919050565b6143c2816143a7565b82525050565b60006020820190506143dd60008301846143b9565b92915050565b60007fffffffff0000000000000000000000000000000000000000000000000000000082169050919050565b614418816143e3565b811461442357600080fd5b50565b6000813590506144358161440f565b92915050565b6000602082840312156144515761445061431a565b5b600061445f84828501614426565b91505092915050565b60008115159050919050565b61447d81614468565b82525050565b60006020820190506144986000830184614474565b92915050565b6144a781614324565b82525050565b60006020820190506144c2600083018461449e565b92915050565b600081519050919050565b600082825260208201905092915050565b60005b838110156145025780820151818401526020810190506144e7565b60008484015250505050565b6000601f19601f8301169050919050565b600061452a826144c8565b61453481856144d3565b93506145448185602086016144e4565b61454d8161450e565b840191505092915050565b60006020820190508181036000830152614572818461451f565b905092915050565b614583816143a7565b811461458e57600080fd5b50565b6000813590506145a08161457a565b92915050565b600080604083850312156145bd576145bc61431a565b5b60006145cb85828601614591565b92505060206145dc85828601614345565b9150509250929050565b6000602082840312156145fc576145fb61431a565b5b600061460a84828501614591565b91505092915050565b600080fd5b600080fd5b7f4e487b7100000000000000000000000000000000000000000000000000000000600052604160045260246000fd5b6146558261450e565b810181811067ffffffffffffffff821117156146745761467361461d565b5b80604052505050565b6000614687614310565b9050614693828261464c565b919050565b600067ffffffffffffffff8211156146b3576146b261461d565b5b6146bc8261450e565b9050602081019050919050565b82818337600083830152505050565b60006146eb6146e684614698565b61467d565b90508281526020810184848401111561470757614706614618565b5b6147128482856146c9565b509392505050565b600082601f83011261472f5761472e614613565b5b813561473f8482602086016146d8565b91505092915050565b600080600080608085870312156147625761476161431a565b5b600061477087828801614591565b945050602061478187828801614591565b935050604061479287828801614345565b925050606085013567ffffffffffffffff8111156147b3576147b261431f565b5b6147bf8782880161471a565b91505092959194509250565b6147d4816143e3565b82525050565b60006020820190506147ef60008301846147cb565b92915050565b60008060006060848603121561480e5761480d61431a565b5b600061481c86828701614591565b935050602061482d86828701614591565b925050604061483e86828701614345565b9150509250925092565b600067ffffffffffffffff8211156148635761486261461d565b5b61486c8261450e565b9050602081019050919050565b600061488c61488784614848565b61467d565b9050828152602081018484840111156148a8576148a7614618565b5b6148b38482856146c9565b509392505050565b600082601f8301126148d0576148cf614613565b5b81356148e0848260208601614879565b91505092915050565b6000602082840312156148ff576148fe61431a565b5b600082013567ffffffffffffffff81111561491d5761491c61431f565b5b614929848285016148bb565b91505092915050565b61493b816143a7565b82525050565b600082825260208201905092915050565b600061495d826144c8565b6149678185614941565b93506149778185602086016144e4565b6149808161450e565b840191505092915050565b600081519050919050565b600082825260208201905092915050565b6000819050602082019050919050565b6149c081614324565b82525050565b60006149d283836149b7565b60208301905092915050565b6000602082019050919050565b60006149f68261498b565b614a008185614996565b9350614a0b836149a7565b8060005b83811015614a3c578151614a2388826149c6565b9750614a2e836149de565b925050600181019050614a0f565b5085935050505092915050565b6000608083016000830151614a616000860182614932565b5060208301518482036020860152614a798282614952565b91505060408301518482036040860152614a938282614952565b91505060608301518482036060860152614aad82826149eb565b9150508091505092915050565b60006020820190508181036000830152614ad48184614a49565b905092915050565b60008060408385031215614af357614af261431a565b5b6000614b0185828601614591565b925050602083013567ffffffffffffffff811115614b2257614b2161431f565b5b614b2e858286016148bb565b9150509250929050565b6000608082019050614b4d60008301876143b9565b614b5a60208301866143b9565b8181036040830152614b6c818561451f565b9050614b7b6060830184614474565b95945050505050565b600080600060608486031215614b9d57614b9c61431a565b5b6000614bab86828701614591565b935050602084013567ffffffffffffffff811115614bcc57614bcb61431f565b5b614bd8868287016148bb565b925050604084013567ffffffffffffffff811115614bf957614bf861431f565b5b614c05868287016148bb565b9150509250925092565b60008060408385031215614c2657614c2561431a565b5b600083013567ffffffffffffffff811115614c4457614c4361431f565b5b614c50858286016148bb565b9250506020614c6185828601614345565b9150509250929050565b614c7481614468565b8114614c7f57600080fd5b50565b600081359050614c9181614c6b565b92915050565b60008060408385031215614cae57614cad61431a565b5b6000614cbc85828601614591565b9250506020614ccd85828601614c82565b9150509250929050565b600081519050919050565b600082825260208201905092915050565b6000819050602082019050919050565b6000614d0f8383614952565b905092915050565b6000602082019050919050565b6000614d2f82614cd7565b614d398185614ce2565b935083602082028501614d4b85614cf3565b8060005b85811015614d875784840389528151614d688582614d03565b9450614d7383614d17565b925060208a01995050600181019050614d4f565b50829750879550505050505092915050565b60006020820190508181036000830152614db38184614d24565b905092915050565b60008060408385031215614dd257614dd161431a565b5b6000614de085828601614591565b9250506020614df185828601614591565b9150509250929050565b600081519050919050565b600082825260208201905092915050565b6000819050602082019050919050565b6000608083016000830151614e3f6000860182614932565b5060208301518482036020860152614e578282614952565b91505060408301518482036040860152614e718282614952565b91505060608301518482036060860152614e8b82826149eb565b9150508091505092915050565b6000614ea48383614e27565b905092915050565b6000602082019050919050565b6000614ec482614dfb565b614ece8185614e06565b935083602082028501614ee085614e17565b8060005b85811015614f1c5784840389528151614efd8582614e98565b9450614f0883614eac565b925060208a01995050600181019050614ee4565b50829750879550505050505092915050565b60006020820190508181036000830152614f488184614eb9565b905092915050565b60008060408385031215614f6757614f6661431a565b5b600083013567ffffffffffffffff811115614f8557614f8461431f565b5b614f91858286016148bb565b9250506020614fa285828601614591565b9150509250929050565b6000606082019050614fc160008301866143b9565b8181036020830152614fd3818561451f565b90508181036040830152614fe7818461451f565b9050949350505050565b7f546f6b656e20646f6573206e6f74206578697374000000000000000000000000600082015250565b60006150276014836144d3565b915061503282614ff1565b602082019050919050565b600060208201905081810360008301526150568161501a565b9050919050565b7f4e487b7100000000000000000000000000000000000000000000000000000000600052602260045260246000fd5b600060028204905060018216806150a457607f821691505b6020821081036150b7576150b661505d565b5b50919050565b60006060820190506150d260008301866143b9565b6150df602083018561449e565b6150ec60408301846143b9565b949350505050565b600081905092915050565b600061510a826144c8565b61511481856150f4565b93506151248185602086016144e4565b80840191505092915050565b600061513c82846150ff565b915081905092915050565b7f506c6179657220646f65736e2774206578697374210000000000000000000000600082015250565b600061517d6015836144d3565b915061518882615147565b602082019050919050565b600060208201905081810360008301526151ac81615170565b9050919050565b7f4e487b7100000000000000000000000000000000000000000000000000000000600052603260045260246000fd5b7f506c6179657220646f6573206e6f742065786973740000000000000000000000600082015250565b60006152186015836144d3565b9150615223826151e2565b602082019050919050565b600060208201905081810360008301526152478161520b565b9050919050565b7f4e65656420746f20706179207570210000000000000000000000000000000000600082015250565b6000615284600f836144d3565b915061528f8261524e565b602082019050919050565b600060208201905081810360008301526152b381615277565b9050919050565b7f4e487b7100000000000000000000000000000000000000000000000000000000600052601160045260246000fd5b60006152f482614324565b91507fffffffffffffffffffffffffffffffffffffffffffffffffffffffffffffffff8203615326576153256152ba565b5b600182019050919050565b7f546f6b656e204944206e6f7420666f756e6420666f722074686520676976656e60008201527f206d657461646174610000000000000000000000000000000000000000000000602082015250565b600061538d6029836144d3565b915061539882615331565b604082019050919050565b600060208201905081810360008301526153bc81615380565b9050919050565b7f53656e646572206973206e6f7420746865206f776e6572206f6620746865207460008201527f6f6b656e00000000000000000000000000000000000000000000000000000000602082015250565b600061541f6024836144d3565b915061542a826153c3565b604082019050919050565b6000602082019050818103600083015261544e81615412565b9050919050565b600061546082614324565b915061546b83614324565b9250828203905081811115615483576154826152ba565b5b92915050565b7f4e487b7100000000000000000000000000000000000000000000000000000000600052603160045260246000fd5b7f5472616e736665722063616c6c6572206973206e6f74206f776e657200000000600082015250565b60006154ee601c836144d3565b91506154f9826154b8565b602082019050919050565b6000602082019050818103600083015261551d816154e1565b9050919050565b7f426174746c6520646f6573206e6f742065786973740000000000000000000000600082015250565b600061555a6015836144d3565b915061556582615524565b602082019050919050565b600060208201905081810360008301526155898161554d565b9050919050565b7f4f6e6c792074686520686f73742063616e2064656c657465207468652062617460008201527f746c650000000000000000000000000000000000000000000000000000000000602082015250565b60006155ec6023836144d3565b91506155f782615590565b604082019050919050565b6000602082019050818103600083015261561b816155df565b9050919050565b60008190508160005260206000209050919050565b600081546156448161508c565b61564e81866150f4565b94506001821660008114615669576001811461567e576156b1565b60ff19831686528115158202860193506156b1565b61568785615622565b60005b838110156156a95781548189015260018201915060208101905061568a565b838801955050505b50505092915050565b60006156c68284615637565b915081905092915050565b600081905092915050565b60008190508160005260206000209050919050565b600081546156fe8161508c565b61570881866156d1565b9450600182166000811461572357600181146157385761576b565b60ff198316865281151582028601935061576b565b615741856156dc565b60005b8381101561576357815481890152600182019150602081019050615744565b838801955050505b50505092915050565b600061578082846156f1565b915081905092915050565b60008154905061579a8161508c565b9050919050565b60008190508160005260206000209050919050565b60006020601f8301049050919050565b600082821b905092915050565b6000600883026158037fffffffffffffffffffffffffffffffffffffffffffffffffffffffffffffffff826157c6565b61580d86836157c6565b95508019841693508086168417925050509392505050565b6000819050919050565b600061584a61584561584084614324565b615825565b614324565b9050919050565b6000819050919050565b6158648361582f565b61587861587082615851565b8484546157d3565b825550505050565b600090565b61588d615880565b61589881848461585b565b505050565b5b818110156158bc576158b1600082615885565b60018101905061589e565b5050565b601f821115615901576158d281615622565b6158db846157b6565b810160208510156158ea578190505b6158fe6158f6856157b6565b83018261589d565b50505b505050565b600082821c905092915050565b600061592460001984600802615906565b1980831691505092915050565b600061593d8383615913565b9150826002028217905092915050565b81810361595b575050615a33565b6159648261578b565b67ffffffffffffffff81111561597d5761597c61461d565b5b615987825461508c565b6159928282856158c0565b6000601f8311600181146159c157600084156159af578287015490505b6159b98582615931565b865550615a2c565b601f1984166159cf876157a1565b96506159da86615622565b60005b82811015615a02578489015482556001820191506001850194506020810190506159dd565b86831015615a1f5784890154615a1b601f891682615913565b8355505b6001600288020188555050505b5050505050505b565b7f426174746c65206e616d6520616c726561647920657869737473000000000000600082015250565b6000615a6b601a836144d3565b9150615a7682615a35565b602082019050919050565b60006020820190508181036000830152615a9a81615a5e565b9050919050565b615aaa826144c8565b67ffffffffffffffff811115615ac357615ac261461d565b5b615acd825461508c565b615ad88282856158c0565b600060209050601f831160018114615b0b5760008415615af9578287015190505b615b038582615931565b865550615b6b565b601f198416615b1986615622565b60005b82811015615b4157848901518255600182019150602085019450602081019050615b1c565b86831015615b5e5784890151615b5a601f891682615913565b8355505b6001600288020188555050505b505050505050565b7f506c6179657220616c7265616479207265676973746572656400000000000000600082015250565b6000615ba96019836144d3565b9150615bb482615b73565b602082019050919050565b60006020820190508181036000830152615bd881615b9c565b9050919050565b7f426174746c6520616c7265616479206a6f696e65640000000000000000000000600082015250565b6000615c156015836144d3565b9150615c2082615bdf565b602082019050919050565b60006020820190508181036000830152615c4481615c08565b9050919050565b7f436f6e7472616374206973206e6f7420746865206f776e6572206f662074686560008201527f20746f6b656e0000000000000000000000000000000000000000000000000000602082015250565b6000615ca76026836144d3565b9150615cb282615c4b565b604082019050919050565b60006020820190508181036000830152615cd681615c9a565b9050919050565b6000606082019050615cf260008301866143b9565b615cff60208301856143b9565b615d0c604083018461449e565b949350505050565b600081519050919050565b600082825260208201905092915050565b6000615d3b82615d14565b615d458185615d1f565b9350615d558185602086016144e4565b615d5e8161450e565b840191505092915050565b6000608082019050615d7e60008301876143b9565b615d8b60208301866143b9565b615d98604083018561449e565b8181036060830152615daa8184615d30565b905095945050505050565b600081519050615dc48161440f565b92915050565b600060208284031215615de057615ddf61431a565b5b6000615dee84828501615db5565b91505092915050565b6000615e0382856150ff565b9150615e0f82846150ff565b91508190509392505050565b6000604082019050615e3060008301856143b9565b615e3d602083018461449e565b9392505050565b7f4e487b7100000000000000000000000000000000000000000000000000000000600052601260045260246000fdfea2646970667358221220e2cbe7a0bf9e5e503f0503bd951c1f46f22c3462d3009dee44969d9a902d747764736f6c63430008180033",
  "linkReferences": {},
  "deployedLinkReferences": {}
}