{
  "_format": "hh-sol-artifact-1",
  "contractName": "NFTTCG",
  "sourceName": "contracts/NFTTCG.sol",
  "abi": [
    {
      "inputs": [
        {
          "internalType": "address",
          "name": "initialOwner",
          "type": "address"
        }
      ],
      "stateMutability": "nonpayable",
      "type": "constructor"
    },
    {
      "inputs": [
        {
          "internalType": "address",
          "name": "sender",
          "type": "address"
        },
        {
          "internalType": "uint256",
          "name": "tokenId",
          "type": "uint256"
        },
        {
          "internalType": "address",
          "name": "owner",
          "type": "address"
        }
      ],
      "name": "ERC721IncorrectOwner",
      "type": "error"
    },
    {
      "inputs": [
        {
          "internalType": "address",
          "name": "operator",
          "type": "address"
        },
        {
          "internalType": "uint256",
          "name": "tokenId",
          "type": "uint256"
        }
      ],
      "name": "ERC721InsufficientApproval",
      "type": "error"
    },
    {
      "inputs": [
        {
          "internalType": "address",
          "name": "approver",
          "type": "address"
        }
      ],
      "name": "ERC721InvalidApprover",
      "type": "error"
    },
    {
      "inputs": [
        {
          "internalType": "address",
          "name": "operator",
          "type": "address"
        }
      ],
      "name": "ERC721InvalidOperator",
      "type": "error"
    },
    {
      "inputs": [
        {
          "internalType": "address",
          "name": "owner",
          "type": "address"
        }
      ],
      "name": "ERC721InvalidOwner",
      "type": "error"
    },
    {
      "inputs": [
        {
          "internalType": "address",
          "name": "receiver",
          "type": "address"
        }
      ],
      "name": "ERC721InvalidReceiver",
      "type": "error"
    },
    {
      "inputs": [
        {
          "internalType": "address",
          "name": "sender",
          "type": "address"
        }
      ],
      "name": "ERC721InvalidSender",
      "type": "error"
    },
    {
      "inputs": [
        {
          "internalType": "uint256",
          "name": "tokenId",
          "type": "uint256"
        }
      ],
      "name": "ERC721NonexistentToken",
      "type": "error"
    },
    {
      "inputs": [
        {
          "internalType": "address",
          "name": "owner",
          "type": "address"
        }
      ],
      "name": "OwnableInvalidOwner",
      "type": "error"
    },
    {
      "inputs": [
        {
          "internalType": "address",
          "name": "account",
          "type": "address"
        }
      ],
      "name": "OwnableUnauthorizedAccount",
      "type": "error"
    },
    {
      "anonymous": false,
      "inputs": [
        {
          "indexed": true,
          "internalType": "address",
          "name": "owner",
          "type": "address"
        },
        {
          "indexed": true,
          "internalType": "address",
          "name": "approved",
          "type": "address"
        },
        {
          "indexed": true,
          "internalType": "uint256",
          "name": "tokenId",
          "type": "uint256"
        }
      ],
      "name": "Approval",
      "type": "event"
    },
    {
      "anonymous": false,
      "inputs": [
        {
          "indexed": true,
          "internalType": "address",
          "name": "owner",
          "type": "address"
        },
        {
          "indexed": true,
          "internalType": "address",
          "name": "operator",
          "type": "address"
        },
        {
          "indexed": false,
          "internalType": "bool",
          "name": "approved",
          "type": "bool"
        }
      ],
      "name": "ApprovalForAll",
      "type": "event"
    },
    {
      "anonymous": false,
      "inputs": [
        {
          "indexed": false,
          "internalType": "uint256",
          "name": "_fromTokenId",
          "type": "uint256"
        },
        {
          "indexed": false,
          "internalType": "uint256",
          "name": "_toTokenId",
          "type": "uint256"
        }
      ],
      "name": "BatchMetadataUpdate",
      "type": "event"
    },
    {
      "anonymous": false,
      "inputs": [
        {
          "indexed": false,
          "internalType": "uint256",
          "name": "_tokenId",
          "type": "uint256"
        }
      ],
      "name": "MetadataUpdate",
      "type": "event"
    },
    {
      "anonymous": false,
      "inputs": [
        {
          "indexed": true,
          "internalType": "address",
          "name": "recipient",
          "type": "address"
        },
        {
          "indexed": true,
          "internalType": "uint256",
          "name": "tokenId",
          "type": "uint256"
        },
        {
          "indexed": false,
          "internalType": "string",
          "name": "metadataURI",
          "type": "string"
        }
      ],
      "name": "NFTMinted",
      "type": "event"
    },
    {
      "anonymous": false,
      "inputs": [
        {
          "indexed": true,
          "internalType": "address",
          "name": "owner",
          "type": "address"
        },
        {
          "indexed": false,
          "internalType": "string",
          "name": "name",
          "type": "string"
        }
      ],
      "name": "NewPlayer",
      "type": "event"
    },
    {
      "anonymous": false,
      "inputs": [
        {
          "indexed": true,
          "internalType": "address",
          "name": "previousOwner",
          "type": "address"
        },
        {
          "indexed": true,
          "internalType": "address",
          "name": "newOwner",
          "type": "address"
        }
      ],
      "name": "OwnershipTransferred",
      "type": "event"
    },
    {
      "anonymous": false,
      "inputs": [
        {
          "indexed": true,
          "internalType": "address",
          "name": "from",
          "type": "address"
        },
        {
          "indexed": true,
          "internalType": "address",
          "name": "to",
          "type": "address"
        },
        {
          "indexed": true,
          "internalType": "uint256",
          "name": "tokenId",
          "type": "uint256"
        }
      ],
      "name": "Transfer",
      "type": "event"
    },
    {
      "inputs": [],
      "name": "_nextTokenId",
      "outputs": [
        {
          "internalType": "uint256",
          "name": "",
          "type": "uint256"
        }
      ],
      "stateMutability": "view",
      "type": "function"
    },
    {
      "inputs": [
        {
          "internalType": "address",
          "name": "to",
          "type": "address"
        },
        {
          "internalType": "uint256",
          "name": "tokenId",
          "type": "uint256"
        }
      ],
      "name": "approve",
      "outputs": [],
      "stateMutability": "nonpayable",
      "type": "function"
    },
    {
      "inputs": [
        {
          "internalType": "address",
          "name": "owner",
          "type": "address"
        }
      ],
      "name": "balanceOf",
      "outputs": [
        {
          "internalType": "uint256",
          "name": "",
          "type": "uint256"
        }
      ],
      "stateMutability": "view",
      "type": "function"
    },
    {
      "inputs": [
        {
          "internalType": "uint256",
          "name": "",
          "type": "uint256"
        }
      ],
      "name": "cardOwner",
      "outputs": [
        {
          "internalType": "address",
          "name": "",
          "type": "address"
        }
      ],
      "stateMutability": "view",
      "type": "function"
    },
    {
      "inputs": [],
      "name": "count",
      "outputs": [
        {
          "internalType": "uint256",
          "name": "",
          "type": "uint256"
        }
      ],
      "stateMutability": "view",
      "type": "function"
    },
    {
      "inputs": [],
      "name": "getAllPlayers",
      "outputs": [
        {
          "components": [
            {
              "internalType": "address",
              "name": "playerAddress",
              "type": "address"
            },
            {
              "internalType": "string",
              "name": "playerName",
              "type": "string"
            },
            {
              "internalType": "string",
              "name": "emailId",
              "type": "string"
            },
            {
              "internalType": "uint256[]",
              "name": "playerCards",
              "type": "uint256[]"
            }
          ],
          "internalType": "struct NFTTCG.Player[]",
          "name": "",
          "type": "tuple[]"
        }
      ],
      "stateMutability": "view",
      "type": "function"
    },
    {
      "inputs": [
        {
          "internalType": "uint256",
          "name": "tokenId",
          "type": "uint256"
        }
      ],
      "name": "getApproved",
      "outputs": [
        {
          "internalType": "address",
          "name": "",
          "type": "address"
        }
      ],
      "stateMutability": "view",
      "type": "function"
    },
    {
      "inputs": [
        {
          "internalType": "address",
          "name": "addr",
          "type": "address"
        }
      ],
      "name": "getPlayer",
      "outputs": [
        {
          "components": [
            {
              "internalType": "address",
              "name": "playerAddress",
              "type": "address"
            },
            {
              "internalType": "string",
              "name": "playerName",
              "type": "string"
            },
            {
              "internalType": "string",
              "name": "emailId",
              "type": "string"
            },
            {
              "internalType": "uint256[]",
              "name": "playerCards",
              "type": "uint256[]"
            }
          ],
          "internalType": "struct NFTTCG.Player",
          "name": "",
          "type": "tuple"
        }
      ],
      "stateMutability": "view",
      "type": "function"
    },
    {
      "inputs": [
        {
          "internalType": "address",
          "name": "owner",
          "type": "address"
        },
        {
          "internalType": "address",
          "name": "operator",
          "type": "address"
        }
      ],
      "name": "isApprovedForAll",
      "outputs": [
        {
          "internalType": "bool",
          "name": "",
          "type": "bool"
        }
      ],
      "stateMutability": "view",
      "type": "function"
    },
    {
      "inputs": [
        {
          "internalType": "address",
          "name": "addr",
          "type": "address"
        }
      ],
      "name": "isPlayer",
      "outputs": [
        {
          "internalType": "bool",
          "name": "",
          "type": "bool"
        }
      ],
      "stateMutability": "view",
      "type": "function"
    },
    {
      "inputs": [],
      "name": "name",
      "outputs": [
        {
          "internalType": "string",
          "name": "",
          "type": "string"
        }
      ],
      "stateMutability": "view",
      "type": "function"
    },
    {
      "inputs": [],
      "name": "owner",
      "outputs": [
        {
          "internalType": "address",
          "name": "",
          "type": "address"
        }
      ],
      "stateMutability": "view",
      "type": "function"
    },
    {
      "inputs": [
        {
          "internalType": "uint256",
          "name": "tokenId",
          "type": "uint256"
        }
      ],
      "name": "ownerOf",
      "outputs": [
        {
          "internalType": "address",
          "name": "",
          "type": "address"
        }
      ],
      "stateMutability": "view",
      "type": "function"
    },
    {
      "inputs": [
        {
          "internalType": "address",
          "name": "recipient",
          "type": "address"
        },
        {
          "internalType": "string",
          "name": "metadataURI",
          "type": "string"
        }
      ],
      "name": "payToMint",
      "outputs": [],
      "stateMutability": "payable",
      "type": "function"
    },
    {
      "inputs": [
        {
          "internalType": "address",
          "name": "",
          "type": "address"
        }
      ],
      "name": "playerInfo",
      "outputs": [
        {
          "internalType": "uint256",
          "name": "",
          "type": "uint256"
        }
      ],
      "stateMutability": "view",
      "type": "function"
    },
    {
      "inputs": [
        {
          "internalType": "uint256",
          "name": "",
          "type": "uint256"
        }
      ],
      "name": "players",
      "outputs": [
        {
          "internalType": "address",
          "name": "playerAddress",
          "type": "address"
        },
        {
          "internalType": "string",
          "name": "playerName",
          "type": "string"
        },
        {
          "internalType": "string",
          "name": "emailId",
          "type": "string"
        }
      ],
      "stateMutability": "view",
      "type": "function"
    },
    {
      "inputs": [
        {
          "internalType": "address",
          "name": "_address",
          "type": "address"
        },
        {
          "internalType": "string",
          "name": "_name",
          "type": "string"
        },
        {
          "internalType": "string",
          "name": "_email",
          "type": "string"
        }
      ],
      "name": "registerPlayer",
      "outputs": [],
      "stateMutability": "nonpayable",
      "type": "function"
    },
    {
      "inputs": [],
      "name": "renounceOwnership",
      "outputs": [],
      "stateMutability": "nonpayable",
      "type": "function"
    },
    {
      "inputs": [
        {
          "internalType": "address",
          "name": "from",
          "type": "address"
        },
        {
          "internalType": "address",
          "name": "to",
          "type": "address"
        },
        {
          "internalType": "uint256",
          "name": "tokenId",
          "type": "uint256"
        }
      ],
      "name": "safeTransferFrom",
      "outputs": [],
      "stateMutability": "nonpayable",
      "type": "function"
    },
    {
      "inputs": [
        {
          "internalType": "address",
          "name": "from",
          "type": "address"
        },
        {
          "internalType": "address",
          "name": "to",
          "type": "address"
        },
        {
          "internalType": "uint256",
          "name": "tokenId",
          "type": "uint256"
        },
        {
          "internalType": "bytes",
          "name": "data",
          "type": "bytes"
        }
      ],
      "name": "safeTransferFrom",
      "outputs": [],
      "stateMutability": "nonpayable",
      "type": "function"
    },
    {
      "inputs": [
        {
          "internalType": "address",
          "name": "operator",
          "type": "address"
        },
        {
          "internalType": "bool",
          "name": "approved",
          "type": "bool"
        }
      ],
      "name": "setApprovalForAll",
      "outputs": [],
      "stateMutability": "nonpayable",
      "type": "function"
    },
    {
      "inputs": [
        {
          "internalType": "bytes4",
          "name": "interfaceId",
          "type": "bytes4"
        }
      ],
      "name": "supportsInterface",
      "outputs": [
        {
          "internalType": "bool",
          "name": "",
          "type": "bool"
        }
      ],
      "stateMutability": "view",
      "type": "function"
    },
    {
      "inputs": [],
      "name": "symbol",
      "outputs": [
        {
          "internalType": "string",
          "name": "",
          "type": "string"
        }
      ],
      "stateMutability": "view",
      "type": "function"
    },
    {
      "inputs": [
        {
          "internalType": "uint256",
          "name": "tokenId",
          "type": "uint256"
        }
      ],
      "name": "tokenURI",
      "outputs": [
        {
          "internalType": "string",
          "name": "",
          "type": "string"
        }
      ],
      "stateMutability": "view",
      "type": "function"
    },
    {
      "inputs": [
        {
          "internalType": "address",
          "name": "from",
          "type": "address"
        },
        {
          "internalType": "address",
          "name": "to",
          "type": "address"
        },
        {
          "internalType": "uint256",
          "name": "tokenId",
          "type": "uint256"
        }
      ],
      "name": "transferFrom",
      "outputs": [],
      "stateMutability": "nonpayable",
      "type": "function"
    },
    {
      "inputs": [
        {
          "internalType": "address",
          "name": "newOwner",
          "type": "address"
        }
      ],
      "name": "transferOwnership",
      "outputs": [],
      "stateMutability": "nonpayable",
      "type": "function"
    }
  ],
  "bytecode": "0x60806040523480156200001157600080fd5b506040516200423b3803806200423b833981810160405281019062000037919062000471565b806040518060400160405280600681526020017f4e465454434700000000000000000000000000000000000000000000000000008152506040518060400160405280600381526020017f54434700000000000000000000000000000000000000000000000000000000008152508160009081620000b591906200071d565b508060019081620000c791906200071d565b505050600073ffffffffffffffffffffffffffffffffffffffff168173ffffffffffffffffffffffffffffffffffffffff16036200013f5760006040517f1e4fbdf700000000000000000000000000000000000000000000000000000000815260040162000136919062000815565b60405180910390fd5b62000150816200016860201b60201c565b50620001616200022e60201b60201c565b5062000832565b6000600760009054906101000a900473ffffffffffffffffffffffffffffffffffffffff16905081600760006101000a81548173ffffffffffffffffffffffffffffffffffffffff021916908373ffffffffffffffffffffffffffffffffffffffff1602179055508173ffffffffffffffffffffffffffffffffffffffff168173ffffffffffffffffffffffffffffffffffffffff167f8be0079c531659141344cd1fd0a4f28419497f9722a3daafe3b4186f6b6457e060405160405180910390a35050565b600b6040518060800160405280600073ffffffffffffffffffffffffffffffffffffffff168152602001604051806020016040528060008152508152602001604051806020016040528060008152508152602001600067ffffffffffffffff811115620002a0576200029f620004ae565b5b604051908082528060200260200182016040528015620002cf5781602001602082028036833780820191505090505b50815250908060018154018082558091505060019003906000526020600020906004020160009091909190915060008201518160000160006101000a81548173ffffffffffffffffffffffffffffffffffffffff021916908373ffffffffffffffffffffffffffffffffffffffff16021790555060208201518160010190816200035a91906200071d565b5060408201518160020190816200037291906200071d565b5060608201518160030190805190602001906200039192919062000396565b505050565b828054828255906000526020600020908101928215620003d5579160200282015b82811115620003d4578251825591602001919060010190620003b7565b5b509050620003e49190620003e8565b5090565b5b8082111562000403576000816000905550600101620003e9565b5090565b600080fd5b600073ffffffffffffffffffffffffffffffffffffffff82169050919050565b600062000439826200040c565b9050919050565b6200044b816200042c565b81146200045757600080fd5b50565b6000815190506200046b8162000440565b92915050565b6000602082840312156200048a576200048962000407565b5b60006200049a848285016200045a565b91505092915050565b600081519050919050565b7f4e487b7100000000000000000000000000000000000000000000000000000000600052604160045260246000fd5b7f4e487b7100000000000000000000000000000000000000000000000000000000600052602260045260246000fd5b600060028204905060018216806200052557607f821691505b6020821081036200053b576200053a620004dd565b5b50919050565b60008190508160005260206000209050919050565b60006020601f8301049050919050565b600082821b905092915050565b600060088302620005a57fffffffffffffffffffffffffffffffffffffffffffffffffffffffffffffffff8262000566565b620005b1868362000566565b95508019841693508086168417925050509392505050565b6000819050919050565b6000819050919050565b6000620005fe620005f8620005f284620005c9565b620005d3565b620005c9565b9050919050565b6000819050919050565b6200061a83620005dd565b62000632620006298262000605565b84845462000573565b825550505050565b600090565b620006496200063a565b620006568184846200060f565b505050565b5b818110156200067e57620006726000826200063f565b6001810190506200065c565b5050565b601f821115620006cd57620006978162000541565b620006a28462000556565b81016020851015620006b2578190505b620006ca620006c18562000556565b8301826200065b565b50505b505050565b600082821c905092915050565b6000620006f260001984600802620006d2565b1980831691505092915050565b60006200070d8383620006df565b9150826002028217905092915050565b6200072882620004a3565b67ffffffffffffffff811115620007445762000743620004ae565b5b6200075082546200050c565b6200075d82828562000682565b600060209050601f83116001811462000795576000841562000780578287015190505b6200078c8582620006ff565b865550620007fc565b601f198416620007a58662000541565b60005b82811015620007cf57848901518255600182019150602085019450602081019050620007a8565b86831015620007ef5784890151620007eb601f891682620006df565b8355505b6001600288020188555050505b505050505050565b6200080f816200042c565b82525050565b60006020820190506200082c600083018462000804565b92915050565b6139f980620008426000396000f3fe6080604052600436106101815760003560e01c806370a08231116100d1578063ac89fa631161008a578063e985e9c511610064578063e985e9c5146105ab578063efa1c482146105e8578063f2fde38b14610613578063f71d96cb1461063c57610181565b8063ac89fa6314610508578063b88d4fde14610545578063c87b56dd1461056e57610181565b806370a082311461040c578063715018a6146104495780638da5cb5b1461046057806395d89b411461048b578063a22cb465146104b6578063ab01d9a3146104df57610181565b806323b872dd1161013e5780634b114691116101185780634b114691146103395780635c12cd4b14610376578063615fd9e2146103b35780636352211e146103cf57610181565b806323b872dd146102bc57806342842e0e146102e55780634a60f6201461030e57610181565b806301ffc9a71461018657806306661abd146101c357806306fdde03146101ee578063081812fc14610219578063095ea7b31461025657806309c95e101461027f575b600080fd5b34801561019257600080fd5b506101ad60048036038101906101a8919061290f565b61067b565b6040516101ba9190612957565b60405180910390f35b3480156101cf57600080fd5b506101d861068d565b6040516101e5919061298b565b60405180910390f35b3480156101fa57600080fd5b50610203610697565b6040516102109190612a36565b60405180910390f35b34801561022557600080fd5b50610240600480360381019061023b9190612a84565b610729565b60405161024d9190612af2565b60405180910390f35b34801561026257600080fd5b5061027d60048036038101906102789190612b39565b610745565b005b34801561028b57600080fd5b506102a660048036038101906102a19190612b79565b61075b565b6040516102b39190612957565b60405180910390f35b3480156102c857600080fd5b506102e360048036038101906102de9190612ba6565b6107b6565b005b3480156102f157600080fd5b5061030c60048036038101906103079190612ba6565b6108b8565b005b34801561031a57600080fd5b506103236108d8565b604051610330919061298b565b60405180910390f35b34801561034557600080fd5b50610360600480360381019061035b9190612b79565b6108de565b60405161036d919061298b565b60405180910390f35b34801561038257600080fd5b5061039d60048036038101906103989190612b79565b6108f6565b6040516103aa9190612d81565b60405180910390f35b6103cd60048036038101906103c89190612ed8565b610b8b565b005b3480156103db57600080fd5b506103f660048036038101906103f19190612a84565b610d3b565b6040516104039190612af2565b60405180910390f35b34801561041857600080fd5b50610433600480360381019061042e9190612b79565b610d4d565b604051610440919061298b565b60405180910390f35b34801561045557600080fd5b5061045e610e07565b005b34801561046c57600080fd5b50610475610e1b565b6040516104829190612af2565b60405180910390f35b34801561049757600080fd5b506104a0610e45565b6040516104ad9190612a36565b60405180910390f35b3480156104c257600080fd5b506104dd60048036038101906104d89190612f60565b610ed7565b005b3480156104eb57600080fd5b5061050660048036038101906105019190612fa0565b610eed565b005b34801561051457600080fd5b5061052f600480360381019061052a9190612a84565b611115565b60405161053c9190612af2565b60405180910390f35b34801561055157600080fd5b5061056c600480360381019061056791906130cc565b611148565b005b34801561057a57600080fd5b5061059560048036038101906105909190612a84565b611165565b6040516105a29190612a36565b60405180910390f35b3480156105b757600080fd5b506105d260048036038101906105cd919061314f565b611177565b6040516105df9190612957565b60405180910390f35b3480156105f457600080fd5b506105fd61120b565b60405161060a91906132c2565b60405180910390f35b34801561061f57600080fd5b5061063a60048036038101906106359190612b79565b61143c565b005b34801561064857600080fd5b50610663600480360381019061065e9190612a84565b6114c2565b604051610672939291906132e4565b60405180910390f35b60006106868261162c565b9050919050565b6000600854905090565b6060600080546106a690613358565b80601f01602080910402602001604051908101604052809291908181526020018280546106d290613358565b801561071f5780601f106106f45761010080835404028352916020019161071f565b820191906000526020600020905b81548152906001019060200180831161070257829003601f168201915b5050505050905090565b60006107348261168d565b5061073e82611715565b9050919050565b6107578282610752611752565b61175a565b5050565b600080600960008473ffffffffffffffffffffffffffffffffffffffff1673ffffffffffffffffffffffffffffffffffffffff16815260200190815260200160002054036107ac57600090506107b1565b600190505b919050565b600073ffffffffffffffffffffffffffffffffffffffff168273ffffffffffffffffffffffffffffffffffffffff16036108285760006040517f64a0ae9200000000000000000000000000000000000000000000000000000000815260040161081f9190612af2565b60405180910390fd5b600061083c8383610837611752565b61176c565b90508373ffffffffffffffffffffffffffffffffffffffff168173ffffffffffffffffffffffffffffffffffffffff16146108b2578382826040517f64283d7b0000000000000000000000000000000000000000000000000000000081526004016108a993929190613389565b60405180910390fd5b50505050565b6108d383838360405180602001604052806000815250611148565b505050565b60085481565b60096020528060005260406000206000915090505481565b6108fe6127fb565b6109078261075b565b610946576040517f08c379a000000000000000000000000000000000000000000000000000000000815260040161093d9061340c565b60405180910390fd5b600b600960008473ffffffffffffffffffffffffffffffffffffffff1673ffffffffffffffffffffffffffffffffffffffff16815260200190815260200160002054815481106109995761099861342c565b5b90600052602060002090600402016040518060800160405290816000820160009054906101000a900473ffffffffffffffffffffffffffffffffffffffff1673ffffffffffffffffffffffffffffffffffffffff1673ffffffffffffffffffffffffffffffffffffffff168152602001600182018054610a1890613358565b80601f0160208091040260200160405190810160405280929190818152602001828054610a4490613358565b8015610a915780601f10610a6657610100808354040283529160200191610a91565b820191906000526020600020905b815481529060010190602001808311610a7457829003601f168201915b50505050508152602001600282018054610aaa90613358565b80601f0160208091040260200160405190810160405280929190818152602001828054610ad690613358565b8015610b235780601f10610af857610100808354040283529160200191610b23565b820191906000526020600020905b815481529060010190602001808311610b0657829003601f168201915b5050505050815260200160038201805480602002602001604051908101604052809291908181526020018280548015610b7b57602002820191906000526020600020905b815481526020019060010190808311610b67575b5050505050815250509050919050565b66b1a2bc2ec50000341015610bd5576040517f08c379a0000000000000000000000000000000000000000000000000000000008152600401610bcc906134a7565b60405180910390fd5b600060086000815480929190610bea906134f6565b919050559050610bfa8382611986565b610c048183611a7f565b808373ffffffffffffffffffffffffffffffffffffffff167fd35bb95e09c04b219e35047ce7b7b300e3384264ef84a40456943dbc0fc17c1484604051610c4b9190612a36565b60405180910390a36000600960008573ffffffffffffffffffffffffffffffffffffffff1673ffffffffffffffffffffffffffffffffffffffff168152602001908152602001600020549050600b8181548110610cab57610caa61342c565b5b906000526020600020906004020160030182908060018154018082558091505060019003906000526020600020016000909190919091505583600a600084815260200190815260200160002060006101000a81548173ffffffffffffffffffffffffffffffffffffffff021916908373ffffffffffffffffffffffffffffffffffffffff16021790555050505050565b6000610d468261168d565b9050919050565b60008073ffffffffffffffffffffffffffffffffffffffff168273ffffffffffffffffffffffffffffffffffffffff1603610dc05760006040517f89c62b64000000000000000000000000000000000000000000000000000000008152600401610db79190612af2565b60405180910390fd5b600360008373ffffffffffffffffffffffffffffffffffffffff1673ffffffffffffffffffffffffffffffffffffffff168152602001908152602001600020549050919050565b610e0f611adb565b610e196000611b62565b565b6000600760009054906101000a900473ffffffffffffffffffffffffffffffffffffffff16905090565b606060018054610e5490613358565b80601f0160208091040260200160405190810160405280929190818152602001828054610e8090613358565b8015610ecd5780601f10610ea257610100808354040283529160200191610ecd565b820191906000526020600020905b815481529060010190602001808311610eb057829003601f168201915b5050505050905090565b610ee9610ee2611752565b8383611c28565b5050565b610ef68361075b565b15610f36576040517f08c379a0000000000000000000000000000000000000000000000000000000008152600401610f2d9061358a565b60405180910390fd5b6000600b805490509050600b60405180608001604052808673ffffffffffffffffffffffffffffffffffffffff168152602001858152602001848152602001600067ffffffffffffffff811115610f9057610f8f612dad565b5b604051908082528060200260200182016040528015610fbe5781602001602082028036833780820191505090505b50815250908060018154018082558091505060019003906000526020600020906004020160009091909190915060008201518160000160006101000a81548173ffffffffffffffffffffffffffffffffffffffff021916908373ffffffffffffffffffffffffffffffffffffffff16021790555060208201518160010190816110479190613756565b50604082015181600201908161105d9190613756565b50606082015181600301908051906020019061107a929190612839565b50505080600960008673ffffffffffffffffffffffffffffffffffffffff1673ffffffffffffffffffffffffffffffffffffffff168152602001908152602001600020819055508373ffffffffffffffffffffffffffffffffffffffff167f81ef79d1cda814a60c0fc60792e648a06d9c6bae67176346d1cc8b63030bfccd846040516111079190612a36565b60405180910390a250505050565b600a6020528060005260406000206000915054906101000a900473ffffffffffffffffffffffffffffffffffffffff1681565b6111538484846107b6565b61115f84848484611d97565b50505050565b606061117082611f4e565b9050919050565b6000600560008473ffffffffffffffffffffffffffffffffffffffff1673ffffffffffffffffffffffffffffffffffffffff16815260200190815260200160002060008373ffffffffffffffffffffffffffffffffffffffff1673ffffffffffffffffffffffffffffffffffffffff16815260200190815260200160002060009054906101000a900460ff16905092915050565b6060600b805480602002602001604051908101604052809291908181526020016000905b8282101561143357838290600052602060002090600402016040518060800160405290816000820160009054906101000a900473ffffffffffffffffffffffffffffffffffffffff1673ffffffffffffffffffffffffffffffffffffffff1673ffffffffffffffffffffffffffffffffffffffff1681526020016001820180546112b890613358565b80601f01602080910402602001604051908101604052809291908181526020018280546112e490613358565b80156113315780601f1061130657610100808354040283529160200191611331565b820191906000526020600020905b81548152906001019060200180831161131457829003601f168201915b5050505050815260200160028201805461134a90613358565b80601f016020809104026020016040519081016040528092919081815260200182805461137690613358565b80156113c35780601f10611398576101008083540402835291602001916113c3565b820191906000526020600020905b8154815290600101906020018083116113a657829003601f168201915b505050505081526020016003820180548060200260200160405190810160405280929190818152602001828054801561141b57602002820191906000526020600020905b815481526020019060010190808311611407575b5050505050815250508152602001906001019061122f565b50505050905090565b611444611adb565b600073ffffffffffffffffffffffffffffffffffffffff168173ffffffffffffffffffffffffffffffffffffffff16036114b65760006040517f1e4fbdf70000000000000000000000000000000000000000000000000000000081526004016114ad9190612af2565b60405180910390fd5b6114bf81611b62565b50565b600b81815481106114d257600080fd5b90600052602060002090600402016000915090508060000160009054906101000a900473ffffffffffffffffffffffffffffffffffffffff169080600101805461151b90613358565b80601f016020809104026020016040519081016040528092919081815260200182805461154790613358565b80156115945780601f1061156957610100808354040283529160200191611594565b820191906000526020600020905b81548152906001019060200180831161157757829003601f168201915b5050505050908060020180546115a990613358565b80601f01602080910402602001604051908101604052809291908181526020018280546115d590613358565b80156116225780601f106115f757610100808354040283529160200191611622565b820191906000526020600020905b81548152906001019060200180831161160557829003601f168201915b5050505050905083565b6000634906490660e01b7bffffffffffffffffffffffffffffffffffffffffffffffffffffffff1916827bffffffffffffffffffffffffffffffffffffffffffffffffffffffff19161480611686575061168582612061565b5b9050919050565b60008061169983612143565b9050600073ffffffffffffffffffffffffffffffffffffffff168173ffffffffffffffffffffffffffffffffffffffff160361170c57826040517f7e273289000000000000000000000000000000000000000000000000000000008152600401611703919061298b565b60405180910390fd5b80915050919050565b60006004600083815260200190815260200160002060009054906101000a900473ffffffffffffffffffffffffffffffffffffffff169050919050565b600033905090565b6117678383836001612180565b505050565b60008061177884612143565b9050600073ffffffffffffffffffffffffffffffffffffffff168373ffffffffffffffffffffffffffffffffffffffff16146117ba576117b9818486612345565b5b600073ffffffffffffffffffffffffffffffffffffffff168173ffffffffffffffffffffffffffffffffffffffff161461184b576117fc600085600080612180565b6001600360008373ffffffffffffffffffffffffffffffffffffffff1673ffffffffffffffffffffffffffffffffffffffff168152602001908152602001600020600082825403925050819055505b600073ffffffffffffffffffffffffffffffffffffffff168573ffffffffffffffffffffffffffffffffffffffff16146118ce576001600360008773ffffffffffffffffffffffffffffffffffffffff1673ffffffffffffffffffffffffffffffffffffffff168152602001908152602001600020600082825401925050819055505b846002600086815260200190815260200160002060006101000a81548173ffffffffffffffffffffffffffffffffffffffff021916908373ffffffffffffffffffffffffffffffffffffffff160217905550838573ffffffffffffffffffffffffffffffffffffffff168273ffffffffffffffffffffffffffffffffffffffff167fddf252ad1be2c89b69c2b068fc378daa952ba7f163c4a11628f55a4df523b3ef60405160405180910390a4809150509392505050565b600073ffffffffffffffffffffffffffffffffffffffff168273ffffffffffffffffffffffffffffffffffffffff16036119f85760006040517f64a0ae920000000000000000000000000000000000000000000000000000000081526004016119ef9190612af2565b60405180910390fd5b6000611a068383600061176c565b9050600073ffffffffffffffffffffffffffffffffffffffff168173ffffffffffffffffffffffffffffffffffffffff1614611a7a5760006040517f73c6ac6e000000000000000000000000000000000000000000000000000000008152600401611a719190612af2565b60405180910390fd5b505050565b80600660008481526020019081526020016000209081611a9f9190613756565b507ff8e1a15aba9398e019f0b49df1a4fde98ee17ae345cb5f6b5e2c27f5033e8ce782604051611acf919061298b565b60405180910390a15050565b611ae3611752565b73ffffffffffffffffffffffffffffffffffffffff16611b01610e1b565b73ffffffffffffffffffffffffffffffffffffffff1614611b6057611b24611752565b6040517f118cdaa7000000000000000000000000000000000000000000000000000000008152600401611b579190612af2565b60405180910390fd5b565b6000600760009054906101000a900473ffffffffffffffffffffffffffffffffffffffff16905081600760006101000a81548173ffffffffffffffffffffffffffffffffffffffff021916908373ffffffffffffffffffffffffffffffffffffffff1602179055508173ffffffffffffffffffffffffffffffffffffffff168173ffffffffffffffffffffffffffffffffffffffff167f8be0079c531659141344cd1fd0a4f28419497f9722a3daafe3b4186f6b6457e060405160405180910390a35050565b600073ffffffffffffffffffffffffffffffffffffffff168273ffffffffffffffffffffffffffffffffffffffff1603611c9957816040517f5b08ba18000000000000000000000000000000000000000000000000000000008152600401611c909190612af2565b60405180910390fd5b80600560008573ffffffffffffffffffffffffffffffffffffffff1673ffffffffffffffffffffffffffffffffffffffff16815260200190815260200160002060008473ffffffffffffffffffffffffffffffffffffffff1673ffffffffffffffffffffffffffffffffffffffff16815260200190815260200160002060006101000a81548160ff0219169083151502179055508173ffffffffffffffffffffffffffffffffffffffff168373ffffffffffffffffffffffffffffffffffffffff167f17307eab39ab6107e8899845ad3d59bd9653f200f220920489ca2b5937696c3183604051611d8a9190612957565b60405180910390a3505050565b60008373ffffffffffffffffffffffffffffffffffffffff163b1115611f48578273ffffffffffffffffffffffffffffffffffffffff1663150b7a02611ddb611752565b8685856040518563ffffffff1660e01b8152600401611dfd949392919061387d565b6020604051808303816000875af1925050508015611e3957506040513d601f19601f82011682018060405250810190611e3691906138de565b60015b611ebd573d8060008114611e69576040519150601f19603f3d011682016040523d82523d6000602084013e611e6e565b606091505b506000815103611eb557836040517f64a0ae92000000000000000000000000000000000000000000000000000000008152600401611eac9190612af2565b60405180910390fd5b805181602001fd5b63150b7a0260e01b7bffffffffffffffffffffffffffffffffffffffffffffffffffffffff1916817bffffffffffffffffffffffffffffffffffffffffffffffffffffffff191614611f4657836040517f64a0ae92000000000000000000000000000000000000000000000000000000008152600401611f3d9190612af2565b60405180910390fd5b505b50505050565b6060611f598261168d565b506000600660008481526020019081526020016000208054611f7a90613358565b80601f0160208091040260200160405190810160405280929190818152602001828054611fa690613358565b8015611ff35780601f10611fc857610100808354040283529160200191611ff3565b820191906000526020600020905b815481529060010190602001808311611fd657829003601f168201915b505050505090506000612004612409565b9050600081510361201957819250505061205c565b60008251111561204e578082604051602001612036929190613947565b6040516020818303038152906040529250505061205c565b61205784612446565b925050505b919050565b60007f80ac58cd000000000000000000000000000000000000000000000000000000007bffffffffffffffffffffffffffffffffffffffffffffffffffffffff1916827bffffffffffffffffffffffffffffffffffffffffffffffffffffffff1916148061212c57507f5b5e139f000000000000000000000000000000000000000000000000000000007bffffffffffffffffffffffffffffffffffffffffffffffffffffffff1916827bffffffffffffffffffffffffffffffffffffffffffffffffffffffff1916145b8061213c575061213b826124af565b5b9050919050565b60006002600083815260200190815260200160002060009054906101000a900473ffffffffffffffffffffffffffffffffffffffff169050919050565b80806121b95750600073ffffffffffffffffffffffffffffffffffffffff168273ffffffffffffffffffffffffffffffffffffffff1614155b156122ed5760006121c98461168d565b9050600073ffffffffffffffffffffffffffffffffffffffff168373ffffffffffffffffffffffffffffffffffffffff161415801561223457508273ffffffffffffffffffffffffffffffffffffffff168173ffffffffffffffffffffffffffffffffffffffff1614155b801561224757506122458184611177565b155b1561228957826040517fa9fbf51f0000000000000000000000000000000000000000000000000000000081526004016122809190612af2565b60405180910390fd5b81156122eb57838573ffffffffffffffffffffffffffffffffffffffff168273ffffffffffffffffffffffffffffffffffffffff167f8c5be1e5ebec7d5bd14f71427d1e84f3dd0314c0f7b2291e5b200ac8c7c3b92560405160405180910390a45b505b836004600085815260200190815260200160002060006101000a81548173ffffffffffffffffffffffffffffffffffffffff021916908373ffffffffffffffffffffffffffffffffffffffff16021790555050505050565b612350838383612519565b61240457600073ffffffffffffffffffffffffffffffffffffffff168373ffffffffffffffffffffffffffffffffffffffff16036123c557806040517f7e2732890000000000000000000000000000000000000000000000000000000081526004016123bc919061298b565b60405180910390fd5b81816040517f177e802f0000000000000000000000000000000000000000000000000000000081526004016123fb92919061396b565b60405180910390fd5b505050565b60606040518060400160405280600781526020017f697066733a2f2f00000000000000000000000000000000000000000000000000815250905090565b60606124518261168d565b50600061245c612409565b9050600081511161247c57604051806020016040528060008152506124a7565b80612486846125da565b604051602001612497929190613947565b6040516020818303038152906040525b915050919050565b60007f01ffc9a7000000000000000000000000000000000000000000000000000000007bffffffffffffffffffffffffffffffffffffffffffffffffffffffff1916827bffffffffffffffffffffffffffffffffffffffffffffffffffffffff1916149050919050565b60008073ffffffffffffffffffffffffffffffffffffffff168373ffffffffffffffffffffffffffffffffffffffff16141580156125d157508273ffffffffffffffffffffffffffffffffffffffff168473ffffffffffffffffffffffffffffffffffffffff16148061259257506125918484611177565b5b806125d057508273ffffffffffffffffffffffffffffffffffffffff166125b883611715565b73ffffffffffffffffffffffffffffffffffffffff16145b5b90509392505050565b6060600060016125e9846126a8565b01905060008167ffffffffffffffff81111561260857612607612dad565b5b6040519080825280601f01601f19166020018201604052801561263a5781602001600182028036833780820191505090505b509050600082602001820190505b60011561269d578080600190039150507f3031323334353637383961626364656600000000000000000000000000000000600a86061a8153600a858161269157612690613994565b5b04945060008503612648575b819350505050919050565b600080600090507a184f03e93ff9f4daa797ed6e38ed64bf6a1f0100000000000000008310612706577a184f03e93ff9f4daa797ed6e38ed64bf6a1f01000000000000000083816126fc576126fb613994565b5b0492506040810190505b6d04ee2d6d415b85acef81000000008310612743576d04ee2d6d415b85acef8100000000838161273957612738613994565b5b0492506020810190505b662386f26fc10000831061277257662386f26fc10000838161276857612767613994565b5b0492506010810190505b6305f5e100831061279b576305f5e100838161279157612790613994565b5b0492506008810190505b61271083106127c05761271083816127b6576127b5613994565b5b0492506004810190505b606483106127e357606483816127d9576127d8613994565b5b0492506002810190505b600a83106127f2576001810190505b80915050919050565b6040518060800160405280600073ffffffffffffffffffffffffffffffffffffffff1681526020016060815260200160608152602001606081525090565b828054828255906000526020600020908101928215612875579160200282015b82811115612874578251825591602001919060010190612859565b5b5090506128829190612886565b5090565b5b8082111561289f576000816000905550600101612887565b5090565b6000604051905090565b600080fd5b600080fd5b60007fffffffff0000000000000000000000000000000000000000000000000000000082169050919050565b6128ec816128b7565b81146128f757600080fd5b50565b600081359050612909816128e3565b92915050565b600060208284031215612925576129246128ad565b5b6000612933848285016128fa565b91505092915050565b60008115159050919050565b6129518161293c565b82525050565b600060208201905061296c6000830184612948565b92915050565b6000819050919050565b61298581612972565b82525050565b60006020820190506129a0600083018461297c565b92915050565b600081519050919050565b600082825260208201905092915050565b60005b838110156129e05780820151818401526020810190506129c5565b60008484015250505050565b6000601f19601f8301169050919050565b6000612a08826129a6565b612a1281856129b1565b9350612a228185602086016129c2565b612a2b816129ec565b840191505092915050565b60006020820190508181036000830152612a5081846129fd565b905092915050565b612a6181612972565b8114612a6c57600080fd5b50565b600081359050612a7e81612a58565b92915050565b600060208284031215612a9a57612a996128ad565b5b6000612aa884828501612a6f565b91505092915050565b600073ffffffffffffffffffffffffffffffffffffffff82169050919050565b6000612adc82612ab1565b9050919050565b612aec81612ad1565b82525050565b6000602082019050612b076000830184612ae3565b92915050565b612b1681612ad1565b8114612b2157600080fd5b50565b600081359050612b3381612b0d565b92915050565b60008060408385031215612b5057612b4f6128ad565b5b6000612b5e85828601612b24565b9250506020612b6f85828601612a6f565b9150509250929050565b600060208284031215612b8f57612b8e6128ad565b5b6000612b9d84828501612b24565b91505092915050565b600080600060608486031215612bbf57612bbe6128ad565b5b6000612bcd86828701612b24565b9350506020612bde86828701612b24565b9250506040612bef86828701612a6f565b9150509250925092565b612c0281612ad1565b82525050565b600082825260208201905092915050565b6000612c24826129a6565b612c2e8185612c08565b9350612c3e8185602086016129c2565b612c47816129ec565b840191505092915050565b600081519050919050565b600082825260208201905092915050565b6000819050602082019050919050565b612c8781612972565b82525050565b6000612c998383612c7e565b60208301905092915050565b6000602082019050919050565b6000612cbd82612c52565b612cc78185612c5d565b9350612cd283612c6e565b8060005b83811015612d03578151612cea8882612c8d565b9750612cf583612ca5565b925050600181019050612cd6565b5085935050505092915050565b6000608083016000830151612d286000860182612bf9565b5060208301518482036020860152612d408282612c19565b91505060408301518482036040860152612d5a8282612c19565b91505060608301518482036060860152612d748282612cb2565b9150508091505092915050565b60006020820190508181036000830152612d9b8184612d10565b905092915050565b600080fd5b600080fd5b7f4e487b7100000000000000000000000000000000000000000000000000000000600052604160045260246000fd5b612de5826129ec565b810181811067ffffffffffffffff82111715612e0457612e03612dad565b5b80604052505050565b6000612e176128a3565b9050612e238282612ddc565b919050565b600067ffffffffffffffff821115612e4357612e42612dad565b5b612e4c826129ec565b9050602081019050919050565b82818337600083830152505050565b6000612e7b612e7684612e28565b612e0d565b905082815260208101848484011115612e9757612e96612da8565b5b612ea2848285612e59565b509392505050565b600082601f830112612ebf57612ebe612da3565b5b8135612ecf848260208601612e68565b91505092915050565b60008060408385031215612eef57612eee6128ad565b5b6000612efd85828601612b24565b925050602083013567ffffffffffffffff811115612f1e57612f1d6128b2565b5b612f2a85828601612eaa565b9150509250929050565b612f3d8161293c565b8114612f4857600080fd5b50565b600081359050612f5a81612f34565b92915050565b60008060408385031215612f7757612f766128ad565b5b6000612f8585828601612b24565b9250506020612f9685828601612f4b565b9150509250929050565b600080600060608486031215612fb957612fb86128ad565b5b6000612fc786828701612b24565b935050602084013567ffffffffffffffff811115612fe857612fe76128b2565b5b612ff486828701612eaa565b925050604084013567ffffffffffffffff811115613015576130146128b2565b5b61302186828701612eaa565b9150509250925092565b600067ffffffffffffffff82111561304657613045612dad565b5b61304f826129ec565b9050602081019050919050565b600061306f61306a8461302b565b612e0d565b90508281526020810184848401111561308b5761308a612da8565b5b613096848285612e59565b509392505050565b600082601f8301126130b3576130b2612da3565b5b81356130c384826020860161305c565b91505092915050565b600080600080608085870312156130e6576130e56128ad565b5b60006130f487828801612b24565b945050602061310587828801612b24565b935050604061311687828801612a6f565b925050606085013567ffffffffffffffff811115613137576131366128b2565b5b6131438782880161309e565b91505092959194509250565b60008060408385031215613166576131656128ad565b5b600061317485828601612b24565b925050602061318585828601612b24565b9150509250929050565b600081519050919050565b600082825260208201905092915050565b6000819050602082019050919050565b60006080830160008301516131d36000860182612bf9565b50602083015184820360208601526131eb8282612c19565b915050604083015184820360408601526132058282612c19565b9150506060830151848203606086015261321f8282612cb2565b9150508091505092915050565b600061323883836131bb565b905092915050565b6000602082019050919050565b60006132588261318f565b613262818561319a565b935083602082028501613274856131ab565b8060005b858110156132b05784840389528151613291858261322c565b945061329c83613240565b925060208a01995050600181019050613278565b50829750879550505050505092915050565b600060208201905081810360008301526132dc818461324d565b905092915050565b60006060820190506132f96000830186612ae3565b818103602083015261330b81856129fd565b9050818103604083015261331f81846129fd565b9050949350505050565b7f4e487b7100000000000000000000000000000000000000000000000000000000600052602260045260246000fd5b6000600282049050600182168061337057607f821691505b60208210810361338357613382613329565b5b50919050565b600060608201905061339e6000830186612ae3565b6133ab602083018561297c565b6133b86040830184612ae3565b949350505050565b7f506c6179657220646f65736e2774206578697374210000000000000000000000600082015250565b60006133f66015836129b1565b9150613401826133c0565b602082019050919050565b60006020820190508181036000830152613425816133e9565b9050919050565b7f4e487b7100000000000000000000000000000000000000000000000000000000600052603260045260246000fd5b7f4e65656420746f20706179207570210000000000000000000000000000000000600082015250565b6000613491600f836129b1565b915061349c8261345b565b602082019050919050565b600060208201905081810360008301526134c081613484565b9050919050565b7f4e487b7100000000000000000000000000000000000000000000000000000000600052601160045260246000fd5b600061350182612972565b91507fffffffffffffffffffffffffffffffffffffffffffffffffffffffffffffffff8203613533576135326134c7565b5b600182019050919050565b7f506c6179657220616c7265616479207265676973746572656400000000000000600082015250565b60006135746019836129b1565b915061357f8261353e565b602082019050919050565b600060208201905081810360008301526135a381613567565b9050919050565b60008190508160005260206000209050919050565b60006020601f8301049050919050565b600082821b905092915050565b60006008830261360c7fffffffffffffffffffffffffffffffffffffffffffffffffffffffffffffffff826135cf565b61361686836135cf565b95508019841693508086168417925050509392505050565b6000819050919050565b600061365361364e61364984612972565b61362e565b612972565b9050919050565b6000819050919050565b61366d83613638565b6136816136798261365a565b8484546135dc565b825550505050565b600090565b613696613689565b6136a1818484613664565b505050565b5b818110156136c5576136ba60008261368e565b6001810190506136a7565b5050565b601f82111561370a576136db816135aa565b6136e4846135bf565b810160208510156136f3578190505b6137076136ff856135bf565b8301826136a6565b50505b505050565b600082821c905092915050565b600061372d6000198460080261370f565b1980831691505092915050565b6000613746838361371c565b9150826002028217905092915050565b61375f826129a6565b67ffffffffffffffff81111561377857613777612dad565b5b6137828254613358565b61378d8282856136c9565b600060209050601f8311600181146137c057600084156137ae578287015190505b6137b8858261373a565b865550613820565b601f1984166137ce866135aa565b60005b828110156137f6578489015182556001820191506020850194506020810190506137d1565b86831015613813578489015161380f601f89168261371c565b8355505b6001600288020188555050505b505050505050565b600081519050919050565b600082825260208201905092915050565b600061384f82613828565b6138598185613833565b93506138698185602086016129c2565b613872816129ec565b840191505092915050565b60006080820190506138926000830187612ae3565b61389f6020830186612ae3565b6138ac604083018561297c565b81810360608301526138be8184613844565b905095945050505050565b6000815190506138d8816128e3565b92915050565b6000602082840312156138f4576138f36128ad565b5b6000613902848285016138c9565b91505092915050565b600081905092915050565b6000613921826129a6565b61392b818561390b565b935061393b8185602086016129c2565b80840191505092915050565b60006139538285613916565b915061395f8284613916565b91508190509392505050565b60006040820190506139806000830185612ae3565b61398d602083018461297c565b9392505050565b7f4e487b7100000000000000000000000000000000000000000000000000000000600052601260045260246000fdfea2646970667358221220a0f8d536c20f96d95302392bd21986b04e9aa269a0c9818f970c850aa0593fe964736f6c63430008180033",
  "linkReferences": {},
  "deployedLinkReferences": {}
}