{
  "_format": "hh-sol-artifact-1",
  "contractName": "NFTTCG",
  "sourceName": "contracts/NFTTCG.sol",
  "abi": [
    {
      "inputs": [
        {
          "internalType": "address",
          "name": "initialOwner",
          "type": "address"
        }
      ],
      "stateMutability": "nonpayable",
      "type": "constructor"
    },
    {
      "inputs": [
        {
          "internalType": "address",
          "name": "sender",
          "type": "address"
        },
        {
          "internalType": "uint256",
          "name": "tokenId",
          "type": "uint256"
        },
        {
          "internalType": "address",
          "name": "owner",
          "type": "address"
        }
      ],
      "name": "ERC721IncorrectOwner",
      "type": "error"
    },
    {
      "inputs": [
        {
          "internalType": "address",
          "name": "operator",
          "type": "address"
        },
        {
          "internalType": "uint256",
          "name": "tokenId",
          "type": "uint256"
        }
      ],
      "name": "ERC721InsufficientApproval",
      "type": "error"
    },
    {
      "inputs": [
        {
          "internalType": "address",
          "name": "approver",
          "type": "address"
        }
      ],
      "name": "ERC721InvalidApprover",
      "type": "error"
    },
    {
      "inputs": [
        {
          "internalType": "address",
          "name": "operator",
          "type": "address"
        }
      ],
      "name": "ERC721InvalidOperator",
      "type": "error"
    },
    {
      "inputs": [
        {
          "internalType": "address",
          "name": "owner",
          "type": "address"
        }
      ],
      "name": "ERC721InvalidOwner",
      "type": "error"
    },
    {
      "inputs": [
        {
          "internalType": "address",
          "name": "receiver",
          "type": "address"
        }
      ],
      "name": "ERC721InvalidReceiver",
      "type": "error"
    },
    {
      "inputs": [
        {
          "internalType": "address",
          "name": "sender",
          "type": "address"
        }
      ],
      "name": "ERC721InvalidSender",
      "type": "error"
    },
    {
      "inputs": [
        {
          "internalType": "uint256",
          "name": "tokenId",
          "type": "uint256"
        }
      ],
      "name": "ERC721NonexistentToken",
      "type": "error"
    },
    {
      "inputs": [
        {
          "internalType": "address",
          "name": "owner",
          "type": "address"
        }
      ],
      "name": "OwnableInvalidOwner",
      "type": "error"
    },
    {
      "inputs": [
        {
          "internalType": "address",
          "name": "account",
          "type": "address"
        }
      ],
      "name": "OwnableUnauthorizedAccount",
      "type": "error"
    },
    {
      "anonymous": false,
      "inputs": [
        {
          "indexed": true,
          "internalType": "address",
          "name": "owner",
          "type": "address"
        },
        {
          "indexed": true,
          "internalType": "address",
          "name": "approved",
          "type": "address"
        },
        {
          "indexed": true,
          "internalType": "uint256",
          "name": "tokenId",
          "type": "uint256"
        }
      ],
      "name": "Approval",
      "type": "event"
    },
    {
      "anonymous": false,
      "inputs": [
        {
          "indexed": true,
          "internalType": "address",
          "name": "owner",
          "type": "address"
        },
        {
          "indexed": true,
          "internalType": "address",
          "name": "operator",
          "type": "address"
        },
        {
          "indexed": false,
          "internalType": "bool",
          "name": "approved",
          "type": "bool"
        }
      ],
      "name": "ApprovalForAll",
      "type": "event"
    },
    {
      "anonymous": false,
      "inputs": [
        {
          "indexed": false,
          "internalType": "uint256",
          "name": "_fromTokenId",
          "type": "uint256"
        },
        {
          "indexed": false,
          "internalType": "uint256",
          "name": "_toTokenId",
          "type": "uint256"
        }
      ],
      "name": "BatchMetadataUpdate",
      "type": "event"
    },
    {
      "anonymous": false,
      "inputs": [
        {
          "indexed": false,
          "internalType": "address",
          "name": "host",
          "type": "address"
        },
        {
          "indexed": false,
          "internalType": "string",
          "name": "battleName",
          "type": "string"
        }
      ],
      "name": "BattleCreated",
      "type": "event"
    },
    {
      "anonymous": false,
      "inputs": [
        {
          "indexed": false,
          "internalType": "string",
          "name": "battleName",
          "type": "string"
        }
      ],
      "name": "BattleJoined",
      "type": "event"
    },
    {
      "anonymous": false,
      "inputs": [
        {
          "indexed": false,
          "internalType": "uint256",
          "name": "_tokenId",
          "type": "uint256"
        }
      ],
      "name": "MetadataUpdate",
      "type": "event"
    },
    {
      "anonymous": false,
      "inputs": [
        {
          "indexed": true,
          "internalType": "address",
          "name": "recipient",
          "type": "address"
        },
        {
          "indexed": true,
          "internalType": "uint256",
          "name": "tokenId",
          "type": "uint256"
        },
        {
          "indexed": false,
          "internalType": "string",
          "name": "metadataURI",
          "type": "string"
        }
      ],
      "name": "NFTMinted",
      "type": "event"
    },
    {
      "anonymous": false,
      "inputs": [
        {
          "indexed": true,
          "internalType": "address",
          "name": "owner",
          "type": "address"
        },
        {
          "indexed": false,
          "internalType": "string",
          "name": "name",
          "type": "string"
        }
      ],
      "name": "NewPlayer",
      "type": "event"
    },
    {
      "anonymous": false,
      "inputs": [
        {
          "indexed": true,
          "internalType": "address",
          "name": "previousOwner",
          "type": "address"
        },
        {
          "indexed": true,
          "internalType": "address",
          "name": "newOwner",
          "type": "address"
        }
      ],
      "name": "OwnershipTransferred",
      "type": "event"
    },
    {
      "anonymous": false,
      "inputs": [
        {
          "indexed": true,
          "internalType": "address",
          "name": "from",
          "type": "address"
        },
        {
          "indexed": true,
          "internalType": "address",
          "name": "to",
          "type": "address"
        },
        {
          "indexed": true,
          "internalType": "uint256",
          "name": "tokenId",
          "type": "uint256"
        }
      ],
      "name": "Transfer",
      "type": "event"
    },
    {
      "inputs": [],
      "name": "_nextTokenId",
      "outputs": [
        {
          "internalType": "uint256",
          "name": "",
          "type": "uint256"
        }
      ],
      "stateMutability": "view",
      "type": "function"
    },
    {
      "inputs": [
        {
          "internalType": "address",
          "name": "to",
          "type": "address"
        },
        {
          "internalType": "uint256",
          "name": "tokenId",
          "type": "uint256"
        }
      ],
      "name": "approve",
      "outputs": [],
      "stateMutability": "nonpayable",
      "type": "function"
    },
    {
      "inputs": [
        {
          "internalType": "address",
          "name": "owner",
          "type": "address"
        }
      ],
      "name": "balanceOf",
      "outputs": [
        {
          "internalType": "uint256",
          "name": "",
          "type": "uint256"
        }
      ],
      "stateMutability": "view",
      "type": "function"
    },
    {
      "inputs": [
        {
          "internalType": "string",
          "name": "",
          "type": "string"
        }
      ],
      "name": "battles",
      "outputs": [
        {
          "internalType": "address",
          "name": "host",
          "type": "address"
        },
        {
          "internalType": "address",
          "name": "opponentAddress",
          "type": "address"
        },
        {
          "internalType": "string",
          "name": "battleMode",
          "type": "string"
        },
        {
          "internalType": "bool",
          "name": "battleStatus",
          "type": "bool"
        }
      ],
      "stateMutability": "view",
      "type": "function"
    },
    {
      "inputs": [
        {
          "internalType": "string",
          "name": "",
          "type": "string"
        },
        {
          "internalType": "uint256",
          "name": "",
          "type": "uint256"
        }
      ],
      "name": "battlesByGameMode",
      "outputs": [
        {
          "internalType": "string",
          "name": "",
          "type": "string"
        }
      ],
      "stateMutability": "view",
      "type": "function"
    },
    {
      "inputs": [],
      "name": "count",
      "outputs": [
        {
          "internalType": "uint256",
          "name": "",
          "type": "uint256"
        }
      ],
      "stateMutability": "view",
      "type": "function"
    },
    {
      "inputs": [
        {
          "internalType": "address",
          "name": "host",
          "type": "address"
        },
        {
          "internalType": "string",
          "name": "_battleMode",
          "type": "string"
        },
        {
          "internalType": "string",
          "name": "_battleName",
          "type": "string"
        }
      ],
      "name": "createBattle",
      "outputs": [],
      "stateMutability": "nonpayable",
      "type": "function"
    },
    {
      "inputs": [],
      "name": "getAllPlayers",
      "outputs": [
        {
          "components": [
            {
              "internalType": "address",
              "name": "playerAddress",
              "type": "address"
            },
            {
              "internalType": "string",
              "name": "playerName",
              "type": "string"
            },
            {
              "internalType": "string",
              "name": "emailId",
              "type": "string"
            },
            {
              "internalType": "uint256[]",
              "name": "playerCards",
              "type": "uint256[]"
            }
          ],
          "internalType": "struct NFTTCG.Player[]",
          "name": "",
          "type": "tuple[]"
        }
      ],
      "stateMutability": "view",
      "type": "function"
    },
    {
      "inputs": [
        {
          "internalType": "uint256",
          "name": "tokenId",
          "type": "uint256"
        }
      ],
      "name": "getApproved",
      "outputs": [
        {
          "internalType": "address",
          "name": "",
          "type": "address"
        }
      ],
      "stateMutability": "view",
      "type": "function"
    },
    {
      "inputs": [
        {
          "internalType": "address",
          "name": "playerAddress",
          "type": "address"
        }
      ],
      "name": "getAvailableCards",
      "outputs": [
        {
          "internalType": "string[]",
          "name": "",
          "type": "string[]"
        }
      ],
      "stateMutability": "view",
      "type": "function"
    },
    {
      "inputs": [
        {
          "internalType": "uint256",
          "name": "tokenId",
          "type": "uint256"
        }
      ],
      "name": "getCardOwner",
      "outputs": [
        {
          "internalType": "address",
          "name": "",
          "type": "address"
        }
      ],
      "stateMutability": "view",
      "type": "function"
    },
    {
      "inputs": [
        {
          "internalType": "string",
          "name": "_gameMode",
          "type": "string"
        }
      ],
      "name": "getIncompleteBattleNames",
      "outputs": [
        {
          "internalType": "string[]",
          "name": "",
          "type": "string[]"
        }
      ],
      "stateMutability": "view",
      "type": "function"
    },
    {
      "inputs": [
        {
          "internalType": "address",
          "name": "addr",
          "type": "address"
        }
      ],
      "name": "getPlayer",
      "outputs": [
        {
          "components": [
            {
              "internalType": "address",
              "name": "playerAddress",
              "type": "address"
            },
            {
              "internalType": "string",
              "name": "playerName",
              "type": "string"
            },
            {
              "internalType": "string",
              "name": "emailId",
              "type": "string"
            },
            {
              "internalType": "uint256[]",
              "name": "playerCards",
              "type": "uint256[]"
            }
          ],
          "internalType": "struct NFTTCG.Player",
          "name": "",
          "type": "tuple"
        }
      ],
      "stateMutability": "view",
      "type": "function"
    },
    {
      "inputs": [
        {
          "internalType": "address",
          "name": "playerAddress",
          "type": "address"
        }
      ],
      "name": "getPlayerCardCount",
      "outputs": [
        {
          "internalType": "uint256",
          "name": "",
          "type": "uint256"
        }
      ],
      "stateMutability": "view",
      "type": "function"
    },
    {
      "inputs": [
        {
          "internalType": "address",
          "name": "owner",
          "type": "address"
        },
        {
          "internalType": "address",
          "name": "operator",
          "type": "address"
        }
      ],
      "name": "isApprovedForAll",
      "outputs": [
        {
          "internalType": "bool",
          "name": "",
          "type": "bool"
        }
      ],
      "stateMutability": "view",
      "type": "function"
    },
    {
      "inputs": [
        {
          "internalType": "string",
          "name": "_battleName",
          "type": "string"
        }
      ],
      "name": "isBattleStartedByName",
      "outputs": [
        {
          "internalType": "bool",
          "name": "",
          "type": "bool"
        }
      ],
      "stateMutability": "view",
      "type": "function"
    },
    {
      "inputs": [
        {
          "internalType": "address",
          "name": "addr",
          "type": "address"
        }
      ],
      "name": "isPlayer",
      "outputs": [
        {
          "internalType": "bool",
          "name": "",
          "type": "bool"
        }
      ],
      "stateMutability": "view",
      "type": "function"
    },
    {
      "inputs": [
        {
          "internalType": "string",
          "name": "_battleName",
          "type": "string"
        },
        {
          "internalType": "address",
          "name": "_opponentAddress",
          "type": "address"
        }
      ],
      "name": "joinBattleByName",
      "outputs": [],
      "stateMutability": "nonpayable",
      "type": "function"
    },
    {
      "inputs": [],
      "name": "name",
      "outputs": [
        {
          "internalType": "string",
          "name": "",
          "type": "string"
        }
      ],
      "stateMutability": "view",
      "type": "function"
    },
    {
      "inputs": [],
      "name": "owner",
      "outputs": [
        {
          "internalType": "address",
          "name": "",
          "type": "address"
        }
      ],
      "stateMutability": "view",
      "type": "function"
    },
    {
      "inputs": [
        {
          "internalType": "uint256",
          "name": "tokenId",
          "type": "uint256"
        }
      ],
      "name": "ownerOf",
      "outputs": [
        {
          "internalType": "address",
          "name": "",
          "type": "address"
        }
      ],
      "stateMutability": "view",
      "type": "function"
    },
    {
      "inputs": [
        {
          "internalType": "address",
          "name": "recipient",
          "type": "address"
        },
        {
          "internalType": "string",
          "name": "metadataURI",
          "type": "string"
        }
      ],
      "name": "payToMint",
      "outputs": [],
      "stateMutability": "payable",
      "type": "function"
    },
    {
      "inputs": [
        {
          "internalType": "address",
          "name": "",
          "type": "address"
        }
      ],
      "name": "playerInfo",
      "outputs": [
        {
          "internalType": "uint256",
          "name": "",
          "type": "uint256"
        }
      ],
      "stateMutability": "view",
      "type": "function"
    },
    {
      "inputs": [
        {
          "internalType": "uint256",
          "name": "",
          "type": "uint256"
        }
      ],
      "name": "players",
      "outputs": [
        {
          "internalType": "address",
          "name": "playerAddress",
          "type": "address"
        },
        {
          "internalType": "string",
          "name": "playerName",
          "type": "string"
        },
        {
          "internalType": "string",
          "name": "emailId",
          "type": "string"
        }
      ],
      "stateMutability": "view",
      "type": "function"
    },
    {
      "inputs": [
        {
          "internalType": "address",
          "name": "_address",
          "type": "address"
        },
        {
          "internalType": "string",
          "name": "_name",
          "type": "string"
        },
        {
          "internalType": "string",
          "name": "_email",
          "type": "string"
        }
      ],
      "name": "registerPlayer",
      "outputs": [],
      "stateMutability": "nonpayable",
      "type": "function"
    },
    {
      "inputs": [],
      "name": "renounceOwnership",
      "outputs": [],
      "stateMutability": "nonpayable",
      "type": "function"
    },
    {
      "inputs": [
        {
          "internalType": "address",
          "name": "from",
          "type": "address"
        },
        {
          "internalType": "address",
          "name": "to",
          "type": "address"
        },
        {
          "internalType": "uint256",
          "name": "tokenId",
          "type": "uint256"
        }
      ],
      "name": "safeTransferFrom",
      "outputs": [],
      "stateMutability": "nonpayable",
      "type": "function"
    },
    {
      "inputs": [
        {
          "internalType": "address",
          "name": "from",
          "type": "address"
        },
        {
          "internalType": "address",
          "name": "to",
          "type": "address"
        },
        {
          "internalType": "uint256",
          "name": "tokenId",
          "type": "uint256"
        },
        {
          "internalType": "bytes",
          "name": "data",
          "type": "bytes"
        }
      ],
      "name": "safeTransferFrom",
      "outputs": [],
      "stateMutability": "nonpayable",
      "type": "function"
    },
    {
      "inputs": [
        {
          "internalType": "address",
          "name": "operator",
          "type": "address"
        },
        {
          "internalType": "bool",
          "name": "approved",
          "type": "bool"
        }
      ],
      "name": "setApprovalForAll",
      "outputs": [],
      "stateMutability": "nonpayable",
      "type": "function"
    },
    {
      "inputs": [
        {
          "internalType": "bytes4",
          "name": "interfaceId",
          "type": "bytes4"
        }
      ],
      "name": "supportsInterface",
      "outputs": [
        {
          "internalType": "bool",
          "name": "",
          "type": "bool"
        }
      ],
      "stateMutability": "view",
      "type": "function"
    },
    {
      "inputs": [],
      "name": "symbol",
      "outputs": [
        {
          "internalType": "string",
          "name": "",
          "type": "string"
        }
      ],
      "stateMutability": "view",
      "type": "function"
    },
    {
      "inputs": [
        {
          "internalType": "uint256",
          "name": "tokenId",
          "type": "uint256"
        }
      ],
      "name": "tokenURI",
      "outputs": [
        {
          "internalType": "string",
          "name": "",
          "type": "string"
        }
      ],
      "stateMutability": "view",
      "type": "function"
    },
    {
      "inputs": [
        {
          "internalType": "address",
          "name": "from",
          "type": "address"
        },
        {
          "internalType": "address",
          "name": "to",
          "type": "address"
        },
        {
          "internalType": "uint256",
          "name": "tokenId",
          "type": "uint256"
        }
      ],
      "name": "transferFrom",
      "outputs": [],
      "stateMutability": "nonpayable",
      "type": "function"
    },
    {
      "inputs": [
        {
          "internalType": "address",
          "name": "from",
          "type": "address"
        },
        {
          "internalType": "address",
          "name": "to",
          "type": "address"
        },
        {
          "internalType": "uint256",
          "name": "tokenId",
          "type": "uint256"
        }
      ],
      "name": "transferNFT",
      "outputs": [],
      "stateMutability": "nonpayable",
      "type": "function"
    },
    {
      "inputs": [
        {
          "internalType": "address",
          "name": "newOwner",
          "type": "address"
        }
      ],
      "name": "transferOwnership",
      "outputs": [],
      "stateMutability": "nonpayable",
      "type": "function"
    }
  ],
  "bytecode": "0x60806040523480156200001157600080fd5b50604051620057b2380380620057b2833981810160405281019062000037919062000471565b806040518060400160405280600681526020017f4e465454434700000000000000000000000000000000000000000000000000008152506040518060400160405280600381526020017f54434700000000000000000000000000000000000000000000000000000000008152508160009081620000b591906200071d565b508060019081620000c791906200071d565b505050600073ffffffffffffffffffffffffffffffffffffffff168173ffffffffffffffffffffffffffffffffffffffff16036200013f5760006040517f1e4fbdf700000000000000000000000000000000000000000000000000000000815260040162000136919062000815565b60405180910390fd5b62000150816200016860201b60201c565b50620001616200022e60201b60201c565b5062000832565b6000600760009054906101000a900473ffffffffffffffffffffffffffffffffffffffff16905081600760006101000a81548173ffffffffffffffffffffffffffffffffffffffff021916908373ffffffffffffffffffffffffffffffffffffffff1602179055508173ffffffffffffffffffffffffffffffffffffffff168173ffffffffffffffffffffffffffffffffffffffff167f8be0079c531659141344cd1fd0a4f28419497f9722a3daafe3b4186f6b6457e060405160405180910390a35050565b600d6040518060800160405280600073ffffffffffffffffffffffffffffffffffffffff168152602001604051806020016040528060008152508152602001604051806020016040528060008152508152602001600067ffffffffffffffff811115620002a0576200029f620004ae565b5b604051908082528060200260200182016040528015620002cf5781602001602082028036833780820191505090505b50815250908060018154018082558091505060019003906000526020600020906004020160009091909190915060008201518160000160006101000a81548173ffffffffffffffffffffffffffffffffffffffff021916908373ffffffffffffffffffffffffffffffffffffffff16021790555060208201518160010190816200035a91906200071d565b5060408201518160020190816200037291906200071d565b5060608201518160030190805190602001906200039192919062000396565b505050565b828054828255906000526020600020908101928215620003d5579160200282015b82811115620003d4578251825591602001919060010190620003b7565b5b509050620003e49190620003e8565b5090565b5b8082111562000403576000816000905550600101620003e9565b5090565b600080fd5b600073ffffffffffffffffffffffffffffffffffffffff82169050919050565b600062000439826200040c565b9050919050565b6200044b816200042c565b81146200045757600080fd5b50565b6000815190506200046b8162000440565b92915050565b6000602082840312156200048a576200048962000407565b5b60006200049a848285016200045a565b91505092915050565b600081519050919050565b7f4e487b7100000000000000000000000000000000000000000000000000000000600052604160045260246000fd5b7f4e487b7100000000000000000000000000000000000000000000000000000000600052602260045260246000fd5b600060028204905060018216806200052557607f821691505b6020821081036200053b576200053a620004dd565b5b50919050565b60008190508160005260206000209050919050565b60006020601f8301049050919050565b600082821b905092915050565b600060088302620005a57fffffffffffffffffffffffffffffffffffffffffffffffffffffffffffffffff8262000566565b620005b1868362000566565b95508019841693508086168417925050509392505050565b6000819050919050565b6000819050919050565b6000620005fe620005f8620005f284620005c9565b620005d3565b620005c9565b9050919050565b6000819050919050565b6200061a83620005dd565b62000632620006298262000605565b84845462000573565b825550505050565b600090565b620006496200063a565b620006568184846200060f565b505050565b5b818110156200067e57620006726000826200063f565b6001810190506200065c565b5050565b601f821115620006cd57620006978162000541565b620006a28462000556565b81016020851015620006b2578190505b620006ca620006c18562000556565b8301826200065b565b50505b505050565b600082821c905092915050565b6000620006f260001984600802620006d2565b1980831691505092915050565b60006200070d8383620006df565b9150826002028217905092915050565b6200072882620004a3565b67ffffffffffffffff811115620007445762000743620004ae565b5b6200075082546200050c565b6200075d82828562000682565b600060209050601f83116001811462000795576000841562000780578287015190505b6200078c8582620006ff565b865550620007fc565b601f198416620007a58662000541565b60005b82811015620007cf57848901518255600182019150602085019450602081019050620007a8565b86831015620007ef5784890151620007eb601f891682620006df565b8355505b6001600288020188555050505b505050505050565b6200080f816200042c565b82525050565b60006020820190506200082c600083018462000804565b92915050565b614f7080620008426000396000f3fe6080604052600436106102045760003560e01c8063715018a611610118578063b88d4fde116100a0578063ef581f111161006f578063ef581f11146107f1578063efa1c4821461082e578063f2fde38b14610859578063f3eb8b5314610882578063f71d96cb146108ab57610204565b8063b88d4fde14610711578063c87b56dd1461073a578063d28e8e1914610777578063e985e9c5146107b457610204565b806395d89b41116100e757806395d89b411461062e57806399adbfd514610659578063a04b30d014610682578063a22cb465146106bf578063ab01d9a3146106e857610204565b8063715018a61461056f57806377bb7b78146105865780638b2fb93a146105c65780638da5cb5b1461060357610204565b806342842e0e1161019b5780635e41a4f11161016a5780635e41a4f114610473578063615fd9e2146104b05780636352211e146104cc57806369e9cae11461050957806370a082311461053257610204565b806342842e0e146103a55780634a60f620146103ce5780634b114691146103f95780635c12cd4b1461043657610204565b8063081812fc116101d7578063081812fc146102d9578063095ea7b31461031657806309c95e101461033f57806323b872dd1461037c57610204565b8063010abbd01461020957806301ffc9a71461024657806306661abd1461028357806306fdde03146102ae575b600080fd5b34801561021557600080fd5b50610230600480360381019061022b91906138d3565b6108ea565b60405161023d9190613941565b60405180910390f35b34801561025257600080fd5b5061026d600480360381019061026891906139b4565b610945565b60405161027a91906139fc565b60405180910390f35b34801561028f57600080fd5b50610298610957565b6040516102a59190613a26565b60405180910390f35b3480156102ba57600080fd5b506102c3610961565b6040516102d09190613ad1565b60405180910390f35b3480156102e557600080fd5b5061030060048036038101906102fb91906138d3565b6109f3565b60405161030d9190613941565b60405180910390f35b34801561032257600080fd5b5061033d60048036038101906103389190613b1f565b610a0f565b005b34801561034b57600080fd5b5061036660048036038101906103619190613b5f565b610a25565b60405161037391906139fc565b60405180910390f35b34801561038857600080fd5b506103a3600480360381019061039e9190613b8c565b610a80565b005b3480156103b157600080fd5b506103cc60048036038101906103c79190613b8c565b610b82565b005b3480156103da57600080fd5b506103e3610ba2565b6040516103f09190613a26565b60405180910390f35b34801561040557600080fd5b50610420600480360381019061041b9190613b5f565b610ba8565b60405161042d9190613a26565b60405180910390f35b34801561044257600080fd5b5061045d60048036038101906104589190613b5f565b610bc0565b60405161046a9190613d67565b60405180910390f35b34801561047f57600080fd5b5061049a60048036038101906104959190613b5f565b610e55565b6040516104a79190613a26565b60405180910390f35b6104ca60048036038101906104c59190613ebe565b610ecb565b005b3480156104d857600080fd5b506104f360048036038101906104ee91906138d3565b611029565b6040516105009190613941565b60405180910390f35b34801561051557600080fd5b50610530600480360381019061052b9190613b8c565b61103b565b005b34801561053e57600080fd5b5061055960048036038101906105549190613b5f565b61127a565b6040516105669190613a26565b60405180910390f35b34801561057b57600080fd5b50610584611334565b005b34801561059257600080fd5b506105ad60048036038101906105a89190613f1a565b611348565b6040516105bd9493929190613f63565b60405180910390f35b3480156105d257600080fd5b506105ed60048036038101906105e89190613f1a565b611463565b6040516105fa91906139fc565b60405180910390f35b34801561060f57600080fd5b506106186114e9565b6040516106259190613941565b60405180910390f35b34801561063a57600080fd5b50610643611513565b6040516106509190613ad1565b60405180910390f35b34801561066557600080fd5b50610680600480360381019061067b9190613faf565b6115a5565b005b34801561068e57600080fd5b506106a960048036038101906106a4919061403a565b6117c2565b6040516106b69190613ad1565b60405180910390f35b3480156106cb57600080fd5b506106e660048036038101906106e191906140c2565b611891565b005b3480156106f457600080fd5b5061070f600480360381019061070a9190613faf565b6118a7565b005b34801561071d57600080fd5b50610738600480360381019061073391906141a3565b611acf565b005b34801561074657600080fd5b50610761600480360381019061075c91906138d3565b611aec565b60405161076e9190613ad1565b60405180910390f35b34801561078357600080fd5b5061079e60048036038101906107999190613b5f565b611afe565b6040516107ab91906142e8565b60405180910390f35b3480156107c057600080fd5b506107db60048036038101906107d6919061430a565b611c81565b6040516107e891906139fc565b60405180910390f35b3480156107fd57600080fd5b5061081860048036038101906108139190613f1a565b611d15565b60405161082591906142e8565b60405180910390f35b34801561083a57600080fd5b50610843611ee3565b604051610850919061447d565b60405180910390f35b34801561086557600080fd5b50610880600480360381019061087b9190613b5f565b612114565b005b34801561088e57600080fd5b506108a960048036038101906108a4919061449f565b61219a565b005b3480156108b757600080fd5b506108d260048036038101906108cd91906138d3565b6122f2565b6040516108e1939291906144fb565b60405180910390f35b60006108f4610957565b8210610935576040517f08c379a000000000000000000000000000000000000000000000000000000000815260040161092c9061458c565b60405180910390fd5b61093e82611029565b9050919050565b60006109508261245c565b9050919050565b6000600854905090565b606060008054610970906145db565b80601f016020809104026020016040519081016040528092919081815260200182805461099c906145db565b80156109e95780601f106109be576101008083540402835291602001916109e9565b820191906000526020600020905b8154815290600101906020018083116109cc57829003601f168201915b5050505050905090565b60006109fe826124bd565b50610a0882612545565b9050919050565b610a218282610a1c612582565b61258a565b5050565b600080600a60008473ffffffffffffffffffffffffffffffffffffffff1673ffffffffffffffffffffffffffffffffffffffff1681526020019081526020016000205403610a765760009050610a7b565b600190505b919050565b600073ffffffffffffffffffffffffffffffffffffffff168273ffffffffffffffffffffffffffffffffffffffff1603610af25760006040517f64a0ae92000000000000000000000000000000000000000000000000000000008152600401610ae99190613941565b60405180910390fd5b6000610b068383610b01612582565b61259c565b90508373ffffffffffffffffffffffffffffffffffffffff168173ffffffffffffffffffffffffffffffffffffffff1614610b7c578382826040517f64283d7b000000000000000000000000000000000000000000000000000000008152600401610b739392919061460c565b60405180910390fd5b50505050565b610b9d83838360405180602001604052806000815250611acf565b505050565b60085481565b600a6020528060005260406000206000915090505481565b610bc86137e1565b610bd182610a25565b610c10576040517f08c379a0000000000000000000000000000000000000000000000000000000008152600401610c079061468f565b60405180910390fd5b600d600a60008473ffffffffffffffffffffffffffffffffffffffff1673ffffffffffffffffffffffffffffffffffffffff1681526020019081526020016000205481548110610c6357610c626146af565b5b90600052602060002090600402016040518060800160405290816000820160009054906101000a900473ffffffffffffffffffffffffffffffffffffffff1673ffffffffffffffffffffffffffffffffffffffff1673ffffffffffffffffffffffffffffffffffffffff168152602001600182018054610ce2906145db565b80601f0160208091040260200160405190810160405280929190818152602001828054610d0e906145db565b8015610d5b5780601f10610d3057610100808354040283529160200191610d5b565b820191906000526020600020905b815481529060010190602001808311610d3e57829003601f168201915b50505050508152602001600282018054610d74906145db565b80601f0160208091040260200160405190810160405280929190818152602001828054610da0906145db565b8015610ded5780601f10610dc257610100808354040283529160200191610ded565b820191906000526020600020905b815481529060010190602001808311610dd057829003601f168201915b5050505050815260200160038201805480602002602001604051908101604052809291908181526020018280548015610e4557602002820191906000526020600020905b815481526020019060010190808311610e31575b5050505050815250509050919050565b600080600a60008473ffffffffffffffffffffffffffffffffffffffff1673ffffffffffffffffffffffffffffffffffffffff168152602001908152602001600020549050600d8181548110610eae57610ead6146af565b5b906000526020600020906004020160030180549050915050919050565b66b1a2bc2ec50000341015610f15576040517f08c379a0000000000000000000000000000000000000000000000000000000008152600401610f0c9061472a565b60405180910390fd5b600060086000815480929190610f2a90614779565b919050559050610f3a83826127b6565b610f4481836128af565b808373ffffffffffffffffffffffffffffffffffffffff167fd35bb95e09c04b219e35047ce7b7b300e3384264ef84a40456943dbc0fc17c1484604051610f8b9190613ad1565b60405180910390a36000600a60008573ffffffffffffffffffffffffffffffffffffffff1673ffffffffffffffffffffffffffffffffffffffff168152602001908152602001600020549050600d8181548110610feb57610fea6146af565b5b906000526020600020906004020160030182908060018154018082558091505060019003906000526020600020016000909190919091505550505050565b6000611034826124bd565b9050919050565b8273ffffffffffffffffffffffffffffffffffffffff1661105b82611029565b73ffffffffffffffffffffffffffffffffffffffff16146110b1576040517f08c379a00000000000000000000000000000000000000000000000000000000081526004016110a89061480d565b60405180910390fd5b6110bc83838361290b565b6000600a60008573ffffffffffffffffffffffffffffffffffffffff1673ffffffffffffffffffffffffffffffffffffffff1681526020019081526020016000205490506000600d8281548110611116576111156146af565b5b9060005260206000209060040201600301905060005b81805490508110156111e4578382828154811061114c5761114b6146af565b5b9060005260206000200154036111d757816001838054905061116e919061482d565b8154811061117f5761117e6146af565b5b906000526020600020015482828154811061119d5761119c6146af565b5b9060005260206000200181905550818054806111bc576111bb614861565b5b600190038181906000526020600020016000905590556111e4565b808060010191505061112c565b50600a60008573ffffffffffffffffffffffffffffffffffffffff1673ffffffffffffffffffffffffffffffffffffffff168152602001908152602001600020549150600d828154811061123b5761123a6146af565b5b90600052602060002090600402016003018390806001815401808255809150506001900390600052602060002001600090919091909150555050505050565b60008073ffffffffffffffffffffffffffffffffffffffff168273ffffffffffffffffffffffffffffffffffffffff16036112ed5760006040517f89c62b640000000000000000000000000000000000000000000000000000000081526004016112e49190613941565b60405180910390fd5b600360008373ffffffffffffffffffffffffffffffffffffffff1673ffffffffffffffffffffffffffffffffffffffff168152602001908152602001600020549050919050565b61133c612a78565b6113466000612aff565b565b600b818051602081018201805184825260208301602085012081835280955050505050506000915090508060000160009054906101000a900473ffffffffffffffffffffffffffffffffffffffff16908060010160009054906101000a900473ffffffffffffffffffffffffffffffffffffffff16908060020180546113cd906145db565b80601f01602080910402602001604051908101604052809291908181526020018280546113f9906145db565b80156114465780601f1061141b57610100808354040283529160200191611446565b820191906000526020600020905b81548152906001019060200180831161142957829003601f168201915b5050505050908060030160009054906101000a900460ff16905084565b600061146e82612bc5565b6114ad576040517f08c379a00000000000000000000000000000000000000000000000000000000081526004016114a4906148dc565b60405180910390fd5b6000600b836040516114bf9190614938565b908152602001604051809103902090508060030160009054906101000a900460ff16915050919050565b6000600760009054906101000a900473ffffffffffffffffffffffffffffffffffffffff16905090565b606060018054611522906145db565b80601f016020809104026020016040519081016040528092919081815260200182805461154e906145db565b801561159b5780601f106115705761010080835404028352916020019161159b565b820191906000526020600020905b81548152906001019060200180831161157e57829003601f168201915b5050505050905090565b6115ae81612bc5565b156115ee576040517f08c379a00000000000000000000000000000000000000000000000000000000081526004016115e59061499b565b60405180910390fd5b600060405180608001604052808573ffffffffffffffffffffffffffffffffffffffff168152602001600073ffffffffffffffffffffffffffffffffffffffff16815260200184815260200160001515815250905080600b836040516116549190614938565b908152602001604051809103902060008201518160000160006101000a81548173ffffffffffffffffffffffffffffffffffffffff021916908373ffffffffffffffffffffffffffffffffffffffff16021790555060208201518160010160006101000a81548173ffffffffffffffffffffffffffffffffffffffff021916908373ffffffffffffffffffffffffffffffffffffffff16021790555060408201518160020190816117059190614b67565b5060608201518160030160006101000a81548160ff02191690831515021790555090505061173282612bfa565b600c836040516117429190614938565b9081526020016040518091039020829080600181540180825580915050600190039060005260206000200160009091909190915090816117829190614b67565b507fb8c752ce5211d09f40fda04dd89cda1620aed623addaf2785a0d2e57110e99f684836040516117b4929190614c39565b60405180910390a150505050565b600c8280516020810182018051848252602083016020850120818352809550505050505081815481106117f457600080fd5b90600052602060002001600091509150508054611810906145db565b80601f016020809104026020016040519081016040528092919081815260200182805461183c906145db565b80156118895780601f1061185e57610100808354040283529160200191611889565b820191906000526020600020905b81548152906001019060200180831161186c57829003601f168201915b505050505081565b6118a361189c612582565b8383612c34565b5050565b6118b083610a25565b156118f0576040517f08c379a00000000000000000000000000000000000000000000000000000000081526004016118e790614cb5565b60405180910390fd5b6000600d805490509050600d60405180608001604052808673ffffffffffffffffffffffffffffffffffffffff168152602001858152602001848152602001600067ffffffffffffffff81111561194a57611949613d93565b5b6040519080825280602002602001820160405280156119785781602001602082028036833780820191505090505b50815250908060018154018082558091505060019003906000526020600020906004020160009091909190915060008201518160000160006101000a81548173ffffffffffffffffffffffffffffffffffffffff021916908373ffffffffffffffffffffffffffffffffffffffff1602179055506020820151816001019081611a019190614b67565b506040820151816002019081611a179190614b67565b506060820151816003019080519060200190611a3492919061381f565b50505080600a60008673ffffffffffffffffffffffffffffffffffffffff1673ffffffffffffffffffffffffffffffffffffffff168152602001908152602001600020819055508373ffffffffffffffffffffffffffffffffffffffff167f81ef79d1cda814a60c0fc60792e648a06d9c6bae67176346d1cc8b63030bfccd84604051611ac19190613ad1565b60405180910390a250505050565b611ada848484610a80565b611ae684848484612da3565b50505050565b6060611af782612f5a565b9050919050565b60606000600a60008473ffffffffffffffffffffffffffffffffffffffff1673ffffffffffffffffffffffffffffffffffffffff1681526020019081526020016000205490506000600d8281548110611b5a57611b596146af565b5b9060005260206000209060040201600301805480602002602001604051908101604052809291908181526020018280548015611bb557602002820191906000526020600020905b815481526020019060010190808311611ba1575b505050505090506000815167ffffffffffffffff811115611bd957611bd8613d93565b5b604051908082528060200260200182016040528015611c0c57816020015b6060815260200190600190039081611bf75790505b50905060005b8251811015611c75576000838281518110611c3057611c2f6146af565b5b602002602001015190506000611c4582611aec565b905080848481518110611c5b57611c5a6146af565b5b602002602001018190525050508080600101915050611c12565b50809350505050919050565b6000600560008473ffffffffffffffffffffffffffffffffffffffff1673ffffffffffffffffffffffffffffffffffffffff16815260200190815260200160002060008373ffffffffffffffffffffffffffffffffffffffff1673ffffffffffffffffffffffffffffffffffffffff16815260200190815260200160002060009054906101000a900460ff16905092915050565b60606000600c83604051611d299190614938565b908152602001604051809103902090506000818054905067ffffffffffffffff811115611d5957611d58613d93565b5b604051908082528060200260200182016040528015611d8c57816020015b6060815260200190600190039081611d775790505b5090506000805b8380549050811015611ed4576000600b858381548110611db657611db56146af565b5b90600052602060002001604051611dcd9190614d58565b908152602001604051809103902090508060030160009054906101000a900460ff16611ec657848281548110611e0657611e056146af565b5b906000526020600020018054611e1b906145db565b80601f0160208091040260200160405190810160405280929190818152602001828054611e47906145db565b8015611e945780601f10611e6957610100808354040283529160200191611e94565b820191906000526020600020905b815481529060010190602001808311611e7757829003601f168201915b5050505050848481518110611eac57611eab6146af565b5b60200260200101819052508280611ec290614779565b9350505b508080600101915050611d93565b50808252819350505050919050565b6060600d805480602002602001604051908101604052809291908181526020016000905b8282101561210b57838290600052602060002090600402016040518060800160405290816000820160009054906101000a900473ffffffffffffffffffffffffffffffffffffffff1673ffffffffffffffffffffffffffffffffffffffff1673ffffffffffffffffffffffffffffffffffffffff168152602001600182018054611f90906145db565b80601f0160208091040260200160405190810160405280929190818152602001828054611fbc906145db565b80156120095780601f10611fde57610100808354040283529160200191612009565b820191906000526020600020905b815481529060010190602001808311611fec57829003601f168201915b50505050508152602001600282018054612022906145db565b80601f016020809104026020016040519081016040528092919081815260200182805461204e906145db565b801561209b5780601f106120705761010080835404028352916020019161209b565b820191906000526020600020905b81548152906001019060200180831161207e57829003601f168201915b50505050508152602001600382018054806020026020016040519081016040528092919081815260200182805480156120f357602002820191906000526020600020905b8154815260200190600101908083116120df575b50505050508152505081526020019060010190611f07565b50505050905090565b61211c612a78565b600073ffffffffffffffffffffffffffffffffffffffff168173ffffffffffffffffffffffffffffffffffffffff160361218e5760006040517f1e4fbdf70000000000000000000000000000000000000000000000000000000081526004016121859190613941565b60405180910390fd5b61219781612aff565b50565b6121a382612bc5565b6121e2576040517f08c379a00000000000000000000000000000000000000000000000000000000081526004016121d9906148dc565b60405180910390fd5b6000600b836040516121f49190614938565b908152602001604051809103902090508060030160009054906101000a900460ff1615612256576040517f08c379a000000000000000000000000000000000000000000000000000000000815260040161224d90614dbb565b60405180910390fd5b818160010160006101000a81548173ffffffffffffffffffffffffffffffffffffffff021916908373ffffffffffffffffffffffffffffffffffffffff16021790555060018160030160006101000a81548160ff0219169083151502179055507f2b706aa6dcf58d2b9f4441ccdf606beb9b59c5139ba98ed25d0f360a122cb3a4836040516122e59190613ad1565b60405180910390a1505050565b600d818154811061230257600080fd5b90600052602060002090600402016000915090508060000160009054906101000a900473ffffffffffffffffffffffffffffffffffffffff169080600101805461234b906145db565b80601f0160208091040260200160405190810160405280929190818152602001828054612377906145db565b80156123c45780601f10612399576101008083540402835291602001916123c4565b820191906000526020600020905b8154815290600101906020018083116123a757829003601f168201915b5050505050908060020180546123d9906145db565b80601f0160208091040260200160405190810160405280929190818152602001828054612405906145db565b80156124525780601f1061242757610100808354040283529160200191612452565b820191906000526020600020905b81548152906001019060200180831161243557829003601f168201915b5050505050905083565b6000634906490660e01b7bffffffffffffffffffffffffffffffffffffffffffffffffffffffff1916827bffffffffffffffffffffffffffffffffffffffffffffffffffffffff191614806124b657506124b58261306d565b5b9050919050565b6000806124c98361314f565b9050600073ffffffffffffffffffffffffffffffffffffffff168173ffffffffffffffffffffffffffffffffffffffff160361253c57826040517f7e2732890000000000000000000000000000000000000000000000000000000081526004016125339190613a26565b60405180910390fd5b80915050919050565b60006004600083815260200190815260200160002060009054906101000a900473ffffffffffffffffffffffffffffffffffffffff169050919050565b600033905090565b612597838383600161318c565b505050565b6000806125a88461314f565b9050600073ffffffffffffffffffffffffffffffffffffffff168373ffffffffffffffffffffffffffffffffffffffff16146125ea576125e9818486613351565b5b600073ffffffffffffffffffffffffffffffffffffffff168173ffffffffffffffffffffffffffffffffffffffff161461267b5761262c60008560008061318c565b6001600360008373ffffffffffffffffffffffffffffffffffffffff1673ffffffffffffffffffffffffffffffffffffffff168152602001908152602001600020600082825403925050819055505b600073ffffffffffffffffffffffffffffffffffffffff168573ffffffffffffffffffffffffffffffffffffffff16146126fe576001600360008773ffffffffffffffffffffffffffffffffffffffff1673ffffffffffffffffffffffffffffffffffffffff168152602001908152602001600020600082825401925050819055505b846002600086815260200190815260200160002060006101000a81548173ffffffffffffffffffffffffffffffffffffffff021916908373ffffffffffffffffffffffffffffffffffffffff160217905550838573ffffffffffffffffffffffffffffffffffffffff168273ffffffffffffffffffffffffffffffffffffffff167fddf252ad1be2c89b69c2b068fc378daa952ba7f163c4a11628f55a4df523b3ef60405160405180910390a4809150509392505050565b600073ffffffffffffffffffffffffffffffffffffffff168273ffffffffffffffffffffffffffffffffffffffff16036128285760006040517f64a0ae9200000000000000000000000000000000000000000000000000000000815260040161281f9190613941565b60405180910390fd5b60006128368383600061259c565b9050600073ffffffffffffffffffffffffffffffffffffffff168173ffffffffffffffffffffffffffffffffffffffff16146128aa5760006040517f73c6ac6e0000000000000000000000000000000000000000000000000000000081526004016128a19190613941565b60405180910390fd5b505050565b806006600084815260200190815260200160002090816128cf9190614b67565b507ff8e1a15aba9398e019f0b49df1a4fde98ee17ae345cb5f6b5e2c27f5033e8ce7826040516128ff9190613a26565b60405180910390a15050565b600073ffffffffffffffffffffffffffffffffffffffff168273ffffffffffffffffffffffffffffffffffffffff160361297d5760006040517f64a0ae920000000000000000000000000000000000000000000000000000000081526004016129749190613941565b60405180910390fd5b600061298b8383600061259c565b9050600073ffffffffffffffffffffffffffffffffffffffff168173ffffffffffffffffffffffffffffffffffffffff16036129fe57816040517f7e2732890000000000000000000000000000000000000000000000000000000081526004016129f59190613a26565b60405180910390fd5b8373ffffffffffffffffffffffffffffffffffffffff168173ffffffffffffffffffffffffffffffffffffffff1614612a72578382826040517f64283d7b000000000000000000000000000000000000000000000000000000008152600401612a699392919061460c565b60405180910390fd5b50505050565b612a80612582565b73ffffffffffffffffffffffffffffffffffffffff16612a9e6114e9565b73ffffffffffffffffffffffffffffffffffffffff1614612afd57612ac1612582565b6040517f118cdaa7000000000000000000000000000000000000000000000000000000008152600401612af49190613941565b60405180910390fd5b565b6000600760009054906101000a900473ffffffffffffffffffffffffffffffffffffffff16905081600760006101000a81548173ffffffffffffffffffffffffffffffffffffffff021916908373ffffffffffffffffffffffffffffffffffffffff1602179055508173ffffffffffffffffffffffffffffffffffffffff168173ffffffffffffffffffffffffffffffffffffffff167f8be0079c531659141344cd1fd0a4f28419497f9722a3daafe3b4186f6b6457e060405160405180910390a35050565b6000600982604051612bd79190614938565b908152602001604051809103902060009054906101000a900460ff169050919050565b6001600982604051612c0c9190614938565b908152602001604051809103902060006101000a81548160ff02191690831515021790555050565b600073ffffffffffffffffffffffffffffffffffffffff168273ffffffffffffffffffffffffffffffffffffffff1603612ca557816040517f5b08ba18000000000000000000000000000000000000000000000000000000008152600401612c9c9190613941565b60405180910390fd5b80600560008573ffffffffffffffffffffffffffffffffffffffff1673ffffffffffffffffffffffffffffffffffffffff16815260200190815260200160002060008473ffffffffffffffffffffffffffffffffffffffff1673ffffffffffffffffffffffffffffffffffffffff16815260200190815260200160002060006101000a81548160ff0219169083151502179055508173ffffffffffffffffffffffffffffffffffffffff168373ffffffffffffffffffffffffffffffffffffffff167f17307eab39ab6107e8899845ad3d59bd9653f200f220920489ca2b5937696c3183604051612d9691906139fc565b60405180910390a3505050565b60008373ffffffffffffffffffffffffffffffffffffffff163b1115612f54578273ffffffffffffffffffffffffffffffffffffffff1663150b7a02612de7612582565b8685856040518563ffffffff1660e01b8152600401612e099493929190614e30565b6020604051808303816000875af1925050508015612e4557506040513d601f19601f82011682018060405250810190612e429190614e91565b60015b612ec9573d8060008114612e75576040519150601f19603f3d011682016040523d82523d6000602084013e612e7a565b606091505b506000815103612ec157836040517f64a0ae92000000000000000000000000000000000000000000000000000000008152600401612eb89190613941565b60405180910390fd5b805181602001fd5b63150b7a0260e01b7bffffffffffffffffffffffffffffffffffffffffffffffffffffffff1916817bffffffffffffffffffffffffffffffffffffffffffffffffffffffff191614612f5257836040517f64a0ae92000000000000000000000000000000000000000000000000000000008152600401612f499190613941565b60405180910390fd5b505b50505050565b6060612f65826124bd565b506000600660008481526020019081526020016000208054612f86906145db565b80601f0160208091040260200160405190810160405280929190818152602001828054612fb2906145db565b8015612fff5780601f10612fd457610100808354040283529160200191612fff565b820191906000526020600020905b815481529060010190602001808311612fe257829003601f168201915b505050505090506000613010613415565b90506000815103613025578192505050613068565b60008251111561305a578082604051602001613042929190614ebe565b60405160208183030381529060405292505050613068565b6130638461342c565b925050505b919050565b60007f80ac58cd000000000000000000000000000000000000000000000000000000007bffffffffffffffffffffffffffffffffffffffffffffffffffffffff1916827bffffffffffffffffffffffffffffffffffffffffffffffffffffffff1916148061313857507f5b5e139f000000000000000000000000000000000000000000000000000000007bffffffffffffffffffffffffffffffffffffffffffffffffffffffff1916827bffffffffffffffffffffffffffffffffffffffffffffffffffffffff1916145b80613148575061314782613495565b5b9050919050565b60006002600083815260200190815260200160002060009054906101000a900473ffffffffffffffffffffffffffffffffffffffff169050919050565b80806131c55750600073ffffffffffffffffffffffffffffffffffffffff168273ffffffffffffffffffffffffffffffffffffffff1614155b156132f95760006131d5846124bd565b9050600073ffffffffffffffffffffffffffffffffffffffff168373ffffffffffffffffffffffffffffffffffffffff161415801561324057508273ffffffffffffffffffffffffffffffffffffffff168173ffffffffffffffffffffffffffffffffffffffff1614155b801561325357506132518184611c81565b155b1561329557826040517fa9fbf51f00000000000000000000000000000000000000000000000000000000815260040161328c9190613941565b60405180910390fd5b81156132f757838573ffffffffffffffffffffffffffffffffffffffff168273ffffffffffffffffffffffffffffffffffffffff167f8c5be1e5ebec7d5bd14f71427d1e84f3dd0314c0f7b2291e5b200ac8c7c3b92560405160405180910390a45b505b836004600085815260200190815260200160002060006101000a81548173ffffffffffffffffffffffffffffffffffffffff021916908373ffffffffffffffffffffffffffffffffffffffff16021790555050505050565b61335c8383836134ff565b61341057600073ffffffffffffffffffffffffffffffffffffffff168373ffffffffffffffffffffffffffffffffffffffff16036133d157806040517f7e2732890000000000000000000000000000000000000000000000000000000081526004016133c89190613a26565b60405180910390fd5b81816040517f177e802f000000000000000000000000000000000000000000000000000000008152600401613407929190614ee2565b60405180910390fd5b505050565b606060405180602001604052806000815250905090565b6060613437826124bd565b506000613442613415565b90506000815111613462576040518060200160405280600081525061348d565b8061346c846135c0565b60405160200161347d929190614ebe565b6040516020818303038152906040525b915050919050565b60007f01ffc9a7000000000000000000000000000000000000000000000000000000007bffffffffffffffffffffffffffffffffffffffffffffffffffffffff1916827bffffffffffffffffffffffffffffffffffffffffffffffffffffffff1916149050919050565b60008073ffffffffffffffffffffffffffffffffffffffff168373ffffffffffffffffffffffffffffffffffffffff16141580156135b757508273ffffffffffffffffffffffffffffffffffffffff168473ffffffffffffffffffffffffffffffffffffffff16148061357857506135778484611c81565b5b806135b657508273ffffffffffffffffffffffffffffffffffffffff1661359e83612545565b73ffffffffffffffffffffffffffffffffffffffff16145b5b90509392505050565b6060600060016135cf8461368e565b01905060008167ffffffffffffffff8111156135ee576135ed613d93565b5b6040519080825280601f01601f1916602001820160405280156136205781602001600182028036833780820191505090505b509050600082602001820190505b600115613683578080600190039150507f3031323334353637383961626364656600000000000000000000000000000000600a86061a8153600a858161367757613676614f0b565b5b0494506000850361362e575b819350505050919050565b600080600090507a184f03e93ff9f4daa797ed6e38ed64bf6a1f01000000000000000083106136ec577a184f03e93ff9f4daa797ed6e38ed64bf6a1f01000000000000000083816136e2576136e1614f0b565b5b0492506040810190505b6d04ee2d6d415b85acef81000000008310613729576d04ee2d6d415b85acef8100000000838161371f5761371e614f0b565b5b0492506020810190505b662386f26fc10000831061375857662386f26fc10000838161374e5761374d614f0b565b5b0492506010810190505b6305f5e1008310613781576305f5e100838161377757613776614f0b565b5b0492506008810190505b61271083106137a657612710838161379c5761379b614f0b565b5b0492506004810190505b606483106137c957606483816137bf576137be614f0b565b5b0492506002810190505b600a83106137d8576001810190505b80915050919050565b6040518060800160405280600073ffffffffffffffffffffffffffffffffffffffff1681526020016060815260200160608152602001606081525090565b82805482825590600052602060002090810192821561385b579160200282015b8281111561385a57825182559160200191906001019061383f565b5b509050613868919061386c565b5090565b5b8082111561388557600081600090555060010161386d565b5090565b6000604051905090565b600080fd5b600080fd5b6000819050919050565b6138b08161389d565b81146138bb57600080fd5b50565b6000813590506138cd816138a7565b92915050565b6000602082840312156138e9576138e8613893565b5b60006138f7848285016138be565b91505092915050565b600073ffffffffffffffffffffffffffffffffffffffff82169050919050565b600061392b82613900565b9050919050565b61393b81613920565b82525050565b60006020820190506139566000830184613932565b92915050565b60007fffffffff0000000000000000000000000000000000000000000000000000000082169050919050565b6139918161395c565b811461399c57600080fd5b50565b6000813590506139ae81613988565b92915050565b6000602082840312156139ca576139c9613893565b5b60006139d88482850161399f565b91505092915050565b60008115159050919050565b6139f6816139e1565b82525050565b6000602082019050613a1160008301846139ed565b92915050565b613a208161389d565b82525050565b6000602082019050613a3b6000830184613a17565b92915050565b600081519050919050565b600082825260208201905092915050565b60005b83811015613a7b578082015181840152602081019050613a60565b60008484015250505050565b6000601f19601f8301169050919050565b6000613aa382613a41565b613aad8185613a4c565b9350613abd818560208601613a5d565b613ac681613a87565b840191505092915050565b60006020820190508181036000830152613aeb8184613a98565b905092915050565b613afc81613920565b8114613b0757600080fd5b50565b600081359050613b1981613af3565b92915050565b60008060408385031215613b3657613b35613893565b5b6000613b4485828601613b0a565b9250506020613b55858286016138be565b9150509250929050565b600060208284031215613b7557613b74613893565b5b6000613b8384828501613b0a565b91505092915050565b600080600060608486031215613ba557613ba4613893565b5b6000613bb386828701613b0a565b9350506020613bc486828701613b0a565b9250506040613bd5868287016138be565b9150509250925092565b613be881613920565b82525050565b600082825260208201905092915050565b6000613c0a82613a41565b613c148185613bee565b9350613c24818560208601613a5d565b613c2d81613a87565b840191505092915050565b600081519050919050565b600082825260208201905092915050565b6000819050602082019050919050565b613c6d8161389d565b82525050565b6000613c7f8383613c64565b60208301905092915050565b6000602082019050919050565b6000613ca382613c38565b613cad8185613c43565b9350613cb883613c54565b8060005b83811015613ce9578151613cd08882613c73565b9750613cdb83613c8b565b925050600181019050613cbc565b5085935050505092915050565b6000608083016000830151613d0e6000860182613bdf565b5060208301518482036020860152613d268282613bff565b91505060408301518482036040860152613d408282613bff565b91505060608301518482036060860152613d5a8282613c98565b9150508091505092915050565b60006020820190508181036000830152613d818184613cf6565b905092915050565b600080fd5b600080fd5b7f4e487b7100000000000000000000000000000000000000000000000000000000600052604160045260246000fd5b613dcb82613a87565b810181811067ffffffffffffffff82111715613dea57613de9613d93565b5b80604052505050565b6000613dfd613889565b9050613e098282613dc2565b919050565b600067ffffffffffffffff821115613e2957613e28613d93565b5b613e3282613a87565b9050602081019050919050565b82818337600083830152505050565b6000613e61613e5c84613e0e565b613df3565b905082815260208101848484011115613e7d57613e7c613d8e565b5b613e88848285613e3f565b509392505050565b600082601f830112613ea557613ea4613d89565b5b8135613eb5848260208601613e4e565b91505092915050565b60008060408385031215613ed557613ed4613893565b5b6000613ee385828601613b0a565b925050602083013567ffffffffffffffff811115613f0457613f03613898565b5b613f1085828601613e90565b9150509250929050565b600060208284031215613f3057613f2f613893565b5b600082013567ffffffffffffffff811115613f4e57613f4d613898565b5b613f5a84828501613e90565b91505092915050565b6000608082019050613f786000830187613932565b613f856020830186613932565b8181036040830152613f978185613a98565b9050613fa660608301846139ed565b95945050505050565b600080600060608486031215613fc857613fc7613893565b5b6000613fd686828701613b0a565b935050602084013567ffffffffffffffff811115613ff757613ff6613898565b5b61400386828701613e90565b925050604084013567ffffffffffffffff81111561402457614023613898565b5b61403086828701613e90565b9150509250925092565b6000806040838503121561405157614050613893565b5b600083013567ffffffffffffffff81111561406f5761406e613898565b5b61407b85828601613e90565b925050602061408c858286016138be565b9150509250929050565b61409f816139e1565b81146140aa57600080fd5b50565b6000813590506140bc81614096565b92915050565b600080604083850312156140d9576140d8613893565b5b60006140e785828601613b0a565b92505060206140f8858286016140ad565b9150509250929050565b600067ffffffffffffffff82111561411d5761411c613d93565b5b61412682613a87565b9050602081019050919050565b600061414661414184614102565b613df3565b90508281526020810184848401111561416257614161613d8e565b5b61416d848285613e3f565b509392505050565b600082601f83011261418a57614189613d89565b5b813561419a848260208601614133565b91505092915050565b600080600080608085870312156141bd576141bc613893565b5b60006141cb87828801613b0a565b94505060206141dc87828801613b0a565b93505060406141ed878288016138be565b925050606085013567ffffffffffffffff81111561420e5761420d613898565b5b61421a87828801614175565b91505092959194509250565b600081519050919050565b600082825260208201905092915050565b6000819050602082019050919050565b600061425e8383613bff565b905092915050565b6000602082019050919050565b600061427e82614226565b6142888185614231565b93508360208202850161429a85614242565b8060005b858110156142d657848403895281516142b78582614252565b94506142c283614266565b925060208a0199505060018101905061429e565b50829750879550505050505092915050565b600060208201905081810360008301526143028184614273565b905092915050565b6000806040838503121561432157614320613893565b5b600061432f85828601613b0a565b925050602061434085828601613b0a565b9150509250929050565b600081519050919050565b600082825260208201905092915050565b6000819050602082019050919050565b600060808301600083015161438e6000860182613bdf565b50602083015184820360208601526143a68282613bff565b915050604083015184820360408601526143c08282613bff565b915050606083015184820360608601526143da8282613c98565b9150508091505092915050565b60006143f38383614376565b905092915050565b6000602082019050919050565b60006144138261434a565b61441d8185614355565b93508360208202850161442f85614366565b8060005b8581101561446b578484038952815161444c85826143e7565b9450614457836143fb565b925060208a01995050600181019050614433565b50829750879550505050505092915050565b600060208201905081810360008301526144978184614408565b905092915050565b600080604083850312156144b6576144b5613893565b5b600083013567ffffffffffffffff8111156144d4576144d3613898565b5b6144e085828601613e90565b92505060206144f185828601613b0a565b9150509250929050565b60006060820190506145106000830186613932565b81810360208301526145228185613a98565b905081810360408301526145368184613a98565b9050949350505050565b7f546f6b656e20646f6573206e6f74206578697374000000000000000000000000600082015250565b6000614576601483613a4c565b915061458182614540565b602082019050919050565b600060208201905081810360008301526145a581614569565b9050919050565b7f4e487b7100000000000000000000000000000000000000000000000000000000600052602260045260246000fd5b600060028204905060018216806145f357607f821691505b602082108103614606576146056145ac565b5b50919050565b60006060820190506146216000830186613932565b61462e6020830185613a17565b61463b6040830184613932565b949350505050565b7f506c6179657220646f65736e2774206578697374210000000000000000000000600082015250565b6000614679601583613a4c565b915061468482614643565b602082019050919050565b600060208201905081810360008301526146a88161466c565b9050919050565b7f4e487b7100000000000000000000000000000000000000000000000000000000600052603260045260246000fd5b7f4e65656420746f20706179207570210000000000000000000000000000000000600082015250565b6000614714600f83613a4c565b915061471f826146de565b602082019050919050565b6000602082019050818103600083015261474381614707565b9050919050565b7f4e487b7100000000000000000000000000000000000000000000000000000000600052601160045260246000fd5b60006147848261389d565b91507fffffffffffffffffffffffffffffffffffffffffffffffffffffffffffffffff82036147b6576147b561474a565b5b600182019050919050565b7f5472616e736665722063616c6c6572206973206e6f74206f776e657200000000600082015250565b60006147f7601c83613a4c565b9150614802826147c1565b602082019050919050565b60006020820190508181036000830152614826816147ea565b9050919050565b60006148388261389d565b91506148438361389d565b925082820390508181111561485b5761485a61474a565b5b92915050565b7f4e487b7100000000000000000000000000000000000000000000000000000000600052603160045260246000fd5b7f426174746c6520646f6573206e6f742065786973740000000000000000000000600082015250565b60006148c6601583613a4c565b91506148d182614890565b602082019050919050565b600060208201905081810360008301526148f5816148b9565b9050919050565b600081905092915050565b600061491282613a41565b61491c81856148fc565b935061492c818560208601613a5d565b80840191505092915050565b60006149448284614907565b915081905092915050565b7f426174746c65206e616d6520616c726561647920657869737473000000000000600082015250565b6000614985601a83613a4c565b91506149908261494f565b602082019050919050565b600060208201905081810360008301526149b481614978565b9050919050565b60008190508160005260206000209050919050565b60006020601f8301049050919050565b600082821b905092915050565b600060088302614a1d7fffffffffffffffffffffffffffffffffffffffffffffffffffffffffffffffff826149e0565b614a2786836149e0565b95508019841693508086168417925050509392505050565b6000819050919050565b6000614a64614a5f614a5a8461389d565b614a3f565b61389d565b9050919050565b6000819050919050565b614a7e83614a49565b614a92614a8a82614a6b565b8484546149ed565b825550505050565b600090565b614aa7614a9a565b614ab2818484614a75565b505050565b5b81811015614ad657614acb600082614a9f565b600181019050614ab8565b5050565b601f821115614b1b57614aec816149bb565b614af5846149d0565b81016020851015614b04578190505b614b18614b10856149d0565b830182614ab7565b50505b505050565b600082821c905092915050565b6000614b3e60001984600802614b20565b1980831691505092915050565b6000614b578383614b2d565b9150826002028217905092915050565b614b7082613a41565b67ffffffffffffffff811115614b8957614b88613d93565b5b614b9382546145db565b614b9e828285614ada565b600060209050601f831160018114614bd15760008415614bbf578287015190505b614bc98582614b4b565b865550614c31565b601f198416614bdf866149bb565b60005b82811015614c0757848901518255600182019150602085019450602081019050614be2565b86831015614c245784890151614c20601f891682614b2d565b8355505b6001600288020188555050505b505050505050565b6000604082019050614c4e6000830185613932565b8181036020830152614c608184613a98565b90509392505050565b7f506c6179657220616c7265616479207265676973746572656400000000000000600082015250565b6000614c9f601983613a4c565b9150614caa82614c69565b602082019050919050565b60006020820190508181036000830152614cce81614c92565b9050919050565b60008154614ce2816145db565b614cec81866148fc565b94506001821660008114614d075760018114614d1c57614d4f565b60ff1983168652811515820286019350614d4f565b614d25856149bb565b60005b83811015614d4757815481890152600182019150602081019050614d28565b838801955050505b50505092915050565b6000614d648284614cd5565b915081905092915050565b7f426174746c6520616c7265616479206a6f696e65640000000000000000000000600082015250565b6000614da5601583613a4c565b9150614db082614d6f565b602082019050919050565b60006020820190508181036000830152614dd481614d98565b9050919050565b600081519050919050565b600082825260208201905092915050565b6000614e0282614ddb565b614e0c8185614de6565b9350614e1c818560208601613a5d565b614e2581613a87565b840191505092915050565b6000608082019050614e456000830187613932565b614e526020830186613932565b614e5f6040830185613a17565b8181036060830152614e718184614df7565b905095945050505050565b600081519050614e8b81613988565b92915050565b600060208284031215614ea757614ea6613893565b5b6000614eb584828501614e7c565b91505092915050565b6000614eca8285614907565b9150614ed68284614907565b91508190509392505050565b6000604082019050614ef76000830185613932565b614f046020830184613a17565b9392505050565b7f4e487b7100000000000000000000000000000000000000000000000000000000600052601260045260246000fdfea2646970667358221220c95abddfc3a25e1cccc8036cb429c7a349d4df025a3757b7e9ab76b1da14f3fa64736f6c63430008180033",
  "linkReferences": {},
  "deployedLinkReferences": {}
}