{
  "_format": "hh-sol-artifact-1",
  "contractName": "NFTTCG",
  "sourceName": "contracts/NFTTCG.sol",
  "abi": [
    {
      "inputs": [
        {
          "internalType": "address",
          "name": "initialOwner",
          "type": "address"
        }
      ],
      "stateMutability": "nonpayable",
      "type": "constructor"
    },
    {
      "inputs": [
        {
          "internalType": "address",
          "name": "sender",
          "type": "address"
        },
        {
          "internalType": "uint256",
          "name": "tokenId",
          "type": "uint256"
        },
        {
          "internalType": "address",
          "name": "owner",
          "type": "address"
        }
      ],
      "name": "ERC721IncorrectOwner",
      "type": "error"
    },
    {
      "inputs": [
        {
          "internalType": "address",
          "name": "operator",
          "type": "address"
        },
        {
          "internalType": "uint256",
          "name": "tokenId",
          "type": "uint256"
        }
      ],
      "name": "ERC721InsufficientApproval",
      "type": "error"
    },
    {
      "inputs": [
        {
          "internalType": "address",
          "name": "approver",
          "type": "address"
        }
      ],
      "name": "ERC721InvalidApprover",
      "type": "error"
    },
    {
      "inputs": [
        {
          "internalType": "address",
          "name": "operator",
          "type": "address"
        }
      ],
      "name": "ERC721InvalidOperator",
      "type": "error"
    },
    {
      "inputs": [
        {
          "internalType": "address",
          "name": "owner",
          "type": "address"
        }
      ],
      "name": "ERC721InvalidOwner",
      "type": "error"
    },
    {
      "inputs": [
        {
          "internalType": "address",
          "name": "receiver",
          "type": "address"
        }
      ],
      "name": "ERC721InvalidReceiver",
      "type": "error"
    },
    {
      "inputs": [
        {
          "internalType": "address",
          "name": "sender",
          "type": "address"
        }
      ],
      "name": "ERC721InvalidSender",
      "type": "error"
    },
    {
      "inputs": [
        {
          "internalType": "uint256",
          "name": "tokenId",
          "type": "uint256"
        }
      ],
      "name": "ERC721NonexistentToken",
      "type": "error"
    },
    {
      "inputs": [
        {
          "internalType": "address",
          "name": "owner",
          "type": "address"
        }
      ],
      "name": "OwnableInvalidOwner",
      "type": "error"
    },
    {
      "inputs": [
        {
          "internalType": "address",
          "name": "account",
          "type": "address"
        }
      ],
      "name": "OwnableUnauthorizedAccount",
      "type": "error"
    },
    {
      "anonymous": false,
      "inputs": [
        {
          "indexed": true,
          "internalType": "address",
          "name": "owner",
          "type": "address"
        },
        {
          "indexed": true,
          "internalType": "address",
          "name": "approved",
          "type": "address"
        },
        {
          "indexed": true,
          "internalType": "uint256",
          "name": "tokenId",
          "type": "uint256"
        }
      ],
      "name": "Approval",
      "type": "event"
    },
    {
      "anonymous": false,
      "inputs": [
        {
          "indexed": true,
          "internalType": "address",
          "name": "owner",
          "type": "address"
        },
        {
          "indexed": true,
          "internalType": "address",
          "name": "operator",
          "type": "address"
        },
        {
          "indexed": false,
          "internalType": "bool",
          "name": "approved",
          "type": "bool"
        }
      ],
      "name": "ApprovalForAll",
      "type": "event"
    },
    {
      "anonymous": false,
      "inputs": [
        {
          "indexed": false,
          "internalType": "uint256",
          "name": "_fromTokenId",
          "type": "uint256"
        },
        {
          "indexed": false,
          "internalType": "uint256",
          "name": "_toTokenId",
          "type": "uint256"
        }
      ],
      "name": "BatchMetadataUpdate",
      "type": "event"
    },
    {
      "anonymous": false,
      "inputs": [
        {
          "indexed": false,
          "internalType": "string",
          "name": "battleName",
          "type": "string"
        }
      ],
      "name": "BattleCreated",
      "type": "event"
    },
    {
      "anonymous": false,
      "inputs": [
        {
          "indexed": false,
          "internalType": "string",
          "name": "battleName",
          "type": "string"
        }
      ],
      "name": "BattleJoined",
      "type": "event"
    },
    {
      "anonymous": false,
      "inputs": [
        {
          "indexed": false,
          "internalType": "uint256",
          "name": "_tokenId",
          "type": "uint256"
        }
      ],
      "name": "MetadataUpdate",
      "type": "event"
    },
    {
      "anonymous": false,
      "inputs": [
        {
          "indexed": true,
          "internalType": "address",
          "name": "recipient",
          "type": "address"
        },
        {
          "indexed": true,
          "internalType": "uint256",
          "name": "tokenId",
          "type": "uint256"
        },
        {
          "indexed": false,
          "internalType": "string",
          "name": "metadataURI",
          "type": "string"
        }
      ],
      "name": "NFTMinted",
      "type": "event"
    },
    {
      "anonymous": false,
      "inputs": [
        {
          "indexed": true,
          "internalType": "address",
          "name": "owner",
          "type": "address"
        },
        {
          "indexed": false,
          "internalType": "string",
          "name": "name",
          "type": "string"
        }
      ],
      "name": "NewPlayer",
      "type": "event"
    },
    {
      "anonymous": false,
      "inputs": [
        {
          "indexed": true,
          "internalType": "address",
          "name": "previousOwner",
          "type": "address"
        },
        {
          "indexed": true,
          "internalType": "address",
          "name": "newOwner",
          "type": "address"
        }
      ],
      "name": "OwnershipTransferred",
      "type": "event"
    },
    {
      "anonymous": false,
      "inputs": [
        {
          "indexed": true,
          "internalType": "address",
          "name": "from",
          "type": "address"
        },
        {
          "indexed": true,
          "internalType": "address",
          "name": "to",
          "type": "address"
        },
        {
          "indexed": true,
          "internalType": "uint256",
          "name": "tokenId",
          "type": "uint256"
        }
      ],
      "name": "Transfer",
      "type": "event"
    },
    {
      "inputs": [],
      "name": "_nextTokenId",
      "outputs": [
        {
          "internalType": "uint256",
          "name": "",
          "type": "uint256"
        }
      ],
      "stateMutability": "view",
      "type": "function"
    },
    {
      "inputs": [
        {
          "internalType": "address",
          "name": "to",
          "type": "address"
        },
        {
          "internalType": "uint256",
          "name": "tokenId",
          "type": "uint256"
        }
      ],
      "name": "approve",
      "outputs": [],
      "stateMutability": "nonpayable",
      "type": "function"
    },
    {
      "inputs": [
        {
          "internalType": "address",
          "name": "owner",
          "type": "address"
        }
      ],
      "name": "balanceOf",
      "outputs": [
        {
          "internalType": "uint256",
          "name": "",
          "type": "uint256"
        }
      ],
      "stateMutability": "view",
      "type": "function"
    },
    {
      "inputs": [
        {
          "internalType": "string",
          "name": "",
          "type": "string"
        }
      ],
      "name": "battles",
      "outputs": [
        {
          "internalType": "address",
          "name": "host",
          "type": "address"
        },
        {
          "internalType": "address",
          "name": "opponentAddress",
          "type": "address"
        },
        {
          "internalType": "string",
          "name": "battleMode",
          "type": "string"
        },
        {
          "internalType": "bool",
          "name": "battleStatus",
          "type": "bool"
        }
      ],
      "stateMutability": "view",
      "type": "function"
    },
    {
      "inputs": [
        {
          "internalType": "string",
          "name": "",
          "type": "string"
        },
        {
          "internalType": "uint256",
          "name": "",
          "type": "uint256"
        }
      ],
      "name": "battlesByGameMode",
      "outputs": [
        {
          "internalType": "string",
          "name": "",
          "type": "string"
        }
      ],
      "stateMutability": "view",
      "type": "function"
    },
    {
      "inputs": [],
      "name": "count",
      "outputs": [
        {
          "internalType": "uint256",
          "name": "",
          "type": "uint256"
        }
      ],
      "stateMutability": "view",
      "type": "function"
    },
    {
      "inputs": [
        {
          "internalType": "address",
          "name": "host",
          "type": "address"
        },
        {
          "internalType": "string",
          "name": "_battleMode",
          "type": "string"
        },
        {
          "internalType": "string",
          "name": "_battleName",
          "type": "string"
        }
      ],
      "name": "createBattle",
      "outputs": [],
      "stateMutability": "nonpayable",
      "type": "function"
    },
    {
      "inputs": [],
      "name": "getAllPlayers",
      "outputs": [
        {
          "components": [
            {
              "internalType": "address",
              "name": "playerAddress",
              "type": "address"
            },
            {
              "internalType": "string",
              "name": "playerName",
              "type": "string"
            },
            {
              "internalType": "string",
              "name": "emailId",
              "type": "string"
            },
            {
              "internalType": "uint256[]",
              "name": "playerCards",
              "type": "uint256[]"
            }
          ],
          "internalType": "struct NFTTCG.Player[]",
          "name": "",
          "type": "tuple[]"
        }
      ],
      "stateMutability": "view",
      "type": "function"
    },
    {
      "inputs": [
        {
          "internalType": "uint256",
          "name": "tokenId",
          "type": "uint256"
        }
      ],
      "name": "getApproved",
      "outputs": [
        {
          "internalType": "address",
          "name": "",
          "type": "address"
        }
      ],
      "stateMutability": "view",
      "type": "function"
    },
    {
      "inputs": [
        {
          "internalType": "address",
          "name": "playerAddress",
          "type": "address"
        }
      ],
      "name": "getAvailableCards",
      "outputs": [
        {
          "internalType": "string[]",
          "name": "",
          "type": "string[]"
        }
      ],
      "stateMutability": "view",
      "type": "function"
    },
    {
      "inputs": [
        {
          "internalType": "uint256",
          "name": "tokenId",
          "type": "uint256"
        }
      ],
      "name": "getCardOwner",
      "outputs": [
        {
          "internalType": "address",
          "name": "",
          "type": "address"
        }
      ],
      "stateMutability": "view",
      "type": "function"
    },
    {
      "inputs": [
        {
          "internalType": "string",
          "name": "_gameMode",
          "type": "string"
        }
      ],
      "name": "getIncompleteBattleNames",
      "outputs": [
        {
          "internalType": "string[]",
          "name": "",
          "type": "string[]"
        }
      ],
      "stateMutability": "view",
      "type": "function"
    },
    {
      "inputs": [
        {
          "internalType": "address",
          "name": "addr",
          "type": "address"
        }
      ],
      "name": "getPlayer",
      "outputs": [
        {
          "components": [
            {
              "internalType": "address",
              "name": "playerAddress",
              "type": "address"
            },
            {
              "internalType": "string",
              "name": "playerName",
              "type": "string"
            },
            {
              "internalType": "string",
              "name": "emailId",
              "type": "string"
            },
            {
              "internalType": "uint256[]",
              "name": "playerCards",
              "type": "uint256[]"
            }
          ],
          "internalType": "struct NFTTCG.Player",
          "name": "",
          "type": "tuple"
        }
      ],
      "stateMutability": "view",
      "type": "function"
    },
    {
      "inputs": [
        {
          "internalType": "address",
          "name": "playerAddress",
          "type": "address"
        }
      ],
      "name": "getPlayerCardCount",
      "outputs": [
        {
          "internalType": "uint256",
          "name": "",
          "type": "uint256"
        }
      ],
      "stateMutability": "view",
      "type": "function"
    },
    {
      "inputs": [
        {
          "internalType": "address",
          "name": "owner",
          "type": "address"
        },
        {
          "internalType": "address",
          "name": "operator",
          "type": "address"
        }
      ],
      "name": "isApprovedForAll",
      "outputs": [
        {
          "internalType": "bool",
          "name": "",
          "type": "bool"
        }
      ],
      "stateMutability": "view",
      "type": "function"
    },
    {
      "inputs": [
        {
          "internalType": "string",
          "name": "_battleName",
          "type": "string"
        }
      ],
      "name": "isBattleStartedByName",
      "outputs": [
        {
          "internalType": "bool",
          "name": "",
          "type": "bool"
        }
      ],
      "stateMutability": "view",
      "type": "function"
    },
    {
      "inputs": [
        {
          "internalType": "address",
          "name": "addr",
          "type": "address"
        }
      ],
      "name": "isPlayer",
      "outputs": [
        {
          "internalType": "bool",
          "name": "",
          "type": "bool"
        }
      ],
      "stateMutability": "view",
      "type": "function"
    },
    {
      "inputs": [
        {
          "internalType": "string",
          "name": "_battleName",
          "type": "string"
        },
        {
          "internalType": "address",
          "name": "_opponentAddress",
          "type": "address"
        }
      ],
      "name": "joinBattleByName",
      "outputs": [],
      "stateMutability": "nonpayable",
      "type": "function"
    },
    {
      "inputs": [],
      "name": "name",
      "outputs": [
        {
          "internalType": "string",
          "name": "",
          "type": "string"
        }
      ],
      "stateMutability": "view",
      "type": "function"
    },
    {
      "inputs": [],
      "name": "owner",
      "outputs": [
        {
          "internalType": "address",
          "name": "",
          "type": "address"
        }
      ],
      "stateMutability": "view",
      "type": "function"
    },
    {
      "inputs": [
        {
          "internalType": "uint256",
          "name": "tokenId",
          "type": "uint256"
        }
      ],
      "name": "ownerOf",
      "outputs": [
        {
          "internalType": "address",
          "name": "",
          "type": "address"
        }
      ],
      "stateMutability": "view",
      "type": "function"
    },
    {
      "inputs": [
        {
          "internalType": "address",
          "name": "recipient",
          "type": "address"
        },
        {
          "internalType": "string",
          "name": "metadataURI",
          "type": "string"
        }
      ],
      "name": "payToMint",
      "outputs": [],
      "stateMutability": "payable",
      "type": "function"
    },
    {
      "inputs": [
        {
          "internalType": "address",
          "name": "",
          "type": "address"
        }
      ],
      "name": "playerInfo",
      "outputs": [
        {
          "internalType": "uint256",
          "name": "",
          "type": "uint256"
        }
      ],
      "stateMutability": "view",
      "type": "function"
    },
    {
      "inputs": [
        {
          "internalType": "uint256",
          "name": "",
          "type": "uint256"
        }
      ],
      "name": "players",
      "outputs": [
        {
          "internalType": "address",
          "name": "playerAddress",
          "type": "address"
        },
        {
          "internalType": "string",
          "name": "playerName",
          "type": "string"
        },
        {
          "internalType": "string",
          "name": "emailId",
          "type": "string"
        }
      ],
      "stateMutability": "view",
      "type": "function"
    },
    {
      "inputs": [
        {
          "internalType": "address",
          "name": "_address",
          "type": "address"
        },
        {
          "internalType": "string",
          "name": "_name",
          "type": "string"
        },
        {
          "internalType": "string",
          "name": "_email",
          "type": "string"
        }
      ],
      "name": "registerPlayer",
      "outputs": [],
      "stateMutability": "nonpayable",
      "type": "function"
    },
    {
      "inputs": [],
      "name": "renounceOwnership",
      "outputs": [],
      "stateMutability": "nonpayable",
      "type": "function"
    },
    {
      "inputs": [
        {
          "internalType": "address",
          "name": "from",
          "type": "address"
        },
        {
          "internalType": "address",
          "name": "to",
          "type": "address"
        },
        {
          "internalType": "uint256",
          "name": "tokenId",
          "type": "uint256"
        }
      ],
      "name": "safeTransferFrom",
      "outputs": [],
      "stateMutability": "nonpayable",
      "type": "function"
    },
    {
      "inputs": [
        {
          "internalType": "address",
          "name": "from",
          "type": "address"
        },
        {
          "internalType": "address",
          "name": "to",
          "type": "address"
        },
        {
          "internalType": "uint256",
          "name": "tokenId",
          "type": "uint256"
        },
        {
          "internalType": "bytes",
          "name": "data",
          "type": "bytes"
        }
      ],
      "name": "safeTransferFrom",
      "outputs": [],
      "stateMutability": "nonpayable",
      "type": "function"
    },
    {
      "inputs": [
        {
          "internalType": "address",
          "name": "operator",
          "type": "address"
        },
        {
          "internalType": "bool",
          "name": "approved",
          "type": "bool"
        }
      ],
      "name": "setApprovalForAll",
      "outputs": [],
      "stateMutability": "nonpayable",
      "type": "function"
    },
    {
      "inputs": [
        {
          "internalType": "bytes4",
          "name": "interfaceId",
          "type": "bytes4"
        }
      ],
      "name": "supportsInterface",
      "outputs": [
        {
          "internalType": "bool",
          "name": "",
          "type": "bool"
        }
      ],
      "stateMutability": "view",
      "type": "function"
    },
    {
      "inputs": [],
      "name": "symbol",
      "outputs": [
        {
          "internalType": "string",
          "name": "",
          "type": "string"
        }
      ],
      "stateMutability": "view",
      "type": "function"
    },
    {
      "inputs": [
        {
          "internalType": "uint256",
          "name": "tokenId",
          "type": "uint256"
        }
      ],
      "name": "tokenURI",
      "outputs": [
        {
          "internalType": "string",
          "name": "",
          "type": "string"
        }
      ],
      "stateMutability": "view",
      "type": "function"
    },
    {
      "inputs": [
        {
          "internalType": "address",
          "name": "from",
          "type": "address"
        },
        {
          "internalType": "address",
          "name": "to",
          "type": "address"
        },
        {
          "internalType": "uint256",
          "name": "tokenId",
          "type": "uint256"
        }
      ],
      "name": "transferFrom",
      "outputs": [],
      "stateMutability": "nonpayable",
      "type": "function"
    },
    {
      "inputs": [
        {
          "internalType": "address",
          "name": "from",
          "type": "address"
        },
        {
          "internalType": "address",
          "name": "to",
          "type": "address"
        },
        {
          "internalType": "uint256",
          "name": "tokenId",
          "type": "uint256"
        }
      ],
      "name": "transferNFT",
      "outputs": [],
      "stateMutability": "nonpayable",
      "type": "function"
    },
    {
      "inputs": [
        {
          "internalType": "address",
          "name": "newOwner",
          "type": "address"
        }
      ],
      "name": "transferOwnership",
      "outputs": [],
      "stateMutability": "nonpayable",
      "type": "function"
    }
  ],
  "bytecode": "0x60806040523480156200001157600080fd5b506040516200578038038062005780833981810160405281019062000037919062000471565b806040518060400160405280600681526020017f4e465454434700000000000000000000000000000000000000000000000000008152506040518060400160405280600381526020017f54434700000000000000000000000000000000000000000000000000000000008152508160009081620000b591906200071d565b508060019081620000c791906200071d565b505050600073ffffffffffffffffffffffffffffffffffffffff168173ffffffffffffffffffffffffffffffffffffffff16036200013f5760006040517f1e4fbdf700000000000000000000000000000000000000000000000000000000815260040162000136919062000815565b60405180910390fd5b62000150816200016860201b60201c565b50620001616200022e60201b60201c565b5062000832565b6000600760009054906101000a900473ffffffffffffffffffffffffffffffffffffffff16905081600760006101000a81548173ffffffffffffffffffffffffffffffffffffffff021916908373ffffffffffffffffffffffffffffffffffffffff1602179055508173ffffffffffffffffffffffffffffffffffffffff168173ffffffffffffffffffffffffffffffffffffffff167f8be0079c531659141344cd1fd0a4f28419497f9722a3daafe3b4186f6b6457e060405160405180910390a35050565b600d6040518060800160405280600073ffffffffffffffffffffffffffffffffffffffff168152602001604051806020016040528060008152508152602001604051806020016040528060008152508152602001600067ffffffffffffffff811115620002a0576200029f620004ae565b5b604051908082528060200260200182016040528015620002cf5781602001602082028036833780820191505090505b50815250908060018154018082558091505060019003906000526020600020906004020160009091909190915060008201518160000160006101000a81548173ffffffffffffffffffffffffffffffffffffffff021916908373ffffffffffffffffffffffffffffffffffffffff16021790555060208201518160010190816200035a91906200071d565b5060408201518160020190816200037291906200071d565b5060608201518160030190805190602001906200039192919062000396565b505050565b828054828255906000526020600020908101928215620003d5579160200282015b82811115620003d4578251825591602001919060010190620003b7565b5b509050620003e49190620003e8565b5090565b5b8082111562000403576000816000905550600101620003e9565b5090565b600080fd5b600073ffffffffffffffffffffffffffffffffffffffff82169050919050565b600062000439826200040c565b9050919050565b6200044b816200042c565b81146200045757600080fd5b50565b6000815190506200046b8162000440565b92915050565b6000602082840312156200048a576200048962000407565b5b60006200049a848285016200045a565b91505092915050565b600081519050919050565b7f4e487b7100000000000000000000000000000000000000000000000000000000600052604160045260246000fd5b7f4e487b7100000000000000000000000000000000000000000000000000000000600052602260045260246000fd5b600060028204905060018216806200052557607f821691505b6020821081036200053b576200053a620004dd565b5b50919050565b60008190508160005260206000209050919050565b60006020601f8301049050919050565b600082821b905092915050565b600060088302620005a57fffffffffffffffffffffffffffffffffffffffffffffffffffffffffffffffff8262000566565b620005b1868362000566565b95508019841693508086168417925050509392505050565b6000819050919050565b6000819050919050565b6000620005fe620005f8620005f284620005c9565b620005d3565b620005c9565b9050919050565b6000819050919050565b6200061a83620005dd565b62000632620006298262000605565b84845462000573565b825550505050565b600090565b620006496200063a565b620006568184846200060f565b505050565b5b818110156200067e57620006726000826200063f565b6001810190506200065c565b5050565b601f821115620006cd57620006978162000541565b620006a28462000556565b81016020851015620006b2578190505b620006ca620006c18562000556565b8301826200065b565b50505b505050565b600082821c905092915050565b6000620006f260001984600802620006d2565b1980831691505092915050565b60006200070d8383620006df565b9150826002028217905092915050565b6200072882620004a3565b67ffffffffffffffff811115620007445762000743620004ae565b5b6200075082546200050c565b6200075d82828562000682565b600060209050601f83116001811462000795576000841562000780578287015190505b6200078c8582620006ff565b865550620007fc565b601f198416620007a58662000541565b60005b82811015620007cf57848901518255600182019150602085019450602081019050620007a8565b86831015620007ef5784890151620007eb601f891682620006df565b8355505b6001600288020188555050505b505050505050565b6200080f816200042c565b82525050565b60006020820190506200082c600083018462000804565b92915050565b614f3e80620008426000396000f3fe6080604052600436106102045760003560e01c8063715018a611610118578063b88d4fde116100a0578063ef581f111161006f578063ef581f11146107f1578063efa1c4821461082e578063f2fde38b14610859578063f3eb8b5314610882578063f71d96cb146108ab57610204565b8063b88d4fde14610711578063c87b56dd1461073a578063d28e8e1914610777578063e985e9c5146107b457610204565b806395d89b41116100e757806395d89b411461062e57806399adbfd514610659578063a04b30d014610682578063a22cb465146106bf578063ab01d9a3146106e857610204565b8063715018a61461056f57806377bb7b78146105865780638b2fb93a146105c65780638da5cb5b1461060357610204565b806342842e0e1161019b5780635e41a4f11161016a5780635e41a4f114610473578063615fd9e2146104b05780636352211e146104cc57806369e9cae11461050957806370a082311461053257610204565b806342842e0e146103a55780634a60f620146103ce5780634b114691146103f95780635c12cd4b1461043657610204565b8063081812fc116101d7578063081812fc146102d9578063095ea7b31461031657806309c95e101461033f57806323b872dd1461037c57610204565b8063010abbd01461020957806301ffc9a71461024657806306661abd1461028357806306fdde03146102ae575b600080fd5b34801561021557600080fd5b50610230600480360381019061022b91906138d1565b6108ea565b60405161023d919061393f565b60405180910390f35b34801561025257600080fd5b5061026d600480360381019061026891906139b2565b610945565b60405161027a91906139fa565b60405180910390f35b34801561028f57600080fd5b50610298610957565b6040516102a59190613a24565b60405180910390f35b3480156102ba57600080fd5b506102c3610961565b6040516102d09190613acf565b60405180910390f35b3480156102e557600080fd5b5061030060048036038101906102fb91906138d1565b6109f3565b60405161030d919061393f565b60405180910390f35b34801561032257600080fd5b5061033d60048036038101906103389190613b1d565b610a0f565b005b34801561034b57600080fd5b5061036660048036038101906103619190613b5d565b610a25565b60405161037391906139fa565b60405180910390f35b34801561038857600080fd5b506103a3600480360381019061039e9190613b8a565b610a80565b005b3480156103b157600080fd5b506103cc60048036038101906103c79190613b8a565b610b82565b005b3480156103da57600080fd5b506103e3610ba2565b6040516103f09190613a24565b60405180910390f35b34801561040557600080fd5b50610420600480360381019061041b9190613b5d565b610ba8565b60405161042d9190613a24565b60405180910390f35b34801561044257600080fd5b5061045d60048036038101906104589190613b5d565b610bc0565b60405161046a9190613d65565b60405180910390f35b34801561047f57600080fd5b5061049a60048036038101906104959190613b5d565b610e55565b6040516104a79190613a24565b60405180910390f35b6104ca60048036038101906104c59190613ebc565b610ecb565b005b3480156104d857600080fd5b506104f360048036038101906104ee91906138d1565b611029565b604051610500919061393f565b60405180910390f35b34801561051557600080fd5b50610530600480360381019061052b9190613b8a565b61103b565b005b34801561053e57600080fd5b5061055960048036038101906105549190613b5d565b61127a565b6040516105669190613a24565b60405180910390f35b34801561057b57600080fd5b50610584611334565b005b34801561059257600080fd5b506105ad60048036038101906105a89190613f18565b611348565b6040516105bd9493929190613f61565b60405180910390f35b3480156105d257600080fd5b506105ed60048036038101906105e89190613f18565b611463565b6040516105fa91906139fa565b60405180910390f35b34801561060f57600080fd5b506106186114e9565b604051610625919061393f565b60405180910390f35b34801561063a57600080fd5b50610643611513565b6040516106509190613acf565b60405180910390f35b34801561066557600080fd5b50610680600480360381019061067b9190613fad565b6115a5565b005b34801561068e57600080fd5b506106a960048036038101906106a49190614038565b6117c0565b6040516106b69190613acf565b60405180910390f35b3480156106cb57600080fd5b506106e660048036038101906106e191906140c0565b61188f565b005b3480156106f457600080fd5b5061070f600480360381019061070a9190613fad565b6118a5565b005b34801561071d57600080fd5b50610738600480360381019061073391906141a1565b611acd565b005b34801561074657600080fd5b50610761600480360381019061075c91906138d1565b611aea565b60405161076e9190613acf565b60405180910390f35b34801561078357600080fd5b5061079e60048036038101906107999190613b5d565b611afc565b6040516107ab91906142e6565b60405180910390f35b3480156107c057600080fd5b506107db60048036038101906107d69190614308565b611c7f565b6040516107e891906139fa565b60405180910390f35b3480156107fd57600080fd5b5061081860048036038101906108139190613f18565b611d13565b60405161082591906142e6565b60405180910390f35b34801561083a57600080fd5b50610843611ee1565b604051610850919061447b565b60405180910390f35b34801561086557600080fd5b50610880600480360381019061087b9190613b5d565b612112565b005b34801561088e57600080fd5b506108a960048036038101906108a4919061449d565b612198565b005b3480156108b757600080fd5b506108d260048036038101906108cd91906138d1565b6122f0565b6040516108e1939291906144f9565b60405180910390f35b60006108f4610957565b8210610935576040517f08c379a000000000000000000000000000000000000000000000000000000000815260040161092c9061458a565b60405180910390fd5b61093e82611029565b9050919050565b60006109508261245a565b9050919050565b6000600854905090565b606060008054610970906145d9565b80601f016020809104026020016040519081016040528092919081815260200182805461099c906145d9565b80156109e95780601f106109be576101008083540402835291602001916109e9565b820191906000526020600020905b8154815290600101906020018083116109cc57829003601f168201915b5050505050905090565b60006109fe826124bb565b50610a0882612543565b9050919050565b610a218282610a1c612580565b612588565b5050565b600080600a60008473ffffffffffffffffffffffffffffffffffffffff1673ffffffffffffffffffffffffffffffffffffffff1681526020019081526020016000205403610a765760009050610a7b565b600190505b919050565b600073ffffffffffffffffffffffffffffffffffffffff168273ffffffffffffffffffffffffffffffffffffffff1603610af25760006040517f64a0ae92000000000000000000000000000000000000000000000000000000008152600401610ae9919061393f565b60405180910390fd5b6000610b068383610b01612580565b61259a565b90508373ffffffffffffffffffffffffffffffffffffffff168173ffffffffffffffffffffffffffffffffffffffff1614610b7c578382826040517f64283d7b000000000000000000000000000000000000000000000000000000008152600401610b739392919061460a565b60405180910390fd5b50505050565b610b9d83838360405180602001604052806000815250611acd565b505050565b60085481565b600a6020528060005260406000206000915090505481565b610bc86137df565b610bd182610a25565b610c10576040517f08c379a0000000000000000000000000000000000000000000000000000000008152600401610c079061468d565b60405180910390fd5b600d600a60008473ffffffffffffffffffffffffffffffffffffffff1673ffffffffffffffffffffffffffffffffffffffff1681526020019081526020016000205481548110610c6357610c626146ad565b5b90600052602060002090600402016040518060800160405290816000820160009054906101000a900473ffffffffffffffffffffffffffffffffffffffff1673ffffffffffffffffffffffffffffffffffffffff1673ffffffffffffffffffffffffffffffffffffffff168152602001600182018054610ce2906145d9565b80601f0160208091040260200160405190810160405280929190818152602001828054610d0e906145d9565b8015610d5b5780601f10610d3057610100808354040283529160200191610d5b565b820191906000526020600020905b815481529060010190602001808311610d3e57829003601f168201915b50505050508152602001600282018054610d74906145d9565b80601f0160208091040260200160405190810160405280929190818152602001828054610da0906145d9565b8015610ded5780601f10610dc257610100808354040283529160200191610ded565b820191906000526020600020905b815481529060010190602001808311610dd057829003601f168201915b5050505050815260200160038201805480602002602001604051908101604052809291908181526020018280548015610e4557602002820191906000526020600020905b815481526020019060010190808311610e31575b5050505050815250509050919050565b600080600a60008473ffffffffffffffffffffffffffffffffffffffff1673ffffffffffffffffffffffffffffffffffffffff168152602001908152602001600020549050600d8181548110610eae57610ead6146ad565b5b906000526020600020906004020160030180549050915050919050565b66b1a2bc2ec50000341015610f15576040517f08c379a0000000000000000000000000000000000000000000000000000000008152600401610f0c90614728565b60405180910390fd5b600060086000815480929190610f2a90614777565b919050559050610f3a83826127b4565b610f4481836128ad565b808373ffffffffffffffffffffffffffffffffffffffff167fd35bb95e09c04b219e35047ce7b7b300e3384264ef84a40456943dbc0fc17c1484604051610f8b9190613acf565b60405180910390a36000600a60008573ffffffffffffffffffffffffffffffffffffffff1673ffffffffffffffffffffffffffffffffffffffff168152602001908152602001600020549050600d8181548110610feb57610fea6146ad565b5b906000526020600020906004020160030182908060018154018082558091505060019003906000526020600020016000909190919091505550505050565b6000611034826124bb565b9050919050565b8273ffffffffffffffffffffffffffffffffffffffff1661105b82611029565b73ffffffffffffffffffffffffffffffffffffffff16146110b1576040517f08c379a00000000000000000000000000000000000000000000000000000000081526004016110a89061480b565b60405180910390fd5b6110bc838383612909565b6000600a60008573ffffffffffffffffffffffffffffffffffffffff1673ffffffffffffffffffffffffffffffffffffffff1681526020019081526020016000205490506000600d8281548110611116576111156146ad565b5b9060005260206000209060040201600301905060005b81805490508110156111e4578382828154811061114c5761114b6146ad565b5b9060005260206000200154036111d757816001838054905061116e919061482b565b8154811061117f5761117e6146ad565b5b906000526020600020015482828154811061119d5761119c6146ad565b5b9060005260206000200181905550818054806111bc576111bb61485f565b5b600190038181906000526020600020016000905590556111e4565b808060010191505061112c565b50600a60008573ffffffffffffffffffffffffffffffffffffffff1673ffffffffffffffffffffffffffffffffffffffff168152602001908152602001600020549150600d828154811061123b5761123a6146ad565b5b90600052602060002090600402016003018390806001815401808255809150506001900390600052602060002001600090919091909150555050505050565b60008073ffffffffffffffffffffffffffffffffffffffff168273ffffffffffffffffffffffffffffffffffffffff16036112ed5760006040517f89c62b640000000000000000000000000000000000000000000000000000000081526004016112e4919061393f565b60405180910390fd5b600360008373ffffffffffffffffffffffffffffffffffffffff1673ffffffffffffffffffffffffffffffffffffffff168152602001908152602001600020549050919050565b61133c612a76565b6113466000612afd565b565b600b818051602081018201805184825260208301602085012081835280955050505050506000915090508060000160009054906101000a900473ffffffffffffffffffffffffffffffffffffffff16908060010160009054906101000a900473ffffffffffffffffffffffffffffffffffffffff16908060020180546113cd906145d9565b80601f01602080910402602001604051908101604052809291908181526020018280546113f9906145d9565b80156114465780601f1061141b57610100808354040283529160200191611446565b820191906000526020600020905b81548152906001019060200180831161142957829003601f168201915b5050505050908060030160009054906101000a900460ff16905084565b600061146e82612bc3565b6114ad576040517f08c379a00000000000000000000000000000000000000000000000000000000081526004016114a4906148da565b60405180910390fd5b6000600b836040516114bf9190614936565b908152602001604051809103902090508060030160009054906101000a900460ff16915050919050565b6000600760009054906101000a900473ffffffffffffffffffffffffffffffffffffffff16905090565b606060018054611522906145d9565b80601f016020809104026020016040519081016040528092919081815260200182805461154e906145d9565b801561159b5780601f106115705761010080835404028352916020019161159b565b820191906000526020600020905b81548152906001019060200180831161157e57829003601f168201915b5050505050905090565b6115ae81612bc3565b156115ee576040517f08c379a00000000000000000000000000000000000000000000000000000000081526004016115e590614999565b60405180910390fd5b600060405180608001604052808573ffffffffffffffffffffffffffffffffffffffff168152602001600073ffffffffffffffffffffffffffffffffffffffff16815260200184815260200160001515815250905080600b836040516116549190614936565b908152602001604051809103902060008201518160000160006101000a81548173ffffffffffffffffffffffffffffffffffffffff021916908373ffffffffffffffffffffffffffffffffffffffff16021790555060208201518160010160006101000a81548173ffffffffffffffffffffffffffffffffffffffff021916908373ffffffffffffffffffffffffffffffffffffffff16021790555060408201518160020190816117059190614b65565b5060608201518160030160006101000a81548160ff02191690831515021790555090505061173282612bf8565b600c836040516117429190614936565b9081526020016040518091039020829080600181540180825580915050600190039060005260206000200160009091909190915090816117829190614b65565b507f774a6c8551f8151df733dad137868a2056700742e7cc90cf3b9bd173b5930283826040516117b29190613acf565b60405180910390a150505050565b600c8280516020810182018051848252602083016020850120818352809550505050505081815481106117f257600080fd5b9060005260206000200160009150915050805461180e906145d9565b80601f016020809104026020016040519081016040528092919081815260200182805461183a906145d9565b80156118875780601f1061185c57610100808354040283529160200191611887565b820191906000526020600020905b81548152906001019060200180831161186a57829003601f168201915b505050505081565b6118a161189a612580565b8383612c32565b5050565b6118ae83610a25565b156118ee576040517f08c379a00000000000000000000000000000000000000000000000000000000081526004016118e590614c83565b60405180910390fd5b6000600d805490509050600d60405180608001604052808673ffffffffffffffffffffffffffffffffffffffff168152602001858152602001848152602001600067ffffffffffffffff81111561194857611947613d91565b5b6040519080825280602002602001820160405280156119765781602001602082028036833780820191505090505b50815250908060018154018082558091505060019003906000526020600020906004020160009091909190915060008201518160000160006101000a81548173ffffffffffffffffffffffffffffffffffffffff021916908373ffffffffffffffffffffffffffffffffffffffff16021790555060208201518160010190816119ff9190614b65565b506040820151816002019081611a159190614b65565b506060820151816003019080519060200190611a3292919061381d565b50505080600a60008673ffffffffffffffffffffffffffffffffffffffff1673ffffffffffffffffffffffffffffffffffffffff168152602001908152602001600020819055508373ffffffffffffffffffffffffffffffffffffffff167f81ef79d1cda814a60c0fc60792e648a06d9c6bae67176346d1cc8b63030bfccd84604051611abf9190613acf565b60405180910390a250505050565b611ad8848484610a80565b611ae484848484612da1565b50505050565b6060611af582612f58565b9050919050565b60606000600a60008473ffffffffffffffffffffffffffffffffffffffff1673ffffffffffffffffffffffffffffffffffffffff1681526020019081526020016000205490506000600d8281548110611b5857611b576146ad565b5b9060005260206000209060040201600301805480602002602001604051908101604052809291908181526020018280548015611bb357602002820191906000526020600020905b815481526020019060010190808311611b9f575b505050505090506000815167ffffffffffffffff811115611bd757611bd6613d91565b5b604051908082528060200260200182016040528015611c0a57816020015b6060815260200190600190039081611bf55790505b50905060005b8251811015611c73576000838281518110611c2e57611c2d6146ad565b5b602002602001015190506000611c4382611aea565b905080848481518110611c5957611c586146ad565b5b602002602001018190525050508080600101915050611c10565b50809350505050919050565b6000600560008473ffffffffffffffffffffffffffffffffffffffff1673ffffffffffffffffffffffffffffffffffffffff16815260200190815260200160002060008373ffffffffffffffffffffffffffffffffffffffff1673ffffffffffffffffffffffffffffffffffffffff16815260200190815260200160002060009054906101000a900460ff16905092915050565b60606000600c83604051611d279190614936565b908152602001604051809103902090506000818054905067ffffffffffffffff811115611d5757611d56613d91565b5b604051908082528060200260200182016040528015611d8a57816020015b6060815260200190600190039081611d755790505b5090506000805b8380549050811015611ed2576000600b858381548110611db457611db36146ad565b5b90600052602060002001604051611dcb9190614d26565b908152602001604051809103902090508060030160009054906101000a900460ff16611ec457848281548110611e0457611e036146ad565b5b906000526020600020018054611e19906145d9565b80601f0160208091040260200160405190810160405280929190818152602001828054611e45906145d9565b8015611e925780601f10611e6757610100808354040283529160200191611e92565b820191906000526020600020905b815481529060010190602001808311611e7557829003601f168201915b5050505050848481518110611eaa57611ea96146ad565b5b60200260200101819052508280611ec090614777565b9350505b508080600101915050611d91565b50808252819350505050919050565b6060600d805480602002602001604051908101604052809291908181526020016000905b8282101561210957838290600052602060002090600402016040518060800160405290816000820160009054906101000a900473ffffffffffffffffffffffffffffffffffffffff1673ffffffffffffffffffffffffffffffffffffffff1673ffffffffffffffffffffffffffffffffffffffff168152602001600182018054611f8e906145d9565b80601f0160208091040260200160405190810160405280929190818152602001828054611fba906145d9565b80156120075780601f10611fdc57610100808354040283529160200191612007565b820191906000526020600020905b815481529060010190602001808311611fea57829003601f168201915b50505050508152602001600282018054612020906145d9565b80601f016020809104026020016040519081016040528092919081815260200182805461204c906145d9565b80156120995780601f1061206e57610100808354040283529160200191612099565b820191906000526020600020905b81548152906001019060200180831161207c57829003601f168201915b50505050508152602001600382018054806020026020016040519081016040528092919081815260200182805480156120f157602002820191906000526020600020905b8154815260200190600101908083116120dd575b50505050508152505081526020019060010190611f05565b50505050905090565b61211a612a76565b600073ffffffffffffffffffffffffffffffffffffffff168173ffffffffffffffffffffffffffffffffffffffff160361218c5760006040517f1e4fbdf7000000000000000000000000000000000000000000000000000000008152600401612183919061393f565b60405180910390fd5b61219581612afd565b50565b6121a182612bc3565b6121e0576040517f08c379a00000000000000000000000000000000000000000000000000000000081526004016121d7906148da565b60405180910390fd5b6000600b836040516121f29190614936565b908152602001604051809103902090508060030160009054906101000a900460ff1615612254576040517f08c379a000000000000000000000000000000000000000000000000000000000815260040161224b90614d89565b60405180910390fd5b818160010160006101000a81548173ffffffffffffffffffffffffffffffffffffffff021916908373ffffffffffffffffffffffffffffffffffffffff16021790555060018160030160006101000a81548160ff0219169083151502179055507f2b706aa6dcf58d2b9f4441ccdf606beb9b59c5139ba98ed25d0f360a122cb3a4836040516122e39190613acf565b60405180910390a1505050565b600d818154811061230057600080fd5b90600052602060002090600402016000915090508060000160009054906101000a900473ffffffffffffffffffffffffffffffffffffffff1690806001018054612349906145d9565b80601f0160208091040260200160405190810160405280929190818152602001828054612375906145d9565b80156123c25780601f10612397576101008083540402835291602001916123c2565b820191906000526020600020905b8154815290600101906020018083116123a557829003601f168201915b5050505050908060020180546123d7906145d9565b80601f0160208091040260200160405190810160405280929190818152602001828054612403906145d9565b80156124505780601f1061242557610100808354040283529160200191612450565b820191906000526020600020905b81548152906001019060200180831161243357829003601f168201915b5050505050905083565b6000634906490660e01b7bffffffffffffffffffffffffffffffffffffffffffffffffffffffff1916827bffffffffffffffffffffffffffffffffffffffffffffffffffffffff191614806124b457506124b38261306b565b5b9050919050565b6000806124c78361314d565b9050600073ffffffffffffffffffffffffffffffffffffffff168173ffffffffffffffffffffffffffffffffffffffff160361253a57826040517f7e2732890000000000000000000000000000000000000000000000000000000081526004016125319190613a24565b60405180910390fd5b80915050919050565b60006004600083815260200190815260200160002060009054906101000a900473ffffffffffffffffffffffffffffffffffffffff169050919050565b600033905090565b612595838383600161318a565b505050565b6000806125a68461314d565b9050600073ffffffffffffffffffffffffffffffffffffffff168373ffffffffffffffffffffffffffffffffffffffff16146125e8576125e781848661334f565b5b600073ffffffffffffffffffffffffffffffffffffffff168173ffffffffffffffffffffffffffffffffffffffff16146126795761262a60008560008061318a565b6001600360008373ffffffffffffffffffffffffffffffffffffffff1673ffffffffffffffffffffffffffffffffffffffff168152602001908152602001600020600082825403925050819055505b600073ffffffffffffffffffffffffffffffffffffffff168573ffffffffffffffffffffffffffffffffffffffff16146126fc576001600360008773ffffffffffffffffffffffffffffffffffffffff1673ffffffffffffffffffffffffffffffffffffffff168152602001908152602001600020600082825401925050819055505b846002600086815260200190815260200160002060006101000a81548173ffffffffffffffffffffffffffffffffffffffff021916908373ffffffffffffffffffffffffffffffffffffffff160217905550838573ffffffffffffffffffffffffffffffffffffffff168273ffffffffffffffffffffffffffffffffffffffff167fddf252ad1be2c89b69c2b068fc378daa952ba7f163c4a11628f55a4df523b3ef60405160405180910390a4809150509392505050565b600073ffffffffffffffffffffffffffffffffffffffff168273ffffffffffffffffffffffffffffffffffffffff16036128265760006040517f64a0ae9200000000000000000000000000000000000000000000000000000000815260040161281d919061393f565b60405180910390fd5b60006128348383600061259a565b9050600073ffffffffffffffffffffffffffffffffffffffff168173ffffffffffffffffffffffffffffffffffffffff16146128a85760006040517f73c6ac6e00000000000000000000000000000000000000000000000000000000815260040161289f919061393f565b60405180910390fd5b505050565b806006600084815260200190815260200160002090816128cd9190614b65565b507ff8e1a15aba9398e019f0b49df1a4fde98ee17ae345cb5f6b5e2c27f5033e8ce7826040516128fd9190613a24565b60405180910390a15050565b600073ffffffffffffffffffffffffffffffffffffffff168273ffffffffffffffffffffffffffffffffffffffff160361297b5760006040517f64a0ae92000000000000000000000000000000000000000000000000000000008152600401612972919061393f565b60405180910390fd5b60006129898383600061259a565b9050600073ffffffffffffffffffffffffffffffffffffffff168173ffffffffffffffffffffffffffffffffffffffff16036129fc57816040517f7e2732890000000000000000000000000000000000000000000000000000000081526004016129f39190613a24565b60405180910390fd5b8373ffffffffffffffffffffffffffffffffffffffff168173ffffffffffffffffffffffffffffffffffffffff1614612a70578382826040517f64283d7b000000000000000000000000000000000000000000000000000000008152600401612a679392919061460a565b60405180910390fd5b50505050565b612a7e612580565b73ffffffffffffffffffffffffffffffffffffffff16612a9c6114e9565b73ffffffffffffffffffffffffffffffffffffffff1614612afb57612abf612580565b6040517f118cdaa7000000000000000000000000000000000000000000000000000000008152600401612af2919061393f565b60405180910390fd5b565b6000600760009054906101000a900473ffffffffffffffffffffffffffffffffffffffff16905081600760006101000a81548173ffffffffffffffffffffffffffffffffffffffff021916908373ffffffffffffffffffffffffffffffffffffffff1602179055508173ffffffffffffffffffffffffffffffffffffffff168173ffffffffffffffffffffffffffffffffffffffff167f8be0079c531659141344cd1fd0a4f28419497f9722a3daafe3b4186f6b6457e060405160405180910390a35050565b6000600982604051612bd59190614936565b908152602001604051809103902060009054906101000a900460ff169050919050565b6001600982604051612c0a9190614936565b908152602001604051809103902060006101000a81548160ff02191690831515021790555050565b600073ffffffffffffffffffffffffffffffffffffffff168273ffffffffffffffffffffffffffffffffffffffff1603612ca357816040517f5b08ba18000000000000000000000000000000000000000000000000000000008152600401612c9a919061393f565b60405180910390fd5b80600560008573ffffffffffffffffffffffffffffffffffffffff1673ffffffffffffffffffffffffffffffffffffffff16815260200190815260200160002060008473ffffffffffffffffffffffffffffffffffffffff1673ffffffffffffffffffffffffffffffffffffffff16815260200190815260200160002060006101000a81548160ff0219169083151502179055508173ffffffffffffffffffffffffffffffffffffffff168373ffffffffffffffffffffffffffffffffffffffff167f17307eab39ab6107e8899845ad3d59bd9653f200f220920489ca2b5937696c3183604051612d9491906139fa565b60405180910390a3505050565b60008373ffffffffffffffffffffffffffffffffffffffff163b1115612f52578273ffffffffffffffffffffffffffffffffffffffff1663150b7a02612de5612580565b8685856040518563ffffffff1660e01b8152600401612e079493929190614dfe565b6020604051808303816000875af1925050508015612e4357506040513d601f19601f82011682018060405250810190612e409190614e5f565b60015b612ec7573d8060008114612e73576040519150601f19603f3d011682016040523d82523d6000602084013e612e78565b606091505b506000815103612ebf57836040517f64a0ae92000000000000000000000000000000000000000000000000000000008152600401612eb6919061393f565b60405180910390fd5b805181602001fd5b63150b7a0260e01b7bffffffffffffffffffffffffffffffffffffffffffffffffffffffff1916817bffffffffffffffffffffffffffffffffffffffffffffffffffffffff191614612f5057836040517f64a0ae92000000000000000000000000000000000000000000000000000000008152600401612f47919061393f565b60405180910390fd5b505b50505050565b6060612f63826124bb565b506000600660008481526020019081526020016000208054612f84906145d9565b80601f0160208091040260200160405190810160405280929190818152602001828054612fb0906145d9565b8015612ffd5780601f10612fd257610100808354040283529160200191612ffd565b820191906000526020600020905b815481529060010190602001808311612fe057829003601f168201915b50505050509050600061300e613413565b90506000815103613023578192505050613066565b600082511115613058578082604051602001613040929190614e8c565b60405160208183030381529060405292505050613066565b6130618461342a565b925050505b919050565b60007f80ac58cd000000000000000000000000000000000000000000000000000000007bffffffffffffffffffffffffffffffffffffffffffffffffffffffff1916827bffffffffffffffffffffffffffffffffffffffffffffffffffffffff1916148061313657507f5b5e139f000000000000000000000000000000000000000000000000000000007bffffffffffffffffffffffffffffffffffffffffffffffffffffffff1916827bffffffffffffffffffffffffffffffffffffffffffffffffffffffff1916145b80613146575061314582613493565b5b9050919050565b60006002600083815260200190815260200160002060009054906101000a900473ffffffffffffffffffffffffffffffffffffffff169050919050565b80806131c35750600073ffffffffffffffffffffffffffffffffffffffff168273ffffffffffffffffffffffffffffffffffffffff1614155b156132f75760006131d3846124bb565b9050600073ffffffffffffffffffffffffffffffffffffffff168373ffffffffffffffffffffffffffffffffffffffff161415801561323e57508273ffffffffffffffffffffffffffffffffffffffff168173ffffffffffffffffffffffffffffffffffffffff1614155b8015613251575061324f8184611c7f565b155b1561329357826040517fa9fbf51f00000000000000000000000000000000000000000000000000000000815260040161328a919061393f565b60405180910390fd5b81156132f557838573ffffffffffffffffffffffffffffffffffffffff168273ffffffffffffffffffffffffffffffffffffffff167f8c5be1e5ebec7d5bd14f71427d1e84f3dd0314c0f7b2291e5b200ac8c7c3b92560405160405180910390a45b505b836004600085815260200190815260200160002060006101000a81548173ffffffffffffffffffffffffffffffffffffffff021916908373ffffffffffffffffffffffffffffffffffffffff16021790555050505050565b61335a8383836134fd565b61340e57600073ffffffffffffffffffffffffffffffffffffffff168373ffffffffffffffffffffffffffffffffffffffff16036133cf57806040517f7e2732890000000000000000000000000000000000000000000000000000000081526004016133c69190613a24565b60405180910390fd5b81816040517f177e802f000000000000000000000000000000000000000000000000000000008152600401613405929190614eb0565b60405180910390fd5b505050565b606060405180602001604052806000815250905090565b6060613435826124bb565b506000613440613413565b90506000815111613460576040518060200160405280600081525061348b565b8061346a846135be565b60405160200161347b929190614e8c565b6040516020818303038152906040525b915050919050565b60007f01ffc9a7000000000000000000000000000000000000000000000000000000007bffffffffffffffffffffffffffffffffffffffffffffffffffffffff1916827bffffffffffffffffffffffffffffffffffffffffffffffffffffffff1916149050919050565b60008073ffffffffffffffffffffffffffffffffffffffff168373ffffffffffffffffffffffffffffffffffffffff16141580156135b557508273ffffffffffffffffffffffffffffffffffffffff168473ffffffffffffffffffffffffffffffffffffffff16148061357657506135758484611c7f565b5b806135b457508273ffffffffffffffffffffffffffffffffffffffff1661359c83612543565b73ffffffffffffffffffffffffffffffffffffffff16145b5b90509392505050565b6060600060016135cd8461368c565b01905060008167ffffffffffffffff8111156135ec576135eb613d91565b5b6040519080825280601f01601f19166020018201604052801561361e5781602001600182028036833780820191505090505b509050600082602001820190505b600115613681578080600190039150507f3031323334353637383961626364656600000000000000000000000000000000600a86061a8153600a858161367557613674614ed9565b5b0494506000850361362c575b819350505050919050565b600080600090507a184f03e93ff9f4daa797ed6e38ed64bf6a1f01000000000000000083106136ea577a184f03e93ff9f4daa797ed6e38ed64bf6a1f01000000000000000083816136e0576136df614ed9565b5b0492506040810190505b6d04ee2d6d415b85acef81000000008310613727576d04ee2d6d415b85acef8100000000838161371d5761371c614ed9565b5b0492506020810190505b662386f26fc10000831061375657662386f26fc10000838161374c5761374b614ed9565b5b0492506010810190505b6305f5e100831061377f576305f5e100838161377557613774614ed9565b5b0492506008810190505b61271083106137a457612710838161379a57613799614ed9565b5b0492506004810190505b606483106137c757606483816137bd576137bc614ed9565b5b0492506002810190505b600a83106137d6576001810190505b80915050919050565b6040518060800160405280600073ffffffffffffffffffffffffffffffffffffffff1681526020016060815260200160608152602001606081525090565b828054828255906000526020600020908101928215613859579160200282015b8281111561385857825182559160200191906001019061383d565b5b509050613866919061386a565b5090565b5b8082111561388357600081600090555060010161386b565b5090565b6000604051905090565b600080fd5b600080fd5b6000819050919050565b6138ae8161389b565b81146138b957600080fd5b50565b6000813590506138cb816138a5565b92915050565b6000602082840312156138e7576138e6613891565b5b60006138f5848285016138bc565b91505092915050565b600073ffffffffffffffffffffffffffffffffffffffff82169050919050565b6000613929826138fe565b9050919050565b6139398161391e565b82525050565b60006020820190506139546000830184613930565b92915050565b60007fffffffff0000000000000000000000000000000000000000000000000000000082169050919050565b61398f8161395a565b811461399a57600080fd5b50565b6000813590506139ac81613986565b92915050565b6000602082840312156139c8576139c7613891565b5b60006139d68482850161399d565b91505092915050565b60008115159050919050565b6139f4816139df565b82525050565b6000602082019050613a0f60008301846139eb565b92915050565b613a1e8161389b565b82525050565b6000602082019050613a396000830184613a15565b92915050565b600081519050919050565b600082825260208201905092915050565b60005b83811015613a79578082015181840152602081019050613a5e565b60008484015250505050565b6000601f19601f8301169050919050565b6000613aa182613a3f565b613aab8185613a4a565b9350613abb818560208601613a5b565b613ac481613a85565b840191505092915050565b60006020820190508181036000830152613ae98184613a96565b905092915050565b613afa8161391e565b8114613b0557600080fd5b50565b600081359050613b1781613af1565b92915050565b60008060408385031215613b3457613b33613891565b5b6000613b4285828601613b08565b9250506020613b53858286016138bc565b9150509250929050565b600060208284031215613b7357613b72613891565b5b6000613b8184828501613b08565b91505092915050565b600080600060608486031215613ba357613ba2613891565b5b6000613bb186828701613b08565b9350506020613bc286828701613b08565b9250506040613bd3868287016138bc565b9150509250925092565b613be68161391e565b82525050565b600082825260208201905092915050565b6000613c0882613a3f565b613c128185613bec565b9350613c22818560208601613a5b565b613c2b81613a85565b840191505092915050565b600081519050919050565b600082825260208201905092915050565b6000819050602082019050919050565b613c6b8161389b565b82525050565b6000613c7d8383613c62565b60208301905092915050565b6000602082019050919050565b6000613ca182613c36565b613cab8185613c41565b9350613cb683613c52565b8060005b83811015613ce7578151613cce8882613c71565b9750613cd983613c89565b925050600181019050613cba565b5085935050505092915050565b6000608083016000830151613d0c6000860182613bdd565b5060208301518482036020860152613d248282613bfd565b91505060408301518482036040860152613d3e8282613bfd565b91505060608301518482036060860152613d588282613c96565b9150508091505092915050565b60006020820190508181036000830152613d7f8184613cf4565b905092915050565b600080fd5b600080fd5b7f4e487b7100000000000000000000000000000000000000000000000000000000600052604160045260246000fd5b613dc982613a85565b810181811067ffffffffffffffff82111715613de857613de7613d91565b5b80604052505050565b6000613dfb613887565b9050613e078282613dc0565b919050565b600067ffffffffffffffff821115613e2757613e26613d91565b5b613e3082613a85565b9050602081019050919050565b82818337600083830152505050565b6000613e5f613e5a84613e0c565b613df1565b905082815260208101848484011115613e7b57613e7a613d8c565b5b613e86848285613e3d565b509392505050565b600082601f830112613ea357613ea2613d87565b5b8135613eb3848260208601613e4c565b91505092915050565b60008060408385031215613ed357613ed2613891565b5b6000613ee185828601613b08565b925050602083013567ffffffffffffffff811115613f0257613f01613896565b5b613f0e85828601613e8e565b9150509250929050565b600060208284031215613f2e57613f2d613891565b5b600082013567ffffffffffffffff811115613f4c57613f4b613896565b5b613f5884828501613e8e565b91505092915050565b6000608082019050613f766000830187613930565b613f836020830186613930565b8181036040830152613f958185613a96565b9050613fa460608301846139eb565b95945050505050565b600080600060608486031215613fc657613fc5613891565b5b6000613fd486828701613b08565b935050602084013567ffffffffffffffff811115613ff557613ff4613896565b5b61400186828701613e8e565b925050604084013567ffffffffffffffff81111561402257614021613896565b5b61402e86828701613e8e565b9150509250925092565b6000806040838503121561404f5761404e613891565b5b600083013567ffffffffffffffff81111561406d5761406c613896565b5b61407985828601613e8e565b925050602061408a858286016138bc565b9150509250929050565b61409d816139df565b81146140a857600080fd5b50565b6000813590506140ba81614094565b92915050565b600080604083850312156140d7576140d6613891565b5b60006140e585828601613b08565b92505060206140f6858286016140ab565b9150509250929050565b600067ffffffffffffffff82111561411b5761411a613d91565b5b61412482613a85565b9050602081019050919050565b600061414461413f84614100565b613df1565b9050828152602081018484840111156141605761415f613d8c565b5b61416b848285613e3d565b509392505050565b600082601f83011261418857614187613d87565b5b8135614198848260208601614131565b91505092915050565b600080600080608085870312156141bb576141ba613891565b5b60006141c987828801613b08565b94505060206141da87828801613b08565b93505060406141eb878288016138bc565b925050606085013567ffffffffffffffff81111561420c5761420b613896565b5b61421887828801614173565b91505092959194509250565b600081519050919050565b600082825260208201905092915050565b6000819050602082019050919050565b600061425c8383613bfd565b905092915050565b6000602082019050919050565b600061427c82614224565b614286818561422f565b93508360208202850161429885614240565b8060005b858110156142d457848403895281516142b58582614250565b94506142c083614264565b925060208a0199505060018101905061429c565b50829750879550505050505092915050565b600060208201905081810360008301526143008184614271565b905092915050565b6000806040838503121561431f5761431e613891565b5b600061432d85828601613b08565b925050602061433e85828601613b08565b9150509250929050565b600081519050919050565b600082825260208201905092915050565b6000819050602082019050919050565b600060808301600083015161438c6000860182613bdd565b50602083015184820360208601526143a48282613bfd565b915050604083015184820360408601526143be8282613bfd565b915050606083015184820360608601526143d88282613c96565b9150508091505092915050565b60006143f18383614374565b905092915050565b6000602082019050919050565b600061441182614348565b61441b8185614353565b93508360208202850161442d85614364565b8060005b85811015614469578484038952815161444a85826143e5565b9450614455836143f9565b925060208a01995050600181019050614431565b50829750879550505050505092915050565b600060208201905081810360008301526144958184614406565b905092915050565b600080604083850312156144b4576144b3613891565b5b600083013567ffffffffffffffff8111156144d2576144d1613896565b5b6144de85828601613e8e565b92505060206144ef85828601613b08565b9150509250929050565b600060608201905061450e6000830186613930565b81810360208301526145208185613a96565b905081810360408301526145348184613a96565b9050949350505050565b7f546f6b656e20646f6573206e6f74206578697374000000000000000000000000600082015250565b6000614574601483613a4a565b915061457f8261453e565b602082019050919050565b600060208201905081810360008301526145a381614567565b9050919050565b7f4e487b7100000000000000000000000000000000000000000000000000000000600052602260045260246000fd5b600060028204905060018216806145f157607f821691505b602082108103614604576146036145aa565b5b50919050565b600060608201905061461f6000830186613930565b61462c6020830185613a15565b6146396040830184613930565b949350505050565b7f506c6179657220646f65736e2774206578697374210000000000000000000000600082015250565b6000614677601583613a4a565b915061468282614641565b602082019050919050565b600060208201905081810360008301526146a68161466a565b9050919050565b7f4e487b7100000000000000000000000000000000000000000000000000000000600052603260045260246000fd5b7f4e65656420746f20706179207570210000000000000000000000000000000000600082015250565b6000614712600f83613a4a565b915061471d826146dc565b602082019050919050565b6000602082019050818103600083015261474181614705565b9050919050565b7f4e487b7100000000000000000000000000000000000000000000000000000000600052601160045260246000fd5b60006147828261389b565b91507fffffffffffffffffffffffffffffffffffffffffffffffffffffffffffffffff82036147b4576147b3614748565b5b600182019050919050565b7f5472616e736665722063616c6c6572206973206e6f74206f776e657200000000600082015250565b60006147f5601c83613a4a565b9150614800826147bf565b602082019050919050565b60006020820190508181036000830152614824816147e8565b9050919050565b60006148368261389b565b91506148418361389b565b925082820390508181111561485957614858614748565b5b92915050565b7f4e487b7100000000000000000000000000000000000000000000000000000000600052603160045260246000fd5b7f426174746c6520646f6573206e6f742065786973740000000000000000000000600082015250565b60006148c4601583613a4a565b91506148cf8261488e565b602082019050919050565b600060208201905081810360008301526148f3816148b7565b9050919050565b600081905092915050565b600061491082613a3f565b61491a81856148fa565b935061492a818560208601613a5b565b80840191505092915050565b60006149428284614905565b915081905092915050565b7f426174746c65206e616d6520616c726561647920657869737473000000000000600082015250565b6000614983601a83613a4a565b915061498e8261494d565b602082019050919050565b600060208201905081810360008301526149b281614976565b9050919050565b60008190508160005260206000209050919050565b60006020601f8301049050919050565b600082821b905092915050565b600060088302614a1b7fffffffffffffffffffffffffffffffffffffffffffffffffffffffffffffffff826149de565b614a2586836149de565b95508019841693508086168417925050509392505050565b6000819050919050565b6000614a62614a5d614a588461389b565b614a3d565b61389b565b9050919050565b6000819050919050565b614a7c83614a47565b614a90614a8882614a69565b8484546149eb565b825550505050565b600090565b614aa5614a98565b614ab0818484614a73565b505050565b5b81811015614ad457614ac9600082614a9d565b600181019050614ab6565b5050565b601f821115614b1957614aea816149b9565b614af3846149ce565b81016020851015614b02578190505b614b16614b0e856149ce565b830182614ab5565b50505b505050565b600082821c905092915050565b6000614b3c60001984600802614b1e565b1980831691505092915050565b6000614b558383614b2b565b9150826002028217905092915050565b614b6e82613a3f565b67ffffffffffffffff811115614b8757614b86613d91565b5b614b9182546145d9565b614b9c828285614ad8565b600060209050601f831160018114614bcf5760008415614bbd578287015190505b614bc78582614b49565b865550614c2f565b601f198416614bdd866149b9565b60005b82811015614c0557848901518255600182019150602085019450602081019050614be0565b86831015614c225784890151614c1e601f891682614b2b565b8355505b6001600288020188555050505b505050505050565b7f506c6179657220616c7265616479207265676973746572656400000000000000600082015250565b6000614c6d601983613a4a565b9150614c7882614c37565b602082019050919050565b60006020820190508181036000830152614c9c81614c60565b9050919050565b60008154614cb0816145d9565b614cba81866148fa565b94506001821660008114614cd55760018114614cea57614d1d565b60ff1983168652811515820286019350614d1d565b614cf3856149b9565b60005b83811015614d1557815481890152600182019150602081019050614cf6565b838801955050505b50505092915050565b6000614d328284614ca3565b915081905092915050565b7f426174746c6520616c7265616479206a6f696e65640000000000000000000000600082015250565b6000614d73601583613a4a565b9150614d7e82614d3d565b602082019050919050565b60006020820190508181036000830152614da281614d66565b9050919050565b600081519050919050565b600082825260208201905092915050565b6000614dd082614da9565b614dda8185614db4565b9350614dea818560208601613a5b565b614df381613a85565b840191505092915050565b6000608082019050614e136000830187613930565b614e206020830186613930565b614e2d6040830185613a15565b8181036060830152614e3f8184614dc5565b905095945050505050565b600081519050614e5981613986565b92915050565b600060208284031215614e7557614e74613891565b5b6000614e8384828501614e4a565b91505092915050565b6000614e988285614905565b9150614ea48284614905565b91508190509392505050565b6000604082019050614ec56000830185613930565b614ed26020830184613a15565b9392505050565b7f4e487b7100000000000000000000000000000000000000000000000000000000600052601260045260246000fdfea26469706673582212202000e5d48bf9a899d1282e5039c99c60cac5d7ba8d20f0367296620802d4fd4064736f6c63430008180033",
  "linkReferences": {},
  "deployedLinkReferences": {}
}